{
  "_format": "hh-sol-artifact-1",
  "contractName": "ActivistRules",
  "sourceName": "contracts/ActivistRules.sol",
  "abi": [
    {
      "inputs": [
        {
          "internalType": "address",
          "name": "communityRulesAddress",
          "type": "address"
        },
        {
          "internalType": "address",
          "name": "activistPoolAddress",
          "type": "address"
        }
      ],
      "stateMutability": "nonpayable",
      "type": "constructor"
    },
    {
      "anonymous": false,
      "inputs": [
        {
          "indexed": true,
          "internalType": "address",
          "name": "activistAddress",
          "type": "address"
        },
        {
          "indexed": false,
          "internalType": "uint256",
          "name": "newLevel",
          "type": "uint256"
        },
        {
          "indexed": false,
          "internalType": "uint256",
          "name": "blockNumber",
          "type": "uint256"
        }
      ],
      "name": "ActivistLevelIncreased",
      "type": "event"
    },
    {
      "anonymous": false,
      "inputs": [
        {
          "indexed": true,
          "internalType": "address",
          "name": "activistAddress",
          "type": "address"
        },
        {
          "indexed": false,
          "internalType": "uint256",
          "name": "levelsRemoved",
          "type": "uint256"
        },
        {
          "indexed": false,
          "internalType": "uint256",
          "name": "newLevel",
          "type": "uint256"
        },
        {
          "indexed": false,
          "internalType": "uint256",
          "name": "blockNumber",
          "type": "uint256"
        }
      ],
      "name": "ActivistLevelRemoved",
      "type": "event"
    },
    {
      "anonymous": false,
      "inputs": [
        {
          "indexed": true,
          "internalType": "uint256",
          "name": "id",
          "type": "uint256"
        },
        {
          "indexed": true,
          "internalType": "address",
          "name": "activistAddress",
          "type": "address"
        },
        {
          "indexed": false,
          "internalType": "string",
          "name": "name",
          "type": "string"
        },
        {
          "indexed": false,
          "internalType": "uint256",
          "name": "blockNumber",
          "type": "uint256"
        }
      ],
      "name": "ActivistRegistered",
      "type": "event"
    },
    {
      "anonymous": false,
      "inputs": [
        {
          "indexed": true,
          "internalType": "address",
          "name": "activistAddress",
          "type": "address"
        },
        {
          "indexed": true,
          "internalType": "uint256",
          "name": "era",
          "type": "uint256"
        },
        {
          "indexed": false,
          "internalType": "uint256",
          "name": "blockNumber",
          "type": "uint256"
        }
      ],
      "name": "ActivistWithdrawalInitiated",
      "type": "event"
    },
    {
      "anonymous": false,
      "inputs": [
        {
          "indexed": true,
          "internalType": "address",
          "name": "activistAddress",
          "type": "address"
        },
        {
          "indexed": true,
          "internalType": "address",
          "name": "invitedUserAddress",
          "type": "address"
        },
        {
          "indexed": false,
          "internalType": "uint256",
          "name": "invitedUserTotalInspections",
          "type": "uint256"
        },
        {
          "indexed": false,
          "internalType": "uint256",
          "name": "blockNumber",
          "type": "uint256"
        }
      ],
      "name": "LevelWonFromInvitedUser",
      "type": "event"
    },
    {
      "anonymous": false,
      "inputs": [
        {
          "indexed": true,
          "internalType": "address",
          "name": "previousOwner",
          "type": "address"
        },
        {
          "indexed": true,
          "internalType": "address",
          "name": "newOwner",
          "type": "address"
        }
      ],
      "name": "OwnershipTransferred",
      "type": "event"
    },
    {
      "inputs": [],
      "name": "INITIAL_USER_COUNT_THRESHOLD",
      "outputs": [
        {
          "internalType": "uint256",
          "name": "",
          "type": "uint256"
        }
      ],
      "stateMutability": "view",
      "type": "function"
    },
    {
      "inputs": [],
      "name": "MAX_USER_COUNT",
      "outputs": [
        {
          "internalType": "uint16",
          "name": "",
          "type": "uint16"
        }
      ],
      "stateMutability": "view",
      "type": "function"
    },
    {
      "inputs": [],
      "name": "MINIMUM_INSPECTIONS_TO_WON_POOL_LEVELS",
      "outputs": [
        {
          "internalType": "uint16",
          "name": "",
          "type": "uint16"
        }
      ],
      "stateMutability": "view",
      "type": "function"
    },
    {
      "inputs": [
        {
          "internalType": "uint256",
          "name": "",
          "type": "uint256"
        }
      ],
      "name": "activistsAddress",
      "outputs": [
        {
          "internalType": "address",
          "name": "",
          "type": "address"
        }
      ],
      "stateMutability": "view",
      "type": "function"
    },
    {
      "inputs": [
        {
          "internalType": "string",
          "name": "name",
          "type": "string"
        },
        {
          "internalType": "string",
          "name": "proofPhoto",
          "type": "string"
        }
      ],
      "name": "addActivist",
      "outputs": [],
      "stateMutability": "nonpayable",
      "type": "function"
    },
    {
      "inputs": [
        {
          "internalType": "address",
          "name": "inspectorAddress",
          "type": "address"
        },
        {
          "internalType": "uint256",
          "name": "inspectorTotalInspections",
          "type": "uint256"
        }
      ],
      "name": "addInspectorLevel",
      "outputs": [],
      "stateMutability": "nonpayable",
      "type": "function"
    },
    {
      "inputs": [
        {
          "internalType": "address",
          "name": "regeneratorAddress",
          "type": "address"
        },
        {
          "internalType": "uint256",
          "name": "regeneratorTotalInspections",
          "type": "uint256"
        }
      ],
      "name": "addRegeneratorLevel",
      "outputs": [],
      "stateMutability": "nonpayable",
      "type": "function"
    },
    {
      "inputs": [
        {
          "internalType": "address",
          "name": "",
          "type": "address"
        }
      ],
      "name": "allowedCallers",
      "outputs": [
        {
          "internalType": "bool",
          "name": "",
          "type": "bool"
        }
      ],
      "stateMutability": "view",
      "type": "function"
    },
    {
      "inputs": [],
      "name": "approvedInvites",
      "outputs": [
        {
          "internalType": "uint32",
          "name": "",
          "type": "uint32"
        }
      ],
      "stateMutability": "view",
      "type": "function"
    },
    {
      "inputs": [
        {
          "internalType": "uint256",
          "name": "totalLevels",
          "type": "uint256"
        },
        {
          "internalType": "uint256",
          "name": "totalUsers",
          "type": "uint256"
        },
        {
          "internalType": "uint256",
          "name": "userLevels",
          "type": "uint256"
        }
      ],
      "name": "canInvite",
      "outputs": [
        {
          "internalType": "bool",
          "name": "",
          "type": "bool"
        }
      ],
      "stateMutability": "pure",
      "type": "function"
    },
    {
      "inputs": [
        {
          "internalType": "address",
          "name": "addr",
          "type": "address"
        }
      ],
      "name": "canSendInvite",
      "outputs": [
        {
          "internalType": "bool",
          "name": "",
          "type": "bool"
        }
      ],
      "stateMutability": "view",
      "type": "function"
    },
    {
      "inputs": [
        {
          "internalType": "address",
          "name": "addr",
          "type": "address"
        }
      ],
      "name": "getActivist",
      "outputs": [
        {
          "components": [
            {
              "internalType": "uint64",
              "name": "id",
              "type": "uint64"
            },
            {
              "internalType": "address",
              "name": "activistWallet",
              "type": "address"
            },
            {
              "internalType": "string",
              "name": "name",
              "type": "string"
            },
            {
              "internalType": "string",
              "name": "proofPhoto",
              "type": "string"
            },
            {
              "components": [
                {
                  "internalType": "uint256",
                  "name": "level",
                  "type": "uint256"
                },
                {
                  "internalType": "uint256",
                  "name": "currentEra",
                  "type": "uint256"
                }
              ],
              "internalType": "struct Pool",
              "name": "pool",
              "type": "tuple"
            },
            {
              "internalType": "uint256",
              "name": "createdAt",
              "type": "uint256"
            }
          ],
          "internalType": "struct Activist",
          "name": "",
          "type": "tuple"
        }
      ],
      "stateMutability": "view",
      "type": "function"
    },
    {
      "inputs": [
        {
          "internalType": "address",
          "name": "caller",
          "type": "address"
        }
      ],
      "name": "isAllowedCaller",
      "outputs": [
        {
          "internalType": "bool",
          "name": "",
          "type": "bool"
        }
      ],
      "stateMutability": "view",
      "type": "function"
    },
    {
      "inputs": [
        {
          "internalType": "address",
          "name": "allowed",
          "type": "address"
        }
      ],
      "name": "newAllowedCaller",
      "outputs": [],
      "stateMutability": "nonpayable",
      "type": "function"
    },
    {
      "inputs": [],
      "name": "owner",
      "outputs": [
        {
          "internalType": "address",
          "name": "",
          "type": "address"
        }
      ],
      "stateMutability": "view",
      "type": "function"
    },
    {
      "inputs": [],
      "name": "poolCurrentEra",
      "outputs": [
        {
          "internalType": "uint256",
          "name": "",
          "type": "uint256"
        }
      ],
      "stateMutability": "view",
      "type": "function"
    },
    {
      "inputs": [
        {
          "internalType": "address",
          "name": "addr",
          "type": "address"
        },
        {
          "internalType": "uint256",
          "name": "levelsToRemove",
          "type": "uint256"
        }
      ],
      "name": "removePoolLevels",
      "outputs": [],
      "stateMutability": "nonpayable",
      "type": "function"
    },
    {
      "inputs": [],
      "name": "renounceOwnership",
      "outputs": [],
      "stateMutability": "nonpayable",
      "type": "function"
    },
    {
      "inputs": [
        {
          "internalType": "address",
          "name": "_inspectionRulesAddress",
          "type": "address"
        },
        {
          "internalType": "address",
          "name": "_validationRulesAddress",
          "type": "address"
        }
      ],
      "name": "setContractCall",
      "outputs": [],
      "stateMutability": "nonpayable",
      "type": "function"
    },
    {
      "inputs": [
        {
          "internalType": "address",
          "name": "newOwner",
          "type": "address"
        }
      ],
      "name": "transferOwnership",
      "outputs": [],
      "stateMutability": "nonpayable",
      "type": "function"
    },
    {
      "inputs": [],
      "name": "withdraw",
      "outputs": [],
      "stateMutability": "nonpayable",
      "type": "function"
    }
  ],
  "bytecode": "0x608060405234801561001057600080fd5b50604051611bd9380380611bd983398101604081905261002f916100da565b6100383361006e565b6001600255600780546001600160a01b039384166001600160a01b0319918216179091556008805492909316911617905561010d565b600080546001600160a01b038381166001600160a01b0319831681178455604051919092169283917f8be0079c531659141344cd1fd0a4f28419497f9722a3daafe3b4186f6b6457e09190a35050565b80516001600160a01b03811681146100d557600080fd5b919050565b600080604083850312156100ed57600080fd5b6100f6836100be565b9150610104602084016100be565b90509250929050565b611abd8061011c6000396000f3fe608060405234801561001057600080fd5b50600436106101365760003560e01c80637b334154116100b8578063a68012581161007c578063a6801258146102ae578063be9dc584146102da578063c77c1ce6146102f0578063e05cf15514610303578063f1a204ce1461013b578063f2fde38b1461030b57600080fd5b80637b334154146102075780638da5cb5b1461023a5780638f93716f1461025f5780639d3c50b2146102725780639eaf666f1461029b57600080fd5b8063430816aa116100ff578063430816aa1461019e5780635fbf8a69146101c357806362efeff7146101d65780636ec7053a146101f6578063715018a6146101ff57600080fd5b8062b2c9201461013b57806304521ca31461015057806318ad5c9a1461016357806320515231146101765780633ccfd60b14610196575b600080fd5b61014e61014936600461145c565b61031e565b005b61014e61015e366004611488565b6103f3565b61014e61017136600461145c565b610429565b61017e600381565b60405161ffff90911681526020015b60405180910390f35b61014e6105e4565b6003546101ae9063ffffffff1681565b60405163ffffffff909116815260200161018d565b61014e6101d1366004611564565b610841565b6101e96101e43660046115cb565b610b94565b60405161018d919061162e565b61017e613e8081565b61014e610d76565b61022a6102153660046115cb565b60016020526000908152604090205460ff1681565b604051901515815260200161018d565b6000546001600160a01b03165b6040516001600160a01b03909116815260200161018d565b61014e61026d3660046115cb565b610d88565b6102476102803660046116bb565b6006602052600090815260409020546001600160a01b031681565b61022a6102a93660046116d4565b610db7565b61022a6102bc3660046115cb565b6001600160a01b031660009081526001602052604090205460ff1690565b6102e2600581565b60405190815260200161018d565b61022a6102fe3660046115cb565b610dee565b6102e2611037565b61014e6103193660046115cb565b6110aa565b3360009081526001602052604090205460ff166103775760405162461bcd60e51b81526020600482015260126024820152712737ba1030b63637bbb2b21031b0b63632b960711b60448201526064015b60405180910390fd5b6009546001600160a01b03163381146103d25760405162461bcd60e51b815260206004820152601e60248201527f43616c6c6572206d7573742062652073797374656d20636f6e74726163740000604482015260640161036e565b6103da611123565b6103e4838361117a565b6103ee6001600255565b505050565b6103fb6112a3565b600980546001600160a01b039384166001600160a01b031991821617909155600a8054929093169116179055565b3360009081526001602052604090205460ff1661047d5760405162461bcd60e51b81526020600482015260126024820152712737ba1030b63637bbb2b21031b0b63632b960711b604482015260640161036e565b600a546001600160a01b03163381146104d85760405162461bcd60e51b815260206004820152601e60248201527f43616c6c6572206d7573742062652073797374656d20636f6e74726163740000604482015260640161036e565b6104e0611123565b6001600160a01b038316600090815260046020526040902082610507576003810154610509565b825b60038201805460009061051d908490611716565b9091555050600854604051630c56ae4d60e11b81526001600160a01b03868116600483015260248201869052909116906318ad5c9a90604401600060405180830381600087803b15801561057057600080fd5b505af1158015610584573d6000803e3d6000fd5b505050600382015460408051868152602081019290925243908201526001600160a01b03861691507f91fb82506cd586644a295f8280b2511c9032bb1f360432516f881485c06e20309060600160405180910390a2506103ee6001600255565b6105ec611123565b600754604051631292f8c160e31b81526001600160a01b0390911690639497c6089061061f906006903390600401611751565b602060405180830381865afa15801561063c573d6000803e3d6000fd5b505050506040513d601f19601f820116820180604052508101906106609190611777565b6106a45760405162461bcd60e51b8152602060048201526015602482015274141bdbdb081bdb9b1e481d1bc81858dd1a5d9a5cdd605a1b604482015260640161036e565b33600090815260046020819052604091829020808201546008549351637df42f8360e11b8152928301819052909290916001600160a01b039091169063fbe85f0690602401602060405180830381865afa158015610706573d6000803e3d6000fd5b505050506040513d601f19601f8201168201806040525081019061072a9190611777565b6107845760405162461bcd60e51b815260206004820152602560248201527f4e6f7420656c696769626c6520746f20776974686472617720666f7220746869604482015264732065726160d81b606482015260840161036e565b61078f816001611799565b60048381019190915560085460405163f3fef3a360e01b81523392810192909252602482018390526001600160a01b03169063f3fef3a390604401600060405180830381600087803b1580156107e457600080fd5b505af11580156107f8573d6000803e3d6000fd5b50506040514381528392503391507fb81f4acc0377f571ab134a4bbbd3747583189d714f31efcea075ae6d4c1d72da9060200160405180910390a3505061083f6001600255565b565b815160321080159061085557508051609610155b6108925760405162461bcd60e51b815260206004820152600e60248201526d4d6178206368617261637465727360901b604482015260640161036e565b600754604051632f22dc7b60e01b8152613e80916001600160a01b031690632f22dc7b906108c5906006906004016117ac565b602060405180830381865afa1580156108e2573d6000803e3d6000fd5b505050506040513d601f19601f8201168201806040525081019061090691906117ba565b106109445760405162461bcd60e51b815260206004820152600e60248201526d13585e081d5cd95c881b1a5b5a5d60921b604482015260640161036e565b60075460405162f5960960e51b81526000916001600160a01b031690631eb2c12090610975906006906004016117ac565b602060405180830381865afa158015610992573d6000803e3d6000fd5b505050506040513d601f19601f820116820180604052508101906109b691906117d3565b6109c19060016117fc565b90506040518060c00160405280826001600160401b03168152602001336001600160a01b03168152602001848152602001838152602001604051806040016040528060008152602001610a12611037565b90528152436020918201523360009081526004825260409081902083518154938501516001600160a01b0316600160401b026001600160e01b03199094166001600160401b03909116179290921782558201516001820190610a7490826118a3565b5060608201516002820190610a8990826118a3565b5060808201518051600383015560209081015160048084019190915560a0909301516005909201919091556001600160401b038316600090815260069182905260409081902080546001600160a01b031916339081179091556007549151639c3eead960e01b81526001600160a01b039290921693639c3eead993610b1093909101611961565b600060405180830381600087803b158015610b2a57600080fd5b505af1158015610b3e573d6000803e3d6000fd5b50505050336001600160a01b0316816001600160401b03167f465f144a166d5efbf5d238fa355c743be298b6a91abf5e53628b9a87dacbe3c38543604051610b8792919061197e565b60405180910390a3505050565b610bdb6040805160c0810182526000808252602080830182905260608385018190528084015283518085019094528184528301529060808201908152602001600081525090565b6001600160a01b03808316600090815260046020908152604091829020825160c08101845281546001600160401b0381168252600160401b9004909416918401919091526001810180549192840191610c339061181b565b80601f0160208091040260200160405190810160405280929190818152602001828054610c5f9061181b565b8015610cac5780601f10610c8157610100808354040283529160200191610cac565b820191906000526020600020905b815481529060010190602001808311610c8f57829003601f168201915b50505050508152602001600282018054610cc59061181b565b80601f0160208091040260200160405190810160405280929190818152602001828054610cf19061181b565b8015610d3e5780601f10610d1357610100808354040283529160200191610d3e565b820191906000526020600020905b815481529060010190602001808311610d2157829003601f168201915b505050918352505060408051808201825260038401548152600484015460208281019190915283015260059092015491015292915050565b610d7e6112a3565b61083f60006112fd565b610d906112a3565b6001600160a01b03166000908152600160208190526040909120805460ff19169091179055565b600060058311610dc957506001610de7565b6000610dd584866119a0565b610de0906001611799565b8310159150505b9392505050565b6001600160a01b038082166000908152600460209081526040808320815160c08101835281546001600160401b0381168252600160401b9004909516928501929092526001820180549394859490939284019190610e4b9061181b565b80601f0160208091040260200160405190810160405280929190818152602001828054610e779061181b565b8015610ec45780601f10610e9957610100808354040283529160200191610ec4565b820191906000526020600020905b815481529060010190602001808311610ea757829003601f168201915b50505050508152602001600282018054610edd9061181b565b80601f0160208091040260200160405190810160405280929190818152602001828054610f099061181b565b8015610f565780601f10610f2b57610100808354040283529160200191610f56565b820191906000526020600020905b815481529060010190602001808311610f3957829003601f168201915b505050918352505060408051808201825260038401548152600484015460208281019190915283015260059092015491015280519091506001600160401b0316610fa35750600092915050565b60035460075460405162f5960960e51b8152610de79263ffffffff16916001600160a01b031690631eb2c12090610fdf906006906004016117ac565b602060405180830381865afa158015610ffc573d6000803e3d6000fd5b505050506040513d601f19601f8201168201806040525081019061102091906117d3565b6001600160401b0316836080015160000151610db7565b60085460408051637686fbcf60e11b815290516000926001600160a01b03169163ed0df79e9160048083019260209291908290030181865afa158015611081573d6000803e3d6000fd5b505050506040513d601f19601f820116820180604052508101906110a591906117ba565b905090565b6110b26112a3565b6001600160a01b0381166111175760405162461bcd60e51b815260206004820152602660248201527f4f776e61626c653a206e6577206f776e657220697320746865207a65726f206160448201526564647265737360d01b606482015260840161036e565b611120816112fd565b50565b60028054036111745760405162461bcd60e51b815260206004820152601f60248201527f5265656e7472616e637947756172643a207265656e7472616e742063616c6c00604482015260640161036e565b60028055565b60075460405163158bdc5f60e11b81526001600160a01b0384811660048301526000921690632b17b8be90602401608060405180830381865afa1580156111c5573d6000803e3d6000fd5b505050506040513d601f19601f820116820180604052508101906111e991906119c2565b6020808201516001600160a01b038082166000908152600584526040808220928916825291909352909120549192509060ff1615801561122a575060038310155b1561129d576001600160a01b0380821660009081526005602090815260408083209388168352929052908120805460ff191660011790556003805463ffffffff169161127583611a49565b91906101000a81548163ffffffff021916908363ffffffff1602179055505061129d8161134d565b50505050565b6000546001600160a01b0316331461083f5760405162461bcd60e51b815260206004820181905260248201527f4f776e61626c653a2063616c6c6572206973206e6f7420746865206f776e6572604482015260640161036e565b600080546001600160a01b038381166001600160a01b0319831681178455604051919092169283917f8be0079c531659141344cd1fd0a4f28419497f9722a3daafe3b4186f6b6457e09190a35050565b6001600160a01b0381166000908152600460205260408120805490916001600160401b03909116900361137e575050565b60038101805490600061139083611a6e565b90915550506008546040516352b8d3ed60e01b81526001600160a01b03848116600483015260016024830152909116906352b8d3ed90604401600060405180830381600087803b1580156113e357600080fd5b505af11580156113f7573d6000803e3d6000fd5b505050506003810154604080519182524360208301526001600160a01b038416917f36f15968a9f51192bb47c8eb232f2f6f1a17509d72befcb36e4963e541831f03910160405180910390a25050565b6001600160a01b038116811461112057600080fd5b6000806040838503121561146f57600080fd5b823561147a81611447565b946020939093013593505050565b6000806040838503121561149b57600080fd5b82356114a681611447565b915060208301356114b681611447565b809150509250929050565b634e487b7160e01b600052604160045260246000fd5b600082601f8301126114e857600080fd5b81356001600160401b03811115611501576115016114c1565b604051601f8201601f19908116603f011681016001600160401b038111828210171561152f5761152f6114c1565b60405281815283820160200185101561154757600080fd5b816020850160208301376000918101602001919091529392505050565b6000806040838503121561157757600080fd5b82356001600160401b0381111561158d57600080fd5b611599858286016114d7565b92505060208301356001600160401b038111156115b557600080fd5b6115c1858286016114d7565b9150509250929050565b6000602082840312156115dd57600080fd5b8135610de781611447565b6000815180845260005b8181101561160e576020818501810151868301820152016115f2565b506000602082860101526020601f19601f83011685010191505092915050565b602081526001600160401b03825116602082015260018060a01b0360208301511660408201526000604083015160e060608401526116706101008401826115e8565b90506060840151601f1984830301608085015261168d82826115e8565b9150506080840151805160a0850152602081015160c08501525060a084015160e08401528091505092915050565b6000602082840312156116cd57600080fd5b5035919050565b6000806000606084860312156116e957600080fd5b505081359360208301359350604090920135919050565b634e487b7160e01b600052601160045260246000fd5b8181038181111561172957611729611700565b92915050565b6009811061174d57634e487b7160e01b600052602160045260246000fd5b9052565b6040810161175f828561172f565b6001600160a01b039290921660209190910152919050565b60006020828403121561178957600080fd5b81518015158114610de757600080fd5b8082018082111561172957611729611700565b60208101611729828461172f565b6000602082840312156117cc57600080fd5b5051919050565b6000602082840312156117e557600080fd5b81516001600160401b0381168114610de757600080fd5b6001600160401b03818116838216019081111561172957611729611700565b600181811c9082168061182f57607f821691505b60208210810361184f57634e487b7160e01b600052602260045260246000fd5b50919050565b601f8211156103ee57806000526020600020601f840160051c8101602085101561187c5750805b601f840160051c820191505b8181101561189c5760008155600101611888565b5050505050565b81516001600160401b038111156118bc576118bc6114c1565b6118d0816118ca845461181b565b84611855565b6020601f82116001811461190457600083156118ec5750848201515b600019600385901b1c1916600184901b17845561189c565b600084815260208120601f198516915b828110156119345787850151825560209485019460019092019101611914565b50848210156119525786840151600019600387901b60f8161c191681555b50505050600190811b01905550565b6001600160a01b038316815260408101610de7602083018461172f565b60408152600061199160408301856115e8565b90508260208301529392505050565b6000826119bd57634e487b7160e01b600052601260045260246000fd5b500490565b600060808284031280156119d557600080fd5b50604051600090608081016001600160401b03811182821017156119fb576119fb6114c1565b6040528351611a0981611447565b81526020840151611a1981611447565b6020820152604084015160098110611a2f578283fd5b604082015260609384015193810193909352509092915050565b600063ffffffff821663ffffffff8103611a6557611a65611700565b60010192915050565b600060018201611a8057611a80611700565b506001019056fea26469706673582212200aa65cb9f4ee40898b0cbdf35b4f9d8eeab1ad8c9f8c454391d67ae5495d542064736f6c634300081b0033",
  "linkReferences": {},
  "deployedLinkReferences": {}
}