{
  "_format": "hh-sol-artifact-1",
  "contractName": "ActivistPool",
  "sourceName": "contracts/ActivistPool.sol",
  "abi": [
    {
      "inputs": [
        {
          "internalType": "address",
          "name": "regenerationCreditAddress",
          "type": "address"
        },
        {
          "internalType": "uint256",
          "name": "_halving",
          "type": "uint256"
        },
        {
          "internalType": "uint256",
          "name": "_blocksPerEra",
          "type": "uint256"
        }
      ],
      "stateMutability": "nonpayable",
      "type": "constructor"
    },
    {
      "inputs": [
        {
          "internalType": "address",
          "name": "owner",
          "type": "address"
        }
      ],
      "name": "OwnableInvalidOwner",
      "type": "error"
    },
    {
      "inputs": [
        {
          "internalType": "address",
          "name": "account",
          "type": "address"
        }
      ],
      "name": "OwnableUnauthorizedAccount",
      "type": "error"
    },
    {
      "inputs": [],
      "name": "ReentrancyGuardReentrantCall",
      "type": "error"
    },
    {
      "anonymous": false,
      "inputs": [
        {
          "indexed": true,
          "internalType": "address",
          "name": "previousOwner",
          "type": "address"
        },
        {
          "indexed": true,
          "internalType": "address",
          "name": "newOwner",
          "type": "address"
        }
      ],
      "name": "OwnershipTransferred",
      "type": "event"
    },
    {
      "anonymous": false,
      "inputs": [
        {
          "indexed": true,
          "internalType": "address",
          "name": "user",
          "type": "address"
        },
        {
          "indexed": false,
          "internalType": "uint256",
          "name": "era",
          "type": "uint256"
        },
        {
          "indexed": false,
          "internalType": "uint256",
          "name": "levelsAdded",
          "type": "uint256"
        },
        {
          "indexed": false,
          "internalType": "uint256",
          "name": "newTotalEraLevels",
          "type": "uint256"
        },
        {
          "indexed": false,
          "internalType": "uint256",
          "name": "newEraUserLevels",
          "type": "uint256"
        }
      ],
      "name": "PoolLevelAdded",
      "type": "event"
    },
    {
      "anonymous": false,
      "inputs": [
        {
          "indexed": true,
          "internalType": "address",
          "name": "user",
          "type": "address"
        },
        {
          "indexed": false,
          "internalType": "uint256",
          "name": "era",
          "type": "uint256"
        },
        {
          "indexed": false,
          "internalType": "uint256",
          "name": "levelsRemoved",
          "type": "uint256"
        },
        {
          "indexed": false,
          "internalType": "uint256",
          "name": "newTotalEraLevels",
          "type": "uint256"
        },
        {
          "indexed": false,
          "internalType": "uint256",
          "name": "newEraUserLevels",
          "type": "uint256"
        }
      ],
      "name": "PoolLevelRemoved",
      "type": "event"
    },
    {
      "anonymous": false,
      "inputs": [
        {
          "indexed": true,
          "internalType": "address",
          "name": "user",
          "type": "address"
        },
        {
          "indexed": false,
          "internalType": "uint256",
          "name": "era",
          "type": "uint256"
        },
        {
          "indexed": false,
          "internalType": "uint256",
          "name": "amount",
          "type": "uint256"
        }
      ],
      "name": "TokensWithdrawn",
      "type": "event"
    },
    {
      "inputs": [],
      "name": "BLOCKS_PRECISION",
      "outputs": [
        {
          "internalType": "uint256",
          "name": "",
          "type": "uint256"
        }
      ],
      "stateMutability": "view",
      "type": "function"
    },
    {
      "inputs": [],
      "name": "activistRulesAddress",
      "outputs": [
        {
          "internalType": "address",
          "name": "",
          "type": "address"
        }
      ],
      "stateMutability": "view",
      "type": "function"
    },
    {
      "inputs": [
        {
          "internalType": "address",
          "name": "addr",
          "type": "address"
        },
        {
          "internalType": "uint256",
          "name": "levels",
          "type": "uint256"
        },
        {
          "internalType": "bytes32",
          "name": "eventId",
          "type": "bytes32"
        }
      ],
      "name": "addLevel",
      "outputs": [],
      "stateMutability": "nonpayable",
      "type": "function"
    },
    {
      "inputs": [
        {
          "internalType": "address",
          "name": "",
          "type": "address"
        }
      ],
      "name": "allowedCallers",
      "outputs": [
        {
          "internalType": "bool",
          "name": "",
          "type": "bool"
        }
      ],
      "stateMutability": "view",
      "type": "function"
    },
    {
      "inputs": [
        {
          "internalType": "uint256",
          "name": "currentUserEra",
          "type": "uint256"
        }
      ],
      "name": "canWithdraw",
      "outputs": [
        {
          "internalType": "bool",
          "name": "",
          "type": "bool"
        }
      ],
      "stateMutability": "view",
      "type": "function"
    },
    {
      "inputs": [
        {
          "internalType": "uint256",
          "name": "currentUserEra",
          "type": "uint256"
        }
      ],
      "name": "canWithdrawTimes",
      "outputs": [
        {
          "internalType": "uint256",
          "name": "",
          "type": "uint256"
        }
      ],
      "stateMutability": "view",
      "type": "function"
    },
    {
      "inputs": [],
      "name": "currentContractEra",
      "outputs": [
        {
          "internalType": "uint256",
          "name": "",
          "type": "uint256"
        }
      ],
      "stateMutability": "view",
      "type": "function"
    },
    {
      "inputs": [],
      "name": "currentEpoch",
      "outputs": [
        {
          "internalType": "uint256",
          "name": "",
          "type": "uint256"
        }
      ],
      "stateMutability": "view",
      "type": "function"
    },
    {
      "inputs": [
        {
          "internalType": "uint256",
          "name": "",
          "type": "uint256"
        },
        {
          "internalType": "address",
          "name": "",
          "type": "address"
        }
      ],
      "name": "eraLevels",
      "outputs": [
        {
          "internalType": "uint256",
          "name": "",
          "type": "uint256"
        }
      ],
      "stateMutability": "view",
      "type": "function"
    },
    {
      "inputs": [
        {
          "internalType": "uint256",
          "name": "",
          "type": "uint256"
        },
        {
          "internalType": "address",
          "name": "",
          "type": "address"
        }
      ],
      "name": "eraTokens",
      "outputs": [
        {
          "internalType": "uint256",
          "name": "",
          "type": "uint256"
        }
      ],
      "stateMutability": "view",
      "type": "function"
    },
    {
      "inputs": [
        {
          "internalType": "uint256",
          "name": "",
          "type": "uint256"
        }
      ],
      "name": "eras",
      "outputs": [
        {
          "internalType": "uint256",
          "name": "claimsCount",
          "type": "uint256"
        },
        {
          "internalType": "uint256",
          "name": "tokens",
          "type": "uint256"
        },
        {
          "internalType": "uint256",
          "name": "levels",
          "type": "uint256"
        }
      ],
      "stateMutability": "view",
      "type": "function"
    },
    {
      "inputs": [
        {
          "internalType": "uint256",
          "name": "era",
          "type": "uint256"
        }
      ],
      "name": "getEpochForEra",
      "outputs": [
        {
          "internalType": "uint256",
          "name": "",
          "type": "uint256"
        }
      ],
      "stateMutability": "view",
      "type": "function"
    },
    {
      "inputs": [
        {
          "internalType": "uint256",
          "name": "era",
          "type": "uint256"
        }
      ],
      "name": "getEra",
      "outputs": [
        {
          "components": [
            {
              "internalType": "uint256",
              "name": "claimsCount",
              "type": "uint256"
            },
            {
              "internalType": "uint256",
              "name": "tokens",
              "type": "uint256"
            },
            {
              "internalType": "uint256",
              "name": "levels",
              "type": "uint256"
            }
          ],
          "internalType": "struct Era",
          "name": "",
          "type": "tuple"
        }
      ],
      "stateMutability": "view",
      "type": "function"
    },
    {
      "inputs": [
        {
          "internalType": "bytes32",
          "name": "",
          "type": "bytes32"
        }
      ],
      "name": "hasProcessedLevel",
      "outputs": [
        {
          "internalType": "bool",
          "name": "",
          "type": "bool"
        }
      ],
      "stateMutability": "view",
      "type": "function"
    },
    {
      "inputs": [
        {
          "internalType": "uint256",
          "name": "",
          "type": "uint256"
        },
        {
          "internalType": "address",
          "name": "",
          "type": "address"
        }
      ],
      "name": "hasWithdrawn",
      "outputs": [
        {
          "internalType": "bool",
          "name": "",
          "type": "bool"
        }
      ],
      "stateMutability": "view",
      "type": "function"
    },
    {
      "inputs": [
        {
          "internalType": "address",
          "name": "delegate",
          "type": "address"
        },
        {
          "internalType": "uint256",
          "name": "era",
          "type": "uint256"
        }
      ],
      "name": "haveTokensToWithdraw",
      "outputs": [
        {
          "internalType": "bool",
          "name": "",
          "type": "bool"
        }
      ],
      "stateMutability": "view",
      "type": "function"
    },
    {
      "inputs": [
        {
          "internalType": "address",
          "name": "caller",
          "type": "address"
        }
      ],
      "name": "isAllowedCaller",
      "outputs": [
        {
          "internalType": "bool",
          "name": "",
          "type": "bool"
        }
      ],
      "stateMutability": "view",
      "type": "function"
    },
    {
      "inputs": [
        {
          "internalType": "address",
          "name": "allowed",
          "type": "address"
        }
      ],
      "name": "newAllowedCaller",
      "outputs": [],
      "stateMutability": "nonpayable",
      "type": "function"
    },
    {
      "inputs": [
        {
          "internalType": "uint256",
          "name": "targetEra",
          "type": "uint256"
        }
      ],
      "name": "nextEraIn",
      "outputs": [
        {
          "internalType": "int256",
          "name": "",
          "type": "int256"
        }
      ],
      "stateMutability": "view",
      "type": "function"
    },
    {
      "inputs": [],
      "name": "owner",
      "outputs": [
        {
          "internalType": "address",
          "name": "",
          "type": "address"
        }
      ],
      "stateMutability": "view",
      "type": "function"
    },
    {
      "inputs": [],
      "name": "regenerationCredit",
      "outputs": [
        {
          "internalType": "contract IRegenerationCredit",
          "name": "",
          "type": "address"
        }
      ],
      "stateMutability": "view",
      "type": "function"
    },
    {
      "inputs": [
        {
          "internalType": "address",
          "name": "addr",
          "type": "address"
        },
        {
          "internalType": "bool",
          "name": "denied",
          "type": "bool"
        }
      ],
      "name": "removePoolLevels",
      "outputs": [],
      "stateMutability": "nonpayable",
      "type": "function"
    },
    {
      "inputs": [],
      "name": "renounceOwnership",
      "outputs": [],
      "stateMutability": "nonpayable",
      "type": "function"
    },
    {
      "inputs": [
        {
          "internalType": "address",
          "name": "_activistRulesAddress",
          "type": "address"
        }
      ],
      "name": "setContractCall",
      "outputs": [],
      "stateMutability": "nonpayable",
      "type": "function"
    },
    {
      "inputs": [
        {
          "internalType": "uint256",
          "name": "currentEpoch",
          "type": "uint256"
        }
      ],
      "name": "tokensPerEpoch",
      "outputs": [
        {
          "internalType": "uint256",
          "name": "",
          "type": "uint256"
        }
      ],
      "stateMutability": "view",
      "type": "function"
    },
    {
      "inputs": [
        {
          "internalType": "uint256",
          "name": "currentEpoch",
          "type": "uint256"
        },
        {
          "internalType": "uint256",
          "name": "halvingFactor",
          "type": "uint256"
        }
      ],
      "name": "tokensPerEra",
      "outputs": [
        {
          "internalType": "uint256",
          "name": "",
          "type": "uint256"
        }
      ],
      "stateMutability": "view",
      "type": "function"
    },
    {
      "inputs": [
        {
          "internalType": "address",
          "name": "newOwner",
          "type": "address"
        }
      ],
      "name": "transferOwnership",
      "outputs": [],
      "stateMutability": "nonpayable",
      "type": "function"
    },
    {
      "inputs": [
        {
          "internalType": "address",
          "name": "delegate",
          "type": "address"
        },
        {
          "internalType": "uint256",
          "name": "era",
          "type": "uint256"
        }
      ],
      "name": "withdraw",
      "outputs": [],
      "stateMutability": "nonpayable",
      "type": "function"
    }
  ],
  "bytecode": "0x61010060405234801561001157600080fd5b506040516116c33803806116c3833981016040819052610030916100fb565b6a211654585005212800000060805260a08190524360c05260e0829052338061007357604051631e4fbdf760e01b81526000600482015260240160405180910390fd5b61007c816100a9565b5050600160065550600780546001600160a01b0319166001600160a01b039290921691909117905561013e565b600480546001600160a01b038381166001600160a01b0319831681179093556040519116919082907f8be0079c531659141344cd1fd0a4f28419497f9722a3daafe3b4186f6b6457e090600090a35050565b60008060006060848603121561011057600080fd5b83516001600160a01b038116811461012757600080fd5b602085015160409095015190969495509392505050565b60805160a05160c05160e051611530610193600039600081816104de01526109060152600081816109d20152610a11015260008181610840015281816109a70152610a3d0152600061074201526115306000f3fe608060405234801561001057600080fd5b50600436106101c45760003560e01c8063861b4ce1116100f9578063b86c569911610097578063f2fde38b11610071578063f2fde38b14610465578063f3fef3a314610478578063fbe85f061461048b578063ff39043c1461049e57600080fd5b8063b86c569914610437578063d5ee3eb51461044a578063ed0df79e1461045d57600080fd5b80638da5cb5b116100d35780638da5cb5b146103b95780638f93716f146103ca57806394cec7a7146103dd578063a68012581461040b57600080fd5b8063861b4ce11461037357806388b3acae1461037b5780638bc91890146103a657600080fd5b806352f3bd7f11610166578063755d4f9711610140578063755d4f971461032257806376671808146103355780637721f1b51461033d5780637b3341541461035057600080fd5b806352f3bd7f146102ad578063715018a6146102d0578063720a70bd146102d857600080fd5b8063218f23ca116101a2578063218f23ca146102275780632506b9321461023a5780632eedcb181461024d5780632f9ed1ef1461028257600080fd5b80630f2dbe60146101c95780631f14f415146101f15780631f3451aa14610212575b600080fd5b6101dc6101d7366004611192565b6104c9565b60405190151581526020015b60405180910390f35b6102046101ff3660046111bc565b610510565b6040519081526020016101e8565b6102256102203660046111de565b610526565b005b61022561023536600461121f565b610671565b610204610248366004611256565b61072f565b61026061025b366004611256565b610766565b60408051825181526020808401519082015291810151908201526060016101e8565b600754610295906001600160a01b031681565b6040516001600160a01b0390911681526020016101e8565b6101dc6102bb366004611256565b60096020526000908152604090205460ff1681565b6102256107c1565b6103076102e6366004611256565b60006020819052908152604090208054600182015460029092015490919083565b604080519384526020840192909252908201526060016101e8565b61022561033036600461126f565b6107d5565b6102046107ff565b61020461034b366004611256565b610811565b6101dc61035e36600461126f565b60056020526000908152604090205460ff1681565b610204600581565b61020461038936600461128a565b600160209081526000928352604080842090915290825290205481565b600854610295906001600160a01b031681565b6004546001600160a01b0316610295565b6102256103d836600461126f565b610887565b6101dc6103eb36600461128a565b600360209081526000928352604080842090915290825290205460ff1681565b6101dc61041936600461126f565b6001600160a01b031660009081526005602052604090205460ff1690565b610204610445366004611256565b6108b3565b610204610458366004611256565b610945565b610204610a09565b61022561047336600461126f565b610a73565b610225610486366004611192565b610ab1565b6101dc610499366004611256565b610db6565b6102046104ac36600461128a565b600260209081526000928352604080842090915290825290205481565b600061050783836105026104dc866108b3565b7f0000000000000000000000000000000000000000000000000000000000000000610510565b610dc8565b90505b92915050565b60008161051c8461072f565b61050791906112cc565b3360009081526005602052604090205460ff1661055e5760405162461bcd60e51b8152600401610555906112ee565b60405180910390fd5b6008546001600160a01b03163381146105895760405162461bcd60e51b81526004016105559061131a565b610591610de1565b60018311156105d75760405162461bcd60e51b815260206004820152601260248201527145786365656473206d6178206c6576656c7360701b6044820152606401610555565b60008281526009602052604090205460ff16156106365760405162461bcd60e51b815260206004820152601760248201527f4576656e7420616c72656164792070726f6365737365640000000000000000006044820152606401610555565b6000828152600960205260409020805460ff19166001179055610661848461065c610a09565b610e0b565b61066b6001600655565b50505050565b3360009081526005602052604090205460ff166106a05760405162461bcd60e51b8152600401610555906112ee565b6008546001600160a01b03163381146106cb5760405162461bcd60e51b81526004016105559061131a565b6106d3610de1565b60006106dd610a09565b90506000836106ed576001610711565b60008281526001602090815260408083206001600160a01b03891684529091529020545b905061071e858383610ee1565b505061072a6001600655565b505050565b600061073c826002611438565b61050a907f00000000000000000000000000000000000000000000000000000000000000006112cc565b61078a60405180606001604052806000815260200160008152602001600081525090565b5060009081526020818152604091829020825160608101845281548152600182015492810192909252600201549181019190915290565b6107c9610ff1565b6107d3600061101e565b565b6107dd610ff1565b600880546001600160a01b0319166001600160a01b0392909216919091179055565b600061080c610445610a09565b905090565b60008061081d83610945565b905060008113156108315750600092915050565b600061083c82611444565b90507f000000000000000000000000000000000000000000000000000000000000000061086b6005600a611438565b6108759083611460565b61087f91906112cc565b949350505050565b61088f610ff1565b6001600160a01b03166000908152600560205260409020805460ff19166001179055565b60008082116109045760405162461bcd60e51b815260206004820152601a60248201527f457261206d7573742062652067726561746572207468616e20300000000000006044820152606401610555565b7f0000000000000000000000000000000000000000000000000000000000000000610930600184611477565b61093a91906112cc565b61050a90600161148a565b60008082116109a05760405162461bcd60e51b815260206004820152602160248201527f54617267657420657261206d7573742062652067726561746572207468616e206044820152600360fc1b6064820152608401610555565b60006109cc7f000000000000000000000000000000000000000000000000000000000000000084611460565b6109f6907f000000000000000000000000000000000000000000000000000000000000000061148a565b9050610a02438261149d565b9392505050565b600080610a367f000000000000000000000000000000000000000000000000000000000000000043611477565b9050610a627f0000000000000000000000000000000000000000000000000000000000000000826112cc565b610a6d90600161148a565b91505090565b610a7b610ff1565b6001600160a01b038116610aa557604051631e4fbdf760e01b815260006004820152602401610555565b610aae8161101e565b50565b3360009081526005602052604090205460ff16610ae05760405162461bcd60e51b8152600401610555906112ee565b6008546001600160a01b0316338114610b0b5760405162461bcd60e51b81526004016105559061131a565b81610b1581610db6565b610b595760405162461bcd60e51b8152602060048201526015602482015274165bdd4818d85b89dd08185c1c1c9bdd99481e595d605a1b6044820152606401610555565b60008381526003602090815260408083206001600160a01b03881684529091529020548390859060ff1615610bd05760405162461bcd60e51b815260206004820152601e60248201527f416c72656164792077697468647261776e20666f7220746869732065726100006044820152606401610555565b610bd8610de1565b610be0610a09565b851115610c235760405162461bcd60e51b815260206004820152601160248201527045726120696e207468652066757475726560781b6044820152606401610555565b60008581526003602090815260408083206001600160a01b038a1684529091528120805460ff19166001179055610c668688610c616104dc836108b3565b611070565b9050610c738688836110d6565b80600003610c815750610da4565b600754604051631caccb1d60e31b8152600481018390526001600160a01b039091169063e56658e890602401600060405180830381600087803b158015610cc757600080fd5b505af1158015610cdb573d6000803e3d6000fd5b505060075460405163a9059cbb60e01b81526001600160a01b038b811660048301526024820186905260009450909116915063a9059cbb906044016020604051808303816000875af1158015610d35573d6000803e3d6000fd5b505050506040513d601f19601f82011682018060405250810190610d5991906114c4565b905080610da15760405162461bcd60e51b8152602060048201526016602482015275115490cc8c0e881d1c985b9cd9995c8819985a5b195960521b6044820152606401610555565b50505b610dae6001600655565b505050505050565b6000610dc0610a09565b909110919050565b600080610dd6848685611070565b151595945050505050565b600260065403610e0457604051633ee5aeb560e01b815260040160405180910390fd5b6002600655565b600081815260208190526040902060020154610e2890839061148a565b60008281526020818152604080832060020193909355600181528282206001600160a01b038716835290529081208054849290610e6690849061148a565b909155505060008181526020818152604080832060020154600183528184206001600160a01b038816808652908452938290205482518681529384018790529183015260608201527ffc6907b3f86e1e63de43e8e6af6345e03bbc9726a0f63eddb4021532417f78b1906080015b60405180910390a2505050565b60008281526001602090815260408083206001600160a01b038716845290915281205490819003610f125750505050565b80821115610f1e578091505b60008381526020819052604081206002018054849290610f3f908490611477565b909155505060008381526001602090815260408083206001600160a01b038816845290915281208054849290610f76908490611477565b909155505060008381526020818152604080832060020154600183528184206001600160a01b038916808652908452938290205482518881529384018790529183015260608201527f8df21415d734537dcf01ffb77472049844f905c24abd54708d93555ea85239f99060800160405180910390a250505050565b6004546001600160a01b031633146107d35760405163118cdaa760e01b8152336004820152602401610555565b600480546001600160a01b038381166001600160a01b0319831681179093556040519116919082907f8be0079c531659141344cd1fd0a4f28419497f9722a3daafe3b4186f6b6457e090600090a35050565b60008381526020818152604080832060020154600183528184206001600160a01b03871685529092528220548015806110a7575081155b156110b757600092505050610a02565b816110c28583611460565b6110cc91906112cc565b9695505050505050565b60008381526020819052604081208054916110f0836114e1565b90915550506000838152602081905260408120600101805483929061111690849061148a565b909155505060008381526002602090815260408083206001600160a01b0386168085529083529281902084905580518681529182018490527fffe903c0abe6b2dbb2f3474ef43d7a3c1fca49e5a774453423ca8e1952aabffa9101610ed4565b80356001600160a01b038116811461118d57600080fd5b919050565b600080604083850312156111a557600080fd5b6111ae83611176565b946020939093013593505050565b600080604083850312156111cf57600080fd5b50508035926020909101359150565b6000806000606084860312156111f357600080fd5b6111fc84611176565b95602085013595506040909401359392505050565b8015158114610aae57600080fd5b6000806040838503121561123257600080fd5b61123b83611176565b9150602083013561124b81611211565b809150509250929050565b60006020828403121561126857600080fd5b5035919050565b60006020828403121561128157600080fd5b61050782611176565b6000806040838503121561129d57600080fd5b823591506112ad60208401611176565b90509250929050565b634e487b7160e01b600052601160045260246000fd5b6000826112e957634e487b7160e01b600052601260045260246000fd5b500490565b6020808252601290820152712737ba1030b63637bbb2b21031b0b63632b960711b604082015260600190565b6020808252601e908201527f43616c6c6572206d7573742062652073797374656d20636f6e74726163740000604082015260600190565b6001815b600184111561138c57808504811115611370576113706112b6565b600184161561137e57908102905b60019390931c928002611355565b935093915050565b6000826113a35750600161050a565b816113b05750600061050a565b81600181146113c657600281146113d0576113ec565b600191505061050a565b60ff8411156113e1576113e16112b6565b50506001821b61050a565b5060208310610133831016604e8410600b841016171561140f575081810a61050a565b61141c6000198484611351565b8060001904821115611430576114306112b6565b029392505050565b60006105078383611394565b6000600160ff1b8201611459576114596112b6565b5060000390565b808202811582820484141761050a5761050a6112b6565b8181038181111561050a5761050a6112b6565b8082018082111561050a5761050a6112b6565b81810360008312801583831316838312821617156114bd576114bd6112b6565b5092915050565b6000602082840312156114d657600080fd5b8151610a0281611211565b6000600182016114f3576114f36112b6565b506001019056fea2646970667358221220eff9c8d197b27fe6462bd1910b9d9805e9d809bfae1173ad07a99035022cb5c164736f6c634300081b0033",
  "linkReferences": {},
  "deployedLinkReferences": {}
}