{
  "_format": "hh-sol-artifact-1",
  "contractName": "ActivistRules",
  "sourceName": "contracts/ActivistRules.sol",
  "abi": [
    {
      "inputs": [
        {
          "internalType": "address",
          "name": "communityRulesAddress",
          "type": "address"
        },
        {
          "internalType": "address",
          "name": "activistPoolAddress",
          "type": "address"
        }
      ],
      "stateMutability": "nonpayable",
      "type": "constructor"
    },
    {
      "inputs": [
        {
          "internalType": "address",
          "name": "owner",
          "type": "address"
        }
      ],
      "name": "OwnableInvalidOwner",
      "type": "error"
    },
    {
      "inputs": [
        {
          "internalType": "address",
          "name": "account",
          "type": "address"
        }
      ],
      "name": "OwnableUnauthorizedAccount",
      "type": "error"
    },
    {
      "inputs": [],
      "name": "ReentrancyGuardReentrantCall",
      "type": "error"
    },
    {
      "anonymous": false,
      "inputs": [
        {
          "indexed": true,
          "internalType": "address",
          "name": "activistAddress",
          "type": "address"
        },
        {
          "indexed": false,
          "internalType": "uint256",
          "name": "newLevel",
          "type": "uint256"
        },
        {
          "indexed": false,
          "internalType": "uint256",
          "name": "blockNumber",
          "type": "uint256"
        }
      ],
      "name": "ActivistLevelIncreased",
      "type": "event"
    },
    {
      "anonymous": false,
      "inputs": [
        {
          "indexed": true,
          "internalType": "uint256",
          "name": "id",
          "type": "uint256"
        },
        {
          "indexed": true,
          "internalType": "address",
          "name": "activistAddress",
          "type": "address"
        },
        {
          "indexed": false,
          "internalType": "string",
          "name": "name",
          "type": "string"
        },
        {
          "indexed": false,
          "internalType": "uint256",
          "name": "blockNumber",
          "type": "uint256"
        }
      ],
      "name": "ActivistRegistered",
      "type": "event"
    },
    {
      "anonymous": false,
      "inputs": [
        {
          "indexed": true,
          "internalType": "address",
          "name": "activistAddress",
          "type": "address"
        },
        {
          "indexed": true,
          "internalType": "uint256",
          "name": "era",
          "type": "uint256"
        },
        {
          "indexed": false,
          "internalType": "uint256",
          "name": "blockNumber",
          "type": "uint256"
        }
      ],
      "name": "ActivistWithdrawalInitiated",
      "type": "event"
    },
    {
      "anonymous": false,
      "inputs": [
        {
          "indexed": true,
          "internalType": "address",
          "name": "previousOwner",
          "type": "address"
        },
        {
          "indexed": true,
          "internalType": "address",
          "name": "newOwner",
          "type": "address"
        }
      ],
      "name": "OwnershipTransferred",
      "type": "event"
    },
    {
      "inputs": [],
      "name": "INITIAL_USER_COUNT_THRESHOLD",
      "outputs": [
        {
          "internalType": "uint256",
          "name": "",
          "type": "uint256"
        }
      ],
      "stateMutability": "view",
      "type": "function"
    },
    {
      "inputs": [],
      "name": "MAX_USER_COUNT",
      "outputs": [
        {
          "internalType": "uint16",
          "name": "",
          "type": "uint16"
        }
      ],
      "stateMutability": "view",
      "type": "function"
    },
    {
      "inputs": [],
      "name": "MINIMUM_INSPECTIONS_TO_WON_POOL_LEVELS",
      "outputs": [
        {
          "internalType": "uint16",
          "name": "",
          "type": "uint16"
        }
      ],
      "stateMutability": "view",
      "type": "function"
    },
    {
      "inputs": [],
      "name": "activistPool",
      "outputs": [
        {
          "internalType": "contract IActivistPool",
          "name": "",
          "type": "address"
        }
      ],
      "stateMutability": "view",
      "type": "function"
    },
    {
      "inputs": [
        {
          "internalType": "uint256",
          "name": "",
          "type": "uint256"
        }
      ],
      "name": "activistsAddress",
      "outputs": [
        {
          "internalType": "address",
          "name": "",
          "type": "address"
        }
      ],
      "stateMutability": "view",
      "type": "function"
    },
    {
      "inputs": [
        {
          "internalType": "string",
          "name": "name",
          "type": "string"
        },
        {
          "internalType": "string",
          "name": "proofPhoto",
          "type": "string"
        }
      ],
      "name": "addActivist",
      "outputs": [],
      "stateMutability": "nonpayable",
      "type": "function"
    },
    {
      "inputs": [
        {
          "internalType": "address",
          "name": "inspectorAddress",
          "type": "address"
        },
        {
          "internalType": "uint256",
          "name": "inspectorTotalInspections",
          "type": "uint256"
        }
      ],
      "name": "addInspectorLevel",
      "outputs": [],
      "stateMutability": "nonpayable",
      "type": "function"
    },
    {
      "inputs": [
        {
          "internalType": "address",
          "name": "regeneratorAddress",
          "type": "address"
        },
        {
          "internalType": "uint256",
          "name": "regeneratorTotalInspections",
          "type": "uint256"
        }
      ],
      "name": "addRegeneratorLevel",
      "outputs": [],
      "stateMutability": "nonpayable",
      "type": "function"
    },
    {
      "inputs": [
        {
          "internalType": "address",
          "name": "",
          "type": "address"
        }
      ],
      "name": "allowedCallers",
      "outputs": [
        {
          "internalType": "bool",
          "name": "",
          "type": "bool"
        }
      ],
      "stateMutability": "view",
      "type": "function"
    },
    {
      "inputs": [],
      "name": "approvedInvites",
      "outputs": [
        {
          "internalType": "uint64",
          "name": "",
          "type": "uint64"
        }
      ],
      "stateMutability": "view",
      "type": "function"
    },
    {
      "inputs": [
        {
          "internalType": "uint256",
          "name": "totalLevels",
          "type": "uint256"
        },
        {
          "internalType": "uint256",
          "name": "totalUsers",
          "type": "uint256"
        },
        {
          "internalType": "uint256",
          "name": "userLevels",
          "type": "uint256"
        }
      ],
      "name": "canInvite",
      "outputs": [
        {
          "internalType": "bool",
          "name": "",
          "type": "bool"
        }
      ],
      "stateMutability": "pure",
      "type": "function"
    },
    {
      "inputs": [
        {
          "internalType": "address",
          "name": "addr",
          "type": "address"
        }
      ],
      "name": "canSendInvite",
      "outputs": [
        {
          "internalType": "bool",
          "name": "",
          "type": "bool"
        }
      ],
      "stateMutability": "view",
      "type": "function"
    },
    {
      "inputs": [],
      "name": "communityRules",
      "outputs": [
        {
          "internalType": "contract ICommunityRules",
          "name": "",
          "type": "address"
        }
      ],
      "stateMutability": "view",
      "type": "function"
    },
    {
      "inputs": [
        {
          "internalType": "address",
          "name": "addr",
          "type": "address"
        }
      ],
      "name": "getActivist",
      "outputs": [
        {
          "components": [
            {
              "internalType": "uint64",
              "name": "id",
              "type": "uint64"
            },
            {
              "internalType": "address",
              "name": "activistWallet",
              "type": "address"
            },
            {
              "internalType": "string",
              "name": "name",
              "type": "string"
            },
            {
              "internalType": "string",
              "name": "proofPhoto",
              "type": "string"
            },
            {
              "components": [
                {
                  "internalType": "uint256",
                  "name": "level",
                  "type": "uint256"
                },
                {
                  "internalType": "uint256",
                  "name": "currentEra",
                  "type": "uint256"
                }
              ],
              "internalType": "struct Pool",
              "name": "pool",
              "type": "tuple"
            },
            {
              "internalType": "uint256",
              "name": "createdAt",
              "type": "uint256"
            }
          ],
          "internalType": "struct Activist",
          "name": "",
          "type": "tuple"
        }
      ],
      "stateMutability": "view",
      "type": "function"
    },
    {
      "inputs": [],
      "name": "inspectionRulesAddress",
      "outputs": [
        {
          "internalType": "address",
          "name": "",
          "type": "address"
        }
      ],
      "stateMutability": "view",
      "type": "function"
    },
    {
      "inputs": [
        {
          "internalType": "address",
          "name": "caller",
          "type": "address"
        }
      ],
      "name": "isAllowedCaller",
      "outputs": [
        {
          "internalType": "bool",
          "name": "",
          "type": "bool"
        }
      ],
      "stateMutability": "view",
      "type": "function"
    },
    {
      "inputs": [
        {
          "internalType": "address",
          "name": "allowed",
          "type": "address"
        }
      ],
      "name": "newAllowedCaller",
      "outputs": [],
      "stateMutability": "nonpayable",
      "type": "function"
    },
    {
      "inputs": [],
      "name": "owner",
      "outputs": [
        {
          "internalType": "address",
          "name": "",
          "type": "address"
        }
      ],
      "stateMutability": "view",
      "type": "function"
    },
    {
      "inputs": [],
      "name": "poolCurrentEra",
      "outputs": [
        {
          "internalType": "uint256",
          "name": "",
          "type": "uint256"
        }
      ],
      "stateMutability": "view",
      "type": "function"
    },
    {
      "inputs": [
        {
          "internalType": "address",
          "name": "addr",
          "type": "address"
        }
      ],
      "name": "removePoolLevels",
      "outputs": [],
      "stateMutability": "nonpayable",
      "type": "function"
    },
    {
      "inputs": [],
      "name": "renounceOwnership",
      "outputs": [],
      "stateMutability": "nonpayable",
      "type": "function"
    },
    {
      "inputs": [
        {
          "internalType": "address",
          "name": "_inspectionRulesAddress",
          "type": "address"
        },
        {
          "internalType": "address",
          "name": "_validationRulesAddress",
          "type": "address"
        }
      ],
      "name": "setContractCall",
      "outputs": [],
      "stateMutability": "nonpayable",
      "type": "function"
    },
    {
      "inputs": [],
      "name": "totalActiveLevels",
      "outputs": [
        {
          "internalType": "uint256",
          "name": "",
          "type": "uint256"
        }
      ],
      "stateMutability": "view",
      "type": "function"
    },
    {
      "inputs": [
        {
          "internalType": "address",
          "name": "newOwner",
          "type": "address"
        }
      ],
      "name": "transferOwnership",
      "outputs": [],
      "stateMutability": "nonpayable",
      "type": "function"
    },
    {
      "inputs": [],
      "name": "validationRulesAddress",
      "outputs": [
        {
          "internalType": "address",
          "name": "",
          "type": "address"
        }
      ],
      "stateMutability": "view",
      "type": "function"
    },
    {
      "inputs": [],
      "name": "withdraw",
      "outputs": [],
      "stateMutability": "nonpayable",
      "type": "function"
    }
  ],
  "bytecode": "0x608060405234801561001057600080fd5b50604051611f3a380380611f3a83398101604081905261002f91610101565b338061005557604051631e4fbdf760e01b81526000600482015260240160405180910390fd5b61005e81610095565b506001600255600880546001600160a01b039384166001600160a01b03199182161790915560098054929093169116179055610134565b600080546001600160a01b038381166001600160a01b0319831681178455604051919092169283917f8be0079c531659141344cd1fd0a4f28419497f9722a3daafe3b4186f6b6457e09190a35050565b80516001600160a01b03811681146100fc57600080fd5b919050565b6000806040838503121561011457600080fd5b61011d836100e5565b915061012b602084016100e5565b90509250929050565b611df7806101436000396000f3fe608060405234801561001057600080fd5b506004361061018d5760003560e01c80638fbaf601116100de578063be9dc58411610097578063e05cf15511610071578063e05cf155146103a6578063f1a204ce146103ae578063f2fde38b146103c1578063f92f0f8e146103d457600080fd5b8063be9dc58414610378578063c77c1ce614610380578063ce59654a1461039357600080fd5b80638fbaf601146102d357806394a7444e146102e65780639d3c50b2146102fd5780639eaf666f14610326578063a680125814610339578063af420a9a1461036557600080fd5b80635fbf8a691161014b578063715018a611610125578063715018a6146102745780637b3341541461027c5780638da5cb5b146102af5780638f93716f146102c057600080fd5b80635fbf8a691461023857806362efeff71461024b5780636ec7053a1461026b57600080fd5b8062b2c9201461019257806304521ca3146101a757806320515231146101ba5780633974b345146101da5780633ccfd60b14610205578063430816aa1461020d575b600080fd5b6101a56101a036600461173f565b6103e7565b005b6101a56101b536600461176b565b61046b565b6101c2600381565b60405161ffff90911681526020015b60405180910390f35b600b546101ed906001600160a01b031681565b6040516001600160a01b0390911681526020016101d1565b6101a56104a1565b600354610220906001600160401b031681565b6040516001600160401b0390911681526020016101d1565b6101a5610246366004611847565b6106fa565b61025e6102593660046118ae565b610a4e565b6040516101d19190611911565b6101c2613e8081565b6101a5610c30565b61029f61028a3660046118ae565b60016020526000908152604090205460ff1681565b60405190151581526020016101d1565b6000546001600160a01b03166101ed565b6101a56102ce3660046118ae565b610c42565b600a546101ed906001600160a01b031681565b6102ef60045481565b6040519081526020016101d1565b6101ed61030b36600461199e565b6007602052600090815260409020546001600160a01b031681565b61029f6103343660046119b7565b610c71565b61029f6103473660046118ae565b6001600160a01b031660009081526001602052604090205460ff1690565b6009546101ed906001600160a01b031681565b6102ef600581565b61029f61038e3660046118ae565b610ca9565b6008546101ed906001600160a01b031681565b6102ef610ee1565b6101a56103bc36600461173f565b610f54565b6101a56103cf3660046118ae565b610fc0565b6101a56103e23660046118ae565b610ffe565b3360009081526001602052604090205460ff1661041f5760405162461bcd60e51b8152600401610416906119e3565b60405180910390fd5b600a546001600160a01b031633811461044a5760405162461bcd60e51b815260040161041690611a0f565b610452611108565b61045c8383611130565b6104666001600255565b505050565b610473611355565b600a80546001600160a01b039384166001600160a01b031991821617909155600b8054929093169116179055565b6104a9611108565b600854604051631292f8c160e31b81526001600160a01b0390911690639497c608906104dc906006903390600401611a68565b602060405180830381865afa1580156104f9573d6000803e3d6000fd5b505050506040513d601f19601f8201168201806040525081019061051d9190611a8e565b6105615760405162461bcd60e51b8152602060048201526015602482015274141bdbdb081bdb9b1e481d1bc81858dd1a5d9a5cdd605a1b6044820152606401610416565b33600090815260056020526040908190206004808201546009549351637df42f8360e11b815291820181905291926001600160a01b03169063fbe85f0690602401602060405180830381865afa1580156105bf573d6000803e3d6000fd5b505050506040513d601f19601f820116820180604052508101906105e39190611a8e565b61063d5760405162461bcd60e51b815260206004820152602560248201527f4e6f7420656c696769626c6520746f20776974686472617720666f7220746869604482015264732065726160d81b6064820152608401610416565b610648816001611ac6565b60048381019190915560095460405163f3fef3a360e01b81523392810192909252602482018390526001600160a01b03169063f3fef3a390604401600060405180830381600087803b15801561069d57600080fd5b505af11580156106b1573d6000803e3d6000fd5b50506040514381528392503391507fb81f4acc0377f571ab134a4bbbd3747583189d714f31efcea075ae6d4c1d72da9060200160405180910390a350506106f86001600255565b565b815160321080159061070e57508051609610155b61074b5760405162461bcd60e51b815260206004820152600e60248201526d4d6178206368617261637465727360901b6044820152606401610416565b600854604051632f22dc7b60e01b8152613e80916001600160a01b031690632f22dc7b9061077e90600690600401611adf565b602060405180830381865afa15801561079b573d6000803e3d6000fd5b505050506040513d601f19601f820116820180604052508101906107bf9190611aed565b106107fd5760405162461bcd60e51b815260206004820152600e60248201526d13585e081d5cd95c881b1a5b5a5d60921b6044820152606401610416565b60085460405162f5960960e51b81526000916001600160a01b031690631eb2c1209061082e90600690600401611adf565b602060405180830381865afa15801561084b573d6000803e3d6000fd5b505050506040513d601f19601f8201168201806040525081019061086f9190611b06565b61087a906001611b2f565b90506040518060c00160405280826001600160401b03168152602001336001600160a01b031681526020018481526020018381526020016040518060400160405280600081526020016108cb610ee1565b90528152436020918201523360009081526005825260409081902083518154938501516001600160a01b0316600160401b026001600160e01b03199094166001600160401b0390911617929092178255820151600182019061092d9082611bcf565b50606082015160028201906109429082611bcf565b5060808201518051600383015560209081015160048084019190915560a0909301516005909201919091556001600160401b0383166000908152600790915260409081902080546001600160a01b031916339081179091556008549151639c3eead960e01b81526001600160a01b039290921692639c3eead9926109ca929160069101611c8d565b600060405180830381600087803b1580156109e457600080fd5b505af11580156109f8573d6000803e3d6000fd5b50505050336001600160a01b0316816001600160401b03167f465f144a166d5efbf5d238fa355c743be298b6a91abf5e53628b9a87dacbe3c38543604051610a41929190611caa565b60405180910390a3505050565b610a956040805160c0810182526000808252602080830182905260608385018190528084015283518085019094528184528301529060808201908152602001600081525090565b6001600160a01b03808316600090815260056020908152604091829020825160c08101845281546001600160401b0381168252600160401b9004909416918401919091526001810180549192840191610aed90611b4e565b80601f0160208091040260200160405190810160405280929190818152602001828054610b1990611b4e565b8015610b665780601f10610b3b57610100808354040283529160200191610b66565b820191906000526020600020905b815481529060010190602001808311610b4957829003601f168201915b50505050508152602001600282018054610b7f90611b4e565b80601f0160208091040260200160405190810160405280929190818152602001828054610bab90611b4e565b8015610bf85780601f10610bcd57610100808354040283529160200191610bf8565b820191906000526020600020905b815481529060010190602001808311610bdb57829003601f168201915b505050918352505060408051808201825260038401548152600484015460208281019190915283015260059092015491015292915050565b610c38611355565b6106f86000611382565b610c4a611355565b6001600160a01b03166000908152600160208190526040909120805460ff19169091179055565b600082600003610c8357506000610ca2565b60058311610c9357506001610ca2565b83610c9e8484611ccc565b1190505b9392505050565b6001600160a01b038082166000908152600560209081526040808320815160c08101835281546001600160401b0381168252600160401b9004909516928501929092526001820180549394859490939284019190610d0690611b4e565b80601f0160208091040260200160405190810160405280929190818152602001828054610d3290611b4e565b8015610d7f5780601f10610d5457610100808354040283529160200191610d7f565b820191906000526020600020905b815481529060010190602001808311610d6257829003601f168201915b50505050508152602001600282018054610d9890611b4e565b80601f0160208091040260200160405190810160405280929190818152602001828054610dc490611b4e565b8015610e115780601f10610de657610100808354040283529160200191610e11565b820191906000526020600020905b815481529060010190602001808311610df457829003601f168201915b505050918352505060408051808201825260038401548152600484015460208281019190915283015260059092015491015280519091506001600160401b0316610e5e5750600092915050565b60048054600854604051632f22dc7b60e01b8152610ca2936001600160a01b0390921691632f22dc7b91610e959160069101611adf565b602060405180830381865afa158015610eb2573d6000803e3d6000fd5b505050506040513d601f19601f82011682018060405250810190610ed69190611aed565b608084015151610c71565b60095460408051637686fbcf60e11b815290516000926001600160a01b03169163ed0df79e9160048083019260209291908290030181865afa158015610f2b573d6000803e3d6000fd5b505050506040513d601f19601f82011682018060405250810190610f4f9190611aed565b905090565b3360009081526001602052604090205460ff16610f835760405162461bcd60e51b8152600401610416906119e3565b600a546001600160a01b0316338114610fae5760405162461bcd60e51b815260040161041690611a0f565b610fb6611108565b61045c83836113d2565b610fc8611355565b6001600160a01b038116610ff257604051631e4fbdf760e01b815260006004820152602401610416565b610ffb81611382565b50565b3360009081526001602052604090205460ff1661102d5760405162461bcd60e51b8152600401610416906119e3565b600b546001600160a01b03163381146110585760405162461bcd60e51b815260040161041690611a0f565b611060611108565b6001600160a01b038216600090815260056020526040812060030154600480549192909161108f908490611ce3565b90915550506009546040516310c791e560e11b81526001600160a01b038481166004830152600160248301529091169063218f23ca90604401600060405180830381600087803b1580156110e257600080fd5b505af11580156110f6573d6000803e3d6000fd5b505050506111046001600255565b5050565b600280540361112a57604051633ee5aeb560e01b815260040160405180910390fd5b60028055565b600854604051631292f8c160e31b81526001600160a01b0390911690639497c60890611163906001908690600401611a68565b602060405180830381865afa158015611180573d6000803e3d6000fd5b505050506040513d601f19601f820116820180604052508101906111a49190611a8e565b6111f05760405162461bcd60e51b815260206004820152601c60248201527f41646472657373206973206e6f74206120526567656e657261746f72000000006044820152606401610416565b60085460405163158bdc5f60e11b81526001600160a01b0384811660048301526000921690632b17b8be90602401608060405180830381865afa15801561123b573d6000803e3d6000fd5b505050506040513d601f19601f8201168201806040525081019061125f9190611cf6565b6020808201516001600160a01b038082166000908152600684526040808220928916825291909352909120549192509060ff161580156112a0575060038310155b1561134f576001600160a01b03818116600090815260066020908152604080832093881683529281528282208054600160ff1990911617905591517f61637469766973745f7265776172645f726567656e657261746f720000000000928101929092526bffffffffffffffffffffffff19606084811b8216603b85015287901b16604f830152906063015b60405160208183030381529060405280519060200120905061134d82826115d1565b505b50505050565b6000546001600160a01b031633146106f85760405163118cdaa760e01b8152336004820152602401610416565b600080546001600160a01b038381166001600160a01b0319831681178455604051919092169283917f8be0079c531659141344cd1fd0a4f28419497f9722a3daafe3b4186f6b6457e09190a35050565b600854604051631292f8c160e31b81526001600160a01b0390911690639497c60890611405906002908690600401611a68565b602060405180830381865afa158015611422573d6000803e3d6000fd5b505050506040513d601f19601f820116820180604052508101906114469190611a8e565b6114925760405162461bcd60e51b815260206004820152601a60248201527f41646472657373206973206e6f74206120496e73706563746f720000000000006044820152606401610416565b60085460405163158bdc5f60e11b81526001600160a01b0384811660048301526000921690632b17b8be90602401608060405180830381865afa1580156114dd573d6000803e3d6000fd5b505050506040513d601f19601f820116820180604052508101906115019190611cf6565b6020808201516001600160a01b038082166000908152600684526040808220928916825291909352909120549192509060ff16158015611542575060038310155b1561134f576001600160a01b03818116600090815260066020908152604080832093881683529281528282208054600160ff1990911617905591517f61637469766973745f7265776172645f696e73706563746f7200000000000000928101929092526bffffffffffffffffffffffff19606084811b8216603985015287901b16604d8301529060610161132b565b6001600160a01b0382166000908152600560205260408120805490916001600160401b03909116900361160357505050565b600380546001600160401b031690600061161c83611d7d565b91906101000a8154816001600160401b0302191690836001600160401b03160217905550506004600081548092919061165490611da8565b909155505060038101805490600061166b83611da8565b9091555050600954604051630f9a28d560e11b81526001600160a01b038581166004830152600160248301526044820185905290911690631f3451aa90606401600060405180830381600087803b1580156116c557600080fd5b505af11580156116d9573d6000803e3d6000fd5b505050506003810154604080519182524360208301526001600160a01b038516917f36f15968a9f51192bb47c8eb232f2f6f1a17509d72befcb36e4963e541831f03910160405180910390a2505050565b6001600160a01b0381168114610ffb57600080fd5b6000806040838503121561175257600080fd5b823561175d8161172a565b946020939093013593505050565b6000806040838503121561177e57600080fd5b82356117898161172a565b915060208301356117998161172a565b809150509250929050565b634e487b7160e01b600052604160045260246000fd5b600082601f8301126117cb57600080fd5b81356001600160401b038111156117e4576117e46117a4565b604051601f8201601f19908116603f011681016001600160401b0381118282101715611812576118126117a4565b60405281815283820160200185101561182a57600080fd5b816020850160208301376000918101602001919091529392505050565b6000806040838503121561185a57600080fd5b82356001600160401b0381111561187057600080fd5b61187c858286016117ba565b92505060208301356001600160401b0381111561189857600080fd5b6118a4858286016117ba565b9150509250929050565b6000602082840312156118c057600080fd5b8135610ca28161172a565b6000815180845260005b818110156118f1576020818501810151868301820152016118d5565b506000602082860101526020601f19601f83011685010191505092915050565b602081526001600160401b03825116602082015260018060a01b0360208301511660408201526000604083015160e060608401526119536101008401826118cb565b90506060840151601f1984830301608085015261197082826118cb565b9150506080840151805160a0850152602081015160c08501525060a084015160e08401528091505092915050565b6000602082840312156119b057600080fd5b5035919050565b6000806000606084860312156119cc57600080fd5b505081359360208301359350604090920135919050565b6020808252601290820152712737ba1030b63637bbb2b21031b0b63632b960711b604082015260600190565b6020808252601e908201527f43616c6c6572206d7573742062652073797374656d20636f6e74726163740000604082015260600190565b60088110611a6457634e487b7160e01b600052602160045260246000fd5b9052565b60408101611a768285611a46565b6001600160a01b039290921660209190910152919050565b600060208284031215611aa057600080fd5b81518015158114610ca257600080fd5b634e487b7160e01b600052601160045260246000fd5b80820180821115611ad957611ad9611ab0565b92915050565b60208101611ad98284611a46565b600060208284031215611aff57600080fd5b5051919050565b600060208284031215611b1857600080fd5b81516001600160401b0381168114610ca257600080fd5b6001600160401b038181168382160190811115611ad957611ad9611ab0565b600181811c90821680611b6257607f821691505b602082108103611b8257634e487b7160e01b600052602260045260246000fd5b50919050565b601f82111561046657806000526020600020601f840160051c81016020851015611baf5750805b601f840160051c820191505b8181101561134d5760008155600101611bbb565b81516001600160401b03811115611be857611be86117a4565b611bfc81611bf68454611b4e565b84611b88565b6020601f821160018114611c305760008315611c185750848201515b600019600385901b1c1916600184901b17845561134d565b600084815260208120601f198516915b82811015611c605787850151825560209485019460019092019101611c40565b5084821015611c7e5786840151600019600387901b60f8161c191681555b50505050600190811b01905550565b6001600160a01b038316815260408101610ca26020830184611a46565b604081526000611cbd60408301856118cb565b90508260208301529392505050565b8082028115828204841417611ad957611ad9611ab0565b81810381811115611ad957611ad9611ab0565b60006080828403128015611d0957600080fd5b50604051600090608081016001600160401b0381118282101715611d2f57611d2f6117a4565b6040528351611d3d8161172a565b81526020840151611d4d8161172a565b6020820152604084015160088110611d63578283fd5b604082015260609384015193810193909352509092915050565b60006001600160401b0382166001600160401b038103611d9f57611d9f611ab0565b60010192915050565b600060018201611dba57611dba611ab0565b506001019056fea2646970667358221220c9e64ca0e11697cba8421d6cc1dfe17535d2be582f0926d3eecd844eca5b37ad64736f6c634300081b0033",
  "linkReferences": {},
  "deployedLinkReferences": {}
}