{
  "_format": "hh-sol-artifact-1",
  "contractName": "CommunityRules",
  "sourceName": "contracts/CommunityRules.sol",
  "abi": [
    {
      "inputs": [
        {
          "internalType": "uint8",
          "name": "inspectorProportionality",
          "type": "uint8"
        },
        {
          "internalType": "uint8",
          "name": "activistProportionality",
          "type": "uint8"
        },
        {
          "internalType": "uint8",
          "name": "researcherProportionality",
          "type": "uint8"
        },
        {
          "internalType": "uint8",
          "name": "developerProportionality",
          "type": "uint8"
        },
        {
          "internalType": "uint8",
          "name": "contributorProportionality",
          "type": "uint8"
        }
      ],
      "stateMutability": "nonpayable",
      "type": "constructor"
    },
    {
      "anonymous": false,
      "inputs": [
        {
          "indexed": true,
          "internalType": "address",
          "name": "informer",
          "type": "address"
        },
        {
          "indexed": true,
          "internalType": "address",
          "name": "reported",
          "type": "address"
        }
      ],
      "name": "DelationAdded",
      "type": "event"
    },
    {
      "anonymous": false,
      "inputs": [
        {
          "indexed": true,
          "internalType": "address",
          "name": "addr",
          "type": "address"
        }
      ],
      "name": "DeniedUserEvent",
      "type": "event"
    },
    {
      "anonymous": false,
      "inputs": [
        {
          "indexed": true,
          "internalType": "address",
          "name": "inviter",
          "type": "address"
        },
        {
          "indexed": true,
          "internalType": "address",
          "name": "invited",
          "type": "address"
        },
        {
          "indexed": false,
          "internalType": "enum CommunityTypes.UserType",
          "name": "userTypeTo",
          "type": "uint8"
        }
      ],
      "name": "InvitationAdded",
      "type": "event"
    },
    {
      "anonymous": false,
      "inputs": [
        {
          "indexed": true,
          "internalType": "address",
          "name": "previousOwner",
          "type": "address"
        },
        {
          "indexed": true,
          "internalType": "address",
          "name": "newOwner",
          "type": "address"
        }
      ],
      "name": "OwnershipTransferred",
      "type": "event"
    },
    {
      "anonymous": false,
      "inputs": [
        {
          "indexed": true,
          "internalType": "address",
          "name": "addr",
          "type": "address"
        },
        {
          "indexed": false,
          "internalType": "enum CommunityTypes.UserType",
          "name": "userType",
          "type": "uint8"
        }
      ],
      "name": "UserRegistered",
      "type": "event"
    },
    {
      "inputs": [],
      "name": "SUPPORTER_INVITATION_DELAY_BLOCKS",
      "outputs": [
        {
          "internalType": "uint32",
          "name": "",
          "type": "uint32"
        }
      ],
      "stateMutability": "view",
      "type": "function"
    },
    {
      "inputs": [],
      "name": "VOTER_INVITATION_DELAY_BLOCKS",
      "outputs": [
        {
          "internalType": "uint32",
          "name": "",
          "type": "uint32"
        }
      ],
      "stateMutability": "view",
      "type": "function"
    },
    {
      "inputs": [
        {
          "internalType": "address",
          "name": "addr",
          "type": "address"
        },
        {
          "internalType": "string",
          "name": "title",
          "type": "string"
        },
        {
          "internalType": "string",
          "name": "testimony",
          "type": "string"
        }
      ],
      "name": "addDelation",
      "outputs": [],
      "stateMutability": "nonpayable",
      "type": "function"
    },
    {
      "inputs": [
        {
          "internalType": "address",
          "name": "inviter",
          "type": "address"
        },
        {
          "internalType": "address",
          "name": "invited",
          "type": "address"
        },
        {
          "internalType": "enum CommunityTypes.UserType",
          "name": "userType",
          "type": "uint8"
        }
      ],
      "name": "addInvitation",
      "outputs": [],
      "stateMutability": "nonpayable",
      "type": "function"
    },
    {
      "inputs": [
        {
          "internalType": "address",
          "name": "inviter",
          "type": "address"
        }
      ],
      "name": "addInviterPenalty",
      "outputs": [],
      "stateMutability": "nonpayable",
      "type": "function"
    },
    {
      "inputs": [
        {
          "internalType": "address",
          "name": "addr",
          "type": "address"
        },
        {
          "internalType": "enum CommunityTypes.UserType",
          "name": "userType",
          "type": "uint8"
        }
      ],
      "name": "addUser",
      "outputs": [],
      "stateMutability": "nonpayable",
      "type": "function"
    },
    {
      "inputs": [
        {
          "internalType": "address",
          "name": "",
          "type": "address"
        }
      ],
      "name": "allowedCallers",
      "outputs": [
        {
          "internalType": "bool",
          "name": "",
          "type": "bool"
        }
      ],
      "stateMutability": "view",
      "type": "function"
    },
    {
      "inputs": [],
      "name": "delationsCount",
      "outputs": [
        {
          "internalType": "uint64",
          "name": "",
          "type": "uint64"
        }
      ],
      "stateMutability": "view",
      "type": "function"
    },
    {
      "inputs": [
        {
          "internalType": "address",
          "name": "addr",
          "type": "address"
        }
      ],
      "name": "getInvitation",
      "outputs": [
        {
          "components": [
            {
              "internalType": "address",
              "name": "invited",
              "type": "address"
            },
            {
              "internalType": "address",
              "name": "inviter",
              "type": "address"
            },
            {
              "internalType": "enum CommunityTypes.UserType",
              "name": "userType",
              "type": "uint8"
            },
            {
              "internalType": "uint256",
              "name": "createdAtBlock",
              "type": "uint256"
            }
          ],
          "internalType": "struct CommunityTypes.Invitation",
          "name": "",
          "type": "tuple"
        }
      ],
      "stateMutability": "view",
      "type": "function"
    },
    {
      "inputs": [
        {
          "internalType": "address",
          "name": "addr",
          "type": "address"
        }
      ],
      "name": "getUser",
      "outputs": [
        {
          "internalType": "enum CommunityTypes.UserType",
          "name": "",
          "type": "uint8"
        }
      ],
      "stateMutability": "view",
      "type": "function"
    },
    {
      "inputs": [
        {
          "internalType": "address",
          "name": "addr",
          "type": "address"
        }
      ],
      "name": "getUserDelations",
      "outputs": [
        {
          "components": [
            {
              "internalType": "uint64",
              "name": "id",
              "type": "uint64"
            },
            {
              "internalType": "address",
              "name": "informer",
              "type": "address"
            },
            {
              "internalType": "address",
              "name": "reported",
              "type": "address"
            },
            {
              "internalType": "string",
              "name": "title",
              "type": "string"
            },
            {
              "internalType": "string",
              "name": "testimony",
              "type": "string"
            }
          ],
          "internalType": "struct CommunityTypes.Delation[]",
          "name": "",
          "type": "tuple[]"
        }
      ],
      "stateMutability": "view",
      "type": "function"
    },
    {
      "inputs": [
        {
          "internalType": "enum CommunityTypes.UserType",
          "name": "userType",
          "type": "uint8"
        }
      ],
      "name": "getUserTypeSettings",
      "outputs": [
        {
          "components": [
            {
              "internalType": "uint8",
              "name": "proportionalityOnRegister",
              "type": "uint8"
            },
            {
              "internalType": "bool",
              "name": "directProportionalityRegistration",
              "type": "bool"
            },
            {
              "internalType": "bool",
              "name": "needInvitationOnRegister",
              "type": "bool"
            },
            {
              "internalType": "uint32",
              "name": "invitationDelayBlocks",
              "type": "uint32"
            },
            {
              "internalType": "bool",
              "name": "isVoter",
              "type": "bool"
            }
          ],
          "internalType": "struct CommunityTypes.UserTypeSetting",
          "name": "",
          "type": "tuple"
        }
      ],
      "stateMutability": "view",
      "type": "function"
    },
    {
      "inputs": [
        {
          "internalType": "address",
          "name": "",
          "type": "address"
        }
      ],
      "name": "invitations",
      "outputs": [
        {
          "internalType": "address",
          "name": "invited",
          "type": "address"
        },
        {
          "internalType": "address",
          "name": "inviter",
          "type": "address"
        },
        {
          "internalType": "enum CommunityTypes.UserType",
          "name": "userType",
          "type": "uint8"
        },
        {
          "internalType": "uint256",
          "name": "createdAtBlock",
          "type": "uint256"
        }
      ],
      "stateMutability": "view",
      "type": "function"
    },
    {
      "inputs": [
        {
          "internalType": "address",
          "name": "",
          "type": "address"
        }
      ],
      "name": "inviterPenalties",
      "outputs": [
        {
          "internalType": "uint16",
          "name": "",
          "type": "uint16"
        }
      ],
      "stateMutability": "view",
      "type": "function"
    },
    {
      "inputs": [
        {
          "internalType": "address",
          "name": "caller",
          "type": "address"
        }
      ],
      "name": "isAllowedCaller",
      "outputs": [
        {
          "internalType": "bool",
          "name": "",
          "type": "bool"
        }
      ],
      "stateMutability": "view",
      "type": "function"
    },
    {
      "inputs": [
        {
          "internalType": "address",
          "name": "addr",
          "type": "address"
        }
      ],
      "name": "isVoter",
      "outputs": [
        {
          "internalType": "bool",
          "name": "",
          "type": "bool"
        }
      ],
      "stateMutability": "view",
      "type": "function"
    },
    {
      "inputs": [
        {
          "internalType": "address",
          "name": "allowed",
          "type": "address"
        }
      ],
      "name": "newAllowedCaller",
      "outputs": [],
      "stateMutability": "nonpayable",
      "type": "function"
    },
    {
      "inputs": [],
      "name": "owner",
      "outputs": [
        {
          "internalType": "address",
          "name": "",
          "type": "address"
        }
      ],
      "stateMutability": "view",
      "type": "function"
    },
    {
      "inputs": [],
      "name": "renounceOwnership",
      "outputs": [],
      "stateMutability": "nonpayable",
      "type": "function"
    },
    {
      "inputs": [
        {
          "internalType": "address",
          "name": "_invitationRulesAddress",
          "type": "address"
        },
        {
          "internalType": "address",
          "name": "_validationRulesAddress",
          "type": "address"
        }
      ],
      "name": "setContractCall",
      "outputs": [],
      "stateMutability": "nonpayable",
      "type": "function"
    },
    {
      "inputs": [
        {
          "internalType": "address",
          "name": "userAddress",
          "type": "address"
        }
      ],
      "name": "setDeniedType",
      "outputs": [],
      "stateMutability": "nonpayable",
      "type": "function"
    },
    {
      "inputs": [
        {
          "internalType": "address",
          "name": "newOwner",
          "type": "address"
        }
      ],
      "name": "transferOwnership",
      "outputs": [],
      "stateMutability": "nonpayable",
      "type": "function"
    },
    {
      "inputs": [
        {
          "internalType": "enum CommunityTypes.UserType",
          "name": "userType",
          "type": "uint8"
        },
        {
          "internalType": "address",
          "name": "userAddress",
          "type": "address"
        }
      ],
      "name": "userTypeIs",
      "outputs": [
        {
          "internalType": "bool",
          "name": "",
          "type": "bool"
        }
      ],
      "stateMutability": "view",
      "type": "function"
    },
    {
      "inputs": [
        {
          "internalType": "enum CommunityTypes.UserType",
          "name": "",
          "type": "uint8"
        }
      ],
      "name": "userTypeSettings",
      "outputs": [
        {
          "internalType": "uint8",
          "name": "proportionalityOnRegister",
          "type": "uint8"
        },
        {
          "internalType": "bool",
          "name": "directProportionalityRegistration",
          "type": "bool"
        },
        {
          "internalType": "bool",
          "name": "needInvitationOnRegister",
          "type": "bool"
        },
        {
          "internalType": "uint32",
          "name": "invitationDelayBlocks",
          "type": "uint32"
        },
        {
          "internalType": "bool",
          "name": "isVoter",
          "type": "bool"
        }
      ],
      "stateMutability": "view",
      "type": "function"
    },
    {
      "inputs": [
        {
          "internalType": "enum CommunityTypes.UserType",
          "name": "",
          "type": "uint8"
        }
      ],
      "name": "userTypesCount",
      "outputs": [
        {
          "internalType": "uint64",
          "name": "",
          "type": "uint64"
        }
      ],
      "stateMutability": "view",
      "type": "function"
    },
    {
      "inputs": [
        {
          "internalType": "enum CommunityTypes.UserType",
          "name": "",
          "type": "uint8"
        }
      ],
      "name": "userTypesTotalCount",
      "outputs": [
        {
          "internalType": "uint64",
          "name": "",
          "type": "uint64"
        }
      ],
      "stateMutability": "view",
      "type": "function"
    },
    {
      "inputs": [],
      "name": "usersCount",
      "outputs": [
        {
          "internalType": "uint64",
          "name": "",
          "type": "uint64"
        }
      ],
      "stateMutability": "view",
      "type": "function"
    },
    {
      "inputs": [],
      "name": "votersCount",
      "outputs": [
        {
          "internalType": "uint256",
          "name": "",
          "type": "uint256"
        }
      ],
      "stateMutability": "view",
      "type": "function"
    }
  ],
  "bytecode": "0x608060405234801561001057600080fd5b5060405161286138038061286183398101604081905261002f9161065c565b610038336105f6565b6040805160a080820183526000808352602080840182815284860183815260966060808801918252608080890187815260078852600880885299517f24cd397636bedc6cf9b490d0edd57c769c19b367fb7d5c2344ae1ddc7d21c1448054975196519551925115156701000000000000000260ff60381b1963ffffffff90941663010000000266ffffffff0000001997151562010000029790971666ffffffffff0000199815156101000261ffff19909a1660ff909416939093179890981796909616179390931792909216939093179091558651948501875283855291840183905260019584018690528301829052820181905290928152602080820192909252604090810160009081208451815486860151878601516060808a015160809a8b015115156701000000000000000260ff60381b1963ffffffff90921663010000000266ffffffff0000001994151562010000029490941666ffffffffff0000199515156101000261ffff1990971660ff98891617969096179490941694909417919091179290921617909255835160a081018552908b16815260019481018590529283019390935291810182905291820181905260089060026008811115610204576102046106c1565b8152602080820192909252604090810160009081208451815486860151878601516060808a015160809a8b015115156701000000000000000260ff60381b1963ffffffff90921663010000000266ffffffff0000001994151562010000029490941666ffffffffff0000199515156101000261ffff1990971660ff98891617969096179490941694909417919091179290921617909255835160a081018552908a1681529384018290526001928401839052620186a0908401529282015290600890600660088111156102d9576102d96106c1565b8152602080820192909252604090810160009081208451815486860151878601516060808a015160809a8b015115156701000000000000000260ff60381b1963ffffffff90921663010000000266ffffffff0000001994151562010000029490941666ffffffffff0000199515156101000261ffff1990971660ff98891617969096179490941694909417919091179290921617909255835160a08101855290891681529384018290526001928401839052620186a0908401529282015290600890600360088111156103ae576103ae6106c1565b8152602080820192909252604090810160009081208451815486860151878601516060808a015160809a8b015115156701000000000000000260ff60381b1963ffffffff90921663010000000266ffffffff0000001994151562010000029490941666ffffffffff0000199515156101000261ffff1990971660ff98891617969096179490941694909417919091179290921617909255835160a08101855290881681529384018290526001928401839052620186a090840152928201529060089060046008811115610483576104836106c1565b8152602080820192909252604090810160009081208451815486860151878601516060808a015160809a8b015115156701000000000000000260ff60381b1963ffffffff90921663010000000266ffffffff0000001994151562010000029490941666ffffffffff0000199515156101000261ffff1990971660ff98891617969096179490941694909417919091179290921617909255835160a08101855290871681529384018290526001928401839052620186a090840152928201529060089060056008811115610558576105586106c1565b81526020808201929092526040908101600020835181549385015192850151606086015160809096015115156701000000000000000260ff60381b1963ffffffff90971663010000000266ffffffff0000001992151562010000029290921666ffffffffff0000199515156101000261ffff1990971660ff909416939093179590951793909316179190911792909216179055506106d79350505050565b600080546001600160a01b038381166001600160a01b0319831681178455604051919092169283917f8be0079c531659141344cd1fd0a4f28419497f9722a3daafe3b4186f6b6457e09190a35050565b805160ff8116811461065757600080fd5b919050565b600080600080600060a0868803121561067457600080fd5b61067d86610646565b945061068b60208701610646565b935061069960408701610646565b92506106a760608701610646565b91506106b560808701610646565b90509295509295909350565b634e487b7160e01b600052602160045260246000fd5b61217b806106e66000396000f3fe608060405234801561001057600080fd5b50600436106101c45760003560e01c80638da5cb5b116100f9578063a1dcdb2211610097578063deffb90611610071578063deffb90614610597578063e202fa4d146105a1578063f2fde38b146105b4578063ff789095146105c757600080fd5b8063a1dcdb221461053b578063a680125814610558578063a7771ee31461058457600080fd5b80639497c608116100d35780639497c6081461049b5780639547f953146104ae57806398c07938146105125780639c3eead91461052857600080fd5b80638da5cb5b1461045a5780638f93716f14610475578063922201421461048857600080fd5b806358f43f76116101665780636f77926b116101405780636f77926b146103d3578063715018a61461040c5780637b334154146104145780637ccfdba71461044757600080fd5b806358f43f761461034f5780636101bf21146103a65780636ba13a82146103b957600080fd5b80631eb2c120116101a25780631eb2c1201461028e5780632115c634146102cf5780632b17b8be146103065780632f22dc7b1461032657600080fd5b806304521ca3146101c9578063064505ad146101de5780630ed4ea5e14610207575b600080fd5b6101dc6101d7366004611ab4565b6105da565b005b6101f16101ec366004611ae7565b610610565b6040516101fe9190611b4f565b60405180910390f35b610255610215366004611c21565b60086020526000908152604090205460ff80821691610100810482169162010000820481169163ffffffff630100000082041691600160381b9091041685565b6040805160ff909616865293151560208601529115159284019290925263ffffffff90911660608301521515608082015260a0016101fe565b6102b761029c366004611c21565b6007602052600090815260409020546001600160401b031681565b6040516001600160401b0390911681526020016101fe565b6102f36102dd366004611ae7565b60096020526000908152604090205461ffff1681565b60405161ffff90911681526020016101fe565b610319610314366004611ae7565b6107e5565b6040516101fe9190611c74565b6102b7610334366004611c21565b6006602052600090815260409020546001600160401b031681565b61039661035d366004611ae7565b6005602052600090815260409020805460018201546002909201546001600160a01b039182169291821691600160a01b900460ff169084565b6040516101fe9493929190611cb6565b6101dc6103b4366004611ae7565b610884565b6002546102b790600160401b90046001600160401b031681565b6103ff6103e1366004611ae7565b6001600160a01b031660009081526003602052604090205460ff1690565b6040516101fe9190611cea565b6101dc61092e565b610437610422366004611ae7565b60016020526000908152604090205460ff1681565b60405190151581526020016101fe565b6101dc610455366004611cf8565b610942565b6000546040516001600160a01b0390911681526020016101fe565b6101dc610483366004611ae7565b610bd2565b6002546102b7906001600160401b031681565b6104376104a9366004611d3b565b610c01565b6104c16104bc366004611c21565b610c4c565b6040516101fe9190600060a08201905060ff835116825260208301511515602083015260408301511515604083015263ffffffff606084015116606083015260808301511515608083015292915050565b61051a610d0d565b6040519081526020016101fe565b6101dc610536366004611d57565b610de0565b610543609681565b60405163ffffffff90911681526020016101fe565b610437610566366004611ae7565b6001600160a01b031660009081526001602052604090205460ff1690565b610437610592366004611ae7565b611193565b610543620186a081565b6101dc6105af366004611ae7565b6111c2565b6101dc6105c2366004611ae7565b61132b565b6101dc6105d5366004611e24565b6113a4565b6105e261173b565b600a80546001600160a01b039384166001600160a01b031991821617909155600b8054929093169116179055565b6001600160a01b0381166000908152600460209081526040808320805482518185028101850190935280835260609492939192909184015b828210156107da5760008481526020908190206040805160a0810182526004860290920180546001600160401b03811684526001600160a01b03600160401b9091048116948401949094526001810154909316908201526002820180549192916060840191906106b790611e9b565b80601f01602080910402602001604051908101604052809291908181526020018280546106e390611e9b565b80156107305780601f1061070557610100808354040283529160200191610730565b820191906000526020600020905b81548152906001019060200180831161071357829003601f168201915b5050505050815260200160038201805461074990611e9b565b80601f016020809104026020016040519081016040528092919081815260200182805461077590611e9b565b80156107c25780601f10610797576101008083540402835291602001916107c2565b820191906000526020600020905b8154815290600101906020018083116107a557829003601f168201915b50505050508152505081526020019060010190610648565b505050509050919050565b604080516080808201835260008083526020808401829052838501829052606084018290526001600160a01b0386811683526005825291859020855193840186528054831684526001810154928316918401919091529293919291830190600160a01b900460ff16600881111561085e5761085e611c3c565b600881111561086f5761086f611c3c565b81526020016002820154815250509050919050565b3360009081526001602052604090205460ff166108bc5760405162461bcd60e51b81526004016108b390611ed5565b60405180910390fd5b600b546001600160a01b03163381146108e75760405162461bcd60e51b81526004016108b390611f01565b6001600160a01b0382166000908152600960205260408120805461ffff169161090f83611f4e565b91906101000a81548161ffff021916908361ffff160217905550505050565b61093661173b565b6109406000611795565b565b3360009081526001602052604090205460ff166109715760405162461bcd60e51b81526004016108b390611ed5565b600a546001600160a01b031633811461099c5760405162461bcd60e51b81526004016108b390611f01565b6001600160a01b0383166109f25760405162461bcd60e51b815260206004820152601e60248201527f496e766974656420616464726573732063616e6e6f74206265207a65726f000060448201526064016108b3565b6001600160a01b038381166000908152600560205260409020541615610a4c5760405162461bcd60e51b815260206004820152600f60248201526e105b1c9958591e481a5b9d9a5d1959608a1b60448201526064016108b3565b6001600160a01b03831660009081526003602052604081205460ff166008811115610a7957610a79611c3c565b14610abb5760405162461bcd60e51b8152602060048201526012602482015271105b1c9958591e481c9959da5cdd195c995960721b60448201526064016108b3565b6040518060800160405280846001600160a01b03168152602001856001600160a01b03168152602001836008811115610af657610af6611c3c565b8152436020918201526001600160a01b03808616600090815260058352604090819020845181549084166001600160a01b03199182161782559385015160018201805491909416948116851784559185015190939092916001600160a81b03191617600160a01b836008811115610b6f57610b6f611c3c565b021790555060608201518160020155905050826001600160a01b0316846001600160a01b03167f3aed71ce4143148a406a002376059e9cb31ad2e3c9b2a431fc106d4be03f204784604051610bc49190611cea565b60405180910390a350505050565b610bda61173b565b6001600160a01b03166000908152600160208190526040909120805460ff19169091179055565b6000826008811115610c1557610c15611c3c565b6001600160a01b03831660009081526003602052604090205460ff166008811115610c4257610c42611c3c565b1490505b92915050565b6040805160a08101825260008082526020820181905291810182905260608101829052608081019190915260086000836008811115610c8d57610c8d611c3c565b6008811115610c9e57610c9e611c3c565b81526020808201929092526040908101600020815160a081018352905460ff808216835261010082048116151594830194909452620100008104841615159282019290925263ffffffff63010000008304166060820152600160381b9091049091161515608082015292915050565b600660208190527f75f96ab15d697e93042dc45b5c896c4b27e89bb6eaf39475c5c371cb2513f7d2547fc5069e24aaadb2addc3e52e868fcf3f4f8acf5a87e24300992fd4540c2a87eed547fbfd358e93f18da3ed276c3afdbdba00b8f0b6008a03476a6a86bd6320ee6938b5460009384527f697b2bd7bb2984c4e0dc14c79c987d37818484a62958b9c45a0e8b962f20650f546001600160401b039384169392831692610dbe9281169116611f6f565b610dc89190611f6f565b610dd29190611f6f565b6001600160401b0316905090565b3360009081526001602052604090205460ff16610e0f5760405162461bcd60e51b81526004016108b390611ed5565b6001600160a01b038216610e655760405162461bcd60e51b815260206004820152601b60248201527f5573657220616464726573732063616e6e6f74206265207a65726f000000000060448201526064016108b3565b6001600160a01b03821660009081526003602052604081205460ff166008811115610e9257610e92611c3c565b14610ed55760405162461bcd60e51b81526020600482015260136024820152725573657220616c72656164792065786973747360681b60448201526064016108b3565b6000816008811115610ee957610ee9611c3c565b14158015610f0957506008816008811115610f0657610f06611c3c565b14155b610f495760405162461bcd60e51b8152602060048201526011602482015270496e76616c69642075736572207479706560781b60448201526064016108b3565b610f52816117e5565b610f9e5760405162461bcd60e51b815260206004820152601760248201527f50726f706f7274696f6e616c69747920696e76616c696400000000000000000060448201526064016108b3565b610fa8828261198a565b610fe95760405162461bcd60e51b815260206004820152601260248201527124b73b30b634b21034b73b34ba30ba34b7b760711b60448201526064016108b3565b6001600160a01b0382166000908152600360205260409020805482919060ff1916600183600881111561101e5761101e611c3c565b021790555060028054600160401b90046001600160401b031690600861104383611f8e565b91906101000a8154816001600160401b0302191690836001600160401b03160217905550506006600082600881111561107e5761107e611c3c565b600881111561108f5761108f611c3c565b81526020810191909152604001600090812080546001600160401b0316916110b683611f8e565b91906101000a8154816001600160401b0302191690836001600160401b0316021790555050600760008260088111156110f1576110f1611c3c565b600881111561110257611102611c3c565b81526020810191909152604001600090812080546001600160401b03169161112983611f8e565b91906101000a8154816001600160401b0302191690836001600160401b0316021790555050816001600160a01b03167f8e18574f8a7333e6a87112742a55853a643e2f0550f4e1a3a2c3f1bb2994441d826040516111879190611cea565b60405180910390a25050565b6001600160a01b0381166000908152600360205260408120546111b89060ff16610c4c565b6080015192915050565b3360009081526001602052604090205460ff166111f15760405162461bcd60e51b81526004016108b390611ed5565b600b546001600160a01b031633811461121c5760405162461bcd60e51b81526004016108b390611f01565b60086001600160a01b03831660009081526003602052604090205460ff16600881111561124b5761124b611c3c565b14611327576001600160a01b0382166000908152600360205260408120546006919060ff16600881111561128157611281611c3c565b600881111561129257611292611c3c565b81526020810191909152604001600090812080546001600160401b0316916112b983611fb0565b82546101009290920a6001600160401b03818102199093169190921691909102179055506001600160a01b038216600081815260036020526040808220805460ff19166008179055517f4e283ac74dcfce6ff8dd078cc60000ae1deac4f6ae889f87268c6ed2fd0404d89190a25b5050565b61133361173b565b6001600160a01b0381166113985760405162461bcd60e51b815260206004820152602660248201527f4f776e61626c653a206e6577206f776e657220697320746865207a65726f206160448201526564647265737360d01b60648201526084016108b3565b6113a181611795565b50565b81516064108015906113b95750805161012c10155b6113fe5760405162461bcd60e51b815260206004820152601660248201527513585e0818da185c9858dd195c9cc81c995858da195960521b60448201526064016108b3565b3360009081526003602052604081205460ff16600881111561142257611422611c3c565b0361146f5760405162461bcd60e51b815260206004820152601960248201527f43616c6c6572206d75737420626520726567697374657265640000000000000060448201526064016108b3565b60073360009081526003602052604090205460ff16600881111561149557611495611c3c565b036114e25760405162461bcd60e51b815260206004820152601960248201527f4e6f7420616c6c6f77656420746f20737570706f72746572730000000000000060448201526064016108b3565b6001600160a01b03831660009081526003602052604081205460ff16600881111561150f5761150f611c3c565b0361155c5760405162461bcd60e51b815260206004820152601760248201527f55736572206d757374206265207265676973746572656400000000000000000060448201526064016108b3565b6001600160a01b0383166115b25760405162461bcd60e51b815260206004820152601a60248201527f43616e6e6f742064656c617465207a65726f206164647265737300000000000060448201526064016108b3565b6001600160a01b03831660009081526004602052604090819020815160a0810190925260025490919081906115f1906001600160401b03166001611f6f565b6001600160401b039081168252336020808401919091526001600160a01b0388811660408086019190915260608086018a9052608090950188905286546001818101895560009889529784902087516004909202018054948801518416600160401b026001600160e01b03199095169190951617929092178355908401519482018054959091166001600160a01b03199095169490941790935581015190919060028201906116a09082612022565b50608082015160038201906116b59082612022565b5050600280546001600160401b0316915060006116d183611f8e565b91906101000a8154816001600160401b0302191690836001600160401b0316021790555050826001600160a01b0316336001600160a01b03167f650ecc022f450966bb9175753b45172e38411e795fcd1f3541a83a43e9dab66b60405160405180910390a3505050565b6000546001600160a01b031633146109405760405162461bcd60e51b815260206004820181905260248201527f4f776e61626c653a2063616c6c6572206973206e6f7420746865206f776e657260448201526064016108b3565b600080546001600160a01b038381166001600160a01b0319831681178455604051919092169283917f8be0079c531659141344cd1fd0a4f28419497f9722a3daafe3b4186f6b6457e09190a35050565b60016000908152600660208190527f3e5fec24aa4dc4e5aee2e025e51e1392c72a2500577559fae9665c6d52bd6a31546001600160401b03169082908185600881111561183457611834611c3c565b600881111561184557611845611c3c565b815260208101919091526040016000908120546001600160401b03169150600881868281111561187757611877611c3c565b600881111561188857611888611c3c565b815260208082019290925260409081016000908120825160a081018452905460ff80821680845261010083048216151596840196909652620100008204811615159483019490945263ffffffff63010000008204166060830152600160381b9004909216151560808301529092508190036119095750600195945050505050565b60056001600160401b03841610156119275750600195945050505050565b81602001511561195d5761193e60ff8216856120e0565b6001600160401b0316836001600160401b031610945050505050919050565b61196a60ff821685612109565b6001600160401b0316836001600160401b03161115945050505050919050565b6000600860008360088111156119a2576119a2611c3c565b60088111156119b3576119b3611c3c565b815260208101919091526040016000205462010000900460ff166119d957506001610c46565b6001600160a01b0383811660009081526005602090815260408083208151608081018352815486168152600182015495861693810193909352929391929190830190600160a01b900460ff166008811115611a3657611a36611c3c565b6008811115611a4757611a47611c3c565b8152602001600282015481525050905060008160600151118015611a905750826008811115611a7857611a78611c3c565b81604001516008811115611a8e57611a8e611c3c565b145b949350505050565b80356001600160a01b0381168114611aaf57600080fd5b919050565b60008060408385031215611ac757600080fd5b611ad083611a98565b9150611ade60208401611a98565b90509250929050565b600060208284031215611af957600080fd5b611b0282611a98565b9392505050565b6000815180845260005b81811015611b2f57602081850181015186830182015201611b13565b506000602082860101526020601f19601f83011685010191505092915050565b6000602082016020835280845180835260408501915060408160051b86010192506020860160005b82811015611c0657603f1987860301845281516001600160401b03815116865260018060a01b03602082015116602087015260018060a01b036040820151166040870152606081015160a06060880152611bd460a0880182611b09565b9050608082015191508681036080880152611bef8183611b09565b965050506020938401939190910190600101611b77565b50929695505050505050565b803560098110611aaf57600080fd5b600060208284031215611c3357600080fd5b611b0282611c12565b634e487b7160e01b600052602160045260246000fd5b60098110611c7057634e487b7160e01b600052602160045260246000fd5b9052565b81516001600160a01b039081168252602080840151909116908201526040808301516080830191611ca790840182611c52565b50606092830151919092015290565b6001600160a01b0385811682528416602082015260808101611cdb6040830185611c52565b82606083015295945050505050565b60208101610c468284611c52565b600080600060608486031215611d0d57600080fd5b611d1684611a98565b9250611d2460208501611a98565b9150611d3260408501611c12565b90509250925092565b60008060408385031215611d4e57600080fd5b611ad083611c12565b60008060408385031215611d6a57600080fd5b611d7383611a98565b9150611ade60208401611c12565b634e487b7160e01b600052604160045260246000fd5b600082601f830112611da857600080fd5b81356001600160401b03811115611dc157611dc1611d81565b604051601f8201601f19908116603f011681016001600160401b0381118282101715611def57611def611d81565b604052818152838201602001851015611e0757600080fd5b816020850160208301376000918101602001919091529392505050565b600080600060608486031215611e3957600080fd5b611e4284611a98565b925060208401356001600160401b03811115611e5d57600080fd5b611e6986828701611d97565b92505060408401356001600160401b03811115611e8557600080fd5b611e9186828701611d97565b9150509250925092565b600181811c90821680611eaf57607f821691505b602082108103611ecf57634e487b7160e01b600052602260045260246000fd5b50919050565b6020808252601290820152712737ba1030b63637bbb2b21031b0b63632b960711b604082015260600190565b6020808252601e908201527f43616c6c6572206d7573742062652073797374656d20636f6e74726163740000604082015260600190565b634e487b7160e01b600052601160045260246000fd5b600061ffff821661ffff8103611f6657611f66611f38565b60010192915050565b6001600160401b038181168382160190811115610c4657610c46611f38565b60006001600160401b0382166001600160401b038103611f6657611f66611f38565b60006001600160401b03821680611fc957611fc9611f38565b6000190192915050565b601f82111561201d57806000526020600020601f840160051c81016020851015611ffa5750805b601f840160051c820191505b8181101561201a5760008155600101612006565b50505b505050565b81516001600160401b0381111561203b5761203b611d81565b61204f816120498454611e9b565b84611fd3565b6020601f821160018114612083576000831561206b5750848201515b600019600385901b1c1916600184901b17845561201a565b600084815260208120601f198516915b828110156120b35787850151825560209485019460019092019101612093565b50848210156120d15786840151600019600387901b60f8161c191681555b50505050600190811b01905550565b6001600160401b03818116838216029081169081811461210257612102611f38565b5092915050565b60006001600160401b0383168061213057634e487b7160e01b600052601260045260246000fd5b806001600160401b038416049150509291505056fea264697066735822122042b15d8b6481ab5cfa21aaa6879642f310d37c09220401c30a20762ff5cd437464736f6c634300081b0033",
  "linkReferences": {},
  "deployedLinkReferences": {}
}