{
  "_format": "hh-sol-artifact-1",
  "contractName": "DeveloperRules",
  "sourceName": "contracts/DeveloperRules.sol",
  "abi": [
    {
      "inputs": [
        {
          "internalType": "uint32",
          "name": "timeBetweenWorks_",
          "type": "uint32"
        },
        {
          "internalType": "uint8",
          "name": "maxPenalties_",
          "type": "uint8"
        },
        {
          "internalType": "uint32",
          "name": "securityBlocksToValidation_",
          "type": "uint32"
        }
      ],
      "stateMutability": "nonpayable",
      "type": "constructor"
    },
    {
      "anonymous": false,
      "inputs": [
        {
          "indexed": true,
          "internalType": "address",
          "name": "developerAddress",
          "type": "address"
        },
        {
          "indexed": false,
          "internalType": "uint256",
          "name": "newLevel",
          "type": "uint256"
        },
        {
          "indexed": false,
          "internalType": "uint256",
          "name": "blockNumber",
          "type": "uint256"
        }
      ],
      "name": "DeveloperLevelIncreased",
      "type": "event"
    },
    {
      "anonymous": false,
      "inputs": [
        {
          "indexed": true,
          "internalType": "address",
          "name": "developerAddress",
          "type": "address"
        },
        {
          "indexed": false,
          "internalType": "uint256",
          "name": "levelsRemoved",
          "type": "uint256"
        },
        {
          "indexed": false,
          "internalType": "uint256",
          "name": "newLevel",
          "type": "uint256"
        },
        {
          "indexed": false,
          "internalType": "uint256",
          "name": "blockNumber",
          "type": "uint256"
        }
      ],
      "name": "DeveloperLevelRemoved",
      "type": "event"
    },
    {
      "anonymous": false,
      "inputs": [
        {
          "indexed": true,
          "internalType": "uint256",
          "name": "id",
          "type": "uint256"
        },
        {
          "indexed": true,
          "internalType": "address",
          "name": "developerAddress",
          "type": "address"
        },
        {
          "indexed": false,
          "internalType": "string",
          "name": "name",
          "type": "string"
        },
        {
          "indexed": false,
          "internalType": "uint256",
          "name": "blockNumber",
          "type": "uint256"
        }
      ],
      "name": "DeveloperRegistered",
      "type": "event"
    },
    {
      "anonymous": false,
      "inputs": [
        {
          "indexed": true,
          "internalType": "address",
          "name": "developerAddress",
          "type": "address"
        },
        {
          "indexed": true,
          "internalType": "uint256",
          "name": "era",
          "type": "uint256"
        },
        {
          "indexed": false,
          "internalType": "uint256",
          "name": "blockNumber",
          "type": "uint256"
        }
      ],
      "name": "DeveloperWithdrawalInitiated",
      "type": "event"
    },
    {
      "anonymous": false,
      "inputs": [
        {
          "indexed": true,
          "internalType": "address",
          "name": "previousOwner",
          "type": "address"
        },
        {
          "indexed": true,
          "internalType": "address",
          "name": "newOwner",
          "type": "address"
        }
      ],
      "name": "OwnershipTransferred",
      "type": "event"
    },
    {
      "anonymous": false,
      "inputs": [
        {
          "indexed": true,
          "internalType": "address",
          "name": "developerAddress",
          "type": "address"
        },
        {
          "indexed": true,
          "internalType": "uint256",
          "name": "associatedReportId",
          "type": "uint256"
        },
        {
          "indexed": false,
          "internalType": "uint256",
          "name": "blockNumber",
          "type": "uint256"
        }
      ],
      "name": "PenaltyAdded",
      "type": "event"
    },
    {
      "anonymous": false,
      "inputs": [
        {
          "indexed": true,
          "internalType": "uint256",
          "name": "id",
          "type": "uint256"
        },
        {
          "indexed": true,
          "internalType": "address",
          "name": "developerAddress",
          "type": "address"
        },
        {
          "indexed": false,
          "internalType": "string",
          "name": "description",
          "type": "string"
        },
        {
          "indexed": false,
          "internalType": "uint256",
          "name": "blockNumber",
          "type": "uint256"
        }
      ],
      "name": "ReportAdded",
      "type": "event"
    },
    {
      "anonymous": false,
      "inputs": [
        {
          "indexed": true,
          "internalType": "uint64",
          "name": "reportId",
          "type": "uint64"
        },
        {
          "indexed": true,
          "internalType": "address",
          "name": "developerAddress",
          "type": "address"
        },
        {
          "indexed": false,
          "internalType": "string",
          "name": "justification",
          "type": "string"
        },
        {
          "indexed": false,
          "internalType": "uint256",
          "name": "newPenaltyCount",
          "type": "uint256"
        },
        {
          "indexed": false,
          "internalType": "uint256",
          "name": "blockNumber",
          "type": "uint256"
        }
      ],
      "name": "ReportInvalidated",
      "type": "event"
    },
    {
      "inputs": [],
      "name": "INITIAL_USER_COUNT_THRESHOLD",
      "outputs": [
        {
          "internalType": "uint256",
          "name": "",
          "type": "uint256"
        }
      ],
      "stateMutability": "view",
      "type": "function"
    },
    {
      "inputs": [],
      "name": "MAX_USER_COUNT",
      "outputs": [
        {
          "internalType": "uint16",
          "name": "",
          "type": "uint16"
        }
      ],
      "stateMutability": "view",
      "type": "function"
    },
    {
      "inputs": [
        {
          "internalType": "string",
          "name": "name",
          "type": "string"
        },
        {
          "internalType": "string",
          "name": "proofPhoto",
          "type": "string"
        }
      ],
      "name": "addDeveloper",
      "outputs": [],
      "stateMutability": "nonpayable",
      "type": "function"
    },
    {
      "inputs": [
        {
          "internalType": "address",
          "name": "addr",
          "type": "address"
        },
        {
          "internalType": "uint64",
          "name": "reportId",
          "type": "uint64"
        }
      ],
      "name": "addPenalty",
      "outputs": [
        {
          "internalType": "uint256",
          "name": "",
          "type": "uint256"
        }
      ],
      "stateMutability": "nonpayable",
      "type": "function"
    },
    {
      "inputs": [
        {
          "internalType": "string",
          "name": "description",
          "type": "string"
        },
        {
          "internalType": "string",
          "name": "report",
          "type": "string"
        }
      ],
      "name": "addReport",
      "outputs": [],
      "stateMutability": "nonpayable",
      "type": "function"
    },
    {
      "inputs": [
        {
          "internalType": "uint64",
          "name": "id",
          "type": "uint64"
        },
        {
          "internalType": "string",
          "name": "justification",
          "type": "string"
        }
      ],
      "name": "addReportValidation",
      "outputs": [],
      "stateMutability": "nonpayable",
      "type": "function"
    },
    {
      "inputs": [
        {
          "internalType": "address",
          "name": "",
          "type": "address"
        }
      ],
      "name": "allowedCallers",
      "outputs": [
        {
          "internalType": "bool",
          "name": "",
          "type": "bool"
        }
      ],
      "stateMutability": "view",
      "type": "function"
    },
    {
      "inputs": [
        {
          "internalType": "uint256",
          "name": "totalLevels",
          "type": "uint256"
        },
        {
          "internalType": "uint256",
          "name": "totalUsers",
          "type": "uint256"
        },
        {
          "internalType": "uint256",
          "name": "userLevels",
          "type": "uint256"
        }
      ],
      "name": "canInvite",
      "outputs": [
        {
          "internalType": "bool",
          "name": "",
          "type": "bool"
        }
      ],
      "stateMutability": "pure",
      "type": "function"
    },
    {
      "inputs": [
        {
          "internalType": "address",
          "name": "addr",
          "type": "address"
        }
      ],
      "name": "canPublishReport",
      "outputs": [
        {
          "internalType": "bool",
          "name": "",
          "type": "bool"
        }
      ],
      "stateMutability": "view",
      "type": "function"
    },
    {
      "inputs": [
        {
          "internalType": "address",
          "name": "addr",
          "type": "address"
        }
      ],
      "name": "canSendInvite",
      "outputs": [
        {
          "internalType": "bool",
          "name": "",
          "type": "bool"
        }
      ],
      "stateMutability": "view",
      "type": "function"
    },
    {
      "inputs": [
        {
          "internalType": "uint256",
          "name": "",
          "type": "uint256"
        }
      ],
      "name": "developersAddress",
      "outputs": [
        {
          "internalType": "address",
          "name": "",
          "type": "address"
        }
      ],
      "stateMutability": "view",
      "type": "function"
    },
    {
      "inputs": [
        {
          "internalType": "address",
          "name": "addr",
          "type": "address"
        }
      ],
      "name": "getDeveloper",
      "outputs": [
        {
          "components": [
            {
              "internalType": "uint64",
              "name": "id",
              "type": "uint64"
            },
            {
              "internalType": "address",
              "name": "developerWallet",
              "type": "address"
            },
            {
              "internalType": "string",
              "name": "name",
              "type": "string"
            },
            {
              "internalType": "string",
              "name": "proofPhoto",
              "type": "string"
            },
            {
              "components": [
                {
                  "internalType": "uint256",
                  "name": "level",
                  "type": "uint256"
                },
                {
                  "internalType": "uint256",
                  "name": "currentEra",
                  "type": "uint256"
                }
              ],
              "internalType": "struct Pool",
              "name": "pool",
              "type": "tuple"
            },
            {
              "internalType": "uint256",
              "name": "totalReports",
              "type": "uint256"
            },
            {
              "internalType": "uint256",
              "name": "createdAt",
              "type": "uint256"
            },
            {
              "internalType": "uint256",
              "name": "lastPublishedAt",
              "type": "uint256"
            }
          ],
          "internalType": "struct Developer",
          "name": "developer",
          "type": "tuple"
        }
      ],
      "stateMutability": "view",
      "type": "function"
    },
    {
      "inputs": [
        {
          "internalType": "uint64",
          "name": "id",
          "type": "uint64"
        }
      ],
      "name": "getReport",
      "outputs": [
        {
          "components": [
            {
              "internalType": "uint64",
              "name": "id",
              "type": "uint64"
            },
            {
              "internalType": "uint256",
              "name": "era",
              "type": "uint256"
            },
            {
              "internalType": "address",
              "name": "developer",
              "type": "address"
            },
            {
              "internalType": "string",
              "name": "description",
              "type": "string"
            },
            {
              "internalType": "string",
              "name": "report",
              "type": "string"
            },
            {
              "internalType": "uint256",
              "name": "validationsCount",
              "type": "uint256"
            },
            {
              "internalType": "bool",
              "name": "valid",
              "type": "bool"
            },
            {
              "internalType": "uint256",
              "name": "invalidatedAt",
              "type": "uint256"
            },
            {
              "internalType": "uint256",
              "name": "createdAtBlockNumber",
              "type": "uint256"
            }
          ],
          "internalType": "struct Report",
          "name": "",
          "type": "tuple"
        }
      ],
      "stateMutability": "view",
      "type": "function"
    },
    {
      "inputs": [
        {
          "internalType": "address",
          "name": "addr",
          "type": "address"
        }
      ],
      "name": "getReportsIds",
      "outputs": [
        {
          "internalType": "uint256[]",
          "name": "",
          "type": "uint256[]"
        }
      ],
      "stateMutability": "view",
      "type": "function"
    },
    {
      "inputs": [
        {
          "internalType": "address",
          "name": "caller",
          "type": "address"
        }
      ],
      "name": "isAllowedCaller",
      "outputs": [
        {
          "internalType": "bool",
          "name": "",
          "type": "bool"
        }
      ],
      "stateMutability": "view",
      "type": "function"
    },
    {
      "inputs": [],
      "name": "maxPenalties",
      "outputs": [
        {
          "internalType": "uint8",
          "name": "",
          "type": "uint8"
        }
      ],
      "stateMutability": "view",
      "type": "function"
    },
    {
      "inputs": [
        {
          "internalType": "address",
          "name": "allowed",
          "type": "address"
        }
      ],
      "name": "newAllowedCaller",
      "outputs": [],
      "stateMutability": "nonpayable",
      "type": "function"
    },
    {
      "inputs": [],
      "name": "nextEraIn",
      "outputs": [
        {
          "internalType": "uint256",
          "name": "",
          "type": "uint256"
        }
      ],
      "stateMutability": "view",
      "type": "function"
    },
    {
      "inputs": [],
      "name": "owner",
      "outputs": [
        {
          "internalType": "address",
          "name": "",
          "type": "address"
        }
      ],
      "stateMutability": "view",
      "type": "function"
    },
    {
      "inputs": [
        {
          "internalType": "address",
          "name": "",
          "type": "address"
        },
        {
          "internalType": "uint256",
          "name": "",
          "type": "uint256"
        }
      ],
      "name": "penalties",
      "outputs": [
        {
          "internalType": "uint64",
          "name": "reportId",
          "type": "uint64"
        }
      ],
      "stateMutability": "view",
      "type": "function"
    },
    {
      "inputs": [],
      "name": "poolCurrentEra",
      "outputs": [
        {
          "internalType": "uint256",
          "name": "",
          "type": "uint256"
        }
      ],
      "stateMutability": "view",
      "type": "function"
    },
    {
      "inputs": [
        {
          "internalType": "address",
          "name": "addr",
          "type": "address"
        },
        {
          "internalType": "uint256",
          "name": "levelsToRemove",
          "type": "uint256"
        }
      ],
      "name": "removePoolLevels",
      "outputs": [],
      "stateMutability": "nonpayable",
      "type": "function"
    },
    {
      "inputs": [],
      "name": "renounceOwnership",
      "outputs": [],
      "stateMutability": "nonpayable",
      "type": "function"
    },
    {
      "inputs": [
        {
          "internalType": "uint256",
          "name": "",
          "type": "uint256"
        }
      ],
      "name": "reports",
      "outputs": [
        {
          "internalType": "uint64",
          "name": "id",
          "type": "uint64"
        },
        {
          "internalType": "uint256",
          "name": "era",
          "type": "uint256"
        },
        {
          "internalType": "address",
          "name": "developer",
          "type": "address"
        },
        {
          "internalType": "string",
          "name": "description",
          "type": "string"
        },
        {
          "internalType": "string",
          "name": "report",
          "type": "string"
        },
        {
          "internalType": "uint256",
          "name": "validationsCount",
          "type": "uint256"
        },
        {
          "internalType": "bool",
          "name": "valid",
          "type": "bool"
        },
        {
          "internalType": "uint256",
          "name": "invalidatedAt",
          "type": "uint256"
        },
        {
          "internalType": "uint256",
          "name": "createdAtBlockNumber",
          "type": "uint256"
        }
      ],
      "stateMutability": "view",
      "type": "function"
    },
    {
      "inputs": [],
      "name": "reportsCount",
      "outputs": [
        {
          "internalType": "uint64",
          "name": "",
          "type": "uint64"
        }
      ],
      "stateMutability": "view",
      "type": "function"
    },
    {
      "inputs": [
        {
          "internalType": "address",
          "name": "",
          "type": "address"
        },
        {
          "internalType": "uint256",
          "name": "",
          "type": "uint256"
        }
      ],
      "name": "reportsIds",
      "outputs": [
        {
          "internalType": "uint256",
          "name": "",
          "type": "uint256"
        }
      ],
      "stateMutability": "view",
      "type": "function"
    },
    {
      "inputs": [],
      "name": "reportsTotalCount",
      "outputs": [
        {
          "internalType": "uint64",
          "name": "",
          "type": "uint64"
        }
      ],
      "stateMutability": "view",
      "type": "function"
    },
    {
      "inputs": [],
      "name": "securityBlocksToValidation",
      "outputs": [
        {
          "internalType": "uint32",
          "name": "",
          "type": "uint32"
        }
      ],
      "stateMutability": "view",
      "type": "function"
    },
    {
      "inputs": [
        {
          "internalType": "address",
          "name": "_validationRulesAddress",
          "type": "address"
        }
      ],
      "name": "setContractCall",
      "outputs": [],
      "stateMutability": "nonpayable",
      "type": "function"
    },
    {
      "inputs": [
        {
          "components": [
            {
              "internalType": "address",
              "name": "communityRulesAddress",
              "type": "address"
            },
            {
              "internalType": "address",
              "name": "developerPoolAddress",
              "type": "address"
            },
            {
              "internalType": "address",
              "name": "validationRulesAddress",
              "type": "address"
            },
            {
              "internalType": "address",
              "name": "voteRulesAddress",
              "type": "address"
            }
          ],
          "internalType": "struct ContractsDependency",
          "name": "contractDependency",
          "type": "tuple"
        }
      ],
      "name": "setContractInterfaces",
      "outputs": [],
      "stateMutability": "nonpayable",
      "type": "function"
    },
    {
      "inputs": [],
      "name": "timeBetweenWorks",
      "outputs": [
        {
          "internalType": "uint32",
          "name": "",
          "type": "uint32"
        }
      ],
      "stateMutability": "view",
      "type": "function"
    },
    {
      "inputs": [
        {
          "internalType": "address",
          "name": "addr",
          "type": "address"
        }
      ],
      "name": "totalPenalties",
      "outputs": [
        {
          "internalType": "uint256",
          "name": "",
          "type": "uint256"
        }
      ],
      "stateMutability": "view",
      "type": "function"
    },
    {
      "inputs": [
        {
          "internalType": "address",
          "name": "newOwner",
          "type": "address"
        }
      ],
      "name": "transferOwnership",
      "outputs": [],
      "stateMutability": "nonpayable",
      "type": "function"
    },
    {
      "inputs": [],
      "name": "withdraw",
      "outputs": [],
      "stateMutability": "nonpayable",
      "type": "function"
    }
  ],
  "bytecode": "0x60e060405234801561001057600080fd5b506040516133b63803806133b683398101604081905261002f916100c2565b61003833610059565b600160025563ffffffff92831660a05260ff9091166080521660c05261010d565b600080546001600160a01b038381166001600160a01b0319831681178455604051919092169283917f8be0079c531659141344cd1fd0a4f28419497f9722a3daafe3b4186f6b6457e09190a35050565b805163ffffffff811681146100bd57600080fd5b919050565b6000806000606084860312156100d757600080fd5b6100e0846100a9565b9250602084015160ff811681146100f657600080fd5b9150610104604085016100a9565b90509250925092565b60805160a05160c05161326c61014a60003960008181610274015261181901526000818161036101526113cd015260006104df015261326c6000f3fe608060405234801561001057600080fd5b50600436106102065760003560e01c80637b3341541161011a578063b1e86655116100ad578063c77c1ce61161007c578063c77c1ce61461052e578063c942adf714610541578063e05cf15514610569578063f2fde38b14610571578063fa64d0f41461058457600080fd5b8063b1e86655146104c7578063b24eb769146104da578063b432fdca14610513578063be9dc5841461052657600080fd5b80638f93716f116100e95780638f93716f146104625780639e02b7bc146104755780639eaf666f14610488578063a68012581461049b57600080fd5b80637b334154146103e75780637c647a621461040a5780638314e0081461041d5780638da5cb5b1461043d57600080fd5b8063582256f11161019d5780636ec7053a1161016c5780636ec7053a14610383578063715018a61461039f57806374f7c429146103a7578063755d4f97146103c15780637a3e0066146103d457600080fd5b8063582256f1146103215780635fa71c281461032957806367e13ee01461033c5780636b6c7c2d1461035c57600080fd5b80633ccfd60b116101d95780633ccfd60b146102ab5780633e0c27f0146102b357806356c8dc46146102de57806357382d38146102fe57600080fd5b8063178c823a1461020b57806318ad5c9a146102205780632076267b1461023357806335c116771461026f575b600080fd5b61021e610219366004612a31565b6105ad565b005b61021e61022e366004612a9c565b610c35565b61025c610241366004612ac6565b6001600160a01b031660009081526007602052604090205490565b6040519081526020015b60405180910390f35b6102967f000000000000000000000000000000000000000000000000000000000000000081565b60405163ffffffff9091168152602001610266565b61021e610f93565b6003546102c6906001600160401b031681565b6040516001600160401b039091168152602001610266565b6102f16102ec366004612ae1565b6111f3565b6040516102669190612bed565b61031161030c366004612ac6565b6113a6565b6040519015158152602001610266565b61025c611409565b6102c6610337366004612a9c565b611489565b61034f61034a366004612ac6565b6114c1565b6040516102669190612c00565b6102967f000000000000000000000000000000000000000000000000000000000000000081565b61038c613e8081565b60405161ffff9091168152602001610266565b61021e6116c9565b6003546102c690600160401b90046001600160401b031681565b61021e6103cf366004612ac6565b6116db565b61021e6103e2366004612cb3565b611705565b6103116103f5366004612ac6565b60016020526000908152604090205460ff1681565b61021e610418366004612d04565b611b4d565b61043061042b366004612ac6565b611bb2565b6040516102669190612d82565b6000546001600160a01b03165b6040516001600160a01b039091168152602001610266565b61021e610470366004612ac6565b611c1e565b61021e610483366004612cb3565b611c4d565b610311610496366004612dc5565b611fc4565b6103116104a9366004612ac6565b6001600160a01b031660009081526001602052604090205460ff1690565b61025c6104d5366004612df1565b611ffb565b6105017f000000000000000000000000000000000000000000000000000000000000000081565b60405160ff9091168152602001610266565b61025c610521366004612a9c565b612153565b61025c600581565b61031161053c366004612ac6565b612184565b61055461054f366004612e28565b6123ed565b60405161026699989796959493929190612e41565b61025c61255f565b61021e61057f366004612ac6565b6125a9565b61044a610592366004612e28565b6008602052600090815260409020546001600160a01b031681565b6105b5612622565b805161012c10156105fe5760405162461bcd60e51b815260206004820152600e60248201526d4d6178206368617261637465727360901b60448201526064015b60405180910390fd5b600c546040516356fd539760e11b81523360048201526001600160a01b039091169063adfaa72e90602401602060405180830381865afa158015610646573d6000803e3d6000fd5b505050506040513d601f19601f8201168201806040525081019061066a9190612eb5565b6106a45760405162461bcd60e51b815260206004820152600b60248201526a2737ba1030903b37ba32b960a91b60448201526064016105f5565b600b54604051630d84466b60e21b81523360048201526001600160a01b039091169063361119ac90602401602060405180830381865afa1580156106ec573d6000803e3d6000fd5b505050506040513d601f19601f820116820180604052508101906107109190612eb5565b6107545760405162461bcd60e51b8152602060048201526015602482015274576169742074696d654265747765656e566f74657360581b60448201526064016105f5565b6001600160401b0382166000908152600e6020908152604080832033845290915290205460ff16156107b85760405162461bcd60e51b815260206004820152600d60248201526c105b1c9958591e481d9bdd1959609a1b60448201526064016105f5565b6001600160401b038083166000818152600e602090815260408083203384528252808320805460ff191660019081179091559383526005825280832081516101208101835281549096168652938401549185019190915260028301546001600160a01b0316908401526003820180549193929160608401919061083a90612ed7565b80601f016020809104026020016040519081016040528092919081815260200182805461086690612ed7565b80156108b35780601f10610888576101008083540402835291602001916108b3565b820191906000526020600020905b81548152906001019060200180831161089657829003601f168201915b505050505081526020016004820180546108cc90612ed7565b80601f01602080910402602001604051908101604052809291908181526020018280546108f890612ed7565b80156109455780601f1061091a57610100808354040283529160200191610945565b820191906000526020600020905b81548152906001019060200180831161092857829003601f168201915b505050918352505060058201546020820152600682015460ff16151560408201526007820154606082015260089091015460809091015260c0810151909150801561099a5750806020015161099861255f565b145b6109e65760405162461bcd60e51b815260206004820152601860248201527f54686973207265706f7274206973206e6f742056414c4944000000000000000060448201526064016105f5565b60018160a0018181516109f99190612f27565b9052506001600160401b038381166000908152600560209081526040918290208451815467ffffffffffffffff1916941693909317835583015160018301558201516002820180546001600160a01b0319166001600160a01b0390921691909117905560608201518291906003820190610a739082612f8f565b5060808201516004820190610a889082612f8f565b5060a0820151600582015560c082015160068201805460ff191691151591909117905560e0820151600782015561010090910151600890910155600b54604080516369bf81c360e01b815290516000926001600160a01b0316916369bf81c39160048083019260209291908290030181865afa158015610b0c573d6000803e3d6000fd5b505050506040513d601f19601f82011682018060405250810190610b30919061304d565b60a08301511080159150610bbf57610b4782612679565b915081604001516001600160a01b0316846001600160401b03167fc8f57d3e72d524f64db8af866e01789df98c0b15a9b17be0e5482a282da0d96285610ba686604001516001600160a01b031660009081526007602052604090205490565b43604051610bb693929190613066565b60405180910390a35b600b54604051630417a69d60e31b81526001600160a01b03909116906320bd34e890610bf39085908790339060040161308b565b600060405180830381600087803b158015610c0d57600080fd5b505af1158015610c21573d6000803e3d6000fd5b505050505050610c316001600255565b5050565b3360009081526001602052604090205460ff16610c895760405162461bcd60e51b81526020600482015260126024820152712737ba1030b63637bbb2b21031b0b63632b960711b60448201526064016105f5565b600d546001600160a01b0316338114610ce45760405162461bcd60e51b815260206004820152601e60248201527f43616c6c6572206d7573742062652073797374656d20636f6e7472616374000060448201526064016105f5565b6001600160a01b03808416600090815260046020908152604080832081516101008101835281546001600160401b0381168252600160401b90049095169285019290925260018201805493949391840191610d3e90612ed7565b80601f0160208091040260200160405190810160405280929190818152602001828054610d6a90612ed7565b8015610db75780601f10610d8c57610100808354040283529160200191610db7565b820191906000526020600020905b815481529060010190602001808311610d9a57829003601f168201915b50505050508152602001600282018054610dd090612ed7565b80601f0160208091040260200160405190810160405280929190818152602001828054610dfc90612ed7565b8015610e495780601f10610e1e57610100808354040283529160200191610e49565b820191906000526020600020905b815481529060010190602001808311610e2c57829003601f168201915b505050918352505060408051808201825260038401548152600484015460208281019190915283015260058301549082015260068201546060820152600790910154608090910152905082610ea357608081015151610ea5565b825b6001600160a01b03851660009081526004602052604081206003018054909190610ed09084906130c9565b9091555050600a54604051630c56ae4d60e11b81526001600160a01b03868116600483015260248201869052909116906318ad5c9a90604401600060405180830381600087803b158015610f2357600080fd5b505af1158015610f37573d6000803e3d6000fd5b50505060808201515160408051868152602081019290925243908201526001600160a01b03861691507f2f77a8d1dc7c7ae55084a7c361d2e2d5a9460147845c3701d0149ad479f948cb9060600160405180910390a250505050565b610f9b612622565b600954604051631292f8c160e31b81526001600160a01b0390911690639497c60890610fcd90600490339082016130fe565b602060405180830381865afa158015610fea573d6000803e3d6000fd5b505050506040513d601f19601f8201168201806040525081019061100e9190612eb5565b6110535760405162461bcd60e51b81526020600482015260166024820152752837b7b61037b7363c903a37903232bb32b637b832b960511b60448201526064016105f5565b3360009081526004602081905260409182902080820154600a549351637df42f8360e11b8152928301819052909290916001600160a01b039091169063fbe85f0690602401602060405180830381865afa1580156110b5573d6000803e3d6000fd5b505050506040513d601f19601f820116820180604052508101906110d99190612eb5565b6111335760405162461bcd60e51b815260206004820152602560248201527f4e6f7420656c696769626c6520746f20776974686472617720666f7220746869604482015264732065726160d81b60648201526084016105f5565b60048201805490600061114583613124565b9091555050600a5460405163f3fef3a360e01b8152336004820152602481018390526001600160a01b039091169063f3fef3a390604401600060405180830381600087803b15801561119657600080fd5b505af11580156111aa573d6000803e3d6000fd5b50506040514381528392503391507f11d89ae7aaa2574610bec036d7e590ae011e55c9029f09f608a225ffac2058619060200160405180910390a350506111f16001600255565b565b6111fb612919565b6001600160401b038083166000908152600560209081526040918290208251610120810184528154909416845260018101549184019190915260028101546001600160a01b03169183019190915260038101805460608401919061125e90612ed7565b80601f016020809104026020016040519081016040528092919081815260200182805461128a90612ed7565b80156112d75780601f106112ac576101008083540402835291602001916112d7565b820191906000526020600020905b8154815290600101906020018083116112ba57829003601f168201915b505050505081526020016004820180546112f090612ed7565b80601f016020809104026020016040519081016040528092919081815260200182805461131c90612ed7565b80156113695780601f1061133e57610100808354040283529160200191611369565b820191906000526020600020905b81548152906001019060200180831161134c57829003601f168201915b505050918352505060058201546020820152600682015460ff16151560408201526007820154606082015260089091015460809091015292915050565b6001600160a01b038116600090815260046020526040812060070154816113f363ffffffff7f00000000000000000000000000000000000000000000000000000000000000001683612f27565b431190508080611401575081155b949350505050565b600a546000906001600160a01b031663d5ee3eb561142561255f565b6040518263ffffffff1660e01b815260040161144391815260200190565b602060405180830381865afa158015611460573d6000803e3d6000fd5b505050506040513d601f19601f82011682018060405250810190611484919061304d565b905090565b600760205281600052604060002081815481106114a557600080fd5b6000918252602090912001546001600160401b03169150829050565b611517604080516101008101825260008082526020808301829052606083850181905280840152835180850190945281845283015290608082019081526020016000815260200160008152602001600081525090565b6001600160a01b0380831660009081526004602090815260409182902082516101008101845281546001600160401b0381168252600160401b900490941691840191909152600181018054919284019161157090612ed7565b80601f016020809104026020016040519081016040528092919081815260200182805461159c90612ed7565b80156115e95780601f106115be576101008083540402835291602001916115e9565b820191906000526020600020905b8154815290600101906020018083116115cc57829003601f168201915b5050505050815260200160028201805461160290612ed7565b80601f016020809104026020016040519081016040528092919081815260200182805461162e90612ed7565b801561167b5780601f106116505761010080835404028352916020019161167b565b820191906000526020600020905b81548152906001019060200180831161165e57829003601f168201915b50505091835250506040805180820182526003840154815260048401546020828101919091528301526005830154908201526006820154606082015260079091015460809091015292915050565b6116d1612789565b6111f160006127e3565b6116e3612789565b600d80546001600160a01b0319166001600160a01b0392909216919091179055565b61170d612622565b815161012c1080159061172257508051609610155b6117675760405162461bcd60e51b815260206004820152601660248201527513585e0818da185c9858dd195c9cc81c995858da195960521b60448201526064016105f5565b600954604051631292f8c160e31b81526001600160a01b0390911690639497c6089061179990600490339082016130fe565b602060405180830381865afa1580156117b6573d6000803e3d6000fd5b505050506040513d601f19601f820116820180604052508101906117da9190612eb5565b6118175760405162461bcd60e51b815260206004820152600e60248201526d27b7363c902232bb32b637b832b960911b60448201526064016105f5565b7f000000000000000000000000000000000000000000000000000000000000000063ffffffff16611846611409565b1161189d5760405162461bcd60e51b815260206004820152602160248201527f5761697420756e74696c206e6578742065726120746f20616464207265706f726044820152601d60fa1b60648201526084016105f5565b6118a6336113a6565b6118e65760405162461bcd60e51b815260206004820152601160248201527010d85b89dd081c1d589b1a5cda081e595d607a1b60448201526064016105f5565b600380546001600160401b03169060006118ff8361313d565b91906101000a8154816001600160401b0302191690836001600160401b03160217905550506003600881819054906101000a90046001600160401b0316809291906119499061313d565b82546101009290920a6001600160401b038181021990931691831602179091556003543360009081526004602052604081206005018054600160401b909304909316935090919061199983613124565b9190505550604051806101200160405280826001600160401b031681526020016119c161255f565b81523360208083019190915260408083018790526060808401879052600060808501819052600160a0860181905260c086018290524360e0909601959095526001600160401b03878116825260058552908390208651815467ffffffffffffffff1916921691909117815592850151938301939093558301516002820180546001600160a01b0319166001600160a01b03909216919091179055908201516003820190611a6e9082612f8f565b5060808201516004820190611a839082612f8f565b5060a0820151600582015560c08201516006808301805460ff19169215159290921790915560e083015160078301556101009092015160089091015533600081815260209283526040812080546001810182559082529290206001600160401b038416920191909155611af590612833565b336001600160a01b0316816001600160401b03167f90fa8fc57e68c1801adc5593b96145cb8b0dc559414919b07373a84ddfa281bb8543604051611b3a929190613168565b60405180910390a350610c316001600255565b611b55612789565b8051600980546001600160a01b03199081166001600160a01b03938416179091556020830151600a805483169184169190911790556040830151600b80548316918416919091179055606090920151600c80549093169116179055565b6001600160a01b038116600090815260066020908152604091829020805483518184028101840190945280845260609392830182828015611c1257602002820191906000526020600020905b815481526020019060010190808311611bfe575b50505050509050919050565b611c26612789565b6001600160a01b03166000908152600160208190526040909120805460ff19169091179055565b8151603210801590611c6157508051609610155b611c9e5760405162461bcd60e51b815260206004820152600e60248201526d4d6178206368617261637465727360901b60448201526064016105f5565b600954604051632f22dc7b60e01b8152613e80916001600160a01b031690632f22dc7b90611cd090600490810161318a565b602060405180830381865afa158015611ced573d6000803e3d6000fd5b505050506040513d601f19601f82011682018060405250810190611d11919061304d565b10611d4f5760405162461bcd60e51b815260206004820152600e60248201526d13585e081d5cd95c881b1a5b5a5d60921b60448201526064016105f5565b60095460405162f5960960e51b81526000916001600160a01b031690631eb2c12090611d7f90600490810161318a565b602060405180830381865afa158015611d9c573d6000803e3d6000fd5b505050506040513d601f19601f82011682018060405250810190611dc09190613198565b611dcb9060016131b5565b9050604051806101000160405280826001600160401b03168152602001336001600160a01b03168152602001848152602001838152602001604051806040016040528060008152602001611e1d61255f565b9052815260006020808301829052436040808501919091526060909301829052338252600481529082902083518154928501516001600160a01b0316600160401b026001600160e01b03199093166001600160401b0390911617919091178155908201516001820190611e909082612f8f565b5060608201516002820190611ea59082612f8f565b5060808201518051600383015560209081015160048084019190915560a0840151600584015560c0840151600684015560e0909301516007909201919091556001600160401b0383166000908152600890915260409081902080546001600160a01b031916339081179091556009549151639c3eead960e01b81526001600160a01b039290921692639c3eead992611f4092919081016131d4565b600060405180830381600087803b158015611f5a57600080fd5b505af1158015611f6e573d6000803e3d6000fd5b50505050336001600160a01b0316816001600160401b03167fffa85be86549e867f33ff3ad03f00922b2f7113b07f58ca22d923ed22fdebb6e8543604051611fb7929190613168565b60405180910390a3505050565b600060058311611fd657506001611ff4565b6000611fe284866131f1565b611fed906001612f27565b8310159150505b9392505050565b3360009081526001602052604081205460ff1661204f5760405162461bcd60e51b81526020600482015260126024820152712737ba1030b63637bbb2b21031b0b63632b960711b60448201526064016105f5565b600d546001600160a01b03163381146120aa5760405162461bcd60e51b815260206004820152601e60248201527f43616c6c6572206d7573742062652073797374656d20636f6e7472616374000060448201526064016105f5565b6001600160a01b0384166000818152600760209081526040808320815180840183526001600160401b03898116808352835460018101855593875295859020915191909201805467ffffffffffffffff191691909216179055514381529192917fa84878f2a63d2c2c7fb98e2ab5694bdff1c200cbd72d2ec2fb11aab72e2df951910160405180910390a35050506001600160a01b031660009081526007602052604090205490565b6006602052816000526040600020818154811061216f57600080fd5b90600052602060002001600091509150505481565b6001600160a01b03808216600090815260046020908152604080832081516101008101835281546001600160401b0381168252600160401b90049095169285019290925260018201805493948594909392840191906121e290612ed7565b80601f016020809104026020016040519081016040528092919081815260200182805461220e90612ed7565b801561225b5780601f106122305761010080835404028352916020019161225b565b820191906000526020600020905b81548152906001019060200180831161223e57829003601f168201915b5050505050815260200160028201805461227490612ed7565b80601f01602080910402602001604051908101604052809291908181526020018280546122a090612ed7565b80156122ed5780601f106122c2576101008083540402835291602001916122ed565b820191906000526020600020905b8154815290600101906020018083116122d057829003601f168201915b50505091835250506040805180820182526003840154815260048401546020828101919091528301526005830154908201526006820154606082015260079091015460809091015280519091506001600160401b03166123505750600092915050565b60035460095460405162f5960960e51b8152611ff492600160401b90046001600160401b0316916001600160a01b031690631eb2c1209061239590600490810161318a565b602060405180830381865afa1580156123b2573d6000803e3d6000fd5b505050506040513d601f19601f820116820180604052508101906123d69190613198565b6001600160401b0316836080015160000151611fc4565b60056020526000908152604090208054600182015460028301546003840180546001600160401b039094169492936001600160a01b03909216929161243190612ed7565b80601f016020809104026020016040519081016040528092919081815260200182805461245d90612ed7565b80156124aa5780601f1061247f576101008083540402835291602001916124aa565b820191906000526020600020905b81548152906001019060200180831161248d57829003601f168201915b5050505050908060040180546124bf90612ed7565b80601f01602080910402602001604051908101604052809291908181526020018280546124eb90612ed7565b80156125385780601f1061250d57610100808354040283529160200191612538565b820191906000526020600020905b81548152906001019060200180831161251b57829003601f168201915b505050506005830154600684015460078501546008909501549394919360ff909116925089565b600a5460408051637686fbcf60e11b815290516000926001600160a01b03169163ed0df79e9160048083019260209291908290030181865afa158015611460573d6000803e3d6000fd5b6125b1612789565b6001600160a01b0381166126165760405162461bcd60e51b815260206004820152602660248201527f4f776e61626c653a206e6577206f776e657220697320746865207a65726f206160448201526564647265737360d01b60648201526084016105f5565b61261f816127e3565b50565b60028054036126735760405162461bcd60e51b815260206004820152601f60248201527f5265656e7472616e637947756172643a207265656e7472616e742063616c6c0060448201526064016105f5565b60028055565b612681612919565b600380546001600160401b031690600061269a83613213565b82546101009290920a6001600160401b03818102199093169183160217909155600060c085018190524360e0860152845182168152600560209081526040918290208651815467ffffffffffffffff1916941693909317835585015160018301558401516002820180546001600160a01b0319166001600160a01b03909216919091179055606084015184925060038201906127369082612f8f565b506080820151600482019061274b9082612f8f565b5060a0820151600582015560c082015160068201805460ff191691151591909117905560e08201516007820155610100909101516008909101555090565b6000546001600160a01b031633146111f15760405162461bcd60e51b815260206004820181905260248201527f4f776e61626c653a2063616c6c6572206973206e6f7420746865206f776e657260448201526064016105f5565b600080546001600160a01b038381166001600160a01b0319831681178455604051919092169283917f8be0079c531659141344cd1fd0a4f28419497f9722a3daafe3b4186f6b6457e09190a35050565b6001600160a01b0381166000908152600460205260408120436007820155600381018054919261286283613124565b9091555050600a546040516352b8d3ed60e01b81526001600160a01b03848116600483015260016024830152909116906352b8d3ed90604401600060405180830381600087803b1580156128b557600080fd5b505af11580156128c9573d6000803e3d6000fd5b505050506003810154604080519182524360208301526001600160a01b038416917f409b9331803c697056d1e0d1cf2188ef4dfa6f8637e3ec609fb230f89d6fa987910160405180910390a25050565b60405180610120016040528060006001600160401b031681526020016000815260200160006001600160a01b0316815260200160608152602001606081526020016000815260200160001515815260200160008152602001600081525090565b6001600160401b038116811461261f57600080fd5b634e487b7160e01b600052604160045260246000fd5b600082601f8301126129b557600080fd5b81356001600160401b038111156129ce576129ce61298e565b604051601f8201601f19908116603f011681016001600160401b03811182821017156129fc576129fc61298e565b604052818152838201602001851015612a1457600080fd5b816020850160208301376000918101602001919091529392505050565b60008060408385031215612a4457600080fd5b8235612a4f81612979565b915060208301356001600160401b03811115612a6a57600080fd5b612a76858286016129a4565b9150509250929050565b80356001600160a01b0381168114612a9757600080fd5b919050565b60008060408385031215612aaf57600080fd5b612ab883612a80565b946020939093013593505050565b600060208284031215612ad857600080fd5b611ff482612a80565b600060208284031215612af357600080fd5b8135611ff481612979565b6000815180845260005b81811015612b2457602081850181015186830182015201612b08565b506000602082860101526020601f19601f83011685010191505092915050565b80516001600160401b031682526020810151602083015260006040820151612b7760408501826001600160a01b03169052565b5060608201516101206060850152612b93610120850182612afe565b905060808301518482036080860152612bac8282612afe565b91505060a083015160a085015260c0830151612bcc60c086018215159052565b5060e083015160e08501526101008301516101008501528091505092915050565b602081526000611ff46020830184612b44565b602081526001600160401b03825116602082015260006020830151612c3060408401826001600160a01b03169052565b5060408301516101206060840152612c4c610140840182612afe565b90506060840151601f19848303016080850152612c698282612afe565b9150506080840151612c8860a085018280518252602090810151910152565b5060a084015160e084015260c084015161010084015260e08401516101208401528091505092915050565b60008060408385031215612cc657600080fd5b82356001600160401b03811115612cdc57600080fd5b612ce8858286016129a4565b92505060208301356001600160401b03811115612a6a57600080fd5b60006080828403128015612d1757600080fd5b50604051608081016001600160401b0381118282101715612d3a57612d3a61298e565b604052612d4683612a80565b8152612d5460208401612a80565b6020820152612d6560408401612a80565b6040820152612d7660608401612a80565b60608201529392505050565b602080825282518282018190526000918401906040840190835b81811015612dba578351835260209384019390920191600101612d9c565b509095945050505050565b600080600060608486031215612dda57600080fd5b505081359360208301359350604090920135919050565b60008060408385031215612e0457600080fd5b612e0d83612a80565b91506020830135612e1d81612979565b809150509250929050565b600060208284031215612e3a57600080fd5b5035919050565b6001600160401b038a16815288602082015260018060a01b038816604082015261012060608201526000612e79610120830189612afe565b8281036080840152612e8b8189612afe565b60a0840197909752505092151560c084015260e08301919091526101009091015295945050505050565b600060208284031215612ec757600080fd5b81518015158114611ff457600080fd5b600181811c90821680612eeb57607f821691505b602082108103612f0b57634e487b7160e01b600052602260045260246000fd5b50919050565b634e487b7160e01b600052601160045260246000fd5b80820180821115612f3a57612f3a612f11565b92915050565b601f821115612f8a57806000526020600020601f840160051c81016020851015612f675750805b601f840160051c820191505b81811015612f875760008155600101612f73565b50505b505050565b81516001600160401b03811115612fa857612fa861298e565b612fbc81612fb68454612ed7565b84612f40565b6020601f821160018114612ff05760008315612fd85750848201515b600019600385901b1c1916600184901b178455612f87565b600084815260208120601f198516915b828110156130205787850151825560209485019460019092019101613000565b508482101561303e5786840151600019600387901b60f8161c191681555b50505050600190811b01905550565b60006020828403121561305f57600080fd5b5051919050565b6060815260006130796060830186612afe565b60208301949094525060400152919050565b60608152600061309e6060830186612b44565b82810360208401526130b08186612afe565b91505060018060a01b0383166040830152949350505050565b81810381811115612f3a57612f3a612f11565b600981106130fa57634e487b7160e01b600052602160045260246000fd5b9052565b6040810161310c82856130dc565b6001600160a01b039290921660209190910152919050565b60006001820161313657613136612f11565b5060010190565b60006001600160401b0382166001600160401b03810361315f5761315f612f11565b60010192915050565b60408152600061317b6040830185612afe565b90508260208301529392505050565b60208101612f3a82846130dc565b6000602082840312156131aa57600080fd5b8151611ff481612979565b6001600160401b038181168382160190811115612f3a57612f3a612f11565b6001600160a01b038316815260408101611ff460208301846130dc565b60008261320e57634e487b7160e01b600052601260045260246000fd5b500490565b60006001600160401b0382168061322c5761322c612f11565b600019019291505056fea2646970667358221220725054d2111fb11fa270e57b095e10dcf9d573dbe74745212f52ba23ce3c017d64736f6c634300081b0033",
  "linkReferences": {},
  "deployedLinkReferences": {}
}