{
  "_format": "hh-sol-artifact-1",
  "contractName": "DeveloperPool",
  "sourceName": "contracts/DeveloperPool.sol",
  "abi": [
    {
      "inputs": [
        {
          "internalType": "address",
          "name": "regenerationCreditAddress",
          "type": "address"
        },
        {
          "internalType": "uint256",
          "name": "_halving",
          "type": "uint256"
        },
        {
          "internalType": "uint256",
          "name": "_blocksPerEra",
          "type": "uint256"
        }
      ],
      "stateMutability": "nonpayable",
      "type": "constructor"
    },
    {
      "inputs": [
        {
          "internalType": "address",
          "name": "owner",
          "type": "address"
        }
      ],
      "name": "OwnableInvalidOwner",
      "type": "error"
    },
    {
      "inputs": [
        {
          "internalType": "address",
          "name": "account",
          "type": "address"
        }
      ],
      "name": "OwnableUnauthorizedAccount",
      "type": "error"
    },
    {
      "inputs": [],
      "name": "ReentrancyGuardReentrantCall",
      "type": "error"
    },
    {
      "anonymous": false,
      "inputs": [
        {
          "indexed": true,
          "internalType": "address",
          "name": "previousOwner",
          "type": "address"
        },
        {
          "indexed": true,
          "internalType": "address",
          "name": "newOwner",
          "type": "address"
        }
      ],
      "name": "OwnershipTransferred",
      "type": "event"
    },
    {
      "anonymous": false,
      "inputs": [
        {
          "indexed": true,
          "internalType": "address",
          "name": "user",
          "type": "address"
        },
        {
          "indexed": false,
          "internalType": "uint256",
          "name": "era",
          "type": "uint256"
        },
        {
          "indexed": false,
          "internalType": "uint256",
          "name": "levelsAdded",
          "type": "uint256"
        },
        {
          "indexed": false,
          "internalType": "uint256",
          "name": "newTotalEraLevels",
          "type": "uint256"
        },
        {
          "indexed": false,
          "internalType": "uint256",
          "name": "newEraUserLevels",
          "type": "uint256"
        }
      ],
      "name": "PoolLevelAdded",
      "type": "event"
    },
    {
      "anonymous": false,
      "inputs": [
        {
          "indexed": true,
          "internalType": "address",
          "name": "user",
          "type": "address"
        },
        {
          "indexed": false,
          "internalType": "uint256",
          "name": "era",
          "type": "uint256"
        },
        {
          "indexed": false,
          "internalType": "uint256",
          "name": "levelsRemoved",
          "type": "uint256"
        },
        {
          "indexed": false,
          "internalType": "uint256",
          "name": "newTotalEraLevels",
          "type": "uint256"
        },
        {
          "indexed": false,
          "internalType": "uint256",
          "name": "newEraUserLevels",
          "type": "uint256"
        }
      ],
      "name": "PoolLevelRemoved",
      "type": "event"
    },
    {
      "anonymous": false,
      "inputs": [
        {
          "indexed": true,
          "internalType": "address",
          "name": "user",
          "type": "address"
        },
        {
          "indexed": false,
          "internalType": "uint256",
          "name": "era",
          "type": "uint256"
        },
        {
          "indexed": false,
          "internalType": "uint256",
          "name": "amount",
          "type": "uint256"
        }
      ],
      "name": "TokensWithdrawn",
      "type": "event"
    },
    {
      "inputs": [],
      "name": "BLOCKS_PRECISION",
      "outputs": [
        {
          "internalType": "uint256",
          "name": "",
          "type": "uint256"
        }
      ],
      "stateMutability": "view",
      "type": "function"
    },
    {
      "inputs": [
        {
          "internalType": "address",
          "name": "addr",
          "type": "address"
        },
        {
          "internalType": "uint256",
          "name": "levels",
          "type": "uint256"
        },
        {
          "internalType": "uint64",
          "name": "eventId",
          "type": "uint64"
        }
      ],
      "name": "addLevel",
      "outputs": [],
      "stateMutability": "nonpayable",
      "type": "function"
    },
    {
      "inputs": [
        {
          "internalType": "address",
          "name": "",
          "type": "address"
        }
      ],
      "name": "allowedCallers",
      "outputs": [
        {
          "internalType": "bool",
          "name": "",
          "type": "bool"
        }
      ],
      "stateMutability": "view",
      "type": "function"
    },
    {
      "inputs": [
        {
          "internalType": "uint256",
          "name": "currentUserEra",
          "type": "uint256"
        }
      ],
      "name": "canWithdraw",
      "outputs": [
        {
          "internalType": "bool",
          "name": "",
          "type": "bool"
        }
      ],
      "stateMutability": "view",
      "type": "function"
    },
    {
      "inputs": [
        {
          "internalType": "uint256",
          "name": "currentUserEra",
          "type": "uint256"
        }
      ],
      "name": "canWithdrawTimes",
      "outputs": [
        {
          "internalType": "uint256",
          "name": "",
          "type": "uint256"
        }
      ],
      "stateMutability": "view",
      "type": "function"
    },
    {
      "inputs": [],
      "name": "currentContractEra",
      "outputs": [
        {
          "internalType": "uint256",
          "name": "",
          "type": "uint256"
        }
      ],
      "stateMutability": "view",
      "type": "function"
    },
    {
      "inputs": [],
      "name": "currentEpoch",
      "outputs": [
        {
          "internalType": "uint256",
          "name": "",
          "type": "uint256"
        }
      ],
      "stateMutability": "view",
      "type": "function"
    },
    {
      "inputs": [],
      "name": "developerRulesAddress",
      "outputs": [
        {
          "internalType": "address",
          "name": "",
          "type": "address"
        }
      ],
      "stateMutability": "view",
      "type": "function"
    },
    {
      "inputs": [
        {
          "internalType": "uint256",
          "name": "",
          "type": "uint256"
        },
        {
          "internalType": "address",
          "name": "",
          "type": "address"
        }
      ],
      "name": "eraLevels",
      "outputs": [
        {
          "internalType": "uint256",
          "name": "",
          "type": "uint256"
        }
      ],
      "stateMutability": "view",
      "type": "function"
    },
    {
      "inputs": [
        {
          "internalType": "uint256",
          "name": "",
          "type": "uint256"
        },
        {
          "internalType": "address",
          "name": "",
          "type": "address"
        }
      ],
      "name": "eraTokens",
      "outputs": [
        {
          "internalType": "uint256",
          "name": "",
          "type": "uint256"
        }
      ],
      "stateMutability": "view",
      "type": "function"
    },
    {
      "inputs": [
        {
          "internalType": "uint256",
          "name": "",
          "type": "uint256"
        }
      ],
      "name": "eras",
      "outputs": [
        {
          "internalType": "uint256",
          "name": "claimsCount",
          "type": "uint256"
        },
        {
          "internalType": "uint256",
          "name": "tokens",
          "type": "uint256"
        },
        {
          "internalType": "uint256",
          "name": "levels",
          "type": "uint256"
        }
      ],
      "stateMutability": "view",
      "type": "function"
    },
    {
      "inputs": [
        {
          "internalType": "uint256",
          "name": "era",
          "type": "uint256"
        }
      ],
      "name": "getEpochForEra",
      "outputs": [
        {
          "internalType": "uint256",
          "name": "",
          "type": "uint256"
        }
      ],
      "stateMutability": "view",
      "type": "function"
    },
    {
      "inputs": [
        {
          "internalType": "uint256",
          "name": "era",
          "type": "uint256"
        }
      ],
      "name": "getEra",
      "outputs": [
        {
          "components": [
            {
              "internalType": "uint256",
              "name": "claimsCount",
              "type": "uint256"
            },
            {
              "internalType": "uint256",
              "name": "tokens",
              "type": "uint256"
            },
            {
              "internalType": "uint256",
              "name": "levels",
              "type": "uint256"
            }
          ],
          "internalType": "struct Era",
          "name": "",
          "type": "tuple"
        }
      ],
      "stateMutability": "view",
      "type": "function"
    },
    {
      "inputs": [
        {
          "internalType": "uint64",
          "name": "",
          "type": "uint64"
        }
      ],
      "name": "hasProcessedLevel",
      "outputs": [
        {
          "internalType": "bool",
          "name": "",
          "type": "bool"
        }
      ],
      "stateMutability": "view",
      "type": "function"
    },
    {
      "inputs": [
        {
          "internalType": "uint256",
          "name": "",
          "type": "uint256"
        },
        {
          "internalType": "address",
          "name": "",
          "type": "address"
        }
      ],
      "name": "hasWithdrawn",
      "outputs": [
        {
          "internalType": "bool",
          "name": "",
          "type": "bool"
        }
      ],
      "stateMutability": "view",
      "type": "function"
    },
    {
      "inputs": [
        {
          "internalType": "address",
          "name": "delegate",
          "type": "address"
        },
        {
          "internalType": "uint256",
          "name": "era",
          "type": "uint256"
        }
      ],
      "name": "haveTokensToWithdraw",
      "outputs": [
        {
          "internalType": "bool",
          "name": "",
          "type": "bool"
        }
      ],
      "stateMutability": "view",
      "type": "function"
    },
    {
      "inputs": [
        {
          "internalType": "address",
          "name": "caller",
          "type": "address"
        }
      ],
      "name": "isAllowedCaller",
      "outputs": [
        {
          "internalType": "bool",
          "name": "",
          "type": "bool"
        }
      ],
      "stateMutability": "view",
      "type": "function"
    },
    {
      "inputs": [
        {
          "internalType": "address",
          "name": "allowed",
          "type": "address"
        }
      ],
      "name": "newAllowedCaller",
      "outputs": [],
      "stateMutability": "nonpayable",
      "type": "function"
    },
    {
      "inputs": [
        {
          "internalType": "uint256",
          "name": "targetEra",
          "type": "uint256"
        }
      ],
      "name": "nextEraIn",
      "outputs": [
        {
          "internalType": "int256",
          "name": "",
          "type": "int256"
        }
      ],
      "stateMutability": "view",
      "type": "function"
    },
    {
      "inputs": [],
      "name": "owner",
      "outputs": [
        {
          "internalType": "address",
          "name": "",
          "type": "address"
        }
      ],
      "stateMutability": "view",
      "type": "function"
    },
    {
      "inputs": [],
      "name": "regenerationCredit",
      "outputs": [
        {
          "internalType": "contract IRegenerationCredit",
          "name": "",
          "type": "address"
        }
      ],
      "stateMutability": "view",
      "type": "function"
    },
    {
      "inputs": [
        {
          "internalType": "address",
          "name": "addr",
          "type": "address"
        },
        {
          "internalType": "bool",
          "name": "denied",
          "type": "bool"
        }
      ],
      "name": "removePoolLevels",
      "outputs": [],
      "stateMutability": "nonpayable",
      "type": "function"
    },
    {
      "inputs": [],
      "name": "renounceOwnership",
      "outputs": [],
      "stateMutability": "nonpayable",
      "type": "function"
    },
    {
      "inputs": [
        {
          "internalType": "address",
          "name": "_developerRulesAddress",
          "type": "address"
        }
      ],
      "name": "setContractCall",
      "outputs": [],
      "stateMutability": "nonpayable",
      "type": "function"
    },
    {
      "inputs": [
        {
          "internalType": "uint256",
          "name": "currentEpoch",
          "type": "uint256"
        }
      ],
      "name": "tokensPerEpoch",
      "outputs": [
        {
          "internalType": "uint256",
          "name": "",
          "type": "uint256"
        }
      ],
      "stateMutability": "view",
      "type": "function"
    },
    {
      "inputs": [
        {
          "internalType": "uint256",
          "name": "currentEpoch",
          "type": "uint256"
        },
        {
          "internalType": "uint256",
          "name": "halvingFactor",
          "type": "uint256"
        }
      ],
      "name": "tokensPerEra",
      "outputs": [
        {
          "internalType": "uint256",
          "name": "",
          "type": "uint256"
        }
      ],
      "stateMutability": "view",
      "type": "function"
    },
    {
      "inputs": [
        {
          "internalType": "address",
          "name": "newOwner",
          "type": "address"
        }
      ],
      "name": "transferOwnership",
      "outputs": [],
      "stateMutability": "nonpayable",
      "type": "function"
    },
    {
      "inputs": [
        {
          "internalType": "address",
          "name": "delegate",
          "type": "address"
        },
        {
          "internalType": "uint256",
          "name": "era",
          "type": "uint256"
        }
      ],
      "name": "withdraw",
      "outputs": [],
      "stateMutability": "nonpayable",
      "type": "function"
    }
  ],
  "bytecode": "0x61010060405234801561001157600080fd5b50604051611715380380611715833981016040819052610030916100fb565b6a211654585005212800000060805260a08190524360c05260e0829052338061007357604051631e4fbdf760e01b81526000600482015260240160405180910390fd5b61007c816100a9565b5050600160065550600780546001600160a01b0319166001600160a01b039290921691909117905561013e565b600480546001600160a01b038381166001600160a01b0319831681179093556040519116919082907f8be0079c531659141344cd1fd0a4f28419497f9722a3daafe3b4186f6b6457e090600090a35050565b60008060006060848603121561011057600080fd5b83516001600160a01b038116811461012757600080fd5b602085015160409095015190969495509392505050565b60805160a05160c05160e051611582610193600039600081816104de015261091c0152600081816109e80152610a27015260008181610856015281816109bd0152610a530152600061060001526115826000f3fe608060405234801561001057600080fd5b50600436106101c45760003560e01c8063861b4ce1116100f9578063d5ee3eb511610097578063f2fde38b11610071578063f2fde38b14610465578063f3fef3a314610478578063fbe85f061461048b578063ff39043c1461049e57600080fd5b8063d5ee3eb514610427578063e78a82ff1461043a578063ed0df79e1461045d57600080fd5b80638f93716f116100d35780638f93716f146103a757806394cec7a7146103ba578063a6801258146103e8578063b86c56991461041457600080fd5b8063861b4ce11461036357806388b3acae1461036b5780638da5cb5b1461039657600080fd5b8063715018a611610166578063755d4f9711610140578063755d4f971461031257806376671808146103255780637721f1b51461032d5780637b3341541461034057600080fd5b8063715018a6146102ad57806371d0921a146102b5578063720a70bd146102c857600080fd5b8063218f23ca116101a2578063218f23ca1461023d5780632506b932146102525780632eedcb18146102655780632f9ed1ef1461029a57600080fd5b80630a281c80146101c95780630f2dbe60146101f95780631f14f4151461021c575b600080fd5b6008546101dc906001600160a01b031681565b6040516001600160a01b0390911681526020015b60405180910390f35b61020c6102073660046111a8565b6104c9565b60405190151581526020016101f0565b61022f61022a3660046111d2565b610510565b6040519081526020016101f0565b61025061024b366004611202565b610526565b005b61022f610260366004611239565b6105ed565b610278610273366004611239565b610624565b60408051825181526020808401519082015291810151908201526060016101f0565b6007546101dc906001600160a01b031681565b61025061067f565b6102506102c336600461126a565b610693565b6102f76102d6366004611239565b60006020819052908152604090208054600182015460029092015490919083565b604080519384526020840192909252908201526060016101f0565b6102506103203660046112a6565b6107eb565b61022f610815565b61022f61033b366004611239565b610827565b61020c61034e3660046112a6565b60056020526000908152604090205460ff1681565b61022f600581565b61022f6103793660046112c1565b600160209081526000928352604080842090915290825290205481565b6004546001600160a01b03166101dc565b6102506103b53660046112a6565b61089d565b61020c6103c83660046112c1565b600360209081526000928352604080842090915290825290205460ff1681565b61020c6103f63660046112a6565b6001600160a01b031660009081526005602052604090205460ff1690565b61022f610422366004611239565b6108c9565b61022f610435366004611239565b61095b565b61020c6104483660046112ed565b60096020526000908152604090205460ff1681565b61022f610a1f565b6102506104733660046112a6565b610a89565b6102506104863660046111a8565b610ac7565b61020c610499366004611239565b610dcc565b61022f6104ac3660046112c1565b600260209081526000928352604080842090915290825290205481565b600061050783836105026104dc866108c9565b7f0000000000000000000000000000000000000000000000000000000000000000610510565b610dde565b90505b92915050565b60008161051c846105ed565b610507919061131e565b3360009081526005602052604090205460ff1661055e5760405162461bcd60e51b815260040161055590611340565b60405180910390fd5b6008546001600160a01b03163381146105895760405162461bcd60e51b81526004016105559061136c565b610591610df7565b600061059b610a1f565b90506000836105ab5760016105cf565b60008281526001602090815260408083206001600160a01b03891684529091529020545b90506105dc858383610e21565b50506105e86001600655565b505050565b60006105fa82600261148a565b61050a907f000000000000000000000000000000000000000000000000000000000000000061131e565b61064860405180606001604052806000815260200160008152602001600081525090565b5060009081526020818152604091829020825160608101845281548152600182015492810192909252600201549181019190915290565b610687610f31565b6106916000610f5e565b565b3360009081526005602052604090205460ff166106c25760405162461bcd60e51b815260040161055590611340565b6008546001600160a01b03163381146106ed5760405162461bcd60e51b81526004016105559061136c565b6106f5610df7565b600183111561073b5760405162461bcd60e51b815260206004820152601260248201527145786365656473206d6178206c6576656c7360701b6044820152606401610555565b67ffffffffffffffff821660009081526009602052604090205460ff16156107a55760405162461bcd60e51b815260206004820152601760248201527f4576656e7420616c72656164792070726f6365737365640000000000000000006044820152606401610555565b67ffffffffffffffff82166000908152600960205260409020805460ff191660011790556107db84846107d6610a1f565b610fb0565b6107e56001600655565b50505050565b6107f3610f31565b600880546001600160a01b0319166001600160a01b0392909216919091179055565b6000610822610422610a1f565b905090565b6000806108338361095b565b905060008113156108475750600092915050565b600061085282611496565b90507f00000000000000000000000000000000000000000000000000000000000000006108816005600a61148a565b61088b90836114b2565b610895919061131e565b949350505050565b6108a5610f31565b6001600160a01b03166000908152600560205260409020805460ff19166001179055565b600080821161091a5760405162461bcd60e51b815260206004820152601a60248201527f457261206d7573742062652067726561746572207468616e20300000000000006044820152606401610555565b7f00000000000000000000000000000000000000000000000000000000000000006109466001846114c9565b610950919061131e565b61050a9060016114dc565b60008082116109b65760405162461bcd60e51b815260206004820152602160248201527f54617267657420657261206d7573742062652067726561746572207468616e206044820152600360fc1b6064820152608401610555565b60006109e27f0000000000000000000000000000000000000000000000000000000000000000846114b2565b610a0c907f00000000000000000000000000000000000000000000000000000000000000006114dc565b9050610a1843826114ef565b9392505050565b600080610a4c7f0000000000000000000000000000000000000000000000000000000000000000436114c9565b9050610a787f00000000000000000000000000000000000000000000000000000000000000008261131e565b610a839060016114dc565b91505090565b610a91610f31565b6001600160a01b038116610abb57604051631e4fbdf760e01b815260006004820152602401610555565b610ac481610f5e565b50565b3360009081526005602052604090205460ff16610af65760405162461bcd60e51b815260040161055590611340565b6008546001600160a01b0316338114610b215760405162461bcd60e51b81526004016105559061136c565b81610b2b81610dcc565b610b6f5760405162461bcd60e51b8152602060048201526015602482015274165bdd4818d85b89dd08185c1c1c9bdd99481e595d605a1b6044820152606401610555565b60008381526003602090815260408083206001600160a01b03881684529091529020548390859060ff1615610be65760405162461bcd60e51b815260206004820152601e60248201527f416c72656164792077697468647261776e20666f7220746869732065726100006044820152606401610555565b610bee610df7565b610bf6610a1f565b851115610c395760405162461bcd60e51b815260206004820152601160248201527045726120696e207468652066757475726560781b6044820152606401610555565b60008581526003602090815260408083206001600160a01b038a1684529091528120805460ff19166001179055610c7c8688610c776104dc836108c9565b611086565b9050610c898688836110ec565b80600003610c975750610dba565b600754604051631caccb1d60e31b8152600481018390526001600160a01b039091169063e56658e890602401600060405180830381600087803b158015610cdd57600080fd5b505af1158015610cf1573d6000803e3d6000fd5b505060075460405163a9059cbb60e01b81526001600160a01b038b811660048301526024820186905260009450909116915063a9059cbb906044016020604051808303816000875af1158015610d4b573d6000803e3d6000fd5b505050506040513d601f19601f82011682018060405250810190610d6f9190611516565b905080610db75760405162461bcd60e51b8152602060048201526016602482015275115490cc8c0e881d1c985b9cd9995c8819985a5b195960521b6044820152606401610555565b50505b610dc46001600655565b505050505050565b6000610dd6610a1f565b909110919050565b600080610dec848685611086565b151595945050505050565b600260065403610e1a57604051633ee5aeb560e01b815260040160405180910390fd5b6002600655565b60008281526001602090815260408083206001600160a01b038716845290915281205490819003610e525750505050565b80821115610e5e578091505b60008381526020819052604081206002018054849290610e7f9084906114c9565b909155505060008381526001602090815260408083206001600160a01b038816845290915281208054849290610eb69084906114c9565b909155505060008381526020818152604080832060020154600183528184206001600160a01b038916808652908452938290205482518881529384018790529183015260608201527f8df21415d734537dcf01ffb77472049844f905c24abd54708d93555ea85239f99060800160405180910390a250505050565b6004546001600160a01b031633146106915760405163118cdaa760e01b8152336004820152602401610555565b600480546001600160a01b038381166001600160a01b0319831681179093556040519116919082907f8be0079c531659141344cd1fd0a4f28419497f9722a3daafe3b4186f6b6457e090600090a35050565b600081815260208190526040902060020154610fcd9083906114dc565b60008281526020818152604080832060020193909355600181528282206001600160a01b03871683529052908120805484929061100b9084906114dc565b909155505060008181526020818152604080832060020154600183528184206001600160a01b038816808652908452938290205482518681529384018790529183015260608201527ffc6907b3f86e1e63de43e8e6af6345e03bbc9726a0f63eddb4021532417f78b1906080015b60405180910390a2505050565b60008381526020818152604080832060020154600183528184206001600160a01b03871685529092528220548015806110bd575081155b156110cd57600092505050610a18565b816110d885836114b2565b6110e2919061131e565b9695505050505050565b600083815260208190526040812080549161110683611533565b90915550506000838152602081905260408120600101805483929061112c9084906114dc565b909155505060008381526002602090815260408083206001600160a01b0386168085529083529281902084905580518681529182018490527fffe903c0abe6b2dbb2f3474ef43d7a3c1fca49e5a774453423ca8e1952aabffa9101611079565b80356001600160a01b03811681146111a357600080fd5b919050565b600080604083850312156111bb57600080fd5b6111c48361118c565b946020939093013593505050565b600080604083850312156111e557600080fd5b50508035926020909101359150565b8015158114610ac457600080fd5b6000806040838503121561121557600080fd5b61121e8361118c565b9150602083013561122e816111f4565b809150509250929050565b60006020828403121561124b57600080fd5b5035919050565b803567ffffffffffffffff811681146111a357600080fd5b60008060006060848603121561127f57600080fd5b6112888461118c565b92506020840135915061129d60408501611252565b90509250925092565b6000602082840312156112b857600080fd5b6105078261118c565b600080604083850312156112d457600080fd5b823591506112e46020840161118c565b90509250929050565b6000602082840312156112ff57600080fd5b61050782611252565b634e487b7160e01b600052601160045260246000fd5b60008261133b57634e487b7160e01b600052601260045260246000fd5b500490565b6020808252601290820152712737ba1030b63637bbb2b21031b0b63632b960711b604082015260600190565b6020808252601e908201527f43616c6c6572206d7573742062652073797374656d20636f6e74726163740000604082015260600190565b6001815b60018411156113de578085048111156113c2576113c2611308565b60018416156113d057908102905b60019390931c9280026113a7565b935093915050565b6000826113f55750600161050a565b816114025750600061050a565b816001811461141857600281146114225761143e565b600191505061050a565b60ff84111561143357611433611308565b50506001821b61050a565b5060208310610133831016604e8410600b8410161715611461575081810a61050a565b61146e60001984846113a3565b806000190482111561148257611482611308565b029392505050565b600061050783836113e6565b6000600160ff1b82016114ab576114ab611308565b5060000390565b808202811582820484141761050a5761050a611308565b8181038181111561050a5761050a611308565b8082018082111561050a5761050a611308565b818103600083128015838313168383128216171561150f5761150f611308565b5092915050565b60006020828403121561152857600080fd5b8151610a18816111f4565b60006001820161154557611545611308565b506001019056fea26469706673582212206f6816fbcaaf0f5d984ea3d1e964613b724d6bbe04590a2e73d1caa437de854364736f6c634300081b0033",
  "linkReferences": {},
  "deployedLinkReferences": {}
}