{
  "_format": "hh-sol-artifact-1",
  "contractName": "InspectorRules",
  "sourceName": "contracts/InspectorRules.sol",
  "abi": [
    {
      "inputs": [
        {
          "internalType": "address",
          "name": "communityRulesAddress",
          "type": "address"
        },
        {
          "internalType": "address",
          "name": "inspectorPoolAddress",
          "type": "address"
        },
        {
          "internalType": "uint8",
          "name": "maxPenalties_",
          "type": "uint8"
        }
      ],
      "stateMutability": "nonpayable",
      "type": "constructor"
    },
    {
      "inputs": [
        {
          "internalType": "address",
          "name": "owner",
          "type": "address"
        }
      ],
      "name": "OwnableInvalidOwner",
      "type": "error"
    },
    {
      "inputs": [
        {
          "internalType": "address",
          "name": "account",
          "type": "address"
        }
      ],
      "name": "OwnableUnauthorizedAccount",
      "type": "error"
    },
    {
      "inputs": [],
      "name": "ReentrancyGuardReentrantCall",
      "type": "error"
    },
    {
      "anonymous": false,
      "inputs": [
        {
          "indexed": true,
          "internalType": "address",
          "name": "inspectorAddress",
          "type": "address"
        },
        {
          "indexed": false,
          "internalType": "uint256",
          "name": "newLevel",
          "type": "uint256"
        },
        {
          "indexed": false,
          "internalType": "uint256",
          "name": "blockNumber",
          "type": "uint256"
        }
      ],
      "name": "InspectorLevelIncreased",
      "type": "event"
    },
    {
      "anonymous": false,
      "inputs": [
        {
          "indexed": true,
          "internalType": "uint256",
          "name": "id",
          "type": "uint256"
        },
        {
          "indexed": true,
          "internalType": "address",
          "name": "inspectorAddress",
          "type": "address"
        },
        {
          "indexed": false,
          "internalType": "string",
          "name": "name",
          "type": "string"
        },
        {
          "indexed": false,
          "internalType": "uint256",
          "name": "blockNumber",
          "type": "uint256"
        }
      ],
      "name": "InspectorRegistered",
      "type": "event"
    },
    {
      "anonymous": false,
      "inputs": [
        {
          "indexed": true,
          "internalType": "address",
          "name": "inspectorAddress",
          "type": "address"
        },
        {
          "indexed": true,
          "internalType": "uint256",
          "name": "era",
          "type": "uint256"
        },
        {
          "indexed": false,
          "internalType": "uint256",
          "name": "blockNumber",
          "type": "uint256"
        }
      ],
      "name": "InspectorWithdrawalInitiated",
      "type": "event"
    },
    {
      "anonymous": false,
      "inputs": [
        {
          "indexed": true,
          "internalType": "address",
          "name": "previousOwner",
          "type": "address"
        },
        {
          "indexed": true,
          "internalType": "address",
          "name": "newOwner",
          "type": "address"
        }
      ],
      "name": "OwnershipTransferred",
      "type": "event"
    },
    {
      "inputs": [],
      "name": "BLOCKS_TO_ACCEPT",
      "outputs": [
        {
          "internalType": "uint32",
          "name": "",
          "type": "uint32"
        }
      ],
      "stateMutability": "view",
      "type": "function"
    },
    {
      "inputs": [],
      "name": "MAX_GIVEUPS",
      "outputs": [
        {
          "internalType": "uint8",
          "name": "",
          "type": "uint8"
        }
      ],
      "stateMutability": "view",
      "type": "function"
    },
    {
      "inputs": [],
      "name": "MINIMUM_INSPECTIONS_TO_POOL",
      "outputs": [
        {
          "internalType": "uint8",
          "name": "",
          "type": "uint8"
        }
      ],
      "stateMutability": "view",
      "type": "function"
    },
    {
      "inputs": [
        {
          "internalType": "string",
          "name": "name",
          "type": "string"
        },
        {
          "internalType": "string",
          "name": "proofPhoto",
          "type": "string"
        }
      ],
      "name": "addInspector",
      "outputs": [],
      "stateMutability": "nonpayable",
      "type": "function"
    },
    {
      "inputs": [
        {
          "internalType": "address",
          "name": "addr",
          "type": "address"
        },
        {
          "internalType": "uint64",
          "name": "inspectionId",
          "type": "uint64"
        }
      ],
      "name": "addPenalty",
      "outputs": [
        {
          "internalType": "uint256",
          "name": "",
          "type": "uint256"
        }
      ],
      "stateMutability": "nonpayable",
      "type": "function"
    },
    {
      "inputs": [
        {
          "internalType": "address",
          "name": "addr",
          "type": "address"
        },
        {
          "internalType": "uint64",
          "name": "lastInspectionId",
          "type": "uint64"
        }
      ],
      "name": "afterAcceptInspection",
      "outputs": [],
      "stateMutability": "nonpayable",
      "type": "function"
    },
    {
      "inputs": [
        {
          "internalType": "address",
          "name": "addr",
          "type": "address"
        },
        {
          "internalType": "uint32",
          "name": "score",
          "type": "uint32"
        },
        {
          "internalType": "uint64",
          "name": "inspectionId",
          "type": "uint64"
        }
      ],
      "name": "afterRealizeInspection",
      "outputs": [
        {
          "internalType": "uint256",
          "name": "",
          "type": "uint256"
        }
      ],
      "stateMutability": "nonpayable",
      "type": "function"
    },
    {
      "inputs": [
        {
          "internalType": "address",
          "name": "",
          "type": "address"
        }
      ],
      "name": "allowedCallers",
      "outputs": [
        {
          "internalType": "bool",
          "name": "",
          "type": "bool"
        }
      ],
      "stateMutability": "view",
      "type": "function"
    },
    {
      "inputs": [
        {
          "internalType": "address",
          "name": "addr",
          "type": "address"
        }
      ],
      "name": "canAcceptInspection",
      "outputs": [
        {
          "internalType": "bool",
          "name": "",
          "type": "bool"
        }
      ],
      "stateMutability": "view",
      "type": "function"
    },
    {
      "inputs": [],
      "name": "communityRules",
      "outputs": [
        {
          "internalType": "contract ICommunityRules",
          "name": "",
          "type": "address"
        }
      ],
      "stateMutability": "view",
      "type": "function"
    },
    {
      "inputs": [
        {
          "internalType": "address",
          "name": "addr",
          "type": "address"
        }
      ],
      "name": "decrementInspections",
      "outputs": [],
      "stateMutability": "nonpayable",
      "type": "function"
    },
    {
      "inputs": [
        {
          "internalType": "address",
          "name": "userAddress",
          "type": "address"
        }
      ],
      "name": "denyInspector",
      "outputs": [],
      "stateMutability": "nonpayable",
      "type": "function"
    },
    {
      "inputs": [
        {
          "internalType": "address",
          "name": "addr",
          "type": "address"
        }
      ],
      "name": "getInspector",
      "outputs": [
        {
          "components": [
            {
              "internalType": "uint64",
              "name": "id",
              "type": "uint64"
            },
            {
              "internalType": "address",
              "name": "inspectorWallet",
              "type": "address"
            },
            {
              "internalType": "string",
              "name": "name",
              "type": "string"
            },
            {
              "internalType": "string",
              "name": "proofPhoto",
              "type": "string"
            },
            {
              "internalType": "uint256",
              "name": "totalInspections",
              "type": "uint256"
            },
            {
              "internalType": "uint256",
              "name": "giveUps",
              "type": "uint256"
            },
            {
              "internalType": "uint256",
              "name": "lastAcceptedAt",
              "type": "uint256"
            },
            {
              "internalType": "uint256",
              "name": "lastRealizedAt",
              "type": "uint256"
            },
            {
              "internalType": "uint64",
              "name": "lastInspection",
              "type": "uint64"
            },
            {
              "components": [
                {
                  "internalType": "uint256",
                  "name": "level",
                  "type": "uint256"
                },
                {
                  "internalType": "uint256",
                  "name": "currentEra",
                  "type": "uint256"
                }
              ],
              "internalType": "struct Pool",
              "name": "pool",
              "type": "tuple"
            },
            {
              "internalType": "uint256",
              "name": "createdAt",
              "type": "uint256"
            }
          ],
          "internalType": "struct Inspector",
          "name": "",
          "type": "tuple"
        }
      ],
      "stateMutability": "view",
      "type": "function"
    },
    {
      "inputs": [],
      "name": "inspectionRulesAddress",
      "outputs": [
        {
          "internalType": "address",
          "name": "",
          "type": "address"
        }
      ],
      "stateMutability": "view",
      "type": "function"
    },
    {
      "inputs": [],
      "name": "inspectorPool",
      "outputs": [
        {
          "internalType": "contract IInspectorPool",
          "name": "",
          "type": "address"
        }
      ],
      "stateMutability": "view",
      "type": "function"
    },
    {
      "inputs": [
        {
          "internalType": "uint256",
          "name": "",
          "type": "uint256"
        }
      ],
      "name": "inspectorsAddress",
      "outputs": [
        {
          "internalType": "address",
          "name": "",
          "type": "address"
        }
      ],
      "stateMutability": "view",
      "type": "function"
    },
    {
      "inputs": [
        {
          "internalType": "address",
          "name": "caller",
          "type": "address"
        }
      ],
      "name": "isAllowedCaller",
      "outputs": [
        {
          "internalType": "bool",
          "name": "",
          "type": "bool"
        }
      ],
      "stateMutability": "view",
      "type": "function"
    },
    {
      "inputs": [
        {
          "internalType": "address",
          "name": "addr",
          "type": "address"
        }
      ],
      "name": "isInspectorValid",
      "outputs": [
        {
          "internalType": "bool",
          "name": "",
          "type": "bool"
        }
      ],
      "stateMutability": "view",
      "type": "function"
    },
    {
      "inputs": [],
      "name": "maxPenalties",
      "outputs": [
        {
          "internalType": "uint8",
          "name": "",
          "type": "uint8"
        }
      ],
      "stateMutability": "view",
      "type": "function"
    },
    {
      "inputs": [
        {
          "internalType": "address",
          "name": "allowed",
          "type": "address"
        }
      ],
      "name": "newAllowedCaller",
      "outputs": [],
      "stateMutability": "nonpayable",
      "type": "function"
    },
    {
      "inputs": [],
      "name": "owner",
      "outputs": [
        {
          "internalType": "address",
          "name": "",
          "type": "address"
        }
      ],
      "stateMutability": "view",
      "type": "function"
    },
    {
      "inputs": [
        {
          "internalType": "address",
          "name": "",
          "type": "address"
        },
        {
          "internalType": "uint256",
          "name": "",
          "type": "uint256"
        }
      ],
      "name": "penalties",
      "outputs": [
        {
          "internalType": "uint64",
          "name": "inspectionId",
          "type": "uint64"
        }
      ],
      "stateMutability": "view",
      "type": "function"
    },
    {
      "inputs": [],
      "name": "poolCurrentEra",
      "outputs": [
        {
          "internalType": "uint256",
          "name": "",
          "type": "uint256"
        }
      ],
      "stateMutability": "view",
      "type": "function"
    },
    {
      "inputs": [
        {
          "internalType": "address",
          "name": "addr",
          "type": "address"
        },
        {
          "internalType": "bool",
          "name": "denied",
          "type": "bool"
        }
      ],
      "name": "removePoolLevels",
      "outputs": [],
      "stateMutability": "nonpayable",
      "type": "function"
    },
    {
      "inputs": [],
      "name": "renounceOwnership",
      "outputs": [],
      "stateMutability": "nonpayable",
      "type": "function"
    },
    {
      "inputs": [
        {
          "internalType": "address",
          "name": "_inspectionRulesAddress",
          "type": "address"
        }
      ],
      "name": "setContractCall",
      "outputs": [],
      "stateMutability": "nonpayable",
      "type": "function"
    },
    {
      "inputs": [
        {
          "internalType": "address",
          "name": "addr",
          "type": "address"
        }
      ],
      "name": "totalPenalties",
      "outputs": [
        {
          "internalType": "uint256",
          "name": "",
          "type": "uint256"
        }
      ],
      "stateMutability": "view",
      "type": "function"
    },
    {
      "inputs": [
        {
          "internalType": "address",
          "name": "newOwner",
          "type": "address"
        }
      ],
      "name": "transferOwnership",
      "outputs": [],
      "stateMutability": "nonpayable",
      "type": "function"
    },
    {
      "inputs": [],
      "name": "withdraw",
      "outputs": [],
      "stateMutability": "nonpayable",
      "type": "function"
    }
  ],
  "bytecode": "0x60a060405234801561001057600080fd5b5060405161209938038061209983398101604081905261002f9161010b565b338061005557604051631e4fbdf760e01b81526000600482015260240160405180910390fd5b61005e8161009f565b506001600255600680546001600160a01b039485166001600160a01b031991821617909155600780549390941692169190911790915560ff16608052610158565b600080546001600160a01b038381166001600160a01b0319831681178455604051919092169283917f8be0079c531659141344cd1fd0a4f28419497f9722a3daafe3b4186f6b6457e09190a35050565b80516001600160a01b038116811461010657600080fd5b919050565b60008060006060848603121561012057600080fd5b610129846100ef565b9250610137602085016100ef565b9150604084015160ff8116811461014d57600080fd5b809150509250925092565b608051611f26610173600039600061042a0152611f266000f3fe608060405234801561001057600080fd5b50600436106101cf5760003560e01c80638da5cb5b11610104578063b1e86655116100a2578063d01ac9a611610071578063d01ac9a614610472578063e05cf15514610485578063e8f7dfcf1461048d578063f2fde38b146104ad57600080fd5b8063b1e8665514610412578063b24eb76914610425578063c3c983d21461044c578063ce59654a1461045f57600080fd5b806396cd0357116100de57806396cd0357146103c05780639c960450146103d3578063a6801258146103e6578063a77963f01461030b57600080fd5b80638da5cb5b146103895780638f93716f1461039a5780638fbaf601146103ad57600080fd5b80635fa71c2811610171578063715018a61161014b578063715018a614610338578063755d4f97146103405780637b334154146103535780637fbbbf1c1461037657600080fd5b80635fa71c28146102e057806367b769a81461030b5780636dd8894a1461032557600080fd5b80632076267b116101ad5780632076267b14610259578063218f23ca146102825780633ccfd60b146102975780634d5ff1d31461029f57600080fd5b8063031a7052146101d45780630da0933a146101f75780631e2d317614610238575b600080fd5b6101dd61177081565b60405163ffffffff90911681526020015b60405180910390f35b6102206102053660046117b9565b6005602052600090815260409020546001600160a01b031681565b6040516001600160a01b0390911681526020016101ee565b61024b6102463660046117fc565b6104c0565b6040519081526020016101ee565b61024b610267366004611850565b6001600160a01b031660009081526004602052604090205490565b610295610290366004611882565b610583565b005b610295610666565b6102d06102ad366004611850565b6001600160a01b0316600090815260036020819052604090912060040154111590565b60405190151581526020016101ee565b6102f36102ee3660046118bb565b610916565b6040516001600160401b0390911681526020016101ee565b610313600381565b60405160ff90911681526020016101ee565b600754610220906001600160a01b031681565b61029561094e565b61029561034e366004611850565b610960565b6102d0610361366004611850565b60016020526000908152604090205460ff1681565b6102d0610384366004611850565b61098a565b6000546001600160a01b0316610220565b6102956103a8366004611850565b6109c9565b600854610220906001600160a01b031681565b6102956103ce3660046118e7565b6109f8565b6102956103e13660046119b8565b610a9b565b6102d06103f4366004611850565b6001600160a01b031660009081526001602052604090205460ff1690565b61024b6104203660046118e7565b610db7565b6103137f000000000000000000000000000000000000000000000000000000000000000081565b61029561045a366004611850565b610e8d565b600654610220906001600160a01b031681565b610295610480366004611850565b610f6e565b61024b6111ef565b6104a061049b366004611850565b611262565b6040516101ee9190611a65565b6102956104bb366004611850565b61144b565b3360009081526001602052604081205460ff166104f85760405162461bcd60e51b81526004016104ef90611b4d565b60405180910390fd5b6008546001600160a01b03163381146105235760405162461bcd60e51b81526004016104ef90611b79565b61052b611489565b610534856114b1565b63ffffffff8416156105515761054a85846114e0565b9150610571565b6001600160a01b0385166000908152600360208190526040909120015491505b61057b6001600255565b509392505050565b3360009081526001602052604090205460ff166105b25760405162461bcd60e51b81526004016104ef90611b4d565b6105ba611489565b806105f1576001600160a01b03821660009081526003602052604081206008018054600192906105eb908490611bc6565b90915550505b6007546040516310c791e560e11b81526001600160a01b03848116600483015283151560248301529091169063218f23ca90604401600060405180830381600087803b15801561064057600080fd5b505af1158015610654573d6000803e3d6000fd5b505050506106626001600255565b5050565b61066e611489565b600654604051631292f8c160e31b81526001600160a01b0390911690639497c608906106a1906002903390600401611bfb565b602060405180830381865afa1580156106be573d6000803e3d6000fd5b505050506040513d601f19601f820116820180604052508101906106e29190611c21565b61072e5760405162461bcd60e51b815260206004820152601760248201527f506f6f6c206f6e6c7920746f20696e73706563746f727300000000000000000060448201526064016104ef565b336000908152600360208190526040909120808201549091111561078a5760405162461bcd60e51b81526020600482015260136024820152724d696e696d756d20696e7370656374696f6e7360681b60448201526064016104ef565b6009810154600754604051637df42f8360e11b8152600481018390526001600160a01b039091169063fbe85f0690602401602060405180830381865afa1580156107d8573d6000803e3d6000fd5b505050506040513d601f19601f820116820180604052508101906107fc9190611c21565b6108565760405162461bcd60e51b815260206004820152602560248201527f4e6f7420656c696769626c6520746f20776974686472617720666f7220746869604482015264732065726160d81b60648201526084016104ef565b60098201805490600061086883611c3e565b909155505060075460405163f3fef3a360e01b8152336004820152602481018390526001600160a01b039091169063f3fef3a390604401600060405180830381600087803b1580156108b957600080fd5b505af11580156108cd573d6000803e3d6000fd5b50506040514381528392503391507f840624e970d5fc229e8298cd290e31ee6be9e7c78cf10b6f8176e4178a0323709060200160405180910390a350506109146001600255565b565b6004602052816000526040600020818154811061093257600080fd5b6000918252602090912001546001600160401b03169150829050565b61095661159c565b61091460006115c9565b61096861159c565b600880546001600160a01b0319166001600160a01b0392909216919091179055565b6001600160a01b038116600090815260036020526040812060060154806109b45750600192915050565b6109c061177082611c57565b43119392505050565b6109d161159c565b6001600160a01b03166000908152600160208190526040909120805460ff19169091179055565b3360009081526001602052604090205460ff16610a275760405162461bcd60e51b81526004016104ef90611b4d565b6008546001600160a01b0316338114610a525760405162461bcd60e51b81526004016104ef90611b79565b6001600160a01b0383166000908152600360205260409020436005820155600701805467ffffffffffffffff19166001600160401b038416179055610a9683611619565b505050565b8151603210801590610aaf57508051609610155b610aec5760405162461bcd60e51b815260206004820152600e60248201526d4d6178206368617261637465727360901b60448201526064016104ef565b60065460405162f5960960e51b81526000916001600160a01b031690631eb2c12090610b1d90600290600401611c6a565b602060405180830381865afa158015610b3a573d6000803e3d6000fd5b505050506040513d601f19601f82011682018060405250810190610b5e9190611c78565b610b69906001611c95565b9050604051806101600160405280826001600160401b03168152602001336001600160a01b031681526020018481526020018381526020016000815260200160008152602001600081526020016000815260200160006001600160401b03168152602001604051806040016040528060008152602001610be76111ef565b90528152436020918201523360009081526003825260409081902083518154938501516001600160a01b0316600160401b026001600160e01b03199094166001600160401b03909116179290921782558201516001820190610c499082611d3c565b5060608201516002820190610c5e9082611d3c565b506080820151600382015560a082015160048083019190915560c083015160058084019190915560e084015160068085019190915561010085015160078501805467ffffffffffffffff19166001600160401b0392831617905561012086015180516008870155602090810151600987015561014090960151600a90950194909455928516600090815293526040928390208054336001600160a01b0319909116811790915591549251639c3eead960e01b81526001600160a01b0390931692639c3eead992610d3392909160029101611dfa565b600060405180830381600087803b158015610d4d57600080fd5b505af1158015610d61573d6000803e3d6000fd5b50505050336001600160a01b0316816001600160401b03167ff497df17d0f8e81cbbeac1fab2ef010533e6b0010216eb360160fc9021a060fa8543604051610daa929190611e17565b60405180910390a3505050565b3360009081526001602052604081205460ff16610de65760405162461bcd60e51b81526004016104ef90611b4d565b6008546001600160a01b0316338114610e115760405162461bcd60e51b81526004016104ef90611b79565b610e19611489565b6001600160a01b038416600081815260046020818152604080842081518084019092526001600160401b038981168352815460018101835582875284872093519301805467ffffffffffffffff19169390911692909217909155939092529052549150610e866001600255565b5092915050565b3360009081526001602052604090205460ff16610ebc5760405162461bcd60e51b81526004016104ef90611b4d565b6008546001600160a01b0316338114610ee75760405162461bcd60e51b81526004016104ef90611b79565b6001600160a01b038216600090815260036020819052604090912090810154610f525760405162461bcd60e51b815260206004820152601860248201527f746f74616c496e7370656374696f6e7320696e76616c6964000000000000000060448201526064016104ef565b600381018054906000610f6483611e39565b9190505550505050565b3360009081526001602052604090205460ff16610f9d5760405162461bcd60e51b81526004016104ef90611b4d565b6008546001600160a01b0316338114610fc85760405162461bcd60e51b81526004016104ef90611b79565b60065460405163e838dfbb60e01b81526001600160a01b0384811660048301529091169063e838dfbb90602401602060405180830381865afa158015611012573d6000803e3d6000fd5b505050506040513d601f19601f820116820180604052508101906110369190611c21565b61066257600654604051634acf78e960e11b81526001600160a01b0384811660048301529091169063959ef1d290602401600060405180830381600087803b15801561108157600080fd5b505af1158015611095573d6000803e3d6000fd5b505060065460405163158bdc5f60e11b81526001600160a01b038681166004830152600094509091169150632b17b8be90602401608060405180830381865afa1580156110e6573d6000803e3d6000fd5b505050506040513d601f19601f8201168201806040525081019061110a9190611e50565b60208101519091506001600160a01b031615611184576006546020820151604051636101bf2160e01b81526001600160a01b039182166004820152911690636101bf2190602401600060405180830381600087803b15801561116b57600080fd5b505af115801561117f573d6000803e3d6000fd5b505050505b6007546040516310c791e560e11b81526001600160a01b038581166004830152600160248301529091169063218f23ca90604401600060405180830381600087803b1580156111d257600080fd5b505af11580156111e6573d6000803e3d6000fd5b50505050505050565b60075460408051637686fbcf60e11b815290516000926001600160a01b03169163ed0df79e9160048083019260209291908290030181865afa158015611239573d6000803e3d6000fd5b505050506040513d601f19601f8201168201806040525081019061125d9190611ed7565b905090565b61126a611729565b6001600160a01b0380831660009081526003602090815260409182902082516101608101845281546001600160401b0381168252600160401b90049094169184019190915260018101805491928401916112c390611cb4565b80601f01602080910402602001604051908101604052809291908181526020018280546112ef90611cb4565b801561133c5780601f106113115761010080835404028352916020019161133c565b820191906000526020600020905b81548152906001019060200180831161131f57829003601f168201915b5050505050815260200160028201805461135590611cb4565b80601f016020809104026020016040519081016040528092919081815260200182805461138190611cb4565b80156113ce5780601f106113a3576101008083540402835291602001916113ce565b820191906000526020600020905b8154815290600101906020018083116113b157829003601f168201915b505050918352505060038201546020808301919091526004830154604080840191909152600584015460608401526006840154608084015260078401546001600160401b031660a084015280518082019091526008840154815260098401549181019190915260c0820152600a9091015460e09091015292915050565b61145361159c565b6001600160a01b03811661147d57604051631e4fbdf760e01b8152600060048201526024016104ef565b611486816115c9565b50565b60028054036114ab57604051633ee5aeb560e01b815260040160405180910390fd5b60028055565b6001600160a01b03811660009081526003602052604081206004018054916114d883611e39565b919050555050565b6001600160a01b038216600090815260036020526040812080546001600160401b031682036115515760405162461bcd60e51b815260206004820152601860248201527f496e73706563746f7220646f6573206e6f74206578697374000000000000000060448201526064016104ef565b60038101805490600061156383611c3e565b909155505043600682015560088101805490600061158083611c3e565b919050555061158f8184611640565b6003015490505b92915050565b6000546001600160a01b031633146109145760405163118cdaa760e01b81523360048201526024016104ef565b600080546001600160a01b038381166001600160a01b0319831681178455604051919092169283917f8be0079c531659141344cd1fd0a4f28419497f9722a3daafe3b4186f6b6457e09190a35050565b6001600160a01b03811660009081526003602052604081206004018054916114d883611c3e565b61164f82600301546003111590565b611657575050565b60075482546040516338e8490d60e11b81526001600160a01b03600160401b90920482166004820152600160248201526001600160401b03841660448201529116906371d0921a90606401600060405180830381600087803b1580156116bc57600080fd5b505af11580156116d0573d6000803e3d6000fd5b50508354600885015460408051918252436020830152600160401b9092046001600160a01b031693507fb569f8300b4cf9fad5353ce8ea5c9f82098e5ff03743f0d50d213fc166d3a4e092500160405180910390a25050565b60405180610160016040528060006001600160401b0316815260200160006001600160a01b0316815260200160608152602001606081526020016000815260200160008152602001600081526020016000815260200160006001600160401b031681526020016117ac604051806040016040528060008152602001600081525090565b8152602001600081525090565b6000602082840312156117cb57600080fd5b5035919050565b6001600160a01b038116811461148657600080fd5b6001600160401b038116811461148657600080fd5b60008060006060848603121561181157600080fd5b833561181c816117d2565b9250602084013563ffffffff8116811461183557600080fd5b91506040840135611845816117e7565b809150509250925092565b60006020828403121561186257600080fd5b813561186d816117d2565b9392505050565b801515811461148657600080fd5b6000806040838503121561189557600080fd5b82356118a0816117d2565b915060208301356118b081611874565b809150509250929050565b600080604083850312156118ce57600080fd5b82356118d9816117d2565b946020939093013593505050565b600080604083850312156118fa57600080fd5b8235611905816117d2565b915060208301356118b0816117e7565b634e487b7160e01b600052604160045260246000fd5b600082601f83011261193c57600080fd5b81356001600160401b0381111561195557611955611915565b604051601f8201601f19908116603f011681016001600160401b038111828210171561198357611983611915565b60405281815283820160200185101561199b57600080fd5b816020850160208301376000918101602001919091529392505050565b600080604083850312156119cb57600080fd5b82356001600160401b038111156119e157600080fd5b6119ed8582860161192b565b92505060208301356001600160401b03811115611a0957600080fd5b611a158582860161192b565b9150509250929050565b6000815180845260005b81811015611a4557602081850181015186830182015201611a29565b506000602082860101526020601f19601f83011685010191505092915050565b60208152611a7f6020820183516001600160401b03169052565b60006020830151611a9b60408401826001600160a01b03169052565b5060408301516101806060840152611ab76101a0840182611a1f565b90506060840151601f19848303016080850152611ad48282611a1f565b915050608084015160a084015260a084015160c084015260c084015160e084015260e0840151610100840152610100840151611b1c6101208501826001600160401b03169052565b5061012084015180516101408501526020810151610160850152506101408401516101808401528091505092915050565b6020808252601290820152712737ba1030b63637bbb2b21031b0b63632b960711b604082015260600190565b6020808252601e908201527f43616c6c6572206d7573742062652073797374656d20636f6e74726163740000604082015260600190565b634e487b7160e01b600052601160045260246000fd5b8181038181111561159657611596611bb0565b60088110611bf757634e487b7160e01b600052602160045260246000fd5b9052565b60408101611c098285611bd9565b6001600160a01b039290921660209190910152919050565b600060208284031215611c3357600080fd5b815161186d81611874565b600060018201611c5057611c50611bb0565b5060010190565b8082018082111561159657611596611bb0565b602081016115968284611bd9565b600060208284031215611c8a57600080fd5b815161186d816117e7565b6001600160401b03818116838216019081111561159657611596611bb0565b600181811c90821680611cc857607f821691505b602082108103611ce857634e487b7160e01b600052602260045260246000fd5b50919050565b601f821115610a9657806000526020600020601f840160051c81016020851015611d155750805b601f840160051c820191505b81811015611d355760008155600101611d21565b5050505050565b81516001600160401b03811115611d5557611d55611915565b611d6981611d638454611cb4565b84611cee565b6020601f821160018114611d9d5760008315611d855750848201515b600019600385901b1c1916600184901b178455611d35565b600084815260208120601f198516915b82811015611dcd5787850151825560209485019460019092019101611dad565b5084821015611deb5786840151600019600387901b60f8161c191681555b50505050600190811b01905550565b6001600160a01b03831681526040810161186d6020830184611bd9565b604081526000611e2a6040830185611a1f565b90508260208301529392505050565b600081611e4857611e48611bb0565b506000190190565b60006080828403128015611e6357600080fd5b50604051600090608081016001600160401b0381118282101715611e8957611e89611915565b6040528351611e97816117d2565b81526020840151611ea7816117d2565b6020820152604084015160088110611ebd578283fd5b604082015260609384015193810193909352509092915050565b600060208284031215611ee957600080fd5b505191905056fea264697066735822122031c3c57992b398d73fd72ea8d2b730bdb4bec2d98587442dcfa93011de8b0f2a64736f6c634300081b0033",
  "linkReferences": {},
  "deployedLinkReferences": {}
}