{
  "_format": "hh-sol-artifact-1",
  "contractName": "InspectorRules",
  "sourceName": "contracts/InspectorRules.sol",
  "abi": [
    {
      "inputs": [
        {
          "internalType": "address",
          "name": "communityRulesAddress",
          "type": "address"
        },
        {
          "internalType": "address",
          "name": "inspectorPoolAddress",
          "type": "address"
        },
        {
          "internalType": "uint8",
          "name": "maxPenalties_",
          "type": "uint8"
        }
      ],
      "stateMutability": "nonpayable",
      "type": "constructor"
    },
    {
      "anonymous": false,
      "inputs": [
        {
          "indexed": true,
          "internalType": "address",
          "name": "inspectorAddress",
          "type": "address"
        },
        {
          "indexed": false,
          "internalType": "uint256",
          "name": "newLevel",
          "type": "uint256"
        },
        {
          "indexed": false,
          "internalType": "uint256",
          "name": "blockNumber",
          "type": "uint256"
        }
      ],
      "name": "InspectorLevelIncreased",
      "type": "event"
    },
    {
      "anonymous": false,
      "inputs": [
        {
          "indexed": true,
          "internalType": "address",
          "name": "inspectorAddress",
          "type": "address"
        },
        {
          "indexed": false,
          "internalType": "uint256",
          "name": "levelsRemoved",
          "type": "uint256"
        },
        {
          "indexed": false,
          "internalType": "uint256",
          "name": "newLevel",
          "type": "uint256"
        },
        {
          "indexed": false,
          "internalType": "uint256",
          "name": "blockNumber",
          "type": "uint256"
        }
      ],
      "name": "InspectorLevelRemoved",
      "type": "event"
    },
    {
      "anonymous": false,
      "inputs": [
        {
          "indexed": true,
          "internalType": "uint256",
          "name": "id",
          "type": "uint256"
        },
        {
          "indexed": true,
          "internalType": "address",
          "name": "inspectorAddress",
          "type": "address"
        },
        {
          "indexed": false,
          "internalType": "string",
          "name": "name",
          "type": "string"
        },
        {
          "indexed": false,
          "internalType": "uint256",
          "name": "blockNumber",
          "type": "uint256"
        }
      ],
      "name": "InspectorRegistered",
      "type": "event"
    },
    {
      "anonymous": false,
      "inputs": [
        {
          "indexed": true,
          "internalType": "address",
          "name": "inspectorAddress",
          "type": "address"
        },
        {
          "indexed": true,
          "internalType": "uint256",
          "name": "era",
          "type": "uint256"
        },
        {
          "indexed": false,
          "internalType": "uint256",
          "name": "blockNumber",
          "type": "uint256"
        }
      ],
      "name": "InspectorWithdrawalInitiated",
      "type": "event"
    },
    {
      "anonymous": false,
      "inputs": [
        {
          "indexed": true,
          "internalType": "address",
          "name": "previousOwner",
          "type": "address"
        },
        {
          "indexed": true,
          "internalType": "address",
          "name": "newOwner",
          "type": "address"
        }
      ],
      "name": "OwnershipTransferred",
      "type": "event"
    },
    {
      "inputs": [],
      "name": "BLOCKS_TO_ACCEPT",
      "outputs": [
        {
          "internalType": "uint32",
          "name": "",
          "type": "uint32"
        }
      ],
      "stateMutability": "view",
      "type": "function"
    },
    {
      "inputs": [],
      "name": "MAX_GIVEUPS",
      "outputs": [
        {
          "internalType": "uint8",
          "name": "",
          "type": "uint8"
        }
      ],
      "stateMutability": "view",
      "type": "function"
    },
    {
      "inputs": [],
      "name": "MINIMUM_INSPECTIONS_TO_POOL",
      "outputs": [
        {
          "internalType": "uint8",
          "name": "",
          "type": "uint8"
        }
      ],
      "stateMutability": "view",
      "type": "function"
    },
    {
      "inputs": [
        {
          "internalType": "string",
          "name": "name",
          "type": "string"
        },
        {
          "internalType": "string",
          "name": "proofPhoto",
          "type": "string"
        }
      ],
      "name": "addInspector",
      "outputs": [],
      "stateMutability": "nonpayable",
      "type": "function"
    },
    {
      "inputs": [
        {
          "internalType": "address",
          "name": "addr",
          "type": "address"
        },
        {
          "internalType": "uint64",
          "name": "inspectionId",
          "type": "uint64"
        }
      ],
      "name": "addPenalty",
      "outputs": [
        {
          "internalType": "uint256",
          "name": "",
          "type": "uint256"
        }
      ],
      "stateMutability": "nonpayable",
      "type": "function"
    },
    {
      "inputs": [
        {
          "internalType": "address",
          "name": "addr",
          "type": "address"
        },
        {
          "internalType": "uint64",
          "name": "lastInspectionId",
          "type": "uint64"
        }
      ],
      "name": "afterAcceptInspection",
      "outputs": [],
      "stateMutability": "nonpayable",
      "type": "function"
    },
    {
      "inputs": [
        {
          "internalType": "address",
          "name": "addr",
          "type": "address"
        }
      ],
      "name": "afterRealizeInspection",
      "outputs": [
        {
          "internalType": "uint256",
          "name": "",
          "type": "uint256"
        }
      ],
      "stateMutability": "nonpayable",
      "type": "function"
    },
    {
      "inputs": [
        {
          "internalType": "address",
          "name": "",
          "type": "address"
        }
      ],
      "name": "allowedCallers",
      "outputs": [
        {
          "internalType": "bool",
          "name": "",
          "type": "bool"
        }
      ],
      "stateMutability": "view",
      "type": "function"
    },
    {
      "inputs": [
        {
          "internalType": "address",
          "name": "addr",
          "type": "address"
        }
      ],
      "name": "canAcceptInspection",
      "outputs": [
        {
          "internalType": "bool",
          "name": "",
          "type": "bool"
        }
      ],
      "stateMutability": "view",
      "type": "function"
    },
    {
      "inputs": [
        {
          "internalType": "address",
          "name": "addr",
          "type": "address"
        }
      ],
      "name": "decrementInspections",
      "outputs": [],
      "stateMutability": "nonpayable",
      "type": "function"
    },
    {
      "inputs": [
        {
          "internalType": "address",
          "name": "addr",
          "type": "address"
        }
      ],
      "name": "getInspector",
      "outputs": [
        {
          "components": [
            {
              "internalType": "uint64",
              "name": "id",
              "type": "uint64"
            },
            {
              "internalType": "address",
              "name": "inspectorWallet",
              "type": "address"
            },
            {
              "internalType": "string",
              "name": "name",
              "type": "string"
            },
            {
              "internalType": "string",
              "name": "proofPhoto",
              "type": "string"
            },
            {
              "internalType": "uint256",
              "name": "totalInspections",
              "type": "uint256"
            },
            {
              "internalType": "uint256",
              "name": "giveUps",
              "type": "uint256"
            },
            {
              "internalType": "uint256",
              "name": "lastAcceptedAt",
              "type": "uint256"
            },
            {
              "internalType": "uint256",
              "name": "lastRealizedAt",
              "type": "uint256"
            },
            {
              "internalType": "uint64",
              "name": "lastInspection",
              "type": "uint64"
            },
            {
              "components": [
                {
                  "internalType": "uint256",
                  "name": "level",
                  "type": "uint256"
                },
                {
                  "internalType": "uint256",
                  "name": "currentEra",
                  "type": "uint256"
                }
              ],
              "internalType": "struct Pool",
              "name": "pool",
              "type": "tuple"
            },
            {
              "internalType": "uint256",
              "name": "createdAt",
              "type": "uint256"
            }
          ],
          "internalType": "struct Inspector",
          "name": "",
          "type": "tuple"
        }
      ],
      "stateMutability": "view",
      "type": "function"
    },
    {
      "inputs": [
        {
          "internalType": "uint256",
          "name": "",
          "type": "uint256"
        }
      ],
      "name": "inspectorsAddress",
      "outputs": [
        {
          "internalType": "address",
          "name": "",
          "type": "address"
        }
      ],
      "stateMutability": "view",
      "type": "function"
    },
    {
      "inputs": [
        {
          "internalType": "address",
          "name": "caller",
          "type": "address"
        }
      ],
      "name": "isAllowedCaller",
      "outputs": [
        {
          "internalType": "bool",
          "name": "",
          "type": "bool"
        }
      ],
      "stateMutability": "view",
      "type": "function"
    },
    {
      "inputs": [
        {
          "internalType": "address",
          "name": "addr",
          "type": "address"
        }
      ],
      "name": "isInspectorValid",
      "outputs": [
        {
          "internalType": "bool",
          "name": "",
          "type": "bool"
        }
      ],
      "stateMutability": "view",
      "type": "function"
    },
    {
      "inputs": [],
      "name": "maxPenalties",
      "outputs": [
        {
          "internalType": "uint8",
          "name": "",
          "type": "uint8"
        }
      ],
      "stateMutability": "view",
      "type": "function"
    },
    {
      "inputs": [
        {
          "internalType": "address",
          "name": "allowed",
          "type": "address"
        }
      ],
      "name": "newAllowedCaller",
      "outputs": [],
      "stateMutability": "nonpayable",
      "type": "function"
    },
    {
      "inputs": [],
      "name": "owner",
      "outputs": [
        {
          "internalType": "address",
          "name": "",
          "type": "address"
        }
      ],
      "stateMutability": "view",
      "type": "function"
    },
    {
      "inputs": [
        {
          "internalType": "address",
          "name": "",
          "type": "address"
        },
        {
          "internalType": "uint256",
          "name": "",
          "type": "uint256"
        }
      ],
      "name": "penalties",
      "outputs": [
        {
          "internalType": "uint64",
          "name": "inspectionId",
          "type": "uint64"
        }
      ],
      "stateMutability": "view",
      "type": "function"
    },
    {
      "inputs": [],
      "name": "poolCurrentEra",
      "outputs": [
        {
          "internalType": "uint256",
          "name": "",
          "type": "uint256"
        }
      ],
      "stateMutability": "view",
      "type": "function"
    },
    {
      "inputs": [
        {
          "internalType": "address",
          "name": "addr",
          "type": "address"
        },
        {
          "internalType": "uint256",
          "name": "levelsToRemove",
          "type": "uint256"
        }
      ],
      "name": "removePoolLevels",
      "outputs": [],
      "stateMutability": "nonpayable",
      "type": "function"
    },
    {
      "inputs": [],
      "name": "renounceOwnership",
      "outputs": [],
      "stateMutability": "nonpayable",
      "type": "function"
    },
    {
      "inputs": [
        {
          "internalType": "address",
          "name": "_inspectionRulesAddress",
          "type": "address"
        },
        {
          "internalType": "address",
          "name": "_validationRulesAddress",
          "type": "address"
        }
      ],
      "name": "setContractCall",
      "outputs": [],
      "stateMutability": "nonpayable",
      "type": "function"
    },
    {
      "inputs": [
        {
          "internalType": "address",
          "name": "addr",
          "type": "address"
        }
      ],
      "name": "totalPenalties",
      "outputs": [
        {
          "internalType": "uint256",
          "name": "",
          "type": "uint256"
        }
      ],
      "stateMutability": "view",
      "type": "function"
    },
    {
      "inputs": [
        {
          "internalType": "address",
          "name": "newOwner",
          "type": "address"
        }
      ],
      "name": "transferOwnership",
      "outputs": [],
      "stateMutability": "nonpayable",
      "type": "function"
    },
    {
      "inputs": [],
      "name": "withdraw",
      "outputs": [],
      "stateMutability": "nonpayable",
      "type": "function"
    }
  ],
  "bytecode": "0x60a060405234801561001057600080fd5b50604051611d34380380611d3483398101604081905261002f916100e4565b61003833610078565b6001600255600680546001600160a01b039485166001600160a01b031991821617909155600780549390941692169190911790915560ff16608052610131565b600080546001600160a01b038381166001600160a01b0319831681178455604051919092169283917f8be0079c531659141344cd1fd0a4f28419497f9722a3daafe3b4186f6b6457e09190a35050565b80516001600160a01b03811681146100df57600080fd5b919050565b6000806000606084860312156100f957600080fd5b610102846100c8565b9250610110602085016100c8565b9150604084015160ff8116811461012657600080fd5b809150509250925092565b608051611be861014c60003960006103a70152611be86000f3fe608060405234801561001057600080fd5b50600436106101735760003560e01c80638da5cb5b116100de578063a77963f011610097578063c3c983d211610071578063c3c983d2146103c9578063e05cf155146103dc578063e8f7dfcf146103e4578063f2fde38b1461040457600080fd5b8063a77963f0146102ae578063b1e866551461038f578063b24eb769146103a257600080fd5b80638da5cb5b146103065780638f93716f1461031757806396cd03571461032a5780639c9604501461033d578063a1ce8d3a14610350578063a68012581461036357600080fd5b80634d5ff1d3116101305780634d5ff1d3146102435780635fa71c281461028357806367b769a8146102ae578063715018a6146102c85780637b334154146102d05780637fbbbf1c146102f357600080fd5b8063031a70521461017857806304521ca31461019b5780630da0933a146101b057806318ad5c9a146101f15780632076267b146102045780633ccfd60b1461023b575b600080fd5b61018161177081565b60405163ffffffff90911681526020015b60405180910390f35b6101ae6101a9366004611575565b610417565b005b6101d96101be3660046115a8565b6005602052600090815260409020546001600160a01b031681565b6040516001600160a01b039091168152602001610192565b6101ae6101ff3660046115c1565b61044d565b61022d6102123660046115eb565b6001600160a01b031660009081526004602052604090205490565b604051908152602001610192565b6101ae6105c1565b6102736102513660046115eb565b6001600160a01b03166000908152600360208190526040909120600401541090565b6040519015158152602001610192565b6102966102913660046115c1565b610871565b6040516001600160401b039091168152602001610192565b6102b6600381565b60405160ff9091168152602001610192565b6101ae6108a9565b6102736102de3660046115eb565b60016020526000908152604090205460ff1681565b6102736103013660046115eb565b6108bb565b6000546001600160a01b03166101d9565b6101ae6103253660046115eb565b6108fa565b6101ae610338366004611622565b610929565b6101ae61034b3660046116fc565b6109c7565b61022d61035e3660046115eb565b610ce3565b6102736103713660046115eb565b6001600160a01b031660009081526001602052604090205460ff1690565b61022d61039d366004611622565b610d69565b6102b67f000000000000000000000000000000000000000000000000000000000000000081565b6101ae6103d73660046115eb565b610e2c565b61022d610f0d565b6103f76103f23660046115eb565b610f80565b60405161019291906117a9565b6101ae6104123660046115eb565b611169565b61041f6111e2565b600880546001600160a01b039384166001600160a01b03199182161790915560098054929093169116179055565b3360009081526001602052604090205460ff166104855760405162461bcd60e51b815260040161047c90611891565b60405180910390fd5b6009546001600160a01b03163381146104b05760405162461bcd60e51b815260040161047c906118bd565b6104b861123c565b6001600160a01b0383166000908152600360205260409020826104df5760088101546104e1565b825b6008820180546000906104f590849061190a565b9091555050600754604051630c56ae4d60e11b81526001600160a01b03868116600483015260248201869052909116906318ad5c9a90604401600060405180830381600087803b15801561054857600080fd5b505af115801561055c573d6000803e3d6000fd5b505050600882015460408051868152602081019290925243908201526001600160a01b03861691507f101bdaf1b42bde106b9fdbdd4556d0681ace1cbdfe8734ff4fe73d380c713b7c9060600160405180910390a2506105bc6001600255565b505050565b6105c961123c565b600654604051631292f8c160e31b81526001600160a01b0390911690639497c608906105fc906002903390600401611945565b602060405180830381865afa158015610619573d6000803e3d6000fd5b505050506040513d601f19601f8201168201806040525081019061063d919061196b565b6106895760405162461bcd60e51b815260206004820152601760248201527f506f6f6c206f6e6c7920746f20696e73706563746f7273000000000000000000604482015260640161047c565b33600090815260036020819052604090912080820154909111156106e55760405162461bcd60e51b81526020600482015260136024820152724d696e696d756d20696e7370656374696f6e7360681b604482015260640161047c565b6009810154600754604051637df42f8360e11b8152600481018390526001600160a01b039091169063fbe85f0690602401602060405180830381865afa158015610733573d6000803e3d6000fd5b505050506040513d601f19601f82011682018060405250810190610757919061196b565b6107b15760405162461bcd60e51b815260206004820152602560248201527f4e6f7420656c696769626c6520746f20776974686472617720666f7220746869604482015264732065726160d81b606482015260840161047c565b6009820180549060006107c38361198d565b909155505060075460405163f3fef3a360e01b8152336004820152602481018390526001600160a01b039091169063f3fef3a390604401600060405180830381600087803b15801561081457600080fd5b505af1158015610828573d6000803e3d6000fd5b50506040514381528392503391507f840624e970d5fc229e8298cd290e31ee6be9e7c78cf10b6f8176e4178a0323709060200160405180910390a3505061086f6001600255565b565b6004602052816000526040600020818154811061088d57600080fd5b6000918252602090912001546001600160401b03169150829050565b6108b16111e2565b61086f6000611293565b6001600160a01b038116600090815260036020526040812060060154806108e55750600192915050565b6108f1611770826119a6565b43119392505050565b6109026111e2565b6001600160a01b03166000908152600160208190526040909120805460ff19169091179055565b3360009081526001602052604090205460ff166109585760405162461bcd60e51b815260040161047c90611891565b6008546001600160a01b03163381146109835760405162461bcd60e51b815260040161047c906118bd565b6001600160a01b0383166000908152600360205260409020436005820155600701805467ffffffffffffffff19166001600160401b0384161790556105bc836112e3565b81516032108015906109db57508051609610155b610a185760405162461bcd60e51b815260206004820152600e60248201526d4d6178206368617261637465727360901b604482015260640161047c565b60065460405162f5960960e51b81526000916001600160a01b031690631eb2c12090610a49906002906004016119b9565b602060405180830381865afa158015610a66573d6000803e3d6000fd5b505050506040513d601f19601f82011682018060405250810190610a8a91906119c7565b610a959060016119e4565b9050604051806101600160405280826001600160401b03168152602001336001600160a01b031681526020018481526020018381526020016000815260200160008152602001600081526020016000815260200160006001600160401b03168152602001604051806040016040528060008152602001610b13610f0d565b90528152436020918201523360009081526003825260409081902083518154938501516001600160a01b0316600160401b026001600160e01b03199094166001600160401b03909116179290921782558201516001820190610b759082611a85565b5060608201516002820190610b8a9082611a85565b506080820151600382015560a082015160048083019190915560c083015160058084019190915560e084015160068085019190915561010085015160078501805467ffffffffffffffff19166001600160401b0392831617905561012086015180516008870155602090810151600987015561014090960151600a90950194909455928516600090815293526040928390208054336001600160a01b0319909116811790915591549251639c3eead960e01b81526001600160a01b0390931692639c3eead992610c5f92909160029101611b43565b600060405180830381600087803b158015610c7957600080fd5b505af1158015610c8d573d6000803e3d6000fd5b50505050336001600160a01b0316816001600160401b03167ff497df17d0f8e81cbbeac1fab2ef010533e6b0010216eb360160fc9021a060fa8543604051610cd6929190611b60565b60405180910390a3505050565b3360009081526001602052604081205460ff16610d125760405162461bcd60e51b815260040161047c90611891565b6008546001600160a01b0316338114610d3d5760405162461bcd60e51b815260040161047c906118bd565b610d4561123c565b610d4e83611312565b610d5783611339565b9150610d636001600255565b50919050565b3360009081526001602052604081205460ff16610d985760405162461bcd60e51b815260040161047c90611891565b6009546001600160a01b0316338114610dc35760405162461bcd60e51b815260040161047c906118bd565b6001600160a01b038416600081815260046020818152604080842081518084019092526001600160401b038981168352815460018101835582875284872093519301805467ffffffffffffffff1916939091169290921790915593909252905254949350505050565b3360009081526001602052604090205460ff16610e5b5760405162461bcd60e51b815260040161047c90611891565b6009546001600160a01b0316338114610e865760405162461bcd60e51b815260040161047c906118bd565b6001600160a01b038216600090815260036020819052604090912090810154610ef15760405162461bcd60e51b815260206004820152601860248201527f746f74616c496e7370656374696f6e7320696e76616c69640000000000000000604482015260640161047c565b600381018054906000610f0383611b82565b9190505550505050565b60075460408051637686fbcf60e11b815290516000926001600160a01b03169163ed0df79e9160048083019260209291908290030181865afa158015610f57573d6000803e3d6000fd5b505050506040513d601f19601f82011682018060405250810190610f7b9190611b99565b905090565b610f886114c9565b6001600160a01b0380831660009081526003602090815260409182902082516101608101845281546001600160401b0381168252600160401b9004909416918401919091526001810180549192840191610fe190611a03565b80601f016020809104026020016040519081016040528092919081815260200182805461100d90611a03565b801561105a5780601f1061102f5761010080835404028352916020019161105a565b820191906000526020600020905b81548152906001019060200180831161103d57829003601f168201915b5050505050815260200160028201805461107390611a03565b80601f016020809104026020016040519081016040528092919081815260200182805461109f90611a03565b80156110ec5780601f106110c1576101008083540402835291602001916110ec565b820191906000526020600020905b8154815290600101906020018083116110cf57829003601f168201915b505050918352505060038201546020808301919091526004830154604080840191909152600584015460608401526006840154608084015260078401546001600160401b031660a084015280518082019091526008840154815260098401549181019190915260c0820152600a9091015460e09091015292915050565b6111716111e2565b6001600160a01b0381166111d65760405162461bcd60e51b815260206004820152602660248201527f4f776e61626c653a206e6577206f776e657220697320746865207a65726f206160448201526564647265737360d01b606482015260840161047c565b6111df81611293565b50565b6000546001600160a01b0316331461086f5760405162461bcd60e51b815260206004820181905260248201527f4f776e61626c653a2063616c6c6572206973206e6f7420746865206f776e6572604482015260640161047c565b600280540361128d5760405162461bcd60e51b815260206004820152601f60248201527f5265656e7472616e637947756172643a207265656e7472616e742063616c6c00604482015260640161047c565b60028055565b600080546001600160a01b038381166001600160a01b0319831681178455604051919092169283917f8be0079c531659141344cd1fd0a4f28419497f9722a3daafe3b4186f6b6457e09190a35050565b6001600160a01b038116600090815260036020526040812060040180549161130a8361198d565b919050555050565b6001600160a01b038116600090815260036020526040812060040180549161130a83611b82565b6001600160a01b038116600090815260036020526040812080546001600160401b031682036113aa5760405162461bcd60e51b815260206004820152601860248201527f496e73706563746f7220646f6573206e6f742065786973740000000000000000604482015260640161047c565b6003810180549060006113bc8361198d565b90915550504360068201556008810180549060006113d98361198d565b91905055506113e7816113f1565b6003015492915050565b61140081600301546003111590565b6114075750565b60075481546040516352b8d3ed60e01b81526001600160a01b03600160401b90920482166004820152600160248201529116906352b8d3ed90604401600060405180830381600087803b15801561145d57600080fd5b505af1158015611471573d6000803e3d6000fd5b50508254600884015460408051918252436020830152600160401b9092046001600160a01b031693507fb569f8300b4cf9fad5353ce8ea5c9f82098e5ff03743f0d50d213fc166d3a4e092500160405180910390a250565b60405180610160016040528060006001600160401b0316815260200160006001600160a01b0316815260200160608152602001606081526020016000815260200160008152602001600081526020016000815260200160006001600160401b0316815260200161154c604051806040016040528060008152602001600081525090565b8152602001600081525090565b80356001600160a01b038116811461157057600080fd5b919050565b6000806040838503121561158857600080fd5b61159183611559565b915061159f60208401611559565b90509250929050565b6000602082840312156115ba57600080fd5b5035919050565b600080604083850312156115d457600080fd5b6115dd83611559565b946020939093013593505050565b6000602082840312156115fd57600080fd5b61160682611559565b9392505050565b6001600160401b03811681146111df57600080fd5b6000806040838503121561163557600080fd5b61163e83611559565b9150602083013561164e8161160d565b809150509250929050565b634e487b7160e01b600052604160045260246000fd5b600082601f83011261168057600080fd5b81356001600160401b0381111561169957611699611659565b604051601f8201601f19908116603f011681016001600160401b03811182821017156116c7576116c7611659565b6040528181528382016020018510156116df57600080fd5b816020850160208301376000918101602001919091529392505050565b6000806040838503121561170f57600080fd5b82356001600160401b0381111561172557600080fd5b6117318582860161166f565b92505060208301356001600160401b0381111561174d57600080fd5b6117598582860161166f565b9150509250929050565b6000815180845260005b818110156117895760208185018101518683018201520161176d565b506000602082860101526020601f19601f83011685010191505092915050565b602081526117c36020820183516001600160401b03169052565b600060208301516117df60408401826001600160a01b03169052565b50604083015161018060608401526117fb6101a0840182611763565b90506060840151601f198483030160808501526118188282611763565b915050608084015160a084015260a084015160c084015260c084015160e084015260e08401516101008401526101008401516118606101208501826001600160401b03169052565b5061012084015180516101408501526020810151610160850152506101408401516101808401528091505092915050565b6020808252601290820152712737ba1030b63637bbb2b21031b0b63632b960711b604082015260600190565b6020808252601e908201527f43616c6c6572206d7573742062652073797374656d20636f6e74726163740000604082015260600190565b634e487b7160e01b600052601160045260246000fd5b8181038181111561191d5761191d6118f4565b92915050565b6009811061194157634e487b7160e01b600052602160045260246000fd5b9052565b604081016119538285611923565b6001600160a01b039290921660209190910152919050565b60006020828403121561197d57600080fd5b8151801515811461160657600080fd5b60006001820161199f5761199f6118f4565b5060010190565b8082018082111561191d5761191d6118f4565b6020810161191d8284611923565b6000602082840312156119d957600080fd5b81516116068161160d565b6001600160401b03818116838216019081111561191d5761191d6118f4565b600181811c90821680611a1757607f821691505b602082108103610d6357634e487b7160e01b600052602260045260246000fd5b601f8211156105bc57806000526020600020601f840160051c81016020851015611a5e5750805b601f840160051c820191505b81811015611a7e5760008155600101611a6a565b5050505050565b81516001600160401b03811115611a9e57611a9e611659565b611ab281611aac8454611a03565b84611a37565b6020601f821160018114611ae65760008315611ace5750848201515b600019600385901b1c1916600184901b178455611a7e565b600084815260208120601f198516915b82811015611b165787850151825560209485019460019092019101611af6565b5084821015611b345786840151600019600387901b60f8161c191681555b50505050600190811b01905550565b6001600160a01b0383168152604081016116066020830184611923565b604081526000611b736040830185611763565b90508260208301529392505050565b600081611b9157611b916118f4565b506000190190565b600060208284031215611bab57600080fd5b505191905056fea264697066735822122064b85694ecbc42be50dcb2ef697afb2ec25c96eecee45c72b24bf41e864733e464736f6c634300081b0033",
  "linkReferences": {},
  "deployedLinkReferences": {}
}