{
  "_format": "hh-sol-artifact-1",
  "contractName": "InspectionRules",
  "sourceName": "contracts/InspectionRules.sol",
  "abi": [
    {
      "inputs": [
        {
          "internalType": "uint32",
          "name": "timeBetweenInspections_",
          "type": "uint32"
        },
        {
          "internalType": "uint32",
          "name": "blocksToExpireAcceptedInspection_",
          "type": "uint32"
        },
        {
          "internalType": "uint8",
          "name": "allowedInitialRequests_",
          "type": "uint8"
        },
        {
          "internalType": "uint32",
          "name": "acceptInspectionDelayBlocks_",
          "type": "uint32"
        },
        {
          "internalType": "uint32",
          "name": "securityBlocksToValidation_",
          "type": "uint32"
        }
      ],
      "stateMutability": "nonpayable",
      "type": "constructor"
    },
    {
      "anonymous": false,
      "inputs": [
        {
          "indexed": true,
          "internalType": "uint256",
          "name": "inspectionId",
          "type": "uint256"
        },
        {
          "indexed": true,
          "internalType": "address",
          "name": "inspectorAddress",
          "type": "address"
        },
        {
          "indexed": false,
          "internalType": "uint256",
          "name": "acceptedAt",
          "type": "uint256"
        }
      ],
      "name": "InspectionAccepted",
      "type": "event"
    },
    {
      "anonymous": false,
      "inputs": [
        {
          "indexed": true,
          "internalType": "uint256",
          "name": "inspectionId",
          "type": "uint256"
        },
        {
          "indexed": true,
          "internalType": "address",
          "name": "inspectorAddress",
          "type": "address"
        },
        {
          "indexed": true,
          "internalType": "address",
          "name": "regeneratorAddress",
          "type": "address"
        },
        {
          "indexed": false,
          "internalType": "uint256",
          "name": "invalidatedAt",
          "type": "uint256"
        }
      ],
      "name": "InspectionInvalidated",
      "type": "event"
    },
    {
      "anonymous": false,
      "inputs": [
        {
          "indexed": true,
          "internalType": "uint256",
          "name": "inspectionId",
          "type": "uint256"
        },
        {
          "indexed": true,
          "internalType": "address",
          "name": "inspectorAddress",
          "type": "address"
        },
        {
          "indexed": true,
          "internalType": "address",
          "name": "regeneratorAddress",
          "type": "address"
        },
        {
          "indexed": false,
          "internalType": "uint32",
          "name": "treesResult",
          "type": "uint32"
        },
        {
          "indexed": false,
          "internalType": "uint32",
          "name": "biodiversityResult",
          "type": "uint32"
        },
        {
          "indexed": false,
          "internalType": "uint32",
          "name": "regenerationScore",
          "type": "uint32"
        },
        {
          "indexed": false,
          "internalType": "uint256",
          "name": "inspectedAt",
          "type": "uint256"
        }
      ],
      "name": "InspectionRealized",
      "type": "event"
    },
    {
      "anonymous": false,
      "inputs": [
        {
          "indexed": true,
          "internalType": "uint256",
          "name": "inspectionId",
          "type": "uint256"
        },
        {
          "indexed": true,
          "internalType": "address",
          "name": "regeneratorAddress",
          "type": "address"
        },
        {
          "indexed": false,
          "internalType": "uint256",
          "name": "createdAt",
          "type": "uint256"
        }
      ],
      "name": "InspectionRequested",
      "type": "event"
    },
    {
      "anonymous": false,
      "inputs": [
        {
          "indexed": true,
          "internalType": "address",
          "name": "previousOwner",
          "type": "address"
        },
        {
          "indexed": true,
          "internalType": "address",
          "name": "newOwner",
          "type": "address"
        }
      ],
      "name": "OwnershipTransferred",
      "type": "event"
    },
    {
      "inputs": [],
      "name": "MAX_BIODIVERSITY_RESULT",
      "outputs": [
        {
          "internalType": "uint32",
          "name": "",
          "type": "uint32"
        }
      ],
      "stateMutability": "view",
      "type": "function"
    },
    {
      "inputs": [],
      "name": "MAX_REGENERATOR_INSPECTIONS",
      "outputs": [
        {
          "internalType": "uint8",
          "name": "",
          "type": "uint8"
        }
      ],
      "stateMutability": "view",
      "type": "function"
    },
    {
      "inputs": [
        {
          "internalType": "uint64",
          "name": "inspectionId",
          "type": "uint64"
        }
      ],
      "name": "acceptInspection",
      "outputs": [],
      "stateMutability": "nonpayable",
      "type": "function"
    },
    {
      "inputs": [],
      "name": "acceptInspectionDelayBlocks",
      "outputs": [
        {
          "internalType": "uint32",
          "name": "",
          "type": "uint32"
        }
      ],
      "stateMutability": "view",
      "type": "function"
    },
    {
      "inputs": [
        {
          "components": [
            {
              "internalType": "uint64",
              "name": "id",
              "type": "uint64"
            },
            {
              "internalType": "enum InspectionStatus",
              "name": "status",
              "type": "uint8"
            },
            {
              "internalType": "address",
              "name": "regenerator",
              "type": "address"
            },
            {
              "internalType": "address",
              "name": "inspector",
              "type": "address"
            },
            {
              "internalType": "uint32",
              "name": "treesResult",
              "type": "uint32"
            },
            {
              "internalType": "uint32",
              "name": "biodiversityResult",
              "type": "uint32"
            },
            {
              "internalType": "uint32",
              "name": "regenerationScore",
              "type": "uint32"
            },
            {
              "internalType": "string",
              "name": "proofPhotos",
              "type": "string"
            },
            {
              "internalType": "string",
              "name": "justificationReport",
              "type": "string"
            },
            {
              "internalType": "uint256",
              "name": "validationsCount",
              "type": "uint256"
            },
            {
              "internalType": "uint256",
              "name": "createdAt",
              "type": "uint256"
            },
            {
              "internalType": "uint256",
              "name": "acceptedAt",
              "type": "uint256"
            },
            {
              "internalType": "uint256",
              "name": "inspectedAt",
              "type": "uint256"
            },
            {
              "internalType": "uint256",
              "name": "inspectedAtEra",
              "type": "uint256"
            },
            {
              "internalType": "uint256",
              "name": "invalidatedAt",
              "type": "uint256"
            }
          ],
          "internalType": "struct Inspection",
          "name": "inspection",
          "type": "tuple"
        }
      ],
      "name": "acceptInspectionDelayBlocksPassed",
      "outputs": [
        {
          "internalType": "bool",
          "name": "",
          "type": "bool"
        }
      ],
      "stateMutability": "view",
      "type": "function"
    },
    {
      "inputs": [
        {
          "internalType": "uint64",
          "name": "id",
          "type": "uint64"
        },
        {
          "internalType": "string",
          "name": "justification",
          "type": "string"
        }
      ],
      "name": "addInspectionValidation",
      "outputs": [],
      "stateMutability": "nonpayable",
      "type": "function"
    },
    {
      "inputs": [],
      "name": "allowedInitialRequests",
      "outputs": [
        {
          "internalType": "uint8",
          "name": "",
          "type": "uint8"
        }
      ],
      "stateMutability": "view",
      "type": "function"
    },
    {
      "inputs": [],
      "name": "alreadyHaveInspectionAccepted",
      "outputs": [
        {
          "internalType": "bool",
          "name": "",
          "type": "bool"
        }
      ],
      "stateMutability": "view",
      "type": "function"
    },
    {
      "inputs": [],
      "name": "blocksToExpireAcceptedInspection",
      "outputs": [
        {
          "internalType": "uint32",
          "name": "",
          "type": "uint32"
        }
      ],
      "stateMutability": "view",
      "type": "function"
    },
    {
      "inputs": [
        {
          "internalType": "uint64",
          "name": "inspectionId",
          "type": "uint64"
        }
      ],
      "name": "calculateBlocksToExpire",
      "outputs": [
        {
          "internalType": "uint256",
          "name": "",
          "type": "uint256"
        }
      ],
      "stateMutability": "view",
      "type": "function"
    },
    {
      "inputs": [
        {
          "internalType": "uint64",
          "name": "id",
          "type": "uint64"
        }
      ],
      "name": "getInspection",
      "outputs": [
        {
          "components": [
            {
              "internalType": "uint64",
              "name": "id",
              "type": "uint64"
            },
            {
              "internalType": "enum InspectionStatus",
              "name": "status",
              "type": "uint8"
            },
            {
              "internalType": "address",
              "name": "regenerator",
              "type": "address"
            },
            {
              "internalType": "address",
              "name": "inspector",
              "type": "address"
            },
            {
              "internalType": "uint32",
              "name": "treesResult",
              "type": "uint32"
            },
            {
              "internalType": "uint32",
              "name": "biodiversityResult",
              "type": "uint32"
            },
            {
              "internalType": "uint32",
              "name": "regenerationScore",
              "type": "uint32"
            },
            {
              "internalType": "string",
              "name": "proofPhotos",
              "type": "string"
            },
            {
              "internalType": "string",
              "name": "justificationReport",
              "type": "string"
            },
            {
              "internalType": "uint256",
              "name": "validationsCount",
              "type": "uint256"
            },
            {
              "internalType": "uint256",
              "name": "createdAt",
              "type": "uint256"
            },
            {
              "internalType": "uint256",
              "name": "acceptedAt",
              "type": "uint256"
            },
            {
              "internalType": "uint256",
              "name": "inspectedAt",
              "type": "uint256"
            },
            {
              "internalType": "uint256",
              "name": "inspectedAtEra",
              "type": "uint256"
            },
            {
              "internalType": "uint256",
              "name": "invalidatedAt",
              "type": "uint256"
            }
          ],
          "internalType": "struct Inspection",
          "name": "",
          "type": "tuple"
        }
      ],
      "stateMutability": "view",
      "type": "function"
    },
    {
      "inputs": [
        {
          "internalType": "address",
          "name": "addr",
          "type": "address"
        }
      ],
      "name": "getInspectionsHistory",
      "outputs": [
        {
          "internalType": "uint64[]",
          "name": "",
          "type": "uint64[]"
        }
      ],
      "stateMutability": "view",
      "type": "function"
    },
    {
      "inputs": [],
      "name": "inspectionsBiodiversityImpact",
      "outputs": [
        {
          "internalType": "uint256",
          "name": "",
          "type": "uint256"
        }
      ],
      "stateMutability": "view",
      "type": "function"
    },
    {
      "inputs": [],
      "name": "inspectionsCount",
      "outputs": [
        {
          "internalType": "uint64",
          "name": "",
          "type": "uint64"
        }
      ],
      "stateMutability": "view",
      "type": "function"
    },
    {
      "inputs": [],
      "name": "inspectionsTotalCount",
      "outputs": [
        {
          "internalType": "uint64",
          "name": "",
          "type": "uint64"
        }
      ],
      "stateMutability": "view",
      "type": "function"
    },
    {
      "inputs": [],
      "name": "inspectionsTreesImpact",
      "outputs": [
        {
          "internalType": "uint256",
          "name": "",
          "type": "uint256"
        }
      ],
      "stateMutability": "view",
      "type": "function"
    },
    {
      "inputs": [],
      "name": "owner",
      "outputs": [
        {
          "internalType": "address",
          "name": "",
          "type": "address"
        }
      ],
      "stateMutability": "view",
      "type": "function"
    },
    {
      "inputs": [
        {
          "internalType": "uint64",
          "name": "inspectionId",
          "type": "uint64"
        },
        {
          "internalType": "string",
          "name": "proofPhotos",
          "type": "string"
        },
        {
          "internalType": "string",
          "name": "justificationReport",
          "type": "string"
        },
        {
          "internalType": "uint32",
          "name": "treesResult",
          "type": "uint32"
        },
        {
          "internalType": "uint32",
          "name": "biodiversityResult",
          "type": "uint32"
        }
      ],
      "name": "realizeInspection",
      "outputs": [],
      "stateMutability": "nonpayable",
      "type": "function"
    },
    {
      "inputs": [],
      "name": "realizedInspectionsCount",
      "outputs": [
        {
          "internalType": "uint64",
          "name": "",
          "type": "uint64"
        }
      ],
      "stateMutability": "view",
      "type": "function"
    },
    {
      "inputs": [],
      "name": "renounceOwnership",
      "outputs": [],
      "stateMutability": "nonpayable",
      "type": "function"
    },
    {
      "inputs": [],
      "name": "requestInspection",
      "outputs": [],
      "stateMutability": "nonpayable",
      "type": "function"
    },
    {
      "inputs": [],
      "name": "securityBlocksToValidation",
      "outputs": [
        {
          "internalType": "uint32",
          "name": "",
          "type": "uint32"
        }
      ],
      "stateMutability": "view",
      "type": "function"
    },
    {
      "inputs": [
        {
          "components": [
            {
              "internalType": "address",
              "name": "communityRulesAddress",
              "type": "address"
            },
            {
              "internalType": "address",
              "name": "regeneratorRulesAddress",
              "type": "address"
            },
            {
              "internalType": "address",
              "name": "validationRulesAddress",
              "type": "address"
            },
            {
              "internalType": "address",
              "name": "inspectorRulesAddress",
              "type": "address"
            },
            {
              "internalType": "address",
              "name": "regenerationIndexRulesAddress",
              "type": "address"
            },
            {
              "internalType": "address",
              "name": "activistRulesAddress",
              "type": "address"
            },
            {
              "internalType": "address",
              "name": "voteRulesAddress",
              "type": "address"
            }
          ],
          "internalType": "struct ContractsDependency",
          "name": "contractDependency",
          "type": "tuple"
        }
      ],
      "name": "setContractInterfaces",
      "outputs": [],
      "stateMutability": "nonpayable",
      "type": "function"
    },
    {
      "inputs": [],
      "name": "timeBetweenInspections",
      "outputs": [
        {
          "internalType": "uint32",
          "name": "",
          "type": "uint32"
        }
      ],
      "stateMutability": "view",
      "type": "function"
    },
    {
      "inputs": [
        {
          "internalType": "address",
          "name": "newOwner",
          "type": "address"
        }
      ],
      "name": "transferOwnership",
      "outputs": [],
      "stateMutability": "nonpayable",
      "type": "function"
    },
    {
      "inputs": [
        {
          "components": [
            {
              "internalType": "uint64",
              "name": "id",
              "type": "uint64"
            },
            {
              "internalType": "address",
              "name": "regeneratorWallet",
              "type": "address"
            },
            {
              "internalType": "string",
              "name": "name",
              "type": "string"
            },
            {
              "internalType": "string",
              "name": "proofPhoto",
              "type": "string"
            },
            {
              "internalType": "uint32",
              "name": "totalArea",
              "type": "uint32"
            },
            {
              "internalType": "bool",
              "name": "pendingInspection",
              "type": "bool"
            },
            {
              "internalType": "uint256",
              "name": "totalInspections",
              "type": "uint256"
            },
            {
              "internalType": "uint256",
              "name": "lastRequestAt",
              "type": "uint256"
            },
            {
              "components": [
                {
                  "internalType": "uint256",
                  "name": "score",
                  "type": "uint256"
                }
              ],
              "internalType": "struct RegenerationScore",
              "name": "regenerationScore",
              "type": "tuple"
            },
            {
              "components": [
                {
                  "internalType": "bool",
                  "name": "onContractPool",
                  "type": "bool"
                },
                {
                  "internalType": "uint256",
                  "name": "currentEra",
                  "type": "uint256"
                }
              ],
              "internalType": "struct Pool",
              "name": "pool",
              "type": "tuple"
            },
            {
              "internalType": "uint256",
              "name": "createdAt",
              "type": "uint256"
            },
            {
              "internalType": "uint256",
              "name": "coordinatesCount",
              "type": "uint256"
            }
          ],
          "internalType": "struct Regenerator",
          "name": "regenerator",
          "type": "tuple"
        }
      ],
      "name": "waitToRequest",
      "outputs": [
        {
          "internalType": "bool",
          "name": "",
          "type": "bool"
        }
      ],
      "stateMutability": "view",
      "type": "function"
    }
  ],
  "bytecode": "0x61012060405234801561001157600080fd5b5060405161438a38038061438a833981016040819052610030916100ce565b61003933610065565b6001805563ffffffff94851660a05292841660c05260ff909116608052821660e052166101005261013b565b600080546001600160a01b038381166001600160a01b0319831681178455604051919092169283917f8be0079c531659141344cd1fd0a4f28419497f9722a3daafe3b4186f6b6457e09190a35050565b805163ffffffff811681146100c957600080fd5b919050565b600080600080600060a086880312156100e657600080fd5b6100ef866100b5565b94506100fd602087016100b5565b9350604086015160ff8116811461011357600080fd5b9250610121606087016100b5565b915061012f608087016100b5565b90509295509295909350565b60805160a05160c05160e051610100516141cc6101be6000396000818161020801526126c90152600081816103be01526107d2015260008181610397015281816104580152818161072f01528181611d5c0152818161261f01526126f00152600081816102440152610e030152600081816103670152610dcc01526141cc6000f3fe608060405234801561001057600080fd5b506004361061018e5760003560e01c80637b798468116100de578063a2b570a411610097578063e734b81311610071578063e734b813146103e0578063ed8f9321146103f3578063ee05057f146103fc578063f2fde38b1461041c57600080fd5b8063a2b570a414610389578063e42c955114610392578063e710483d146103b957600080fd5b80637b7984681461030357806386297de91461032357806386ae2fb1146103365780638da5cb5b1461033e57806392f265d7146103595780639df79c921461036257600080fd5b80634d3fbe611161014b5780636b2edc16116101255780636b2edc16146102bb5780636ec08376146102d5578063715018a6146102e857806379d3da36146102f057600080fd5b80634d3fbe61146102795780635401c1f21461029357806361a7581b146102a657600080fd5b80630cda2cce1461019357806316d2bd34146101b9578063180d7944146101eb57806335c11677146102035780633dbf1e8f1461023f5780633eef1a2a14610266575b600080fd5b6101a66101a136600461318d565b61042f565b6040519081526020015b60405180910390f35b6002546101d390600160401b90046001600160401b031681565b6040516001600160401b0390911681526020016101b0565b6101f361048e565b60405190151581526020016101b0565b61022a7f000000000000000000000000000000000000000000000000000000000000000081565b60405163ffffffff90911681526020016101b0565b61022a7f000000000000000000000000000000000000000000000000000000000000000081565b6101f3610274366004613395565b6107ce565b610281600c81565b60405160ff90911681526020016101b0565b6002546101d3906001600160401b031681565b6102b96102b43660046134ed565b61080f565b005b6002546101d390600160801b90046001600160401b031681565b6102b96102e3366004613589565b6108b0565b6102b9610db4565b6101f36102fe366004613650565b610dc8565b610316610311366004613785565b610e37565b6040516101b091906137a2565b6102b961033136600461318d565b610ed5565b6102b9611726565b6000546040516001600160a01b0390911681526020016101b0565b61022a61012c81565b6102817f000000000000000000000000000000000000000000000000000000000000000081565b6101a660045481565b61022a7f000000000000000000000000000000000000000000000000000000000000000081565b61022a7f000000000000000000000000000000000000000000000000000000000000000081565b6102b96103ee3660046137ee565b61194a565b6101a660035481565b61040f61040a36600461318d565b612089565b6040516101b09190613909565b6102b961042a366004613785565b61234a565b6001600160401b038116600090815260056020526040812060060154439061047e9063ffffffff7f00000000000000000000000000000000000000000000000000000000000000001690613a3e565b6104889190613a51565b92915050565b60085460405163e8f7dfcf60e01b815233600482015260009182916001600160a01b039091169063e8f7dfcf90602401600060405180830381865afa1580156104db573d6000803e3d6000fd5b505050506040513d6000823e601f3d908101601f191682016040526105039190810190613af8565b6101008101516001600160401b03908116600090815260056020908152604080832081516101e08101909252805494851682529495509193919290830190600160401b900460ff16600381111561055c5761055c61388f565b600381111561056d5761056d61388f565b815281546001600160a01b03600160481b909104811660208301526001830154908116604083015263ffffffff600160a01b820481166060840152600160c01b820481166080840152600160e01b9091041660a082015260028201805460c0909201916105d990613c11565b80601f016020809104026020016040519081016040528092919081815260200182805461060590613c11565b80156106525780601f1061062757610100808354040283529160200191610652565b820191906000526020600020905b81548152906001019060200180831161063557829003601f168201915b5050505050815260200160038201805461066b90613c11565b80601f016020809104026020016040519081016040528092919081815260200182805461069790613c11565b80156106e45780601f106106b9576101008083540402835291602001916106e4565b820191906000526020600020905b8154815290600101906020018083116106c757829003601f168201915b505050505081526020016004820154815260200160058201548152602001600682015481526020016007820154815260200160088201548152602001600982015481525050905060007f000000000000000000000000000000000000000000000000000000000000000063ffffffff168261016001516107649190613a3e565b4311905060006002836020015160038111156107825761078261388f565b14806107a357506003836020015160038111156107a1576107a161388f565b145b905080806107ae5750815b806107c557506101008401516001600160401b0316155b94505050505090565b60007f000000000000000000000000000000000000000000000000000000000000000063ffffffff168261014001516108079190613a3e565b431192915050565b6108176123c0565b8051600a80546001600160a01b03199081166001600160a01b039384161790915560208301516009805483169184169190911790556040830151600b8054831691841691909117905560608301516008805483169184169190911790556080830151600e8054831691841691909117905560a0830151600c8054831691841691909117905560c090920151600d80549093169116179055565b6108b861241a565b805161012c10156109095760405162461bcd60e51b815260206004820152601660248201527513585e0818da185c9858dd195c9cc81c995858da195960521b60448201526064015b60405180910390fd5b600d546040516356fd539760e11b81523360048201526001600160a01b039091169063adfaa72e90602401602060405180830381865afa158015610951573d6000803e3d6000fd5b505050506040513d601f19601f820116820180604052508101906109759190613c56565b6109af5760405162461bcd60e51b815260206004820152600b60248201526a2737ba1030903b37ba32b960a91b6044820152606401610900565b600b54604051630d84466b60e21b81523360048201526001600160a01b039091169063361119ac90602401602060405180830381865afa1580156109f7573d6000803e3d6000fd5b505050506040513d601f19601f82011682018060405250810190610a1b9190613c56565b610a5f5760405162461bcd60e51b8152602060048201526015602482015274576169742074696d654265747765656e566f74657360581b6044820152606401610900565b6001600160401b0382166000908152600f6020908152604080832033845290915290205460ff1615610ac35760405162461bcd60e51b815260206004820152600d60248201526c105b1c9958591e481d9bdd1959609a1b6044820152606401610900565b6001600160401b0382166000818152600f602090815260408083203384528252808320805460ff1916600117905592825260058152908290206008810154600954845163e05cf15560e01b81529451929491936001600160a01b03919091169263e05cf1559260048082019392918290030181865afa158015610b4a573d6000803e3d6000fd5b505050506040513d601f19601f82011682018060405250810190610b6e9190613c73565b14610bb45760405162461bcd60e51b815260206004820152601660248201527543616e27742076616c696461646520616e796d6f726560501b6044820152606401610900565b805460016001600160401b0390911610801590610be8575060025481546001600160401b03600160801b9092048216911611155b610c345760405162461bcd60e51b815260206004820152601960248201527f496e7370656374696f6e20646f6573206e6f74206578697374000000000000006044820152606401610900565b60028154600160401b900460ff166003811115610c5357610c5361388f565b14610ca05760405162461bcd60e51b815260206004820152601d60248201527f4f6e6c7920746f20696e7370656374656420696e7370656374696f6e730000006044820152606401610900565b6001816004016000828254610cb59190613a3e565b9091555050600b54604080516369bf81c360e01b815290516000926001600160a01b0316916369bf81c39160048083019260209291908290030181865afa158015610d04573d6000803e3d6000fd5b505050506040513d601f19601f82011682018060405250810190610d289190613c73565b60048301541080159150610d3f57610d3f82612473565b600b5460405163f73535c960e01b81526001600160a01b039091169063f73535c990610d7390859087903390600401613d0f565b600060405180830381600087803b158015610d8d57600080fd5b505af1158015610da1573d6000803e3d6000fd5b505050505050610db060018055565b5050565b610dbc6123c0565b610dc660006125cb565b565b60007f000000000000000000000000000000000000000000000000000000000000000060ff168260c001511015610e0157506001919050565b7f000000000000000000000000000000000000000000000000000000000000000063ffffffff168260e001516108079190613a3e565b6001600160a01b038116600090815260066020908152604091829020805483518184028101840190945280845260609392830182828015610ec957602002820191906000526020600020906000905b82829054906101000a90046001600160401b03166001600160401b031681526020019060080190602082600701049283019260010382029150808411610e865790505b50505050509050919050565b610edd61241a565b600a54604051631292f8c160e31b81526001600160a01b0390911690639497c60890610f10906002903390600401613e3f565b602060405180830381865afa158015610f2d573d6000803e3d6000fd5b505050506040513d601f19601f82011682018060405250810190610f519190613c56565b610f8f5760405162461bcd60e51b815260206004820152600f60248201526e4f6e6c7920696e73706563746f727360881b6044820152606401610900565b600854604051634d5ff1d360e01b81523360048201526001600160a01b0390911690634d5ff1d390602401602060405180830381865afa158015610fd7573d6000803e3d6000fd5b505050506040513d601f19601f82011682018060405250810190610ffb9190613c56565b6110405760405162461bcd60e51b815260206004820152601660248201527513db9b1e480cc819da5d99555c1cc8185b1b1bddd95960521b6044820152606401610900565b6001600160401b038082166000908152600560205260409020805490916001911610156110af5760405162461bcd60e51b815260206004820152601760248201527f496e7370656374696f6e20646f206e6f742065786973740000000000000000006044820152606401610900565b6110b761048e565b6110f65760405162461bcd60e51b815260206004820152601060248201526f105b1c9958591e481858d8d95c1d195960821b6044820152606401610900565b3360009081526007602090815260408083208454600160481b90046001600160a01b0316845290915290205460ff16156111665760405162461bcd60e51b8152602060048201526011602482015270105b1c9958591e481a5b9cdc1958dd1959607a1b6044820152606401610900565b60008154600160401b900460ff1660038111156111855761118561388f565b146111d25760405162461bcd60e51b815260206004820152601760248201527f496e7370656374696f6e206d757374206265204f50454e0000000000000000006044820152606401610900565b604080516101e0810190915281546001600160401b03811682526113e5919083906020830190600160401b900460ff1660038111156112135761121361388f565b60038111156112245761122461388f565b815281546001600160a01b03600160481b909104811660208301526001830154908116604083015263ffffffff600160a01b820481166060840152600160c01b820481166080840152600160e01b9091041660a082015260028201805460c09092019161129090613c11565b80601f01602080910402602001604051908101604052809291908181526020018280546112bc90613c11565b80156113095780601f106112de57610100808354040283529160200191611309565b820191906000526020600020905b8154815290600101906020018083116112ec57829003601f168201915b5050505050815260200160038201805461132290613c11565b80601f016020809104026020016040519081016040528092919081815260200182805461134e90613c11565b801561139b5780601f106113705761010080835404028352916020019161139b565b820191906000526020600020905b81548152906001019060200180831161137e57829003601f168201915b5050505050815260200160048201548152602001600582015481526020016006820154815260200160078201548152602001600882015481526020016009820154815250506107ce565b6114255760405162461bcd60e51b8152602060048201526011602482015270576169742064656c617920626c6f636b7360781b6044820152606401610900565b61142d61261b565b61146f5760405162461bcd60e51b81526020600482015260136024820152725761697420756e74696c206e6578742065726160681b6044820152606401610900565b600854604051631feeefc760e21b81523360048201526001600160a01b0390911690637fbbbf1c90602401602060405180830381865afa1580156114b7573d6000803e3d6000fd5b505050506040513d601f19601f820116820180604052508101906114db9190613c56565b6115185760405162461bcd60e51b815260206004820152600e60248201526d15d85a5d081d1bc81858d8d95c1d60921b6044820152606401610900565b600a548154604051631292f8c160e31b81526001600160a01b0392831692639497c6089261155792600192600160481b90920490911690600401613e3f565b602060405180830381865afa158015611574573d6000803e3d6000fd5b505050506040513d601f19601f820116820180604052508101906115989190613c56565b6115da5760405162461bcd60e51b8152602060048201526013602482015272149959d95b995c985d1bdc881a5b9d985b1a59606a1b6044820152606401610900565b8054600160401b60ff60401b19909116178082554360068301556001820180546001600160a01b0319163317905560095460405163076d908160e21b81526001600160a01b03600160481b90930483166004820152911690631db6420490602401600060405180830381600087803b15801561165557600080fd5b505af1158015611669573d6000803e3d6000fd5b50506008546040516396cd035760e01b81523360048201526001600160401b03861660248201526001600160a01b0390911692506396cd03579150604401600060405180830381600087803b1580156116c157600080fd5b505af11580156116d5573d6000803e3d6000fd5b50506040514381523392506001600160401b03851691507ff9556ba762f15e7f3671b8f33a1f662df1a146fa3ec77a706435e6e4572ab8d19060200160405180910390a35061172360018055565b50565b61172e61241a565b60095460405163065ab21b60e41b81523360048201526000916001600160a01b0316906365ab21b090602401600060405180830381865afa158015611777573d6000803e3d6000fd5b505050506040513d6000823e601f3d908101601f1916820160405261179f9190810190613ed5565b600a54604051631292f8c160e31b81529192506001600160a01b031690639497c608906117d3906001903390600401613e3f565b602060405180830381865afa1580156117f0573d6000803e3d6000fd5b505050506040513d601f19601f820116820180604052508101906118149190613c56565b6118545760405162461bcd60e51b81526020600482015260116024820152704f6e6c7920726567656e657261746f727360781b6044820152606401610900565b8060a00151156118955760405162461bcd60e51b815260206004820152600c60248201526b2932b8bab2b9ba1027a822a760a11b6044820152606401610900565b61189e81610dc8565b6118dc5760405162461bcd60e51b815260206004820152600f60248201526e15d85a5d081d1bc81c995c5d595cdd608a1b6044820152606401610900565b60c0810151600c116119305760405162461bcd60e51b815260206004820152601f60248201527f596f75206861766520636f6d706c6574656420796f7572206d697373696f6e006044820152606401610900565b61193861279c565b611940612c2f565b50610dc660018055565b61195261241a565b8351609610156119915760405162461bcd60e51b815260206004820152600a60248201526909ac2f040d8cadccee8d60b31b6044820152606401610900565b82516103e810156119d15760405162461bcd60e51b815260206004820152600a60248201526909ac2f040d8cadccee8d60b31b6044820152606401610900565b6001600160401b03858116600090815260056020908152604080832081516101e08101909252805494851682529293909291830190600160401b900460ff166003811115611a2157611a2161388f565b6003811115611a3257611a3261388f565b815281546001600160a01b03600160481b909104811660208301526001830154908116604083015263ffffffff600160a01b820481166060840152600160c01b820481166080840152600160e01b9091041660a082015260028201805460c090920191611a9e90613c11565b80601f0160208091040260200160405190810160405280929190818152602001828054611aca90613c11565b8015611b175780601f10611aec57610100808354040283529160200191611b17565b820191906000526020600020905b815481529060010190602001808311611afa57829003601f168201915b50505050508152602001600382018054611b3090613c11565b80601f0160208091040260200160405190810160405280929190818152602001828054611b5c90613c11565b8015611ba95780601f10611b7e57610100808354040283529160200191611ba9565b820191906000526020600020905b815481529060010190602001808311611b8c57829003601f168201915b5050505050815260200160048201548152602001600582015481526020016006820154815260200160078201548152602001600882015481526020016009820154815250509050600a60009054906101000a90046001600160a01b03166001600160a01b0316639497c6086002336040518363ffffffff1660e01b8152600401611c34929190613e3f565b602060405180830381865afa158015611c51573d6000803e3d6000fd5b505050506040513d601f19601f82011682018060405250810190611c759190613c56565b611cb35760405162461bcd60e51b815260206004820152600f60248201526e4f6e6c7920696e73706563746f727360881b6044820152606401610900565b600181602001516003811115611ccb57611ccb61388f565b14611d085760405162461bcd60e51b815260206004820152600d60248201526c416363657074206265666f726560981b6044820152606401610900565b60608101516001600160a01b03163314611d5a5760405162461bcd60e51b81526020600482015260136024820152722737ba103cb7bab91034b739b832b1ba34b7b760691b6044820152606401610900565b7f000000000000000000000000000000000000000000000000000000000000000063ffffffff16816101600151611d919190613a3e565b431115611dd55760405162461bcd60e51b8152602060048201526012602482015271125b9cdc1958dd1a5bdb88115e1c1a5c995960721b6044820152606401610900565b600954604082810151905163065ab21b60e41b81526001600160a01b03918216600482015260009291909116906365ab21b090602401600060405180830381865afa158015611e28573d6000803e3d6000fd5b505050506040513d6000823e601f3d908101601f19168201604052611e509190810190613ed5565b90506000600460ff16826080015163ffffffff16611e6e919061400a565b9050808563ffffffff161115611edd5760405162461bcd60e51b815260206004820152602e60248201527f5472656520636f756e7420657863656564732064656e73697479206c696d697460448201526d20666f722074686973206172656160901b6064820152608401610900565b61012c63ffffffff85161115611f285760405162461bcd60e51b815260206004820152601060248201526f13585e081c995cdd5b1d081b1a5b5a5d60821b6044820152606401610900565b611f358388888888612c8e565b611f3e83612f32565b8463ffffffff1660036000828254611f569190613a3e565b925050819055508363ffffffff1660046000828254611f759190613a3e565b9091555050336000908152600760209081526040808320868201516001600160a01b031684529091529020805460ff19166001179055600280546001600160401b03600160401b90910416906008611fcc83614021565b91906101000a8154816001600160401b0302191690836001600160401b031602179055505082604001516001600160a01b0316336001600160a01b0316896001600160401b03167f2224ef9c9aa3c3be082984f4341bc9e478345a0cdd809d940f034880dfeef86488888860c001514360405161206e949392919063ffffffff9485168152928416602084015292166040820152606081019190915260800190565b60405180910390a450505061208260018055565b5050505050565b612127604080516101e0810190915260008082526020820190815260200160006001600160a01b0316815260200160006001600160a01b03168152602001600063ffffffff168152602001600063ffffffff168152602001600063ffffffff16815260200160608152602001606081526020016000815260200160008152602001600081526020016000815260200160008152602001600081525090565b6001600160401b0382811660009081526005602090815260409182902082516101e0810190935280549384168352919290830190600160401b900460ff1660038111156121765761217661388f565b60038111156121875761218761388f565b815281546001600160a01b03600160481b909104811660208301526001830154908116604083015263ffffffff600160a01b820481166060840152600160c01b820481166080840152600160e01b9091041660a082015260028201805460c0909201916121f390613c11565b80601f016020809104026020016040519081016040528092919081815260200182805461221f90613c11565b801561226c5780601f106122415761010080835404028352916020019161226c565b820191906000526020600020905b81548152906001019060200180831161224f57829003601f168201915b5050505050815260200160038201805461228590613c11565b80601f01602080910402602001604051908101604052809291908181526020018280546122b190613c11565b80156122fe5780601f106122d3576101008083540402835291602001916122fe565b820191906000526020600020905b8154815290600101906020018083116122e157829003601f168201915b5050505050815260200160048201548152602001600582015481526020016006820154815260200160078201548152602001600882015481526020016009820154815250509050919050565b6123526123c0565b6001600160a01b0381166123b75760405162461bcd60e51b815260206004820152602660248201527f4f776e61626c653a206e6577206f776e657220697320746865207a65726f206160448201526564647265737360d01b6064820152608401610900565b611723816125cb565b6000546001600160a01b03163314610dc65760405162461bcd60e51b815260206004820181905260248201527f4f776e61626c653a2063616c6c6572206973206e6f7420746865206f776e65726044820152606401610900565b60026001540361246c5760405162461bcd60e51b815260206004820152601f60248201527f5265656e7472616e637947756172643a207265656e7472616e742063616c6c006044820152606401610900565b6002600155565b8060010160149054906101000a900463ffffffff1663ffffffff166003600082825461249f9190613a51565b9091555050600181015460048054600160c01b90920463ffffffff16916000906124ca908490613a51565b9091555050600280546001600160401b03169060006124e88361404c565b91906101000a8154816001600160401b0302191690836001600160401b03160217905550506002600881819054906101000a90046001600160401b0316809291906125329061404c565b82546101009290920a6001600160401b0381810219909316918316021790915582546803000000000000000060ff60401b1982161780855543600986018190556001860154604051918252600160481b9092046001600160a01b0390811695509091169291909116907f5030472abe84127f1f2b92ab27763256a3d275c0c827c8cffa506c99cd1ed1049060200160405180910390a450565b600080546001600160a01b038381166001600160a01b0319831681178455604051919092169283917f8be0079c531659141344cd1fd0a4f28419497f9722a3daafe3b4186f6b6457e09190a35050565b60007f000000000000000000000000000000000000000000000000000000000000000063ffffffff16600960009054906101000a90046001600160a01b03166001600160a01b031663582256f16040518163ffffffff1660e01b8152600401602060405180830381865afa158015612697573d6000803e3d6000fd5b505050506040513d601f19601f820116820180604052508101906126bb9190613c73565b10156126c75750600090565b7f000000000000000000000000000000000000000000000000000000000000000063ffffffff167f000000000000000000000000000000000000000000000000000000000000000063ffffffff16600960009054906101000a90046001600160a01b03166001600160a01b031663582256f16040518163ffffffff1660e01b8152600401602060405180830381865afa158015612768573d6000803e3d6000fd5b505050506040513d601f19601f8201168201806040525081019061278c9190613c73565b6127969190613a51565b11905090565b60028054600160801b90046001600160401b03169060106127bc83614021565b82546101009290920a6001600160401b03818102199093169183160217909155600254600160801b90048116600081815260056020908152604080832081516101e0810190925280549586168252939550919391929190830190600160401b900460ff1660038111156128315761283161388f565b60038111156128425761284261388f565b815281546001600160a01b03600160481b909104811660208301526001830154908116604083015263ffffffff600160a01b820481166060840152600160c01b820481166080840152600160e01b9091041660a082015260028201805460c0909201916128ae90613c11565b80601f01602080910402602001604051908101604052809291908181526020018280546128da90613c11565b80156129275780601f106128fc57610100808354040283529160200191612927565b820191906000526020600020905b81548152906001019060200180831161290a57829003601f168201915b5050505050815260200160038201805461294090613c11565b80601f016020809104026020016040519081016040528092919081815260200182805461296c90613c11565b80156129b95780601f1061298e576101008083540402835291602001916129b9565b820191906000526020600020905b81548152906001019060200180831161299c57829003601f168201915b50505091835250506004820154602080830191909152600583015460408301526006830154606083015260078301546080830152600883015460a083015260099092015460c0909101526001600160401b0384168252909150600090820181905250336040808301919091526000606083018190524361014084015282516001600160401b039081168252600560209081529290912083518154921667ffffffffffffffff1983168117825592840151849391929091839168ffffffffffffffffff191617600160401b836003811115612a9557612a9561388f565b021790555060408201518154600160481b600160e81b031916600160481b6001600160a01b03928316021782556060830151600183018054608086015160a087015160c0880151949095166001600160c01b031990921691909117600160a01b63ffffffff92831602176001600160c01b0316600160c01b948216949094026001600160e01b031693909317600160e01b939092169290920217905560e08201516002820190612b4590826140bb565b506101008201516003820190612b5b90826140bb565b5061012082015160048201556101408201516005820155610160820151600682015561018082015160078201556101a082015160088201556101c090910151600990910155600280546001600160401b0316906000612bb983614021565b91906101000a8154816001600160401b0302191690836001600160401b0316021790555050336001600160a01b0316826001600160401b03167f30053137f0cf60633be984694dd6295bb2027e571b975e37b0cedeefb92b375d43604051612c2391815260200190565b60405180910390a35050565b6009546040516394c3cee960e01b81523360048201526001600160a01b03909116906394c3cee990602401600060405180830381600087803b158015612c7457600080fd5b505af1158015612c88573d6000803e3d6000fd5b50505050565b6002602086018190525063ffffffff8281166080870181905290821660a08701819052600e5460405163ac2d165360e01b8152600481019390935260248301919091526001600160a01b03169063ac2d165390604401602060405180830381865afa158015612d01573d6000803e3d6000fd5b505050506040513d601f19601f82011682018060405250810190612d259190614179565b63ffffffff1660c086015260e085018490526101008501839052436101808601526009546040805163e05cf15560e01b815290516001600160a01b039092169163e05cf155916004808201926020929091908290030181865afa158015612d90573d6000803e3d6000fd5b505050506040513d601f19601f82011682018060405250810190612db49190613c73565b6101a086015284516001600160401b03908116600090815260056020908152604090912087518154931667ffffffffffffffff1984168117825591880151889391929091839168ffffffffffffffffff1990911617600160401b836003811115612e2057612e2061388f565b021790555060408201518154600160481b600160e81b031916600160481b6001600160a01b03928316021782556060830151600183018054608086015160a087015160c0880151949095166001600160c01b031990921691909117600160a01b63ffffffff92831602176001600160c01b0316600160c01b948216949094026001600160e01b031693909317600160e01b939092169290920217905560e08201516002820190612ed090826140bb565b506101008201516003820190612ee690826140bb565b5061012082015160048201556101408201516005820155610160820151600682015561018082015160078201556101a082015160088201556101c0909101516009909101555050505050565b6040818101516060830151600c5460095460c0860151945162a83a7b60e41b81526001600160a01b03808616600483015263ffffffff9096166024820152939492939183169262b2c9209286929190911690630a83a7b0906044016020604051808303816000875af1158015612fac573d6000803e3d6000fd5b505050506040513d601f19601f82011682018060405250810190612fd09190613c73565b6040516001600160e01b031960e085901b1681526001600160a01b0390921660048301526024820152604401600060405180830381600087803b15801561301657600080fd5b505af115801561302a573d6000803e3d6000fd5b5050600c546008546040516350e7469d60e11b81526001600160a01b038681166004830152928316945063f1a204ce935085929091169063a1ce8d3a906024016020604051808303816000875af1158015613089573d6000803e3d6000fd5b505050506040513d601f19601f820116820180604052508101906130ad9190613c73565b6040516001600160e01b031960e085901b1681526001600160a01b0390921660048301526024820152604401600060405180830381600087803b1580156130f357600080fd5b505af1158015613107573d6000803e3d6000fd5b5050506001600160a01b0390921660009081526006602090815260408220945185546001810187559583529120600485040180546001600160401b0392831660086003909716969096026101000a9586029290950219909416179092555050565b6001600160401b038116811461172357600080fd5b803561318881613168565b919050565b60006020828403121561319f57600080fd5b81356131aa81613168565b9392505050565b634e487b7160e01b600052604160045260246000fd5b6040516101e081016001600160401b03811182821017156131ea576131ea6131b1565b60405290565b60405160e081016001600160401b03811182821017156131ea576131ea6131b1565b604051602081016001600160401b03811182821017156131ea576131ea6131b1565b604080519081016001600160401b03811182821017156131ea576131ea6131b1565b60405161018081016001600160401b03811182821017156131ea576131ea6131b1565b60405161016081016001600160401b03811182821017156131ea576131ea6131b1565b604051601f8201601f191681016001600160401b03811182821017156132c4576132c46131b1565b604052919050565b80356004811061318857600080fd5b6001600160a01b038116811461172357600080fd5b8035613188816132db565b63ffffffff8116811461172357600080fd5b8035613188816132fb565b60006001600160401b03821115613331576133316131b1565b50601f01601f191660200190565b600082601f83011261335057600080fd5b813561336361335e82613318565b61329c565b81815284602083860101111561337857600080fd5b816020850160208301376000918101602001919091529392505050565b6000602082840312156133a757600080fd5b81356001600160401b038111156133bd57600080fd5b82016101e081850312156133d057600080fd5b6133d86131c7565b6133e18261317d565b81526133ef602083016132cc565b6020820152613400604083016132f0565b6040820152613411606083016132f0565b60608201526134226080830161330d565b608082015261343360a0830161330d565b60a082015261344460c0830161330d565b60c082015260e08201356001600160401b0381111561346257600080fd5b61346e8682850161333f565b60e0830152506101008201356001600160401b0381111561348e57600080fd5b61349a8682850161333f565b6101008301525061012082810135908201526101408083013590820152610160808301359082015261018080830135908201526101a080830135908201526101c091820135918101919091529392505050565b600060e082840312801561350057600080fd5b506135096131f0565b8235613514816132db565b81526020830135613524816132db565b60208201526040830135613537816132db565b6040820152606083013561354a816132db565b606082015261355b608084016132f0565b608082015261356c60a084016132f0565b60a082015261357d60c084016132f0565b60c08201529392505050565b6000806040838503121561359c57600080fd5b82356135a781613168565b915060208301356001600160401b038111156135c257600080fd5b6135ce8582860161333f565b9150509250929050565b801515811461172357600080fd5b8035613188816135d8565b60006020828403121561360357600080fd5b61360b613212565b9135825250919050565b60006040828403121561362757600080fd5b61362f613234565b9050813561363c816135d8565b815260209182013591810191909152919050565b60006020828403121561366257600080fd5b81356001600160401b0381111561367857600080fd5b82016101a0818503121561368b57600080fd5b613693613256565b61369c8261317d565b81526136aa602083016132f0565b602082015260408201356001600160401b038111156136c857600080fd5b6136d48682850161333f565b60408301525060608201356001600160401b038111156136f357600080fd5b6136ff8682850161333f565b6060830152506137116080830161330d565b608082015261372260a083016135e6565b60a082015260c0828101359082015260e080830135908201526137498561010084016135f1565b61010082015261375d856101208401613615565b6101208201526101608281013561014083015261018090920135918101919091529392505050565b60006020828403121561379757600080fd5b81356131aa816132db565b602080825282518282018190526000918401906040840190835b818110156137e35783516001600160401b03168352602093840193909201916001016137bc565b509095945050505050565b600080600080600060a0868803121561380657600080fd5b853561381181613168565b945060208601356001600160401b0381111561382c57600080fd5b6138388882890161333f565b94505060408601356001600160401b0381111561385457600080fd5b6138608882890161333f565b9350506060860135613871816132fb565b91506080860135613881816132fb565b809150509295509295909350565b634e487b7160e01b600052602160045260246000fd5b600481106138b5576138b561388f565b9052565b60005b838110156138d45781810151838201526020016138bc565b50506000910152565b600081518084526138f58160208601602086016138b9565b601f01601f19169290920160200192915050565b602081526139236020820183516001600160401b03169052565b6000602083015161393760408401826138a5565b5060408301516001600160a01b03811660608401525060608301516001600160a01b038116608084015250608083015163ffffffff811660a08401525060a083015163ffffffff811660c08401525060c083015163ffffffff811660e08401525060e08301516101e06101008401526139b46102008401826138dd565b9050610100840151601f19848303016101208501526139d382826138dd565b9150506101208401516101408401526101408401516101608401526101608401516101808401526101808401516101a08401526101a08401516101c08401526101c08401516101e08401528091505092915050565b634e487b7160e01b600052601160045260246000fd5b8082018082111561048857610488613a28565b8181038181111561048857610488613a28565b805161318881613168565b8051613188816132db565b600082601f830112613a8b57600080fd5b8151613a9961335e82613318565b818152846020838601011115613aae57600080fd5b613abf8260208301602087016138b9565b949350505050565b600060408284031215613ad957600080fd5b613ae1613234565b825181526020928301519281019290925250919050565b600060208284031215613b0a57600080fd5b81516001600160401b03811115613b2057600080fd5b82016101808185031215613b3357600080fd5b613b3b613279565b613b4482613a64565b8152613b5260208301613a6f565b602082015260408201516001600160401b03811115613b7057600080fd5b613b7c86828501613a7a565b60408301525060608201516001600160401b03811115613b9b57600080fd5b613ba786828501613a7a565b6060830152506080828101519082015260a0808301519082015260c0808301519082015260e08083015190820152613be26101008301613a64565b610100820152613bf6856101208401613ac7565b61012082015261016091909101516101408201529392505050565b600181811c90821680613c2557607f821691505b602082108103613c4557634e487b7160e01b600052602260045260246000fd5b50919050565b8051613188816135d8565b600060208284031215613c6857600080fd5b81516131aa816135d8565b600060208284031215613c8557600080fd5b5051919050565b60008154613c9981613c11565b808552600182168015613cb35760018114613ccf57613d06565b60ff1983166020870152602082151560051b8701019350613d06565b84600052602060002060005b83811015613cfd5781546020828a010152600182019150602081019050613cdb565b87016020019450505b50505092915050565b6060815260008454613d35606084016001600160401b0383166001600160401b03169052565b613d486080840160ff8360401c166138a5565b6001600160a01b03604882901c1660a08401525060018501546001600160a01b03811660c084015260a081901c63ffffffff1660e084015260c081901c63ffffffff1661010084015260e081901c610120840152506101e0610140830152613db7610240830160028701613c8c565b828103605f1901610160840152613dd18160038801613c8c565b9050600486015461018084015260058601546101a084015260068601546101c084015260078601546101e0840152600886015461020084015260098601546102208401528281036020840152613e2781866138dd565b915050613abf60408301846001600160a01b03169052565b6040810160098410613e5357613e5361388f565b9281526001600160a01b039190911660209091015290565b8051613188816132fb565b600060208284031215613e8857600080fd5b613e90613212565b9151825250919050565b600060408284031215613eac57600080fd5b613eb4613234565b90508151613ec1816135d8565b815260209182015191810191909152919050565b600060208284031215613ee757600080fd5b81516001600160401b03811115613efd57600080fd5b82016101a08185031215613f1057600080fd5b613f18613256565b613f2182613a64565b8152613f2f60208301613a6f565b602082015260408201516001600160401b03811115613f4d57600080fd5b613f5986828501613a7a565b60408301525060608201516001600160401b03811115613f7857600080fd5b613f8486828501613a7a565b606083015250613f9660808301613e6b565b6080820152613fa760a08301613c4b565b60a082015260c0828101519082015260e08083015190820152613fce856101008401613e76565b610100820152613fe2856101208401613e9a565b6101208201526101608281015161014083015261018090920151918101919091529392505050565b808202811582820484141761048857610488613a28565b60006001600160401b0382166001600160401b03810361404357614043613a28565b60010192915050565b60006001600160401b0382168061406557614065613a28565b6000190192915050565b601f8211156140b657806000526020600020601f840160051c810160208510156140965750805b601f840160051c820191505b8181101561208257600081556001016140a2565b505050565b81516001600160401b038111156140d4576140d46131b1565b6140e8816140e28454613c11565b8461406f565b6020601f82116001811461411c57600083156141045750848201515b600019600385901b1c1916600184901b178455612082565b600084815260208120601f198516915b8281101561414c578785015182556020948501946001909201910161412c565b508482101561416a5786840151600019600387901b60f8161c191681555b50505050600190811b01905550565b60006020828403121561418b57600080fd5b81516131aa816132fb56fea26469706673582212200ff662ffc53f8d7bbf6b8091d52288c61121cc5ee14f58172717074a6211537164736f6c634300081b0033",
  "linkReferences": {},
  "deployedLinkReferences": {}
}