{
  "_format": "hh-sol-artifact-1",
  "contractName": "InvitationRules",
  "sourceName": "contracts/InvitationRules.sol",
  "abi": [
    {
      "inputs": [
        {
          "internalType": "address",
          "name": "communityRulesAddress",
          "type": "address"
        },
        {
          "internalType": "address",
          "name": "researcherRulesAddress",
          "type": "address"
        },
        {
          "internalType": "address",
          "name": "developerRulesAddress",
          "type": "address"
        },
        {
          "internalType": "address",
          "name": "activistRulesAddress",
          "type": "address"
        },
        {
          "internalType": "address",
          "name": "contributorRulesAddress",
          "type": "address"
        }
      ],
      "stateMutability": "nonpayable",
      "type": "constructor"
    },
    {
      "anonymous": false,
      "inputs": [
        {
          "indexed": true,
          "internalType": "address",
          "name": "previousOwner",
          "type": "address"
        },
        {
          "indexed": true,
          "internalType": "address",
          "name": "newOwner",
          "type": "address"
        }
      ],
      "name": "OwnershipTransferred",
      "type": "event"
    },
    {
      "anonymous": false,
      "inputs": [
        {
          "indexed": true,
          "internalType": "address",
          "name": "inviter",
          "type": "address"
        },
        {
          "indexed": true,
          "internalType": "address",
          "name": "invited",
          "type": "address"
        },
        {
          "indexed": false,
          "internalType": "enum CommunityTypes.UserType",
          "name": "invitedType",
          "type": "uint8"
        },
        {
          "indexed": false,
          "internalType": "uint256",
          "name": "blockNumber",
          "type": "uint256"
        }
      ],
      "name": "UserInvited",
      "type": "event"
    },
    {
      "inputs": [],
      "name": "ACTIVIST_DELAY_BLOCKS",
      "outputs": [
        {
          "internalType": "uint16",
          "name": "",
          "type": "uint16"
        }
      ],
      "stateMutability": "view",
      "type": "function"
    },
    {
      "inputs": [
        {
          "internalType": "enum CommunityTypes.UserType",
          "name": "",
          "type": "uint8"
        }
      ],
      "name": "canBeInviteds",
      "outputs": [
        {
          "internalType": "enum CommunityTypes.UserType",
          "name": "",
          "type": "uint8"
        }
      ],
      "stateMutability": "view",
      "type": "function"
    },
    {
      "inputs": [
        {
          "internalType": "address",
          "name": "invited",
          "type": "address"
        },
        {
          "internalType": "enum CommunityTypes.UserType",
          "name": "userType",
          "type": "uint8"
        }
      ],
      "name": "invite",
      "outputs": [],
      "stateMutability": "nonpayable",
      "type": "function"
    },
    {
      "inputs": [
        {
          "internalType": "address",
          "name": "invited",
          "type": "address"
        },
        {
          "internalType": "enum CommunityTypes.UserType",
          "name": "userType",
          "type": "uint8"
        }
      ],
      "name": "inviteRegeneratorInspector",
      "outputs": [],
      "stateMutability": "nonpayable",
      "type": "function"
    },
    {
      "inputs": [
        {
          "internalType": "address",
          "name": "",
          "type": "address"
        }
      ],
      "name": "lastInviteActivist",
      "outputs": [
        {
          "internalType": "uint256",
          "name": "",
          "type": "uint256"
        }
      ],
      "stateMutability": "view",
      "type": "function"
    },
    {
      "inputs": [
        {
          "internalType": "address",
          "name": "",
          "type": "address"
        }
      ],
      "name": "lastInviteBlocks",
      "outputs": [
        {
          "internalType": "uint256",
          "name": "",
          "type": "uint256"
        }
      ],
      "stateMutability": "view",
      "type": "function"
    },
    {
      "inputs": [
        {
          "internalType": "address",
          "name": "invited",
          "type": "address"
        },
        {
          "internalType": "enum CommunityTypes.UserType",
          "name": "userType",
          "type": "uint8"
        }
      ],
      "name": "onlyOwnerInvite",
      "outputs": [],
      "stateMutability": "nonpayable",
      "type": "function"
    },
    {
      "inputs": [],
      "name": "owner",
      "outputs": [
        {
          "internalType": "address",
          "name": "",
          "type": "address"
        }
      ],
      "stateMutability": "view",
      "type": "function"
    },
    {
      "inputs": [],
      "name": "renounceOwnership",
      "outputs": [],
      "stateMutability": "nonpayable",
      "type": "function"
    },
    {
      "inputs": [
        {
          "internalType": "address",
          "name": "newOwner",
          "type": "address"
        }
      ],
      "name": "transferOwnership",
      "outputs": [],
      "stateMutability": "nonpayable",
      "type": "function"
    }
  ],
  "bytecode": "0x608060405234801561001057600080fd5b5060405161126138038061126183398101604081905261002f9161023f565b610038336101d3565b60018055600580546001600160a01b03199081166001600160a01b03978816178255600680548216968816969096178655600780548216958816959095178555600880548216948816949094179093556009805490931691909516179055600460208190527fc59312466997bb42aaaf719ece141047820e6b34531e1670dc1852a453648f0f805460ff1990811685179091557f91da3fd0782e51c6b3986e9e672fd566868e71f3dbc2d6c2cd6fbb3e361af2a780548216851790557fabd6e7cb50984ff9c2f3e18a2660c3353dadf4e3291deeb275dae2cd1e44fe05805482169094179093557f1a1e6821cde7d0159c0d293177871e09677b4e42307c7db3ba94f8648a5a050f8054841690911790557f2e174c10e159ea99b867ce3205125c24a42d128804e4070ed6fcc8cc98166aa0805460039084161790557fbeb3bad75134cb432e5707980e3245c52c5998a1125ee30f2f0dbf3925b1e55180548316909117905560008290527f04cde762ef08b6b6c5ded8e8c4c0b3f4e5c9ad7342c88fcc93681b4588b73f05805490911690911790556102a4565b600080546001600160a01b038381166001600160a01b0319831681178455604051919092169283917f8be0079c531659141344cd1fd0a4f28419497f9722a3daafe3b4186f6b6457e09190a35050565b80516001600160a01b038116811461023a57600080fd5b919050565b600080600080600060a0868803121561025757600080fd5b61026086610223565b945061026e60208701610223565b935061027c60408701610223565b925061028a60608701610223565b915061029860808701610223565b90509295509295909350565b610fae806102b36000396000f3fe608060405234801561001057600080fd5b506004361061009e5760003560e01c8063c128414b11610066578063c128414b14610121578063e20850131461013d578063e78b77771461015d578063f2fde38b14610170578063fc06556b1461018357600080fd5b80633d87a5e0146100a357806349a26b9d146100d6578063715018a6146100eb5780638da5cb5b146100f3578063b786cf791461010e575b600080fd5b6100c36100b1366004610cf8565b60026020526000908152604090205481565b6040519081526020015b60405180910390f35b6100e96100e4366004610d20565b6101b3565b005b6100e961050f565b6000546040516001600160a01b0390911681526020016100cd565b6100e961011c366004610d20565b610523565b61012a6101f481565b60405161ffff90911681526020016100cd565b6100c361014b366004610cf8565b60036020526000908152604090205481565b6100e961016b366004610d20565b6105e2565b6100e961017e366004610cf8565b6108eb565b6101a6610191366004610d57565b60046020526000908152604090205460ff1681565b6040516100cd9190610dac565b6101bb610964565b60058054604051630845718d60e21b81523360048201526001600160a01b0390911690632115c63490602401602060405180830381865afa158015610204573d6000803e3d6000fd5b505050506040513d601f19601f820116820180604052508101906102289190610dba565b61ffff16106102735760405162461bcd60e51b8152602060048201526012602482015271546f6f206d616e792070656e616c7469657360701b60448201526064015b60405180910390fd5b600554604051636f77926b60e01b81523360048201526000916001600160a01b031690636f77926b90602401602060405180830381865afa1580156102bc573d6000803e3d6000fd5b505050506040513d601f19601f820116820180604052508101906102e09190610dde565b90506102eb816109bd565b6103485760405162461bcd60e51b815260206004820152602860248201527f4f6e6c79206d6f73742061637469766520757365727320616c6c6f77656420746044820152676f20696e7669746560c01b606482015260840161026a565b61035181610b54565b6103985760405162461bcd60e51b8152602060048201526018602482015277125b9d9a5d194819195b185e481b9bdd081c995858da195960421b604482015260640161026a565b8060088111156103aa576103aa610d74565b600460008460088111156103c0576103c0610d74565b60088111156103d1576103d1610d74565b815260208101919091526040016000205460ff1660088111156103f6576103f6610d74565b1461043c5760405162461bcd60e51b815260206004820152601660248201527543616e277420696e766974652074686973207479706560501b604482015260640161026a565b33600081815260026020526040908190204390556005549051637ccfdba760e01b81526001600160a01b0390911691637ccfdba791610482919087908790600401610dfb565b600060405180830381600087803b15801561049c57600080fd5b505af11580156104b0573d6000803e3d6000fd5b50505050826001600160a01b0316336001600160a01b03167f6916c193b17465fcbf2131052cc1331820567345746f2882cf45d4ab0b1ccf0184436040516104f9929190610e28565b60405180910390a35061050b60018055565b5050565b610517610bf2565b6105216000610c4c565b565b61052b610bf2565b600554604051637ccfdba760e01b81526001600160a01b0390911690637ccfdba79061055f90339086908690600401610dfb565b600060405180830381600087803b15801561057957600080fd5b505af115801561058d573d6000803e3d6000fd5b50505050816001600160a01b0316336001600160a01b03167f6916c193b17465fcbf2131052cc1331820567345746f2882cf45d4ab0b1ccf0183436040516105d6929190610e28565b60405180910390a35050565b6105ea610964565b600554604051630845718d60e21b8152336004820152600a916001600160a01b031690632115c63490602401602060405180830381865afa158015610633573d6000803e3d6000fd5b505050506040513d601f19601f820116820180604052508101906106579190610dba565b61ffff161061069d5760405162461bcd60e51b8152602060048201526012602482015271546f6f206d616e792070656e616c7469657360701b604482015260640161026a565b600554604051631292f8c160e31b81526001600160a01b0390911690639497c608906106d0906006903390600401610e43565b602060405180830381865afa1580156106ed573d6000803e3d6000fd5b505050506040513d601f19601f820116820180604052508101906107119190610e79565b6107515760405162461bcd60e51b81526020600482015260116024820152704f6e6c7920746f2061637469766973747360781b604482015260640161026a565b600181600881111561076557610765610d74565b14806107825750600281600881111561078057610780610d74565b145b6107ce5760405162461bcd60e51b815260206004820152601f60248201527f4f6e6c7920726567656e657261746f7273206f7220696e73706563746f727300604482015260640161026a565b6107d6610c9c565b61081d5760405162461bcd60e51b8152602060048201526018602482015277125b9d9a5d194819195b185e481b9bdd081c995858da195960421b604482015260640161026a565b33600081815260036020526040908190204390556005549051637ccfdba760e01b81526001600160a01b0390911691637ccfdba791610863919086908690600401610dfb565b600060405180830381600087803b15801561087d57600080fd5b505af1158015610891573d6000803e3d6000fd5b50505050816001600160a01b0316336001600160a01b03167f6916c193b17465fcbf2131052cc1331820567345746f2882cf45d4ab0b1ccf0183436040516108da929190610e28565b60405180910390a361050b60018055565b6108f3610bf2565b6001600160a01b0381166109585760405162461bcd60e51b815260206004820152602660248201527f4f776e61626c653a206e6577206f776e657220697320746865207a65726f206160448201526564647265737360d01b606482015260840161026a565b61096181610c4c565b50565b6002600154036109b65760405162461bcd60e51b815260206004820152601f60248201527f5265656e7472616e637947756172643a207265656e7472616e742063616c6c00604482015260640161026a565b6002600155565b600060068260088111156109d3576109d3610d74565b03610a4b576008546040516363be0e7360e11b81523360048201526001600160a01b039091169063c77c1ce6906024015b602060405180830381865afa158015610a21573d6000803e3d6000fd5b505050506040513d601f19601f82011682018060405250810190610a459190610e79565b92915050565b6005826008811115610a5f57610a5f610d74565b03610a94576009546040516363be0e7360e11b81523360048201526001600160a01b039091169063c77c1ce690602401610a04565b6004826008811115610aa857610aa8610d74565b03610add576007546040516363be0e7360e11b81523360048201526001600160a01b039091169063c77c1ce690602401610a04565b6003826008811115610af157610af1610d74565b03610b26576006546040516363be0e7360e11b81523360048201526001600160a01b039091169063c77c1ce690602401610a04565b6007826008811115610b3a57610b3a610d74565b03610b4757506001919050565b506000919050565b919050565b600554604051639547f95360e01b815260009182916001600160a01b0390911690639547f95390610b89908690600401610dac565b60a060405180830381865afa158015610ba6573d6000803e3d6000fd5b505050506040513d601f19601f82011682018060405250810190610bca9190610eb9565b6060015133600090815260026020526040902054909150610beb9082610cbd565b9392505050565b6000546001600160a01b031633146105215760405162461bcd60e51b815260206004820181905260248201527f4f776e61626c653a2063616c6c6572206973206e6f7420746865206f776e6572604482015260640161026a565b600080546001600160a01b038381166001600160a01b0319831681178455604051919092169283917f8be0079c531659141344cd1fd0a4f28419497f9722a3daafe3b4186f6b6457e09190a35050565b33600090815260036020526040812054610cb8906101f4610cbd565b905090565b6000821580610beb575063ffffffff8216610cd88443610f57565b10159392505050565b80356001600160a01b0381168114610b4f57600080fd5b600060208284031215610d0a57600080fd5b610beb82610ce1565b6009811061096157600080fd5b60008060408385031215610d3357600080fd5b610d3c83610ce1565b91506020830135610d4c81610d13565b809150509250929050565b600060208284031215610d6957600080fd5b8135610beb81610d13565b634e487b7160e01b600052602160045260246000fd5b60098110610da857634e487b7160e01b600052602160045260246000fd5b9052565b60208101610a458284610d8a565b600060208284031215610dcc57600080fd5b815161ffff81168114610beb57600080fd5b600060208284031215610df057600080fd5b8151610beb81610d13565b6001600160a01b0384811682528316602082015260608101610e206040830184610d8a565b949350505050565b60408101610e368285610d8a565b8260208301529392505050565b60408101610e518285610d8a565b6001600160a01b039290921660209190910152919050565b80518015158114610b4f57600080fd5b600060208284031215610e8b57600080fd5b610beb82610e69565b805160ff81168114610b4f57600080fd5b805163ffffffff81168114610b4f57600080fd5b600060a0828403128015610ecc57600080fd5b5060405160a0810167ffffffffffffffff81118282101715610efe57634e487b7160e01b600052604160045260246000fd5b604052610f0a83610e94565b8152610f1860208401610e69565b6020820152610f2960408401610e69565b6040820152610f3a60608401610ea5565b6060820152610f4b60808401610e69565b60808201529392505050565b81810381811115610a4557634e487b7160e01b600052601160045260246000fdfea2646970667358221220800a46e5df6893502a53f8f0d3cc91f95911f9a6e5c2ae6c8a03c5e85bf4e51064736f6c634300081b0033",
  "linkReferences": {},
  "deployedLinkReferences": {}
}