{
  "_format": "hh-sol-artifact-1",
  "contractName": "RegeneratorPool",
  "sourceName": "contracts/RegeneratorPool.sol",
  "abi": [
    {
      "inputs": [
        {
          "internalType": "address",
          "name": "regenerationCreditAddress",
          "type": "address"
        },
        {
          "internalType": "uint256",
          "name": "_halving",
          "type": "uint256"
        },
        {
          "internalType": "uint256",
          "name": "_blocksPerEra",
          "type": "uint256"
        }
      ],
      "stateMutability": "nonpayable",
      "type": "constructor"
    },
    {
      "inputs": [
        {
          "internalType": "address",
          "name": "owner",
          "type": "address"
        }
      ],
      "name": "OwnableInvalidOwner",
      "type": "error"
    },
    {
      "inputs": [
        {
          "internalType": "address",
          "name": "account",
          "type": "address"
        }
      ],
      "name": "OwnableUnauthorizedAccount",
      "type": "error"
    },
    {
      "inputs": [],
      "name": "ReentrancyGuardReentrantCall",
      "type": "error"
    },
    {
      "anonymous": false,
      "inputs": [
        {
          "indexed": true,
          "internalType": "address",
          "name": "previousOwner",
          "type": "address"
        },
        {
          "indexed": true,
          "internalType": "address",
          "name": "newOwner",
          "type": "address"
        }
      ],
      "name": "OwnershipTransferred",
      "type": "event"
    },
    {
      "anonymous": false,
      "inputs": [
        {
          "indexed": true,
          "internalType": "address",
          "name": "user",
          "type": "address"
        },
        {
          "indexed": false,
          "internalType": "uint256",
          "name": "era",
          "type": "uint256"
        },
        {
          "indexed": false,
          "internalType": "uint256",
          "name": "levelsAdded",
          "type": "uint256"
        },
        {
          "indexed": false,
          "internalType": "uint256",
          "name": "newTotalEraLevels",
          "type": "uint256"
        },
        {
          "indexed": false,
          "internalType": "uint256",
          "name": "newEraUserLevels",
          "type": "uint256"
        }
      ],
      "name": "PoolLevelAdded",
      "type": "event"
    },
    {
      "anonymous": false,
      "inputs": [
        {
          "indexed": true,
          "internalType": "address",
          "name": "user",
          "type": "address"
        },
        {
          "indexed": false,
          "internalType": "uint256",
          "name": "era",
          "type": "uint256"
        },
        {
          "indexed": false,
          "internalType": "uint256",
          "name": "levelsRemoved",
          "type": "uint256"
        },
        {
          "indexed": false,
          "internalType": "uint256",
          "name": "newTotalEraLevels",
          "type": "uint256"
        },
        {
          "indexed": false,
          "internalType": "uint256",
          "name": "newEraUserLevels",
          "type": "uint256"
        }
      ],
      "name": "PoolLevelRemoved",
      "type": "event"
    },
    {
      "anonymous": false,
      "inputs": [
        {
          "indexed": true,
          "internalType": "address",
          "name": "user",
          "type": "address"
        },
        {
          "indexed": false,
          "internalType": "uint256",
          "name": "era",
          "type": "uint256"
        },
        {
          "indexed": false,
          "internalType": "uint256",
          "name": "amount",
          "type": "uint256"
        }
      ],
      "name": "TokensWithdrawn",
      "type": "event"
    },
    {
      "inputs": [],
      "name": "BLOCKS_PRECISION",
      "outputs": [
        {
          "internalType": "uint256",
          "name": "",
          "type": "uint256"
        }
      ],
      "stateMutability": "view",
      "type": "function"
    },
    {
      "inputs": [],
      "name": "MAX_NEW_LEVELS",
      "outputs": [
        {
          "internalType": "uint256",
          "name": "",
          "type": "uint256"
        }
      ],
      "stateMutability": "view",
      "type": "function"
    },
    {
      "inputs": [
        {
          "internalType": "address",
          "name": "regenerator",
          "type": "address"
        },
        {
          "internalType": "uint256",
          "name": "levels",
          "type": "uint256"
        },
        {
          "internalType": "uint64",
          "name": "inspectionId",
          "type": "uint64"
        }
      ],
      "name": "addLevel",
      "outputs": [],
      "stateMutability": "nonpayable",
      "type": "function"
    },
    {
      "inputs": [
        {
          "internalType": "address",
          "name": "",
          "type": "address"
        }
      ],
      "name": "allowedCallers",
      "outputs": [
        {
          "internalType": "bool",
          "name": "",
          "type": "bool"
        }
      ],
      "stateMutability": "view",
      "type": "function"
    },
    {
      "inputs": [
        {
          "internalType": "uint256",
          "name": "currentUserEra",
          "type": "uint256"
        }
      ],
      "name": "canWithdraw",
      "outputs": [
        {
          "internalType": "bool",
          "name": "",
          "type": "bool"
        }
      ],
      "stateMutability": "view",
      "type": "function"
    },
    {
      "inputs": [
        {
          "internalType": "uint256",
          "name": "currentUserEra",
          "type": "uint256"
        }
      ],
      "name": "canWithdrawTimes",
      "outputs": [
        {
          "internalType": "uint256",
          "name": "",
          "type": "uint256"
        }
      ],
      "stateMutability": "view",
      "type": "function"
    },
    {
      "inputs": [],
      "name": "currentContractEra",
      "outputs": [
        {
          "internalType": "uint256",
          "name": "",
          "type": "uint256"
        }
      ],
      "stateMutability": "view",
      "type": "function"
    },
    {
      "inputs": [],
      "name": "currentEpoch",
      "outputs": [
        {
          "internalType": "uint256",
          "name": "",
          "type": "uint256"
        }
      ],
      "stateMutability": "view",
      "type": "function"
    },
    {
      "inputs": [
        {
          "internalType": "uint256",
          "name": "",
          "type": "uint256"
        },
        {
          "internalType": "address",
          "name": "",
          "type": "address"
        }
      ],
      "name": "eraLevels",
      "outputs": [
        {
          "internalType": "uint256",
          "name": "",
          "type": "uint256"
        }
      ],
      "stateMutability": "view",
      "type": "function"
    },
    {
      "inputs": [
        {
          "internalType": "uint256",
          "name": "",
          "type": "uint256"
        },
        {
          "internalType": "address",
          "name": "",
          "type": "address"
        }
      ],
      "name": "eraTokens",
      "outputs": [
        {
          "internalType": "uint256",
          "name": "",
          "type": "uint256"
        }
      ],
      "stateMutability": "view",
      "type": "function"
    },
    {
      "inputs": [
        {
          "internalType": "uint256",
          "name": "",
          "type": "uint256"
        }
      ],
      "name": "eras",
      "outputs": [
        {
          "internalType": "uint256",
          "name": "claimsCount",
          "type": "uint256"
        },
        {
          "internalType": "uint256",
          "name": "tokens",
          "type": "uint256"
        },
        {
          "internalType": "uint256",
          "name": "levels",
          "type": "uint256"
        }
      ],
      "stateMutability": "view",
      "type": "function"
    },
    {
      "inputs": [
        {
          "internalType": "uint256",
          "name": "era",
          "type": "uint256"
        }
      ],
      "name": "getEpochForEra",
      "outputs": [
        {
          "internalType": "uint256",
          "name": "",
          "type": "uint256"
        }
      ],
      "stateMutability": "view",
      "type": "function"
    },
    {
      "inputs": [
        {
          "internalType": "uint256",
          "name": "era",
          "type": "uint256"
        }
      ],
      "name": "getEra",
      "outputs": [
        {
          "components": [
            {
              "internalType": "uint256",
              "name": "claimsCount",
              "type": "uint256"
            },
            {
              "internalType": "uint256",
              "name": "tokens",
              "type": "uint256"
            },
            {
              "internalType": "uint256",
              "name": "levels",
              "type": "uint256"
            }
          ],
          "internalType": "struct Era",
          "name": "",
          "type": "tuple"
        }
      ],
      "stateMutability": "view",
      "type": "function"
    },
    {
      "inputs": [
        {
          "internalType": "uint64",
          "name": "",
          "type": "uint64"
        }
      ],
      "name": "hasProcessedLevel",
      "outputs": [
        {
          "internalType": "bool",
          "name": "",
          "type": "bool"
        }
      ],
      "stateMutability": "view",
      "type": "function"
    },
    {
      "inputs": [
        {
          "internalType": "uint256",
          "name": "",
          "type": "uint256"
        },
        {
          "internalType": "address",
          "name": "",
          "type": "address"
        }
      ],
      "name": "hasWithdrawn",
      "outputs": [
        {
          "internalType": "bool",
          "name": "",
          "type": "bool"
        }
      ],
      "stateMutability": "view",
      "type": "function"
    },
    {
      "inputs": [
        {
          "internalType": "address",
          "name": "delegate",
          "type": "address"
        },
        {
          "internalType": "uint256",
          "name": "era",
          "type": "uint256"
        }
      ],
      "name": "haveTokensToWithdraw",
      "outputs": [
        {
          "internalType": "bool",
          "name": "",
          "type": "bool"
        }
      ],
      "stateMutability": "view",
      "type": "function"
    },
    {
      "inputs": [
        {
          "internalType": "address",
          "name": "caller",
          "type": "address"
        }
      ],
      "name": "isAllowedCaller",
      "outputs": [
        {
          "internalType": "bool",
          "name": "",
          "type": "bool"
        }
      ],
      "stateMutability": "view",
      "type": "function"
    },
    {
      "inputs": [
        {
          "internalType": "address",
          "name": "allowed",
          "type": "address"
        }
      ],
      "name": "newAllowedCaller",
      "outputs": [],
      "stateMutability": "nonpayable",
      "type": "function"
    },
    {
      "inputs": [
        {
          "internalType": "uint256",
          "name": "targetEra",
          "type": "uint256"
        }
      ],
      "name": "nextEraIn",
      "outputs": [
        {
          "internalType": "int256",
          "name": "",
          "type": "int256"
        }
      ],
      "stateMutability": "view",
      "type": "function"
    },
    {
      "inputs": [],
      "name": "owner",
      "outputs": [
        {
          "internalType": "address",
          "name": "",
          "type": "address"
        }
      ],
      "stateMutability": "view",
      "type": "function"
    },
    {
      "inputs": [],
      "name": "regenerationCredit",
      "outputs": [
        {
          "internalType": "contract IRegenerationCredit",
          "name": "",
          "type": "address"
        }
      ],
      "stateMutability": "view",
      "type": "function"
    },
    {
      "inputs": [],
      "name": "regeneratorRulesAddress",
      "outputs": [
        {
          "internalType": "address",
          "name": "",
          "type": "address"
        }
      ],
      "stateMutability": "view",
      "type": "function"
    },
    {
      "inputs": [
        {
          "internalType": "address",
          "name": "addr",
          "type": "address"
        },
        {
          "internalType": "uint256",
          "name": "amountToRemove",
          "type": "uint256"
        },
        {
          "internalType": "bool",
          "name": "denied",
          "type": "bool"
        }
      ],
      "name": "removePoolLevels",
      "outputs": [],
      "stateMutability": "nonpayable",
      "type": "function"
    },
    {
      "inputs": [],
      "name": "renounceOwnership",
      "outputs": [],
      "stateMutability": "nonpayable",
      "type": "function"
    },
    {
      "inputs": [
        {
          "internalType": "address",
          "name": "_regeneratorRulesAddress",
          "type": "address"
        }
      ],
      "name": "setContractCall",
      "outputs": [],
      "stateMutability": "nonpayable",
      "type": "function"
    },
    {
      "inputs": [
        {
          "internalType": "uint256",
          "name": "currentEpoch",
          "type": "uint256"
        }
      ],
      "name": "tokensPerEpoch",
      "outputs": [
        {
          "internalType": "uint256",
          "name": "",
          "type": "uint256"
        }
      ],
      "stateMutability": "view",
      "type": "function"
    },
    {
      "inputs": [
        {
          "internalType": "uint256",
          "name": "currentEpoch",
          "type": "uint256"
        },
        {
          "internalType": "uint256",
          "name": "halvingFactor",
          "type": "uint256"
        }
      ],
      "name": "tokensPerEra",
      "outputs": [
        {
          "internalType": "uint256",
          "name": "",
          "type": "uint256"
        }
      ],
      "stateMutability": "view",
      "type": "function"
    },
    {
      "inputs": [
        {
          "internalType": "address",
          "name": "newOwner",
          "type": "address"
        }
      ],
      "name": "transferOwnership",
      "outputs": [],
      "stateMutability": "nonpayable",
      "type": "function"
    },
    {
      "inputs": [
        {
          "internalType": "address",
          "name": "delegate",
          "type": "address"
        },
        {
          "internalType": "uint256",
          "name": "era",
          "type": "uint256"
        }
      ],
      "name": "withdraw",
      "outputs": [],
      "stateMutability": "nonpayable",
      "type": "function"
    }
  ],
  "bytecode": "0x61010060405234801561001157600080fd5b5060405161172c38038061172c833981016040819052610030916100fc565b6b026c62ad77dc602dae00000060805260a08190524360c05260e0829052338061007457604051631e4fbdf760e01b81526000600482015260240160405180910390fd5b61007d816100aa565b5050600160065550600780546001600160a01b0319166001600160a01b039290921691909117905561013f565b600480546001600160a01b038381166001600160a01b0319831681179093556040519116919082907f8be0079c531659141344cd1fd0a4f28419497f9722a3daafe3b4186f6b6457e090600090a35050565b60008060006060848603121561011157600080fd5b83516001600160a01b038116811461012857600080fd5b602085015160409095015190969495509392505050565b60805160a05160c05160e051611598610194600039600081816104f101526109290152600081816109f50152610a34015260008181610863015281816109ca0152610a600152600061061301526115986000f3fe608060405234801561001057600080fd5b50600436106101cf5760003560e01c80637b33415411610104578063b86c5699116100a2578063f2fde38b11610071578063f2fde38b14610478578063f3fef3a31461048b578063fbe85f061461049e578063ff39043c146104b157600080fd5b8063b86c569914610427578063d5ee3eb51461043a578063e78a82ff1461044d578063ed0df79e1461047057600080fd5b80638da5cb5b116100de5780638da5cb5b146103a95780638f93716f146103ba57806394cec7a7146103cd578063a6801258146103fb57600080fd5b80637b33415414610353578063861b4ce11461037657806388b3acae1461037e57600080fd5b80634e0be8b511610171578063720a70bd1161014b578063720a70bd146102db578063755d4f971461032557806376671808146103385780637721f1b51461034057600080fd5b80634e0be8b5146102b8578063715018a6146102c057806371d0921a146102c857600080fd5b80631f14f415116101ad5780631f14f4151461023c5780632506b9321461025d5780632eedcb18146102705780632f9ed1ef146102a557600080fd5b806309437a94146101d45780630f2dbe60146102045780631af0d89714610227575b600080fd5b6008546101e7906001600160a01b031681565b6040516001600160a01b0390911681526020015b60405180910390f35b6102176102123660046111b5565b6104dc565b60405190151581526020016101fb565b61023a6102353660046111ed565b610523565b005b61024f61024a36600461122d565b6105ea565b6040519081526020016101fb565b61024f61026b36600461124f565b610600565b61028361027e36600461124f565b610637565b60408051825181526020808401519082015291810151908201526060016101fb565b6007546101e7906001600160a01b031681565b61024f60c081565b61023a610692565b61023a6102d6366004611280565b6106a6565b61030a6102e936600461124f565b60006020819052908152604090208054600182015460029092015490919083565b604080519384526020840192909252908201526060016101fb565b61023a6103333660046112bc565b6107f8565b61024f610822565b61024f61034e36600461124f565b610834565b6102176103613660046112bc565b60056020526000908152604090205460ff1681565b61024f600581565b61024f61038c3660046112d7565b600160209081526000928352604080842090915290825290205481565b6004546001600160a01b03166101e7565b61023a6103c83660046112bc565b6108aa565b6102176103db3660046112d7565b600360209081526000928352604080842090915290825290205460ff1681565b6102176104093660046112bc565b6001600160a01b031660009081526005602052604090205460ff1690565b61024f61043536600461124f565b6108d6565b61024f61044836600461124f565b610968565b61021761045b366004611303565b60096020526000908152604090205460ff1681565b61024f610a2c565b61023a6104863660046112bc565b610a96565b61023a6104993660046111b5565b610ad4565b6102176104ac36600461124f565b610dd9565b61024f6104bf3660046112d7565b600260209081526000928352604080842090915290825290205481565b600061051a83836105156104ef866108d6565b7f00000000000000000000000000000000000000000000000000000000000000006105ea565b610deb565b90505b92915050565b3360009081526005602052604090205460ff1661055b5760405162461bcd60e51b81526004016105529061131e565b60405180910390fd5b6008546001600160a01b03163381146105865760405162461bcd60e51b81526004016105529061134a565b61058e610e04565b6000610598610a2c565b90506000836105a757846105cb565b60008281526001602090815260408083206001600160a01b038a1684529091529020545b90506105d8868383610e2e565b50506105e46001600655565b50505050565b6000816105f684610600565b61051a9190611397565b600061060d8260026114a0565b61051d907f0000000000000000000000000000000000000000000000000000000000000000611397565b61065b60405180606001604052806000815260200160008152602001600081525090565b5060009081526020818152604091829020825160608101845281548152600182015492810192909252600201549181019190915290565b61069a610f3e565b6106a46000610f6b565b565b3360009081526005602052604090205460ff166106d55760405162461bcd60e51b81526004016105529061131e565b6008546001600160a01b03163381146107005760405162461bcd60e51b81526004016105529061134a565b610708610e04565b60c083111561074e5760405162461bcd60e51b815260206004820152601260248201527145786365656473206d6178206c6576656c7360701b6044820152606401610552565b67ffffffffffffffff821660009081526009602052604090205460ff16156107b85760405162461bcd60e51b815260206004820152601760248201527f4576656e7420616c72656164792070726f6365737365640000000000000000006044820152606401610552565b67ffffffffffffffff82166000908152600960205260409020805460ff191660011790556107ee84846107e9610a2c565b610fbd565b6105e46001600655565b610800610f3e565b600880546001600160a01b0319166001600160a01b0392909216919091179055565b600061082f610435610a2c565b905090565b60008061084083610968565b905060008113156108545750600092915050565b600061085f826114ac565b90507f000000000000000000000000000000000000000000000000000000000000000061088e6005600a6114a0565b61089890836114c8565b6108a29190611397565b949350505050565b6108b2610f3e565b6001600160a01b03166000908152600560205260409020805460ff19166001179055565b60008082116109275760405162461bcd60e51b815260206004820152601a60248201527f457261206d7573742062652067726561746572207468616e20300000000000006044820152606401610552565b7f00000000000000000000000000000000000000000000000000000000000000006109536001846114df565b61095d9190611397565b61051d9060016114f2565b60008082116109c35760405162461bcd60e51b815260206004820152602160248201527f54617267657420657261206d7573742062652067726561746572207468616e206044820152600360fc1b6064820152608401610552565b60006109ef7f0000000000000000000000000000000000000000000000000000000000000000846114c8565b610a19907f00000000000000000000000000000000000000000000000000000000000000006114f2565b9050610a254382611505565b9392505050565b600080610a597f0000000000000000000000000000000000000000000000000000000000000000436114df565b9050610a857f000000000000000000000000000000000000000000000000000000000000000082611397565b610a909060016114f2565b91505090565b610a9e610f3e565b6001600160a01b038116610ac857604051631e4fbdf760e01b815260006004820152602401610552565b610ad181610f6b565b50565b3360009081526005602052604090205460ff16610b035760405162461bcd60e51b81526004016105529061131e565b6008546001600160a01b0316338114610b2e5760405162461bcd60e51b81526004016105529061134a565b81610b3881610dd9565b610b7c5760405162461bcd60e51b8152602060048201526015602482015274165bdd4818d85b89dd08185c1c1c9bdd99481e595d605a1b6044820152606401610552565b60008381526003602090815260408083206001600160a01b03881684529091529020548390859060ff1615610bf35760405162461bcd60e51b815260206004820152601e60248201527f416c72656164792077697468647261776e20666f7220746869732065726100006044820152606401610552565b610bfb610e04565b610c03610a2c565b851115610c465760405162461bcd60e51b815260206004820152601160248201527045726120696e207468652066757475726560781b6044820152606401610552565b60008581526003602090815260408083206001600160a01b038a1684529091528120805460ff19166001179055610c898688610c846104ef836108d6565b611093565b9050610c968688836110f9565b80600003610ca45750610dc7565b600754604051631caccb1d60e31b8152600481018390526001600160a01b039091169063e56658e890602401600060405180830381600087803b158015610cea57600080fd5b505af1158015610cfe573d6000803e3d6000fd5b505060075460405163a9059cbb60e01b81526001600160a01b038b811660048301526024820186905260009450909116915063a9059cbb906044016020604051808303816000875af1158015610d58573d6000803e3d6000fd5b505050506040513d601f19601f82011682018060405250810190610d7c919061152c565b905080610dc45760405162461bcd60e51b8152602060048201526016602482015275115490cc8c0e881d1c985b9cd9995c8819985a5b195960521b6044820152606401610552565b50505b610dd16001600655565b505050505050565b6000610de3610a2c565b909110919050565b600080610df9848685611093565b151595945050505050565b600260065403610e2757604051633ee5aeb560e01b815260040160405180910390fd5b6002600655565b60008281526001602090815260408083206001600160a01b038716845290915281205490819003610e5f5750505050565b80821115610e6b578091505b60008381526020819052604081206002018054849290610e8c9084906114df565b909155505060008381526001602090815260408083206001600160a01b038816845290915281208054849290610ec39084906114df565b909155505060008381526020818152604080832060020154600183528184206001600160a01b038916808652908452938290205482518881529384018790529183015260608201527f8df21415d734537dcf01ffb77472049844f905c24abd54708d93555ea85239f99060800160405180910390a250505050565b6004546001600160a01b031633146106a45760405163118cdaa760e01b8152336004820152602401610552565b600480546001600160a01b038381166001600160a01b0319831681179093556040519116919082907f8be0079c531659141344cd1fd0a4f28419497f9722a3daafe3b4186f6b6457e090600090a35050565b600081815260208190526040902060020154610fda9083906114f2565b60008281526020818152604080832060020193909355600181528282206001600160a01b0387168352905290812080548492906110189084906114f2565b909155505060008181526020818152604080832060020154600183528184206001600160a01b038816808652908452938290205482518681529384018790529183015260608201527ffc6907b3f86e1e63de43e8e6af6345e03bbc9726a0f63eddb4021532417f78b1906080015b60405180910390a2505050565b60008381526020818152604080832060020154600183528184206001600160a01b03871685529092528220548015806110ca575081155b156110da57600092505050610a25565b816110e585836114c8565b6110ef9190611397565b9695505050505050565b600083815260208190526040812080549161111383611549565b9091555050600083815260208190526040812060010180548392906111399084906114f2565b909155505060008381526002602090815260408083206001600160a01b0386168085529083529281902084905580518681529182018490527fffe903c0abe6b2dbb2f3474ef43d7a3c1fca49e5a774453423ca8e1952aabffa9101611086565b80356001600160a01b03811681146111b057600080fd5b919050565b600080604083850312156111c857600080fd5b6111d183611199565b946020939093013593505050565b8015158114610ad157600080fd5b60008060006060848603121561120257600080fd5b61120b84611199565b9250602084013591506040840135611222816111df565b809150509250925092565b6000806040838503121561124057600080fd5b50508035926020909101359150565b60006020828403121561126157600080fd5b5035919050565b803567ffffffffffffffff811681146111b057600080fd5b60008060006060848603121561129557600080fd5b61129e84611199565b9250602084013591506112b360408501611268565b90509250925092565b6000602082840312156112ce57600080fd5b61051a82611199565b600080604083850312156112ea57600080fd5b823591506112fa60208401611199565b90509250929050565b60006020828403121561131557600080fd5b61051a82611268565b6020808252601290820152712737ba1030b63637bbb2b21031b0b63632b960711b604082015260600190565b6020808252601e908201527f43616c6c6572206d7573742062652073797374656d20636f6e74726163740000604082015260600190565b634e487b7160e01b600052601160045260246000fd5b6000826113b457634e487b7160e01b600052601260045260246000fd5b500490565b6001815b60018411156113f4578085048111156113d8576113d8611381565b60018416156113e657908102905b60019390931c9280026113bd565b935093915050565b60008261140b5750600161051d565b816114185750600061051d565b816001811461142e576002811461143857611454565b600191505061051d565b60ff84111561144957611449611381565b50506001821b61051d565b5060208310610133831016604e8410600b8410161715611477575081810a61051d565b61148460001984846113b9565b806000190482111561149857611498611381565b029392505050565b600061051a83836113fc565b6000600160ff1b82016114c1576114c1611381565b5060000390565b808202811582820484141761051d5761051d611381565b8181038181111561051d5761051d611381565b8082018082111561051d5761051d611381565b818103600083128015838313168383128216171561152557611525611381565b5092915050565b60006020828403121561153e57600080fd5b8151610a25816111df565b60006001820161155b5761155b611381565b506001019056fea2646970667358221220d2d59208c0c92324035e8238dafec9258b80a34705cbe70ea071a66562112b3964736f6c634300081b0033",
  "linkReferences": {},
  "deployedLinkReferences": {}
}