{
  "_format": "hh-sol-artifact-1",
  "contractName": "RegenerationCredit",
  "sourceName": "contracts/RegenerationCredit.sol",
  "abi": [
    {
      "inputs": [
        {
          "internalType": "uint256",
          "name": "totalSupply",
          "type": "uint256"
        }
      ],
      "stateMutability": "nonpayable",
      "type": "constructor"
    },
    {
      "anonymous": false,
      "inputs": [
        {
          "indexed": true,
          "internalType": "address",
          "name": "owner",
          "type": "address"
        },
        {
          "indexed": true,
          "internalType": "address",
          "name": "spender",
          "type": "address"
        },
        {
          "indexed": false,
          "internalType": "uint256",
          "name": "value",
          "type": "uint256"
        }
      ],
      "name": "Approval",
      "type": "event"
    },
    {
      "anonymous": false,
      "inputs": [
        {
          "indexed": true,
          "internalType": "address",
          "name": "previousOwner",
          "type": "address"
        },
        {
          "indexed": true,
          "internalType": "address",
          "name": "newOwner",
          "type": "address"
        }
      ],
      "name": "OwnershipTransferred",
      "type": "event"
    },
    {
      "anonymous": false,
      "inputs": [
        {
          "indexed": true,
          "internalType": "address",
          "name": "from",
          "type": "address"
        },
        {
          "indexed": true,
          "internalType": "address",
          "name": "to",
          "type": "address"
        },
        {
          "indexed": false,
          "internalType": "uint256",
          "name": "amount",
          "type": "uint256"
        }
      ],
      "name": "PoolTransfer",
      "type": "event"
    },
    {
      "anonymous": false,
      "inputs": [
        {
          "indexed": true,
          "internalType": "address",
          "name": "account",
          "type": "address"
        },
        {
          "indexed": false,
          "internalType": "uint256",
          "name": "amount",
          "type": "uint256"
        },
        {
          "indexed": false,
          "internalType": "uint256",
          "name": "newAccountCertifiedTotal",
          "type": "uint256"
        }
      ],
      "name": "TokensCertified",
      "type": "event"
    },
    {
      "anonymous": false,
      "inputs": [
        {
          "indexed": true,
          "internalType": "address",
          "name": "from",
          "type": "address"
        },
        {
          "indexed": true,
          "internalType": "address",
          "name": "to",
          "type": "address"
        },
        {
          "indexed": false,
          "internalType": "uint256",
          "name": "value",
          "type": "uint256"
        }
      ],
      "name": "Transfer",
      "type": "event"
    },
    {
      "inputs": [],
      "name": "DECIMALS",
      "outputs": [
        {
          "internalType": "uint8",
          "name": "",
          "type": "uint8"
        }
      ],
      "stateMutability": "view",
      "type": "function"
    },
    {
      "inputs": [],
      "name": "NAME",
      "outputs": [
        {
          "internalType": "string",
          "name": "",
          "type": "string"
        }
      ],
      "stateMutability": "view",
      "type": "function"
    },
    {
      "inputs": [],
      "name": "SYMBOL",
      "outputs": [
        {
          "internalType": "string",
          "name": "",
          "type": "string"
        }
      ],
      "stateMutability": "view",
      "type": "function"
    },
    {
      "inputs": [
        {
          "internalType": "address",
          "name": "_fundAddress",
          "type": "address"
        },
        {
          "internalType": "uint256",
          "name": "_numTokens",
          "type": "uint256"
        }
      ],
      "name": "addContractPool",
      "outputs": [
        {
          "internalType": "bool",
          "name": "",
          "type": "bool"
        }
      ],
      "stateMutability": "nonpayable",
      "type": "function"
    },
    {
      "inputs": [
        {
          "internalType": "address",
          "name": "owner",
          "type": "address"
        },
        {
          "internalType": "address",
          "name": "spender",
          "type": "address"
        }
      ],
      "name": "allowance",
      "outputs": [
        {
          "internalType": "uint256",
          "name": "",
          "type": "uint256"
        }
      ],
      "stateMutability": "view",
      "type": "function"
    },
    {
      "inputs": [
        {
          "internalType": "address",
          "name": "spender",
          "type": "address"
        },
        {
          "internalType": "uint256",
          "name": "amount",
          "type": "uint256"
        }
      ],
      "name": "approve",
      "outputs": [
        {
          "internalType": "bool",
          "name": "",
          "type": "bool"
        }
      ],
      "stateMutability": "nonpayable",
      "type": "function"
    },
    {
      "inputs": [
        {
          "internalType": "address",
          "name": "account",
          "type": "address"
        }
      ],
      "name": "balanceOf",
      "outputs": [
        {
          "internalType": "uint256",
          "name": "",
          "type": "uint256"
        }
      ],
      "stateMutability": "view",
      "type": "function"
    },
    {
      "inputs": [
        {
          "internalType": "uint256",
          "name": "amount",
          "type": "uint256"
        }
      ],
      "name": "burnTokens",
      "outputs": [],
      "stateMutability": "nonpayable",
      "type": "function"
    },
    {
      "inputs": [
        {
          "internalType": "address",
          "name": "",
          "type": "address"
        }
      ],
      "name": "certificate",
      "outputs": [
        {
          "internalType": "uint256",
          "name": "",
          "type": "uint256"
        }
      ],
      "stateMutability": "view",
      "type": "function"
    },
    {
      "inputs": [
        {
          "internalType": "address",
          "name": "poolAddress",
          "type": "address"
        }
      ],
      "name": "contractPool",
      "outputs": [
        {
          "internalType": "bool",
          "name": "",
          "type": "bool"
        }
      ],
      "stateMutability": "view",
      "type": "function"
    },
    {
      "inputs": [],
      "name": "decimals",
      "outputs": [
        {
          "internalType": "uint8",
          "name": "",
          "type": "uint8"
        }
      ],
      "stateMutability": "view",
      "type": "function"
    },
    {
      "inputs": [
        {
          "internalType": "address",
          "name": "spender",
          "type": "address"
        },
        {
          "internalType": "uint256",
          "name": "subtractedValue",
          "type": "uint256"
        }
      ],
      "name": "decreaseAllowance",
      "outputs": [
        {
          "internalType": "bool",
          "name": "",
          "type": "bool"
        }
      ],
      "stateMutability": "nonpayable",
      "type": "function"
    },
    {
      "inputs": [
        {
          "internalType": "uint256",
          "name": "numTokens",
          "type": "uint256"
        }
      ],
      "name": "decreaseLocked",
      "outputs": [],
      "stateMutability": "nonpayable",
      "type": "function"
    },
    {
      "inputs": [
        {
          "internalType": "address",
          "name": "spender",
          "type": "address"
        },
        {
          "internalType": "uint256",
          "name": "addedValue",
          "type": "uint256"
        }
      ],
      "name": "increaseAllowance",
      "outputs": [
        {
          "internalType": "bool",
          "name": "",
          "type": "bool"
        }
      ],
      "stateMutability": "nonpayable",
      "type": "function"
    },
    {
      "inputs": [],
      "name": "name",
      "outputs": [
        {
          "internalType": "string",
          "name": "",
          "type": "string"
        }
      ],
      "stateMutability": "view",
      "type": "function"
    },
    {
      "inputs": [
        {
          "internalType": "uint256",
          "name": "amount",
          "type": "uint256"
        },
        {
          "internalType": "uint64",
          "name": "calculatorItemId",
          "type": "uint64"
        }
      ],
      "name": "offset",
      "outputs": [],
      "stateMutability": "nonpayable",
      "type": "function"
    },
    {
      "inputs": [],
      "name": "owner",
      "outputs": [
        {
          "internalType": "address",
          "name": "",
          "type": "address"
        }
      ],
      "stateMutability": "view",
      "type": "function"
    },
    {
      "inputs": [
        {
          "internalType": "uint256",
          "name": "amount",
          "type": "uint256"
        },
        {
          "internalType": "string",
          "name": "description",
          "type": "string"
        },
        {
          "internalType": "string",
          "name": "content",
          "type": "string"
        }
      ],
      "name": "publish",
      "outputs": [],
      "stateMutability": "nonpayable",
      "type": "function"
    },
    {
      "inputs": [],
      "name": "renounceOwnership",
      "outputs": [],
      "stateMutability": "nonpayable",
      "type": "function"
    },
    {
      "inputs": [
        {
          "internalType": "address",
          "name": "supporterRulesAddress",
          "type": "address"
        }
      ],
      "name": "setContractInterfaces",
      "outputs": [],
      "stateMutability": "nonpayable",
      "type": "function"
    },
    {
      "inputs": [],
      "name": "symbol",
      "outputs": [
        {
          "internalType": "string",
          "name": "",
          "type": "string"
        }
      ],
      "stateMutability": "view",
      "type": "function"
    },
    {
      "inputs": [],
      "name": "totalCertified",
      "outputs": [
        {
          "internalType": "uint256",
          "name": "",
          "type": "uint256"
        }
      ],
      "stateMutability": "view",
      "type": "function"
    },
    {
      "inputs": [],
      "name": "totalCertified_",
      "outputs": [
        {
          "internalType": "uint256",
          "name": "",
          "type": "uint256"
        }
      ],
      "stateMutability": "view",
      "type": "function"
    },
    {
      "inputs": [],
      "name": "totalLocked",
      "outputs": [
        {
          "internalType": "uint256",
          "name": "",
          "type": "uint256"
        }
      ],
      "stateMutability": "view",
      "type": "function"
    },
    {
      "inputs": [],
      "name": "totalLocked_",
      "outputs": [
        {
          "internalType": "uint256",
          "name": "",
          "type": "uint256"
        }
      ],
      "stateMutability": "view",
      "type": "function"
    },
    {
      "inputs": [],
      "name": "totalSupply",
      "outputs": [
        {
          "internalType": "uint256",
          "name": "",
          "type": "uint256"
        }
      ],
      "stateMutability": "view",
      "type": "function"
    },
    {
      "inputs": [
        {
          "internalType": "address",
          "name": "to",
          "type": "address"
        },
        {
          "internalType": "uint256",
          "name": "amount",
          "type": "uint256"
        }
      ],
      "name": "transfer",
      "outputs": [
        {
          "internalType": "bool",
          "name": "",
          "type": "bool"
        }
      ],
      "stateMutability": "nonpayable",
      "type": "function"
    },
    {
      "inputs": [
        {
          "internalType": "address",
          "name": "from",
          "type": "address"
        },
        {
          "internalType": "address",
          "name": "to",
          "type": "address"
        },
        {
          "internalType": "uint256",
          "name": "amount",
          "type": "uint256"
        }
      ],
      "name": "transferFrom",
      "outputs": [
        {
          "internalType": "bool",
          "name": "",
          "type": "bool"
        }
      ],
      "stateMutability": "nonpayable",
      "type": "function"
    },
    {
      "inputs": [
        {
          "internalType": "address",
          "name": "newOwner",
          "type": "address"
        }
      ],
      "name": "transferOwnership",
      "outputs": [],
      "stateMutability": "nonpayable",
      "type": "function"
    }
  ],
  "bytecode": "0x608060405234801561001057600080fd5b50604051611ae1380380611ae183398101604081905261002f916101e8565b6040518060400160405280601381526020017f524547454e45524154494f4e204352454449540000000000000000000000000081525060405180604001604052806002815260200161524360f01b815250816003908161008f919061029f565b50600461009c828261029f565b5050506100b56100b06100ca60201b60201c565b6100ce565b60016006556100c43382610120565b50610384565b3390565b600580546001600160a01b038381166001600160a01b0319831681179093556040519116919082907f8be0079c531659141344cd1fd0a4f28419497f9722a3daafe3b4186f6b6457e090600090a35050565b6001600160a01b03821661017a5760405162461bcd60e51b815260206004820152601f60248201527f45524332303a206d696e7420746f20746865207a65726f206164647265737300604482015260640160405180910390fd5b806002600082825461018c919061035d565b90915550506001600160a01b038216600081815260208181526040808320805486019055518481527fddf252ad1be2c89b69c2b068fc378daa952ba7f163c4a11628f55a4df523b3ef910160405180910390a35050565b505050565b6000602082840312156101fa57600080fd5b5051919050565b634e487b7160e01b600052604160045260246000fd5b600181811c9082168061022b57607f821691505b60208210810361024b57634e487b7160e01b600052602260045260246000fd5b50919050565b601f8211156101e357806000526020600020601f840160051c810160208510156102785750805b601f840160051c820191505b818110156102985760008155600101610284565b5050505050565b81516001600160401b038111156102b8576102b8610201565b6102cc816102c68454610217565b84610251565b6020601f82116001811461030057600083156102e85750848201515b600019600385901b1c1916600184901b178455610298565b600084815260208120601f198516915b828110156103305787850151825560209485019460019092019101610310565b508482101561034e5786840151600019600387901b60f8161c191681555b50505050600190811b01905550565b8082018082111561037e57634e487b7160e01b600052601160045260246000fd5b92915050565b61174e806103936000396000f3fe608060405234801561001057600080fd5b50600436106101cf5760003560e01c80636d1b229d11610104578063a457c2d7116100a2578063e56658e811610071578063e56658e8146103ed578063f000694014610400578063f2fde38b14610413578063f76f8d781461042657600080fd5b8063a457c2d7146103ac578063a9059cbb146103bf578063b14f0b43146103d2578063dd62ed3e146103da57600080fd5b806378092b0e116100de57806378092b0e146103445780638da5cb5b1461035757806395d89b4114610372578063a3f4df7e1461037a57600080fd5b80636d1b229d1461030057806370a0823114610313578063715018a61461033c57600080fd5b80632e0f262511610171578063395093511161014b57806339509351146102c957806349d62776146102dc5780634d65a846146102e557806356891412146102f857600080fd5b80632e0f26251461027c578063313ce567146102965780633834565d1461029d57600080fd5b80630ed944c3116101ad5780630ed944c31461022a57806318160ddd146102415780631affb7b71461024957806323b872dd1461026957600080fd5b806304c1973a146101d457806306fdde03146101e9578063095ea7b314610207575b600080fd5b6101e76101e2366004611368565b610447565b005b6101f1610672565b6040516101fe91906113eb565b60405180910390f35b61021a61021536600461141a565b610704565b60405190151581526020016101fe565b61023360085481565b6040519081526020016101fe565b600254610233565b610233610257366004611446565b600a6020526000908152604090205481565b61021a610277366004611463565b61071e565b610284601281565b60405160ff90911681526020016101fe565b6012610284565b61021a6102ab366004611446565b6001600160a01b031660009081526007602052604090205460ff1690565b61021a6102d736600461141a565b610742565b61023360095481565b61021a6102f336600461141a565b610764565b600954610233565b6101e761030e3660046114a4565b6107bc565b610233610321366004611446565b6001600160a01b031660009081526020819052604090205490565b6101e7610824565b6101e7610352366004611446565b610838565b6005546040516001600160a01b0390911681526020016101fe565b6101f1610862565b6101f160405180604001604052806013815260200172149151d153915490551253d38810d491511255606a1b81525081565b61021a6103ba36600461141a565b610871565b61021a6103cd36600461141a565b6108ec565b600854610233565b6102336103e83660046114bd565b6108fa565b6101e76103fb3660046114a4565b610925565b6101e761040e366004611590565b610a62565b6101e7610421366004611446565b610cd4565b6101f160405180604001604052806002815260200161524360f01b81525081565b61044f610d4a565b600b5460405163b9cccee360e01b81523360048201526001600160a01b039091169063b9cccee3906024016020604051808303816000875af1158015610499573d6000803e3d6000fd5b505050506040513d601f19601f820116820180604052508101906104bd9190611602565b6105005760405162461bcd60e51b815260206004820152600f60248201526e4f6e6c7920737570706f727465727360881b60448201526064015b60405180910390fd5b670de0b6b3a76400008210156105585760405162461bcd60e51b815260206004820152601c60248201527f416d6f756e74206d757374206265206174206c6561737420312052430000000060448201526064016104f7565b600b54604051632d87134760e01b815233600482015260248101849052600091829182916001600160a01b031690632d871347906044016060604051808303816000875af11580156105ae573d6000803e3d6000fd5b505050506040513d601f19601f820116820180604052508101906105d29190611624565b9250925092506105e281836108ec565b506105ed3384610da3565b600b5460405163e5fb509960e01b81523360048201526024810185905267ffffffffffffffff861660448201526001600160a01b039091169063e5fb509990606401600060405180830381600087803b15801561064957600080fd5b505af115801561065d573d6000803e3d6000fd5b5050505050505061066e6001600655565b5050565b6060600380546106819061165e565b80601f01602080910402602001604051908101604052809291908181526020018280546106ad9061165e565b80156106fa5780601f106106cf576101008083540402835291602001916106fa565b820191906000526020600020905b8154815290600101906020018083116106dd57829003601f168201915b5050505050905090565b600033610712818585610e48565b60019150505b92915050565b60003361072c858285610f6c565b610737858585610fe6565b506001949350505050565b60003361071281858561075583836108fa565b61075f91906116ae565b610e48565b600061076e61118a565b6001600160a01b0383166000908152600760205260409020805460ff1916600117905561079c338484610fe6565b81600960008282546107ae91906116ae565b909155506001949350505050565b600081116108175760405162461bcd60e51b815260206004820152602260248201527f4275726e20616d6f756e74206d7573742062652067726561746572207468616e604482015261020360f41b60648201526084016104f7565b6108213382610da3565b50565b61082c61118a565b61083660006111e4565b565b61084061118a565b600b80546001600160a01b0319166001600160a01b0392909216919091179055565b6060600480546106819061165e565b6000338161087f82866108fa565b9050838110156108df5760405162461bcd60e51b815260206004820152602560248201527f45524332303a2064656372656173656420616c6c6f77616e63652062656c6f77604482015264207a65726f60d81b60648201526084016104f7565b6107378286868403610e48565b600033610712818585610fe6565b6001600160a01b03918216600090815260016020908152604080832093909416825291909152205490565b3360009081526007602052604090205460ff1661097a5760405162461bcd60e51b8152602060048201526013602482015272139bdd08184818dbdb9d1c9858dd081c1bdbdb606a1b60448201526064016104f7565b336000908152602081905260409020548111156109cf5760405162461bcd60e51b8152602060048201526013602482015272506f6f6c206f7574206f662062616c616e636560681b60448201526064016104f7565b600954811115610a305760405162461bcd60e51b815260206004820152602660248201527f43616e6e6f74206465637265617365206d6f7265207468616e20746f74616c206044820152651b1bd8dad95960d21b60648201526084016104f7565b3360009081526007602052604090205460ff1615610821578060096000828254610a5a91906116c1565b909155505050565b610a6a610d4a565b600b5460405163b9cccee360e01b81523360048201526001600160a01b039091169063b9cccee3906024016020604051808303816000875af1158015610ab4573d6000803e3d6000fd5b505050506040513d601f19601f82011682018060405250810190610ad89190611602565b610b165760405162461bcd60e51b815260206004820152600f60248201526e4f6e6c7920737570706f727465727360881b60448201526064016104f7565b678ac7230489e80000831015610b6e5760405162461bcd60e51b815260206004820152601d60248201527f416d6f756e74206d757374206265206174206c6561737420313020524300000060448201526064016104f7565b815161025810801590610b845750805161025810155b610bc55760405162461bcd60e51b81526020600482015260126024820152714d617820363030206368617261637465727360701b60448201526064016104f7565b600b54604051632d87134760e01b815233600482015260248101859052600091829182916001600160a01b031690632d871347906044016060604051808303816000875af1158015610c1b573d6000803e3d6000fd5b505050506040513d601f19601f82011682018060405250810190610c3f9190611624565b925092509250610c4f81836108ec565b50610c5a3384610da3565b600b5460405163cf78537f60e01b81526001600160a01b039091169063cf78537f90610c9090339087908a908a906004016116d4565b600060405180830381600087803b158015610caa57600080fd5b505af1158015610cbe573d6000803e3d6000fd5b50505050505050610ccf6001600655565b505050565b610cdc61118a565b6001600160a01b038116610d415760405162461bcd60e51b815260206004820152602660248201527f4f776e61626c653a206e6577206f776e657220697320746865207a65726f206160448201526564647265737360d01b60648201526084016104f7565b610821816111e4565b600260065403610d9c5760405162461bcd60e51b815260206004820152601f60248201527f5265656e7472616e637947756172643a207265656e7472616e742063616c6c0060448201526064016104f7565b6002600655565b610dad8282611236565b6001600160a01b0382166000908152600a602052604081208054839290610dd59084906116ae565b925050819055508060086000828254610dee91906116ae565b90915550506001600160a01b0382166000818152600a6020908152604091829020548251858152918201527fdcfaa57faef6cafa9ba0201b781740b5b5d63ee6dcee12a25d5cc93c1cc1df16910160405180910390a25050565b6001600160a01b038316610eaa5760405162461bcd60e51b8152602060048201526024808201527f45524332303a20617070726f76652066726f6d20746865207a65726f206164646044820152637265737360e01b60648201526084016104f7565b6001600160a01b038216610f0b5760405162461bcd60e51b815260206004820152602260248201527f45524332303a20617070726f766520746f20746865207a65726f206164647265604482015261737360f01b60648201526084016104f7565b6001600160a01b0383811660008181526001602090815260408083209487168084529482529182902085905590518481527f8c5be1e5ebec7d5bd14f71427d1e84f3dd0314c0f7b2291e5b200ac8c7c3b925910160405180910390a3505050565b6000610f7884846108fa565b90506000198114610fe05781811015610fd35760405162461bcd60e51b815260206004820152601d60248201527f45524332303a20696e73756666696369656e7420616c6c6f77616e636500000060448201526064016104f7565b610fe08484848403610e48565b50505050565b6001600160a01b03831661104a5760405162461bcd60e51b815260206004820152602560248201527f45524332303a207472616e736665722066726f6d20746865207a65726f206164604482015264647265737360d81b60648201526084016104f7565b6001600160a01b0382166110ac5760405162461bcd60e51b815260206004820152602360248201527f45524332303a207472616e7366657220746f20746865207a65726f206164647260448201526265737360e81b60648201526084016104f7565b6001600160a01b038316600090815260208190526040902054818110156111245760405162461bcd60e51b815260206004820152602660248201527f45524332303a207472616e7366657220616d6f756e7420657863656564732062604482015265616c616e636560d01b60648201526084016104f7565b6001600160a01b03848116600081815260208181526040808320878703905593871680835291849020805487019055925185815290927fddf252ad1be2c89b69c2b068fc378daa952ba7f163c4a11628f55a4df523b3ef910160405180910390a3610fe0565b6005546001600160a01b031633146108365760405162461bcd60e51b815260206004820181905260248201527f4f776e61626c653a2063616c6c6572206973206e6f7420746865206f776e657260448201526064016104f7565b600580546001600160a01b038381166001600160a01b0319831681179093556040519116919082907f8be0079c531659141344cd1fd0a4f28419497f9722a3daafe3b4186f6b6457e090600090a35050565b6001600160a01b0382166112965760405162461bcd60e51b815260206004820152602160248201527f45524332303a206275726e2066726f6d20746865207a65726f206164647265736044820152607360f81b60648201526084016104f7565b6001600160a01b0382166000908152602081905260409020548181101561130a5760405162461bcd60e51b815260206004820152602260248201527f45524332303a206275726e20616d6f756e7420657863656564732062616c616e604482015261636560f01b60648201526084016104f7565b6001600160a01b0383166000818152602081815260408083208686039055600280548790039055518581529192917fddf252ad1be2c89b69c2b068fc378daa952ba7f163c4a11628f55a4df523b3ef910160405180910390a3505050565b6000806040838503121561137b57600080fd5b82359150602083013567ffffffffffffffff8116811461139a57600080fd5b809150509250929050565b6000815180845260005b818110156113cb576020818501810151868301820152016113af565b506000602082860101526020601f19601f83011685010191505092915050565b6020815260006113fe60208301846113a5565b9392505050565b6001600160a01b038116811461082157600080fd5b6000806040838503121561142d57600080fd5b823561143881611405565b946020939093013593505050565b60006020828403121561145857600080fd5b81356113fe81611405565b60008060006060848603121561147857600080fd5b833561148381611405565b9250602084013561149381611405565b929592945050506040919091013590565b6000602082840312156114b657600080fd5b5035919050565b600080604083850312156114d057600080fd5b82356114db81611405565b9150602083013561139a81611405565b634e487b7160e01b600052604160045260246000fd5b600082601f83011261151257600080fd5b813567ffffffffffffffff81111561152c5761152c6114eb565b604051601f8201601f19908116603f0116810167ffffffffffffffff8111828210171561155b5761155b6114eb565b60405281815283820160200185101561157357600080fd5b816020850160208301376000918101602001919091529392505050565b6000806000606084860312156115a557600080fd5b83359250602084013567ffffffffffffffff8111156115c357600080fd5b6115cf86828701611501565b925050604084013567ffffffffffffffff8111156115ec57600080fd5b6115f886828701611501565b9150509250925092565b60006020828403121561161457600080fd5b815180151581146113fe57600080fd5b60008060006060848603121561163957600080fd5b835160208501516040860151919450925061165381611405565b809150509250925092565b600181811c9082168061167257607f821691505b60208210810361169257634e487b7160e01b600052602260045260246000fd5b50919050565b634e487b7160e01b600052601160045260246000fd5b8082018082111561071857610718611698565b8181038181111561071857610718611698565b60018060a01b03851681528360208201526080604082015260006116fb60808301856113a5565b828103606084015261170d81856113a5565b97965050505050505056fea26469706673582212205479104973a0fb0753a0ee004140096df0c4e14c5ce47956453fb701c89555a364736f6c634300081b0033",
  "linkReferences": {},
  "deployedLinkReferences": {}
}