{
  "_format": "hh-sol-artifact-1",
  "contractName": "RegeneratorRules",
  "sourceName": "contracts/RegeneratorRules.sol",
  "abi": [
    {
      "inputs": [
        {
          "internalType": "address",
          "name": "communityRulesAddress",
          "type": "address"
        },
        {
          "internalType": "address",
          "name": "regeneratorPoolAddress",
          "type": "address"
        }
      ],
      "stateMutability": "nonpayable",
      "type": "constructor"
    },
    {
      "inputs": [
        {
          "internalType": "address",
          "name": "owner",
          "type": "address"
        }
      ],
      "name": "OwnableInvalidOwner",
      "type": "error"
    },
    {
      "inputs": [
        {
          "internalType": "address",
          "name": "account",
          "type": "address"
        }
      ],
      "name": "OwnableUnauthorizedAccount",
      "type": "error"
    },
    {
      "inputs": [],
      "name": "ReentrancyGuardReentrantCall",
      "type": "error"
    },
    {
      "anonymous": false,
      "inputs": [
        {
          "indexed": true,
          "internalType": "address",
          "name": "previousOwner",
          "type": "address"
        },
        {
          "indexed": true,
          "internalType": "address",
          "name": "newOwner",
          "type": "address"
        }
      ],
      "name": "OwnershipTransferred",
      "type": "event"
    },
    {
      "anonymous": false,
      "inputs": [
        {
          "indexed": true,
          "internalType": "address",
          "name": "regeneratorAddress",
          "type": "address"
        }
      ],
      "name": "RegeneratorCertified",
      "type": "event"
    },
    {
      "anonymous": false,
      "inputs": [
        {
          "indexed": true,
          "internalType": "address",
          "name": "regeneratorAddress",
          "type": "address"
        },
        {
          "indexed": false,
          "internalType": "uint256",
          "name": "blockNumber",
          "type": "uint256"
        }
      ],
      "name": "RegeneratorEnteredPool",
      "type": "event"
    },
    {
      "anonymous": false,
      "inputs": [
        {
          "indexed": true,
          "internalType": "uint256",
          "name": "id",
          "type": "uint256"
        },
        {
          "indexed": true,
          "internalType": "address",
          "name": "regeneratorAddress",
          "type": "address"
        },
        {
          "indexed": false,
          "internalType": "string",
          "name": "name",
          "type": "string"
        },
        {
          "indexed": false,
          "internalType": "uint32",
          "name": "totalArea",
          "type": "uint32"
        },
        {
          "indexed": false,
          "internalType": "uint256",
          "name": "blockNumber",
          "type": "uint256"
        }
      ],
      "name": "RegeneratorRegistered",
      "type": "event"
    },
    {
      "anonymous": false,
      "inputs": [
        {
          "indexed": true,
          "internalType": "address",
          "name": "regeneratorAddress",
          "type": "address"
        },
        {
          "indexed": true,
          "internalType": "uint256",
          "name": "era",
          "type": "uint256"
        },
        {
          "indexed": false,
          "internalType": "uint256",
          "name": "blockNumber",
          "type": "uint256"
        }
      ],
      "name": "RegeneratorWithdrawalInitiated",
      "type": "event"
    },
    {
      "inputs": [],
      "name": "MAXIMUM_INSPECTIONS",
      "outputs": [
        {
          "internalType": "uint8",
          "name": "",
          "type": "uint8"
        }
      ],
      "stateMutability": "view",
      "type": "function"
    },
    {
      "inputs": [],
      "name": "MAX_ACTIVE_REGENERATORS",
      "outputs": [
        {
          "internalType": "uint256",
          "name": "",
          "type": "uint256"
        }
      ],
      "stateMutability": "view",
      "type": "function"
    },
    {
      "inputs": [],
      "name": "MAX_REGENERATION_AREA",
      "outputs": [
        {
          "internalType": "uint32",
          "name": "",
          "type": "uint32"
        }
      ],
      "stateMutability": "view",
      "type": "function"
    },
    {
      "inputs": [],
      "name": "MINIMUM_INSPECTIONS_TO_POOL",
      "outputs": [
        {
          "internalType": "uint8",
          "name": "",
          "type": "uint8"
        }
      ],
      "stateMutability": "view",
      "type": "function"
    },
    {
      "inputs": [],
      "name": "MIN_REGENERATION_AREA",
      "outputs": [
        {
          "internalType": "uint32",
          "name": "",
          "type": "uint32"
        }
      ],
      "stateMutability": "view",
      "type": "function"
    },
    {
      "inputs": [
        {
          "internalType": "uint32",
          "name": "totalArea",
          "type": "uint32"
        },
        {
          "internalType": "string",
          "name": "name",
          "type": "string"
        },
        {
          "internalType": "string",
          "name": "proofPhoto",
          "type": "string"
        },
        {
          "internalType": "string",
          "name": "projectDescription",
          "type": "string"
        },
        {
          "components": [
            {
              "internalType": "string",
              "name": "latitude",
              "type": "string"
            },
            {
              "internalType": "string",
              "name": "longitude",
              "type": "string"
            }
          ],
          "internalType": "struct Coordinates[]",
          "name": "_coordinates",
          "type": "tuple[]"
        }
      ],
      "name": "addRegenerator",
      "outputs": [],
      "stateMutability": "nonpayable",
      "type": "function"
    },
    {
      "inputs": [
        {
          "internalType": "address",
          "name": "addr",
          "type": "address"
        }
      ],
      "name": "afterAcceptInspection",
      "outputs": [],
      "stateMutability": "nonpayable",
      "type": "function"
    },
    {
      "inputs": [
        {
          "internalType": "address",
          "name": "addr",
          "type": "address"
        },
        {
          "internalType": "uint32",
          "name": "score",
          "type": "uint32"
        },
        {
          "internalType": "uint64",
          "name": "inspectionId",
          "type": "uint64"
        }
      ],
      "name": "afterRealizeInspection",
      "outputs": [
        {
          "internalType": "uint256",
          "name": "",
          "type": "uint256"
        }
      ],
      "stateMutability": "nonpayable",
      "type": "function"
    },
    {
      "inputs": [
        {
          "internalType": "address",
          "name": "addr",
          "type": "address"
        }
      ],
      "name": "afterRequestInspection",
      "outputs": [],
      "stateMutability": "nonpayable",
      "type": "function"
    },
    {
      "inputs": [
        {
          "internalType": "address",
          "name": "",
          "type": "address"
        }
      ],
      "name": "allowedCallers",
      "outputs": [
        {
          "internalType": "bool",
          "name": "",
          "type": "bool"
        }
      ],
      "stateMutability": "view",
      "type": "function"
    },
    {
      "inputs": [
        {
          "internalType": "address",
          "name": "",
          "type": "address"
        }
      ],
      "name": "areaPhoto",
      "outputs": [
        {
          "internalType": "string",
          "name": "",
          "type": "string"
        }
      ],
      "stateMutability": "view",
      "type": "function"
    },
    {
      "inputs": [
        {
          "internalType": "address",
          "name": "",
          "type": "address"
        }
      ],
      "name": "certifiedRegenerators",
      "outputs": [
        {
          "internalType": "bool",
          "name": "",
          "type": "bool"
        }
      ],
      "stateMutability": "view",
      "type": "function"
    },
    {
      "inputs": [],
      "name": "communityRules",
      "outputs": [
        {
          "internalType": "contract ICommunityRules",
          "name": "",
          "type": "address"
        }
      ],
      "stateMutability": "view",
      "type": "function"
    },
    {
      "inputs": [
        {
          "internalType": "address",
          "name": "",
          "type": "address"
        },
        {
          "internalType": "uint256",
          "name": "",
          "type": "uint256"
        }
      ],
      "name": "coordinates",
      "outputs": [
        {
          "internalType": "string",
          "name": "latitude",
          "type": "string"
        },
        {
          "internalType": "string",
          "name": "longitude",
          "type": "string"
        }
      ],
      "stateMutability": "view",
      "type": "function"
    },
    {
      "inputs": [
        {
          "internalType": "address",
          "name": "addr",
          "type": "address"
        }
      ],
      "name": "decrementInspections",
      "outputs": [],
      "stateMutability": "nonpayable",
      "type": "function"
    },
    {
      "inputs": [
        {
          "internalType": "address",
          "name": "addr",
          "type": "address"
        }
      ],
      "name": "getCoordinates",
      "outputs": [
        {
          "components": [
            {
              "internalType": "string",
              "name": "latitude",
              "type": "string"
            },
            {
              "internalType": "string",
              "name": "longitude",
              "type": "string"
            }
          ],
          "internalType": "struct Coordinates[]",
          "name": "",
          "type": "tuple[]"
        }
      ],
      "stateMutability": "view",
      "type": "function"
    },
    {
      "inputs": [
        {
          "internalType": "address",
          "name": "addr",
          "type": "address"
        }
      ],
      "name": "getRegenerator",
      "outputs": [
        {
          "components": [
            {
              "internalType": "uint64",
              "name": "id",
              "type": "uint64"
            },
            {
              "internalType": "address",
              "name": "regeneratorWallet",
              "type": "address"
            },
            {
              "internalType": "string",
              "name": "name",
              "type": "string"
            },
            {
              "internalType": "string",
              "name": "proofPhoto",
              "type": "string"
            },
            {
              "internalType": "uint32",
              "name": "totalArea",
              "type": "uint32"
            },
            {
              "internalType": "bool",
              "name": "pendingInspection",
              "type": "bool"
            },
            {
              "internalType": "uint256",
              "name": "totalInspections",
              "type": "uint256"
            },
            {
              "internalType": "uint256",
              "name": "lastRequestAt",
              "type": "uint256"
            },
            {
              "components": [
                {
                  "internalType": "uint256",
                  "name": "score",
                  "type": "uint256"
                }
              ],
              "internalType": "struct RegenerationScore",
              "name": "regenerationScore",
              "type": "tuple"
            },
            {
              "components": [
                {
                  "internalType": "bool",
                  "name": "onContractPool",
                  "type": "bool"
                },
                {
                  "internalType": "uint256",
                  "name": "currentEra",
                  "type": "uint256"
                }
              ],
              "internalType": "struct Pool",
              "name": "pool",
              "type": "tuple"
            },
            {
              "internalType": "uint256",
              "name": "createdAt",
              "type": "uint256"
            },
            {
              "internalType": "uint256",
              "name": "coordinatesCount",
              "type": "uint256"
            },
            {
              "internalType": "bool",
              "name": "isFullyInvalidated",
              "type": "bool"
            }
          ],
          "internalType": "struct Regenerator",
          "name": "regenerator",
          "type": "tuple"
        }
      ],
      "stateMutability": "view",
      "type": "function"
    },
    {
      "inputs": [
        {
          "internalType": "address",
          "name": "",
          "type": "address"
        }
      ],
      "name": "impactRegenerators",
      "outputs": [
        {
          "internalType": "bool",
          "name": "",
          "type": "bool"
        }
      ],
      "stateMutability": "view",
      "type": "function"
    },
    {
      "inputs": [],
      "name": "inspectionRulesAddress",
      "outputs": [
        {
          "internalType": "address",
          "name": "",
          "type": "address"
        }
      ],
      "stateMutability": "view",
      "type": "function"
    },
    {
      "inputs": [
        {
          "internalType": "address",
          "name": "caller",
          "type": "address"
        }
      ],
      "name": "isAllowedCaller",
      "outputs": [
        {
          "internalType": "bool",
          "name": "",
          "type": "bool"
        }
      ],
      "stateMutability": "view",
      "type": "function"
    },
    {
      "inputs": [],
      "name": "isRegistrationAllowed",
      "outputs": [
        {
          "internalType": "bool",
          "name": "",
          "type": "bool"
        }
      ],
      "stateMutability": "view",
      "type": "function"
    },
    {
      "inputs": [
        {
          "internalType": "address",
          "name": "allowed",
          "type": "address"
        }
      ],
      "name": "newAllowedCaller",
      "outputs": [],
      "stateMutability": "nonpayable",
      "type": "function"
    },
    {
      "inputs": [
        {
          "internalType": "uint256",
          "name": "",
          "type": "uint256"
        }
      ],
      "name": "newCertificationRegenerators",
      "outputs": [
        {
          "internalType": "uint256",
          "name": "",
          "type": "uint256"
        }
      ],
      "stateMutability": "view",
      "type": "function"
    },
    {
      "inputs": [],
      "name": "nextEraIn",
      "outputs": [
        {
          "internalType": "uint256",
          "name": "",
          "type": "uint256"
        }
      ],
      "stateMutability": "view",
      "type": "function"
    },
    {
      "inputs": [],
      "name": "owner",
      "outputs": [
        {
          "internalType": "address",
          "name": "",
          "type": "address"
        }
      ],
      "stateMutability": "view",
      "type": "function"
    },
    {
      "inputs": [],
      "name": "poolCurrentEra",
      "outputs": [
        {
          "internalType": "uint256",
          "name": "",
          "type": "uint256"
        }
      ],
      "stateMutability": "view",
      "type": "function"
    },
    {
      "inputs": [
        {
          "internalType": "address",
          "name": "",
          "type": "address"
        }
      ],
      "name": "projectDescriptions",
      "outputs": [
        {
          "internalType": "string",
          "name": "",
          "type": "string"
        }
      ],
      "stateMutability": "view",
      "type": "function"
    },
    {
      "inputs": [],
      "name": "regenerationArea",
      "outputs": [
        {
          "internalType": "uint256",
          "name": "",
          "type": "uint256"
        }
      ],
      "stateMutability": "view",
      "type": "function"
    },
    {
      "inputs": [],
      "name": "regenerationTotalArea",
      "outputs": [
        {
          "internalType": "uint256",
          "name": "",
          "type": "uint256"
        }
      ],
      "stateMutability": "view",
      "type": "function"
    },
    {
      "inputs": [],
      "name": "regeneratorPool",
      "outputs": [
        {
          "internalType": "contract IRegeneratorPool",
          "name": "",
          "type": "address"
        }
      ],
      "stateMutability": "view",
      "type": "function"
    },
    {
      "inputs": [
        {
          "internalType": "uint256",
          "name": "",
          "type": "uint256"
        }
      ],
      "name": "regeneratorsAddress",
      "outputs": [
        {
          "internalType": "address",
          "name": "",
          "type": "address"
        }
      ],
      "stateMutability": "view",
      "type": "function"
    },
    {
      "inputs": [
        {
          "internalType": "address",
          "name": "addr",
          "type": "address"
        },
        {
          "internalType": "uint256",
          "name": "amountToRemove",
          "type": "uint256"
        }
      ],
      "name": "removeInspectionLevels",
      "outputs": [],
      "stateMutability": "nonpayable",
      "type": "function"
    },
    {
      "inputs": [
        {
          "internalType": "address",
          "name": "addr",
          "type": "address"
        }
      ],
      "name": "removePoolLevels",
      "outputs": [],
      "stateMutability": "nonpayable",
      "type": "function"
    },
    {
      "inputs": [],
      "name": "renounceOwnership",
      "outputs": [],
      "stateMutability": "nonpayable",
      "type": "function"
    },
    {
      "inputs": [
        {
          "internalType": "address",
          "name": "_inspectionRulesAddress",
          "type": "address"
        },
        {
          "internalType": "address",
          "name": "_validationRulesAddress",
          "type": "address"
        }
      ],
      "name": "setContractCall",
      "outputs": [],
      "stateMutability": "nonpayable",
      "type": "function"
    },
    {
      "inputs": [],
      "name": "totalCertifiedRegenerators",
      "outputs": [
        {
          "internalType": "uint256",
          "name": "",
          "type": "uint256"
        }
      ],
      "stateMutability": "view",
      "type": "function"
    },
    {
      "inputs": [
        {
          "internalType": "address",
          "name": "newOwner",
          "type": "address"
        }
      ],
      "name": "transferOwnership",
      "outputs": [],
      "stateMutability": "nonpayable",
      "type": "function"
    },
    {
      "inputs": [
        {
          "internalType": "string",
          "name": "newPhoto",
          "type": "string"
        }
      ],
      "name": "updateAreaPhoto",
      "outputs": [],
      "stateMutability": "nonpayable",
      "type": "function"
    },
    {
      "inputs": [],
      "name": "validationRulesAddress",
      "outputs": [
        {
          "internalType": "address",
          "name": "",
          "type": "address"
        }
      ],
      "stateMutability": "view",
      "type": "function"
    },
    {
      "inputs": [],
      "name": "withdraw",
      "outputs": [],
      "stateMutability": "nonpayable",
      "type": "function"
    }
  ],
  "bytecode": "0x608060405234801561001057600080fd5b506040516137c93803806137c983398101604081905261002f91610101565b338061005557604051631e4fbdf760e01b81526000600482015260240160405180910390fd5b61005e81610095565b506001600255600c80546001600160a01b039384166001600160a01b031991821617909155600d8054929093169116179055610134565b600080546001600160a01b038381166001600160a01b0319831681178455604051919092169283917f8be0079c531659141344cd1fd0a4f28419497f9722a3daafe3b4186f6b6457e09190a35050565b80516001600160a01b03811681146100fc57600080fd5b919050565b6000806040838503121561011457600080fd5b61011d836100e5565b915061012b602084016100e5565b90509250929050565b613686806101436000396000f3fe608060405234801561001057600080fd5b50600436106102485760003560e01c80638ee394721161013b578063c38d2bff116100b8578063e57637f01161007c578063e57637f014610549578063e745cab014610572578063f2fde38b14610592578063f92f0f8e146105a5578063fd7c9ede146105b857600080fd5b8063c38d2bff146104f1578063c3c983d2146104fa578063c85a58ff1461050d578063ce59654a1461052e578063e05cf1551461054157600080fd5b8063a77963f0116100ff578063a77963f01461047b578063aa8d536a14610495578063ad510572146104a8578063b3c40c36146104bb578063b9a68b2b146104de57600080fd5b80638ee39472146103f65780638f93716f146104165780638fbaf6011461042957806394c3cee91461043c578063a68012581461044f57600080fd5b806345e0e89a116101c9578063778116101161018d57806377811610146103825780637b3341541461039557806385b5ee9b146103b85780638ca6bee8146103db5780638da5cb5b146103e557600080fd5b806345e0e89a1461032c578063582256f11461033457806365ab21b01461033c5780636ea7a2e91461035c578063715018a61461037a57600080fd5b8063257b4e7c11610210578063257b4e7c146102c657806336d87398146102e65780633974b345146102f05780633ccfd60b1461031b578063442f96251461032357600080fd5b8063025571761461024d57806304521ca31461026a5780631db642041461027f5780631e2d3176146102925780632429f0de146102b3575b600080fd5b6102556105c0565b60405190151581526020015b60405180910390f35b61027d610278366004612a31565b61064f565b005b61027d61028d366004612a64565b610685565b6102a56102a0366004612aaf565b6106f7565b604051908152602001610261565b61027d6102c1366004612af6565b610891565b6102d96102d4366004612a64565b61099f565b6040516102619190612b66565b6102a56207a12081565b601154610303906001600160a01b031681565b6040516001600160a01b039091168152602001610261565b61027d610a39565b6102a5600f5481565b600f546102a5565b6102a5610c19565b61034f61034a366004612a64565b610c99565b6040516102619190612b79565b6103656109c481565b60405163ffffffff9091168152602001610261565b61027d610eb2565b61027d610390366004612d27565b610ec4565b6102556103a3366004612a64565b60016020526000908152604090205460ff1681565b6102556103c6366004612a64565b60076020526000908152604090205460ff1681565b610365620f424081565b6000546001600160a01b0316610303565b610409610404366004612a64565b610fd4565b6040516102619190612d63565b61027d610424366004612a64565b6113f5565b601054610303906001600160a01b031681565b61027d61044a366004612a64565b611424565b61025561045d366004612a64565b6001600160a01b031660009081526001602052604090205460ff1690565b610483600381565b60405160ff9091168152602001610261565b6102d96104a3366004612a64565b6114ad565b600d54610303906001600160a01b031681565b6102556104c9366004612a64565b60086020526000908152604090205460ff1681565b61027d6104ec366004612def565b6114c6565b6102a5600e5481565b61027d610508366004612a64565b611aca565b61052061051b366004612af6565b611c68565b604051610261929190612ef5565b600c54610303906001600160a01b031681565b6102a5611db9565b610303610557366004612f23565b6004602052600090815260409020546001600160a01b031681565b6102a5610580366004612f23565b600b6020526000908152604090205481565b61027d6105a0366004612a64565b611e03565b61027d6105b3366004612a64565b611e41565b610483600681565b600e54600c54604051632f22dc7b60e01b81526000926207a1209290916001600160a01b0390911690632f22dc7b906105fe90600190600401612f5e565b602060405180830381865afa15801561061b573d6000803e3d6000fd5b505050506040513d601f19601f8201168201806040525081019061063f9190612f72565b6106499190612fa1565b10905090565b610657611fae565b601080546001600160a01b039384166001600160a01b03199182161790915560118054929093169116179055565b3360009081526001602052604090205460ff166106bd5760405162461bcd60e51b81526004016106b490612fb4565b60405180910390fd5b6010546001600160a01b03163381146106e85760405162461bcd60e51b81526004016106b490612fe0565b6106f3826000611fdb565b5050565b3360009081526001602052604081205460ff166107265760405162461bcd60e51b81526004016106b490612fb4565b6010546001600160a01b03163381146107515760405162461bcd60e51b81526004016106b490612fe0565b610759612016565b604063ffffffff851611156107a05760405162461bcd60e51b815260206004820152600d60248201526c4d6178696d756d2073636f726560981b60448201526064016106b4565b6001600160401b0383166000908152600a602052604090205460ff16156108155760405162461bcd60e51b8152602060048201526024808201527f496e7370656374696f6e20726573756c747320616c7265616479207375626d696044820152631d1d195960e21b60648201526084016106b4565b6001600160401b0383166000908152600a60205260408120805460ff1916600117905563ffffffff8516156108545761084d8661203e565b9050610872565b506001600160a01b0385166000908152600360205260409020600401545b61087d86868661215d565b91506108896001600255565b509392505050565b3360009081526001602052604090205460ff166108c05760405162461bcd60e51b81526004016106b490612fb4565b6010546001600160a01b03163381146108eb5760405162461bcd60e51b81526004016106b490612fe0565b6108f3612016565b6001600160a01b0383166000908152600360205260408120600601805484929061091e908490612fa1565b9091555050600d54604051631af0d89760e01b81526001600160a01b038581166004830152602482018590526000604483015290911690631af0d89790606401600060405180830381600087803b15801561097857600080fd5b505af115801561098c573d6000803e3d6000fd5b5050505061099a6001600255565b505050565b600960205260009081526040902080546109b890613017565b80601f01602080910402602001604051908101604052809291908181526020018280546109e490613017565b8015610a315780601f10610a0657610100808354040283529160200191610a31565b820191906000526020600020905b815481529060010190602001808311610a1457829003601f168201915b505050505081565b610a41612016565b600c54604051631292f8c160e31b81526001600160a01b0390911690639497c60890610a74906001903390600401613051565b602060405180830381865afa158015610a91573d6000803e3d6000fd5b505050506040513d601f19601f82011682018060405250810190610ab59190613077565b610afa5760405162461bcd60e51b815260206004820152601660248201527513db9b1e481c9959d95b995c985d1bdc9cc81c1bdbdb60521b60448201526064016106b4565b3360009081526003602052604090206004810154610b19906003111590565b610b5b5760405162461bcd60e51b81526020600482015260136024820152724d696e696d756d20696e7370656374696f6e7360681b60448201526064016106b4565b6008810154610b6b816001613099565b6008830155600d5460405163f3fef3a360e01b8152336004820152602481018390526001600160a01b039091169063f3fef3a390604401600060405180830381600087803b158015610bbc57600080fd5b505af1158015610bd0573d6000803e3d6000fd5b50506040514381528392503391507f81f7cfdaaebb3eb89eee117bbfcd1e956d1c8bfa759f5eda2ba6f63551a4db209060200160405180910390a35050610c176001600255565b565b600d546000906001600160a01b031663d5ee3eb5610c35611db9565b6040518263ffffffff1660e01b8152600401610c5391815260200190565b602060405180830381865afa158015610c70573d6000803e3d6000fd5b505050506040513d601f19601f82011682018060405250810190610c949190612f72565b905090565b610ca1612960565b6001600160a01b0380831660009081526003602090815260409182902082516101a08101845281546001600160401b0381168252600160401b9004909416918401919091526001810180549192840191610cfa90613017565b80601f0160208091040260200160405190810160405280929190818152602001828054610d2690613017565b8015610d735780601f10610d4857610100808354040283529160200191610d73565b820191906000526020600020905b815481529060010190602001808311610d5657829003601f168201915b50505050508152602001600282018054610d8c90613017565b80601f0160208091040260200160405190810160405280929190818152602001828054610db890613017565b8015610e055780601f10610dda57610100808354040283529160200191610e05565b820191906000526020600020905b815481529060010190602001808311610de857829003601f168201915b5050509183525050600382015463ffffffff811660208084019190915260ff640100000000909204821615156040808501919091526004850154606085015260058501546080850152805180830182526006860154815260a08501528051808201909152600785015483161515815260088501549181019190915260c0830152600983015460e0830152600a830154610100830152600b9092015490911615156101209091015292915050565b610eba611fae565b610c1760006122f2565b805160961015610f075760405162461bcd60e51b815260206004820152600e60248201526d4d6178206368617261637465727360901b60448201526064016106b4565b600c54604051631292f8c160e31b81526001600160a01b0390911690639497c60890610f3a906001903390600401613051565b602060405180830381865afa158015610f57573d6000803e3d6000fd5b505050506040513d601f19601f82011682018060405250810190610f7b9190613077565b610fbb5760405162461bcd60e51b81526020600482015260116024820152704f6e6c7920726567656e657261746f727360781b60448201526064016106b4565b3360009081526009602052604090206106f38282613108565b6001600160a01b03808216600090815260036020908152604080832081516101a08101835281546001600160401b0381168252600160401b90049095169285019290925260018201805460609593928401919061103090613017565b80601f016020809104026020016040519081016040528092919081815260200182805461105c90613017565b80156110a95780601f1061107e576101008083540402835291602001916110a9565b820191906000526020600020905b81548152906001019060200180831161108c57829003601f168201915b505050505081526020016002820180546110c290613017565b80601f01602080910402602001604051908101604052809291908181526020018280546110ee90613017565b801561113b5780601f106111105761010080835404028352916020019161113b565b820191906000526020600020905b81548152906001019060200180831161111e57829003601f168201915b5050509183525050600382015463ffffffff811660208084019190915260ff640100000000909204821615156040808501919091526004850154606085015260058501546080850152805180830182526006860154815260a08501528051808201909152600785015483161515815260088501549181019190915260c0830152600983015460e0830152600a830154610100830152600b909201549091161515610120909101526101608101519091506000906001600160401b0381111561120557611205612c84565b60405190808252806020026020018201604052801561124a57816020015b60408051808201909152606080825260208201528152602001906001900390816112235790505b5061016083015190915060005b818110156113eb576001600160a01b0386166000908152600560205260409020805482908110611289576112896131c0565b90600052602060002090600202016040518060400160405290816000820180546112b290613017565b80601f01602080910402602001604051908101604052809291908181526020018280546112de90613017565b801561132b5780601f106113005761010080835404028352916020019161132b565b820191906000526020600020905b81548152906001019060200180831161130e57829003601f168201915b5050505050815260200160018201805461134490613017565b80601f016020809104026020016040519081016040528092919081815260200182805461137090613017565b80156113bd5780601f10611392576101008083540402835291602001916113bd565b820191906000526020600020905b8154815290600101906020018083116113a057829003601f168201915b5050505050815250508382815181106113d8576113d86131c0565b6020908102919091010152600101611257565b5090949350505050565b6113fd611fae565b6001600160a01b03166000908152600160208190526040909120805460ff19169091179055565b3360009081526001602052604090205460ff166114535760405162461bcd60e51b81526004016106b490612fb4565b6010546001600160a01b031633811461147e5760405162461bcd60e51b81526004016106b490612fe0565b611489826001611fdb565b6106f382436001600160a01b03909116600090815260036020526040902060050155565b600660205260009081526040902080546109b890613017565b84516032108015906114da57508351609610155b80156114e85750825160c810155b61152d5760405162461bcd60e51b815260206004820152601660248201527513585e0818da185c9858dd195c9cc81c995858da195960521b60448201526064016106b4565b6003811080159061153f5750600a8111155b61159e5760405162461bcd60e51b815260206004820152602a60248201527f4d696e696d756d203320616e64206d6178696d756d20313020636f6f7264696e60448201526961746520706f696e747360b01b60648201526084016106b4565b6109c463ffffffff8716108015906115bf5750620f424063ffffffff871611155b6116245760405162461bcd60e51b815260206004820152603060248201527f4d696e696d756d203235303020616e64206d6178696d756d20312e3030302e3060448201526f303020737175617265206d657465727360801b60648201526084016106b4565b61162c6105c0565b6116895760405162461bcd60e51b815260206004820152602860248201527f5761697420666f7220766163616e63793a204d617820726567656e657261746f6044820152671c9cc81b1a5b5a5d60c21b60648201526084016106b4565b6116938282612342565b600c5460405162f5960960e51b81526000916001600160a01b031690631eb2c120906116c490600190600401612f5e565b602060405180830381865afa1580156116e1573d6000803e3d6000fd5b505050506040513d601f19601f8201168201806040525081019061170591906131d6565b6117109060016131f3565b9050604051806101a00160405280826001600160401b03168152602001336001600160a01b031681526020018781526020018681526020018863ffffffff16815260200160001515815260200160008152602001600081526020016040518060200160405280600081525081526020016040518060400160405280600015158152602001600d60009054906101000a90046001600160a01b03166001600160a01b031663ed0df79e6040518163ffffffff1660e01b8152600401602060405180830381865afa1580156117e7573d6000803e3d6000fd5b505050506040513d601f19601f8201168201806040525081019061180b9190612f72565b9052815243602080830191909152604080830186905260006060909301839052338352600382529182902083518154928501516001600160a01b0316600160401b026001600160e01b03199093166001600160401b039091161791909117815590820151600182019061187e9082613108565b50606082015160028201906118939082613108565b50608082015160038201805460a085015115156401000000000264ffffffffff1990911663ffffffff9093169290921791909117905560c082015160048083019190915560e0830151600583015561010083015151600680840191909155610120840151805160078501805491151560ff1992831617905560209182015160088601556101408601516009860155610160860151600a86015561018090950151600b909401805494151594909516939093179093556001600160401b0384166000908152908252604080822080546001600160a01b03191633908117909155825292909152206119838582613108565b50600c54604051639c3eead960e01b81526001600160a01b0390911690639c3eead9906119b7903390600190600401613212565b600060405180830381600087803b1580156119d157600080fd5b505af11580156119e5573d6000803e3d6000fd5b505050508663ffffffff16600f6000828254611a019190613099565b90915550600090505b82811015611a7157336000908152600560205260409020848483818110611a3357611a336131c0565b9050602002810190611a45919061322f565b815460018101835560009283526020909220909160020201611a678282613355565b5050600101611a0a565b50336001600160a01b0316816001600160401b03167fe7929ab3a316468d25671f32aa731ca41460f5459029b8ed818d4d32152c7f00888a43604051611ab993929190613437565b60405180910390a350505050505050565b3360009081526001602052604090205460ff16611af95760405162461bcd60e51b81526004016106b490612fb4565b6010546001600160a01b0316338114611b245760405162461bcd60e51b81526004016106b490612fe0565b6001600160a01b03821660009081526003602052604090206004015480611b8d5760405162461bcd60e51b815260206004820152601860248201527f746f74616c496e7370656374696f6e7320696e76616c6964000000000000000060448201526064016106b4565b80600103611bf8576000611b9f611db9565b6000818152600b602052604090205490915015611bd6576000818152600b60205260408120805491611bd083613462565b91905055505b506001600160a01b0383166000908152600760205260409020805460ff191690555b6005198101611c3757600e8054906000611c1183613462565b90915550506001600160a01b0383166000908152600860205260409020805460ff191690555b6001600160a01b0383166000908152600360205260408120600401805491611c5e83613462565b9190505550505050565b60056020528160005260406000208181548110611c8457600080fd5b906000526020600020906002020160009150915050806000018054611ca890613017565b80601f0160208091040260200160405190810160405280929190818152602001828054611cd490613017565b8015611d215780601f10611cf657610100808354040283529160200191611d21565b820191906000526020600020905b815481529060010190602001808311611d0457829003601f168201915b505050505090806001018054611d3690613017565b80601f0160208091040260200160405190810160405280929190818152602001828054611d6290613017565b8015611daf5780601f10611d8457610100808354040283529160200191611daf565b820191906000526020600020905b815481529060010190602001808311611d9257829003601f168201915b5050505050905082565b600d5460408051637686fbcf60e11b815290516000926001600160a01b03169163ed0df79e9160048083019260209291908290030181865afa158015610c70573d6000803e3d6000fd5b611e0b611fae565b6001600160a01b038116611e3557604051631e4fbdf760e01b8152600060048201526024016106b4565b611e3e816122f2565b50565b3360009081526001602052604090205460ff16611e705760405162461bcd60e51b81526004016106b490612fb4565b6011546001600160a01b0316338114611e9b5760405162461bcd60e51b81526004016106b490612fe0565b611ea3612016565b6001600160a01b0382166000908152600360205260409020600b81015460ff1615611f1e5760405162461bcd60e51b815260206004820152602560248201527f526567656e657261746f7220616c72656164792066756c6c7920696e76616c6960448201526419185d195960da1b60648201526084016106b4565b600b8101805460ff19166001179055611f3683612592565b600d54604051631af0d89760e01b81526001600160a01b038581166004830152600060248301526001604483015290911690631af0d89790606401600060405180830381600087803b158015611f8b57600080fd5b505af1158015611f9f573d6000803e3d6000fd5b50505050506106f36001600255565b6000546001600160a01b03163314610c175760405163118cdaa760e01b81523360048201526024016106b4565b6001600160a01b0390911660009081526003602081905260409091200180549115156401000000000264ff0000000019909216919091179055565b600280540361203857604051633ee5aeb560e01b815260040160405180910390fd5b60028055565b6001600160a01b0381166000908152600360205260408120600481018054908361206783613479565b90915550506001600160a01b03831660009081526007602052604090205460ff166120db576001600160a01b0383166000908152600760205260408120805460ff191660011790556120b7611db9565b6000818152600b602052604081208054929350906120d483613479565b9190505550505b600481015460051901612153576001600160a01b0383166000908152600860205260408120805460ff19166001179055600e80549161211983613479565b90915550506040516001600160a01b038416907f93a038d030ae217569bb08e5257262840e0aeafc36b94b7cfb2dc41deabed21690600090a25b6004015492915050565b6001600160a01b0383166000908152600360205260408120805490916001600160401b0390911690036121d25760405162461bcd60e51b815260206004820152601a60248201527f526567656e657261746f7220646f6573206e6f7420657869737400000000000060448201526064016106b4565b8263ffffffff168160060160000160008282546121ef9190613099565b90915550506004810154600311156122075750505050565b600781015463ffffffff84169060ff16612276575060078101805460ff1916600117905560068101546040516001600160a01b038616907fdf477f1abb30c779b76ead783acd2084230ef08ba1570ce9dee934c0c5b93b9d9061226d9043815260200190565b60405180910390a25b600d546040516338e8490d60e11b81526001600160a01b038781166004830152602482018490526001600160401b0386166044830152909116906371d0921a90606401600060405180830381600087803b1580156122d357600080fd5b505af11580156122e7573d6000803e3d6000fd5b505050505050505050565b600080546001600160a01b038381166001600160a01b0319831681178455604051919092169283917f8be0079c531659141344cd1fd0a4f28419497f9722a3daafe3b4186f6b6457e09190a35050565b80620f424060005b8281101561258b5760006123bf868684818110612369576123696131c0565b905060200281019061237b919061322f565b612385908061324f565b8080601f0160208091040260200160405190810160405280939291908181526020018383808284376000920191909152506125d092505050565b905060006123f88787858181106123d8576123d86131c0565b90506020028101906123ea919061322f565b61238590602081019061324f565b905061240684605919613492565b821215801561241f575061241b84605a613492565b8213155b61245e5760405162461bcd60e51b815260206004820152601060248201526f496e76616c6964206c6174697475646560801b60448201526064016106b4565b61246a8460b319613492565b8112158015612483575061247f8460b4613492565b8113155b6124c35760405162461bcd60e51b8152602060048201526011602482015270496e76616c6964206c6f6e67697475646560781b60448201526064016106b4565b60006124d0846001613099565b90505b858110156125805760006124f2898984818110612369576123696131c0565b9050600061250b8a8a858181106123d8576123d86131c0565b9050818514158061251c5750808414155b6125765760405162461bcd60e51b815260206004820152602560248201527f4475706c696361746520636f6f7264696e6174657320617265206e6f7420616c6044820152641b1bddd95960da1b60648201526084016106b4565b50506001016124d3565b50505060010161234a565b5050505050565b6001600160a01b038116600090815260036020819052604082200154600f805463ffffffff9092169290916125c8908490612fa1565b909155505050565b80516000908290158015906125e65750601e8151105b6126325760405162461bcd60e51b815260206004820181905260248201527f496e76616c696420636f6f7264696e61746520737472696e67206c656e67746860448201526064016106b4565b600080600019905060008084600081518110612650576126506131c0565b01602001516001600160f81b031916602d60f81b03612670575060019050805b815b85518110156127c357600086828151811061268f5761268f6131c0565b01602001516001600160f81b03191690506000600360fc1b82108015906126c45750603960f81b6001600160f81b0319831611155b9050601760f91b6001600160f81b031983161481806126e05750805b61272c5760405162461bcd60e51b815260206004820152601f60248201527f496e76616c69642063686172616374657220696e20636f6f7264696e6174650060448201526064016106b4565b801561278b5786600019146127835760405162461bcd60e51b815260206004820152601b60248201527f4d756c7469706c6520646f747320696e20636f6f7264696e617465000000000060448201526064016106b4565b8396506127b8565b86196127b8576127a0603060f885901c6134c2565b6127ab89600a613492565b6127b591906134e9565b97505b505050600101612672565b50826000191461293157600080806127dc866001613099565b90505b8751811080156127ef5750600682105b156128db576000888281518110612808576128086131c0565b01602001516001600160f81b0319169050600360fc1b811080159061283b5750603960f81b6001600160f81b0319821611155b6128915760405162461bcd60e51b815260206004820152602160248201527f496e76616c69642063686172616374657220696e20646563696d616c207061726044820152601d60fa1b60648201526084016106b4565b6128a0603060f883901c613511565b60ff166128ae85600a61352a565b6128b89190613099565b9350826128c481613479565b9350505080806128d390613479565b9150506127df565b50816128e882600a613628565b6128f29088613492565b6128fc91906134e9565b9550600681101561292a57612912816006612fa1565b61291d90600a613628565b6129279087613492565b95505b5050612941565b61293e84620f4240613492565b93505b8061294c5783612955565b61295584613634565b979650505050505050565b604051806101a0016040528060006001600160401b0316815260200160006001600160a01b031681526020016060815260200160608152602001600063ffffffff16815260200160001515815260200160008152602001600081526020016129d46040518060200160405280600081525090565b81526020016129f86040518060400160405280600015158152602001600081525090565b815260200160008152602001600081526020016000151581525090565b80356001600160a01b0381168114612a2c57600080fd5b919050565b60008060408385031215612a4457600080fd5b612a4d83612a15565b9150612a5b60208401612a15565b90509250929050565b600060208284031215612a7657600080fd5b612a7f82612a15565b9392505050565b803563ffffffff81168114612a2c57600080fd5b6001600160401b0381168114611e3e57600080fd5b600080600060608486031215612ac457600080fd5b612acd84612a15565b9250612adb60208501612a86565b91506040840135612aeb81612a9a565b809150509250925092565b60008060408385031215612b0957600080fd5b612b1283612a15565b946020939093013593505050565b6000815180845260005b81811015612b4657602081850181015186830182015201612b2a565b506000602082860101526020601f19601f83011685010191505092915050565b602081526000612a7f6020830184612b20565b60208152612b936020820183516001600160401b03169052565b60006020830151612baf60408401826001600160a01b03169052565b5060408301516101c06060840152612bcb6101e0840182612b20565b90506060840151601f19848303016080850152612be88282612b20565b9150506080840151612c0260a085018263ffffffff169052565b5060a084015180151560c08501525060c084015160e084015260e0840151610100840152610100840151612c3a610120850182519052565b50610120840151805115156101408501526020810151610160850152506101408401516101808401526101608401516101a08401526101808401516108896101c085018215159052565b634e487b7160e01b600052604160045260246000fd5b600082601f830112612cab57600080fd5b81356001600160401b03811115612cc457612cc4612c84565b604051601f8201601f19908116603f011681016001600160401b0381118282101715612cf257612cf2612c84565b604052818152838201602001851015612d0a57600080fd5b816020850160208301376000918101602001919091529392505050565b600060208284031215612d3957600080fd5b81356001600160401b03811115612d4f57600080fd5b612d5b84828501612c9a565b949350505050565b6000602082016020835280845180835260408501915060408160051b86010192506020860160005b82811015612de357603f198786030184528151805160408752612db16040880182612b20565b9050602082015191508681036020880152612dcc8183612b20565b965050506020938401939190910190600101612d8b565b50929695505050505050565b60008060008060008060a08789031215612e0857600080fd5b612e1187612a86565b955060208701356001600160401b03811115612e2c57600080fd5b612e3889828a01612c9a565b95505060408701356001600160401b03811115612e5457600080fd5b612e6089828a01612c9a565b94505060608701356001600160401b03811115612e7c57600080fd5b612e8889828a01612c9a565b93505060808701356001600160401b03811115612ea457600080fd5b8701601f81018913612eb557600080fd5b80356001600160401b03811115612ecb57600080fd5b8960208260051b8401011115612ee057600080fd5b60208201935080925050509295509295509295565b604081526000612f086040830185612b20565b8281036020840152612f1a8185612b20565b95945050505050565b600060208284031215612f3557600080fd5b5035919050565b60088110612f5a57634e487b7160e01b600052602160045260246000fd5b9052565b60208101612f6c8284612f3c565b92915050565b600060208284031215612f8457600080fd5b5051919050565b634e487b7160e01b600052601160045260246000fd5b81810381811115612f6c57612f6c612f8b565b6020808252601290820152712737ba1030b63637bbb2b21031b0b63632b960711b604082015260600190565b6020808252601e908201527f43616c6c6572206d7573742062652073797374656d20636f6e74726163740000604082015260600190565b600181811c9082168061302b57607f821691505b60208210810361304b57634e487b7160e01b600052602260045260246000fd5b50919050565b6040810161305f8285612f3c565b6001600160a01b039290921660209190910152919050565b60006020828403121561308957600080fd5b81518015158114612a7f57600080fd5b80820180821115612f6c57612f6c612f8b565b601f82111561099a57806000526020600020601f840160051c810160208510156130d35750805b601f840160051c820191505b8181101561258b57600081556001016130df565b600019600383901b1c191660019190911b1790565b81516001600160401b0381111561312157613121612c84565b6131358161312f8454613017565b846130ac565b6020601f82116001811461316357600083156131515750848201515b61315b84826130f3565b85555061258b565b600084815260208120601f198516915b828110156131935787850151825560209485019460019092019101613173565b50848210156131b15786840151600019600387901b60f8161c191681555b50505050600190811b01905550565b634e487b7160e01b600052603260045260246000fd5b6000602082840312156131e857600080fd5b8151612a7f81612a9a565b6001600160401b038181168382160190811115612f6c57612f6c612f8b565b6001600160a01b038316815260408101612a7f6020830184612f3c565b60008235603e1983360301811261324557600080fd5b9190910192915050565b6000808335601e1984360301811261326657600080fd5b8301803591506001600160401b0382111561328057600080fd5b60200191503681900382131561329557600080fd5b9250929050565b6001600160401b038311156132b3576132b3612c84565b6132c7836132c18354613017565b836130ac565b6000601f8411600181146132f557600085156132e35750838201355b6132ed86826130f3565b84555061258b565b600083815260209020601f19861690835b828110156133265786850135825560209485019460019092019101613306565b50868210156133435760001960f88860031b161c19848701351681555b505060018560011b0183555050505050565b61335f828361324f565b6001600160401b0381111561337657613376612c84565b61338a816133848554613017565b856130ac565b6000601f8211600181146133b857600083156133a65750838201355b6133b084826130f3565b865550613412565b600085815260209020601f19841690835b828110156133e957868501358255602094850194600190920191016133c9565b50848210156134065760001960f88660031b161c19848701351681555b505060018360011b0185555b50505050613423602083018361324f565b61343181836001860161329c565b50505050565b60608152600061344a6060830186612b20565b63ffffffff9490941660208301525060400152919050565b60008161347157613471612f8b565b506000190190565b60006001820161348b5761348b612f8b565b5060010190565b80820260008212600160ff1b841416156134ae576134ae612f8b565b8181058314821517612f6c57612f6c612f8b565b81810360008312801583831316838312821617156134e2576134e2612f8b565b5092915050565b808201828112600083128015821682158216171561350957613509612f8b565b505092915050565b60ff8281168282160390811115612f6c57612f6c612f8b565b8082028115828204841417612f6c57612f6c612f8b565b6001815b600184111561357c5780850481111561356057613560612f8b565b600184161561356e57908102905b60019390931c928002613545565b935093915050565b60008261359357506001612f6c565b816135a057506000612f6c565b81600181146135b657600281146135c0576135dc565b6001915050612f6c565b60ff8411156135d1576135d1612f8b565b50506001821b612f6c565b5060208310610133831016604e8410600b84101617156135ff575081810a612f6c565b61360c6000198484613541565b806000190482111561362057613620612f8b565b029392505050565b6000612a7f8383613584565b6000600160ff1b820161364957613649612f8b565b506000039056fea2646970667358221220bb9bd729cd806424b5b12ec5fc0a0f52a5e50a59e1af28924dddbfab509b270064736f6c634300081b0033",
  "linkReferences": {},
  "deployedLinkReferences": {}
}