{
  "_format": "hh-sol-artifact-1",
  "contractName": "RegenerationCreditImpact",
  "sourceName": "contracts/RegenerationCreditImpact.sol",
  "abi": [
    {
      "inputs": [
        {
          "internalType": "address",
          "name": "regenerationCreditAddress",
          "type": "address"
        },
        {
          "internalType": "address",
          "name": "inspectionRulesAddress",
          "type": "address"
        },
        {
          "internalType": "address",
          "name": "regeneratorRulesAddress",
          "type": "address"
        }
      ],
      "stateMutability": "nonpayable",
      "type": "constructor"
    },
    {
      "inputs": [],
      "name": "CARBON_PER_TREE",
      "outputs": [
        {
          "internalType": "uint256",
          "name": "",
          "type": "uint256"
        }
      ],
      "stateMutability": "view",
      "type": "function"
    },
    {
      "inputs": [],
      "name": "areaPerToken",
      "outputs": [
        {
          "internalType": "uint256",
          "name": "",
          "type": "uint256"
        }
      ],
      "stateMutability": "view",
      "type": "function"
    },
    {
      "inputs": [],
      "name": "biodiversityPerToken",
      "outputs": [
        {
          "internalType": "uint256",
          "name": "",
          "type": "uint256"
        }
      ],
      "stateMutability": "view",
      "type": "function"
    },
    {
      "inputs": [],
      "name": "carbonPerToken",
      "outputs": [
        {
          "internalType": "uint256",
          "name": "",
          "type": "uint256"
        }
      ],
      "stateMutability": "view",
      "type": "function"
    },
    {
      "inputs": [],
      "name": "inspectionRules",
      "outputs": [
        {
          "internalType": "contract IInspectionRules",
          "name": "",
          "type": "address"
        }
      ],
      "stateMutability": "view",
      "type": "function"
    },
    {
      "inputs": [],
      "name": "regenerationCredit",
      "outputs": [
        {
          "internalType": "contract IRegenerationCredit",
          "name": "",
          "type": "address"
        }
      ],
      "stateMutability": "view",
      "type": "function"
    },
    {
      "inputs": [],
      "name": "regeneratorRules",
      "outputs": [
        {
          "internalType": "contract IRegeneratorRules",
          "name": "",
          "type": "address"
        }
      ],
      "stateMutability": "view",
      "type": "function"
    },
    {
      "inputs": [],
      "name": "totalAreaImpact",
      "outputs": [
        {
          "internalType": "uint256",
          "name": "",
          "type": "uint256"
        }
      ],
      "stateMutability": "view",
      "type": "function"
    },
    {
      "inputs": [],
      "name": "totalBiodiversityImpact",
      "outputs": [
        {
          "internalType": "uint256",
          "name": "",
          "type": "uint256"
        }
      ],
      "stateMutability": "view",
      "type": "function"
    },
    {
      "inputs": [],
      "name": "totalCarbonImpact",
      "outputs": [
        {
          "internalType": "uint256",
          "name": "",
          "type": "uint256"
        }
      ],
      "stateMutability": "view",
      "type": "function"
    },
    {
      "inputs": [],
      "name": "totalTreesImpact",
      "outputs": [
        {
          "internalType": "uint256",
          "name": "",
          "type": "uint256"
        }
      ],
      "stateMutability": "view",
      "type": "function"
    },
    {
      "inputs": [],
      "name": "treesPerToken",
      "outputs": [
        {
          "internalType": "uint256",
          "name": "",
          "type": "uint256"
        }
      ],
      "stateMutability": "view",
      "type": "function"
    }
  ],
  "bytecode": "0x6080604052348015600f57600080fd5b50604051610a00380380610a00833981016040819052602c916088565b600080546001600160a01b039485166001600160a01b03199182161790915560018054938516938216939093179092556002805491909316911617905560c4565b80516001600160a01b0381168114608357600080fd5b919050565b600080600060608486031215609c57600080fd5b60a384606d565b925060af60208501606d565b915060bb60408501606d565b90509250925092565b61092d806100d36000396000f3fe608060405234801561001057600080fd5b50600436106100b45760003560e01c8063940cd0d411610071578063940cd0d41461012a578063b0bc3d4314610132578063d90d4a6c1461013c578063ecfdff3214610144578063f753ddf61461014c578063fc533ca91461015457600080fd5b80632f9ed1ef146100b957806330540710146100e957806336baf655146100ff57806353eb04191461011257806364ecc25b1461011a578063787822c314610122575b600080fd5b6000546100cc906001600160a01b031681565b6040516001600160a01b0390911681526020015b60405180910390f35b6100f1610167565b6040519081526020016100e0565b6001546100cc906001600160a01b031681565b6100f16101b7565b6100f16101ed565b6100f16103fa565b6100f16105ca565b6100f1620186a081565b6100f1610600565b6100f1610636565b6100f16106a4565b6002546100cc906001600160a01b031681565b6000806101726106bc565b90508060000361018457600091505090565b806ec097ce7bc90715b34b9f100000000061019d6101ed565b6101a79190610848565b6101b19190610865565b91505090565b6000806101c26106bc565b9050806000036101d457600091505090565b806ec097ce7bc90715b34b9f100000000061019d6103fa565b600154604080516305b4af4d60e21b815290516000926001600160a01b0316916316d2bd349160048083019260209291908290030181865afa158015610237573d6000803e3d6000fd5b505050506040513d601f19601f8201168201806040525081019061025b9190610887565b67ffffffffffffffff166000036102725750600090565b600160009054906101000a90046001600160a01b03166001600160a01b03166316d2bd346040518163ffffffff1660e01b8152600401602060405180830381865afa1580156102c5573d6000803e3d6000fd5b505050506040513d601f19601f820116820180604052508101906102e99190610887565b67ffffffffffffffff16600160009054906101000a90046001600160a01b03166001600160a01b031663a6bae8b06040518163ffffffff1660e01b8152600401602060405180830381865afa158015610346573d6000803e3d6000fd5b505050506040513d601f19601f8201168201806040525081019061036a91906108b8565b600160009054906101000a90046001600160a01b03166001600160a01b031663a2b570a46040518163ffffffff1660e01b8152600401602060405180830381865afa1580156103bd573d6000803e3d6000fd5b505050506040513d601f19601f820116820180604052508101906103e191906108b8565b6103eb9190610848565b6103f59190610865565b905090565b600154604080516305b4af4d60e21b815290516000926001600160a01b0316916316d2bd349160048083019260209291908290030181865afa158015610444573d6000803e3d6000fd5b505050506040513d601f19601f820116820180604052508101906104689190610887565b67ffffffffffffffff1660000361047f5750600090565b600160009054906101000a90046001600160a01b03166001600160a01b03166316d2bd346040518163ffffffff1660e01b8152600401602060405180830381865afa1580156104d2573d6000803e3d6000fd5b505050506040513d601f19601f820116820180604052508101906104f69190610887565b67ffffffffffffffff16600160009054906101000a90046001600160a01b03166001600160a01b031663a6bae8b06040518163ffffffff1660e01b8152600401602060405180830381865afa158015610553573d6000803e3d6000fd5b505050506040513d601f19601f8201168201806040525081019061057791906108b8565b600160009054906101000a90046001600160a01b03166001600160a01b031663ed8f93216040518163ffffffff1660e01b8152600401602060405180830381865afa1580156103bd573d6000803e3d6000fd5b6000806105d56106bc565b9050806000036105e757600091505090565b806ec097ce7bc90715b34b9f100000000061019d610636565b60008061060b6106bc565b90508060000361061d57600091505090565b806ec097ce7bc90715b34b9f100000000061019d6106a4565b6002546040805163442f962560e01b815290516000926001600160a01b03169163442f96259160048083019260209291908290030181865afa158015610680573d6000803e3d6000fd5b505050506040513d601f19601f820116820180604052508101906103f591906108b8565b6000620186a06106b26103fa565b6103f59190610848565b60008060009054906101000a90046001600160a01b03166001600160a01b03166349d627766040518163ffffffff1660e01b8152600401602060405180830381865afa158015610710573d6000803e3d6000fd5b505050506040513d601f19601f8201168201806040525081019061073491906108b8565b60008054906101000a90046001600160a01b03166001600160a01b0316630ed944c36040518163ffffffff1660e01b8152600401602060405180830381865afa158015610785573d6000803e3d6000fd5b505050506040513d601f19601f820116820180604052508101906107a991906108b8565b60008054906101000a90046001600160a01b03166001600160a01b03166318160ddd6040518163ffffffff1660e01b8152600401602060405180830381865afa1580156107fa573d6000803e3d6000fd5b505050506040513d601f19601f8201168201806040525081019061081e91906108b8565b61082891906108d1565b6103f591906108e4565b634e487b7160e01b600052601160045260246000fd5b808202811582820484141761085f5761085f610832565b92915050565b60008261088257634e487b7160e01b600052601260045260246000fd5b500490565b60006020828403121561089957600080fd5b815167ffffffffffffffff811681146108b157600080fd5b9392505050565b6000602082840312156108ca57600080fd5b5051919050565b8082018082111561085f5761085f610832565b8181038181111561085f5761085f61083256fea26469706673582212200c162feb8f13843341b3e868fd8b56d06bf359f402863938dbac80084c605c8264736f6c634300081b0033",
  "linkReferences": {},
  "deployedLinkReferences": {}
}