{
  "_format": "hh-sol-artifact-1",
  "contractName": "RegenerationIndexRules",
  "sourceName": "contracts/RegenerationIndexRules.sol",
  "abi": [
    {
      "inputs": [],
      "stateMutability": "nonpayable",
      "type": "constructor"
    },
    {
      "inputs": [],
      "name": "CATEGORY_COUNTS",
      "outputs": [
        {
          "internalType": "uint8",
          "name": "",
          "type": "uint8"
        }
      ],
      "stateMutability": "view",
      "type": "function"
    },
    {
      "inputs": [
        {
          "internalType": "uint32",
          "name": "treesResult",
          "type": "uint32"
        },
        {
          "internalType": "uint32",
          "name": "biodiversityResult",
          "type": "uint32"
        }
      ],
      "name": "calculateScore",
      "outputs": [
        {
          "internalType": "uint32",
          "name": "",
          "type": "uint32"
        }
      ],
      "stateMutability": "view",
      "type": "function"
    },
    {
      "inputs": [
        {
          "internalType": "uint8",
          "name": "",
          "type": "uint8"
        }
      ],
      "name": "categories",
      "outputs": [
        {
          "internalType": "uint64",
          "name": "id",
          "type": "uint64"
        },
        {
          "internalType": "string",
          "name": "name",
          "type": "string"
        },
        {
          "internalType": "string",
          "name": "description",
          "type": "string"
        }
      ],
      "stateMutability": "view",
      "type": "function"
    },
    {
      "inputs": [
        {
          "internalType": "uint8",
          "name": "",
          "type": "uint8"
        },
        {
          "internalType": "uint256",
          "name": "",
          "type": "uint256"
        }
      ],
      "name": "categoryRegenerationIndexDescriptions",
      "outputs": [
        {
          "internalType": "uint8",
          "name": "regenerationIndexId",
          "type": "uint8"
        },
        {
          "internalType": "string",
          "name": "description",
          "type": "string"
        }
      ],
      "stateMutability": "view",
      "type": "function"
    },
    {
      "inputs": [
        {
          "internalType": "uint8",
          "name": "categoryId",
          "type": "uint8"
        }
      ],
      "name": "getCategoryRegenerationIndexDescription",
      "outputs": [
        {
          "components": [
            {
              "internalType": "uint8",
              "name": "regenerationIndexId",
              "type": "uint8"
            },
            {
              "internalType": "string",
              "name": "description",
              "type": "string"
            }
          ],
          "internalType": "struct RegenerationIndexDescription[]",
          "name": "",
          "type": "tuple[]"
        }
      ],
      "stateMutability": "view",
      "type": "function"
    },
    {
      "inputs": [
        {
          "internalType": "uint32",
          "name": "",
          "type": "uint32"
        }
      ],
      "name": "regenerationIndex",
      "outputs": [
        {
          "internalType": "string",
          "name": "name",
          "type": "string"
        },
        {
          "internalType": "uint32",
          "name": "value",
          "type": "uint32"
        }
      ],
      "stateMutability": "view",
      "type": "function"
    }
  ],
  "bytecode": "0x608060405234801561001057600080fd5b5060408051608081018252600e9181019182526d2922a3a2a722a920aa24ab22901b60911b6060820152908152602080820181905260016000526002905280517fe90b7bceb6e7df5418fb78d8ee546e97c83a08bbccc01a0644d599ccd2a7c2e090819061007e9082610f6f565b50602091820151600191909101805463ffffffff191663ffffffff90921691909117905560408051608081018252600e9181019182526d524547454e45524154495645203560901b60608201529081526010818301526002600081905290915280517f679795a0195a1b76cdebb7c51d74e058aee92919b8c3389af86ef24535e8a28c90819061010e9082610f6f565b50602091820151600191909101805463ffffffff191663ffffffff90921691909117905560408051608081018252600e9181019182526d149151d15391549055125591480d60921b60608201529081526008818301526003600052600290915280517f88601476d11616a71c5be67555bd1dff4b1cbf21533d2669b768b61518cfe1c390819061019e9082610f6f565b50602091820151600191909101805463ffffffff191663ffffffff90921691909117905560408051608081018252600e9181019182526d524547454e45524154495645203360901b60608201529081526004818301819052600052600290915280517fee60d0579bcffd98e668647d59fec1ff86a7fb340ce572e844f234ae73a6918f90819061022e9082610f6f565b50602091820151600191909101805463ffffffff191663ffffffff90921691909117905560408051608081018252600e9181019182526d2922a3a2a722a920aa24ab22901960911b60608201529081526002818301819052600560005290915280517fb98b78633099fa36ed8b8680c4f8092689e1e04080eb9cbb077ca38a14d7e3849081906102be9082610f6f565b506020918201516001918201805463ffffffff191663ffffffff90921691909117905560408051608081018252600e9181019182526d524547454e45524154495645203160901b6060820152908152808301919091526006600052600290915280517f59dd4b18488d12f51eda69757a0ed42a2010c14b564330cc74a06895e60c077b90819061034e9082610f6f565b50602091820151600191909101805463ffffffff191663ffffffff909216919091179055604080516080810182526006918101918252654e455554524f60d01b6060820152908152600081830181905260079052600290915280517facd8ef244210bb6898e73c48bf820ed8ecc857a3bab8d79c10e4fa92b1e9ca659081906103d79082610f6f565b50602091909101516001909101805463ffffffff191663ffffffff909216919091179055610403610408565b61102d565b6000604051806060016040528060016001600160401b0316815260200160405180604001604052806005815260200164547265657360d81b81525081526020016040518061014001604052806101198152602001611b9461011991399052600160208181526040805180820182528381528151808301909252600e82526d07472656573203e3d2035303030360941b82840152918201908152600080516020611cad833981519152805493840181556000528151600080516020611ee88339815191526002909402938401805460ff191660ff909216919091178155905193945090929091600080516020611e5a83398151915201906105089082610f6f565b50506001602081815260408051808201825260028082528251808401909352601f83527f7472656573203e3d203235303030202626207472656573203c2035303030300083850152928101918252600080516020611cad83398151915280549485018155600052805193909202600080516020611ee88339815191528101805460ff9590951660ff199095169490941784559051919350600080516020611e5a83398151915201906105ba9082610f6f565b505060016020818152604080518082018252600381528151808301909252601f82527f7472656573203e3d203132353030202626207472656573203c2032353030300082840152918201908152600080516020611cad833981519152805493840181556000528151600080516020611ee88339815191526002909402938401805460ff191660ff909216919091178155905191935091600080516020611e5a833981519152019061066b9082610f6f565b505060016020818152604080518082018252600481528151808301909252601e82527f7472656573203e3d2036323530202626207472656573203c203132353030000082840152918201908152600080516020611cad833981519152805493840181556000528151600080516020611ee88339815191526002909402938401805460ff191660ff909216919091178155905191935091600080516020611e5a833981519152019061071c9082610f6f565b505060016020818152604080518082018252600581528151808301909252601d82527f7472656573203e3d2033313235202626207472656573203c203632353000000082840152918201908152600080516020611cad833981519152805493840181556000528151600080516020611ee88339815191526002909402938401805460ff191660ff909216919091178155905191935091600080516020611e5a83398151915201906107cd9082610f6f565b505060016020818152604080518082018252600681528151808301909252601b82527f7472656573203e3d203230202626207472656573203c2033313235000000000082840152918201908152600080516020611cad833981519152805493840181556000528151600080516020611ee88339815191526002909402938401805460ff191660ff909216919091178155905191935091600080516020611e5a833981519152019061087e9082610f6f565b505060016020818152604080518082018252600781528151808301909252600a82526907472656573203c2032360b41b82840152918201908152600080516020611cad833981519152805493840181556000528151600080516020611ee88339815191526002909402938401805460ff191660ff909216919091178155905191935091600080516020611e5a833981519152019061091c9082610f6f565b5050506000604051806060016040528060026001600160401b031681526020016040518060400160405280600c81526020016b42696f64697665727369747960a01b81525081526020016040518061018001604052806101468152602001611ccd61014691399052600160208181526040805180820182528381528151808301909252601382527f42696f646976657273697479203e3d203136300000000000000000000000000082840152918201908152600080516020611e13833981519152805493840181556000528151600080516020611ea18339815191526002909402938401805460ff191660ff909216919091178155905193945090929091600080516020611b268339815191520190610a359082610f6f565b505060026000819052600160209081526040805180820182529283528051606081019091526028808252600080516020611e13833981519152945083830192611b6c90830139905281546001808201845560009384526020938490208351600290930201805460ff191660ff909316929092178255928201519192909190820190610ac09082610f6f565b505060026000525060016020908152604080518082018252600381528151606081019092526027808352600080516020611e1383398151915293919283830192909190611e7a90830139905281546001808201845560009384526020938490208351600290930201805460ff191660ff909316929092178255928201519192909190820190610b4f9082610f6f565b505060026000525060016020908152604080518082018252600481528151606081019092526027808352600080516020611e1383398151915293919283830192909190611ec190830139905281546001808201845560009384526020938490208351600290930201805460ff191660ff909316929092178255928201519192909190820190610bde9082610f6f565b505060026000525060016020908152604080518082018252600581528151606081019092526027808352600080516020611e1383398151915293919283830192909190611e3390830139905281546001808201845560009384526020938490208351600290930201805460ff191660ff909316929092178255928201519192909190820190610c6d9082610f6f565b505060026000525060016020908152604080518082018252600681528151606081019092526026808352600080516020611e1383398151915293919283830192909190611b4690830139905281546001808201845560009384526020938490208351600290930201805460ff191660ff909316929092178255928201519192909190820190610cfc9082610f6f565b505060016020818152604080518082018252600781528151808301909252601082526f42696f646976657273697479203c203560801b82840152918201908152600080516020611e13833981519152805493840181556000528151600080516020611ea18339815191526002909402938401805460ff191660ff909216919091178155905191935091600080516020611b268339815191520190610da09082610f6f565b505060016000908152602090815283517fada5013122d395ba3c54772283fb069b10426056ef8ca54750cb9bb552a59e7d80546001600160401b0319166001600160401b03909216919091178155908401518492507fada5013122d395ba3c54772283fb069b10426056ef8ca54750cb9bb552a59e7e90610e219082610f6f565b5060408201516002820190610e369082610f6f565b505060026000908152602090815282517fabbb5caa7dda850e60932de0934eb1f9d0f59695050f761dc64e443e5030a56980546001600160401b0319166001600160401b03909216919091178155908301518392507fabbb5caa7dda850e60932de0934eb1f9d0f59695050f761dc64e443e5030a56a90610eb79082610f6f565b5060408201516002820190610ecc9082610f6f565b5050505050565b634e487b7160e01b600052604160045260246000fd5b600181811c90821680610efd57607f821691505b602082108103610f1d57634e487b7160e01b600052602260045260246000fd5b50919050565b601f821115610f6a57806000526020600020601f840160051c81016020851015610f4a5750805b601f840160051c820191505b81811015610ecc5760008155600101610f56565b505050565b81516001600160401b03811115610f8857610f88610ed3565b610f9c81610f968454610ee9565b84610f23565b6020601f821160018114610fd05760008315610fb85750848201515b600019600385901b1c1916600184901b178455610ecc565b600084815260208120601f198516915b828110156110005787850151825560209485019460019092019101610fe0565b508482101561101e5786840151600019600387901b60f8161c191681555b50505050600190811b01905550565b610aea8061103c6000396000f3fe608060405234801561001057600080fd5b50600436106100625760003560e01c80630737401014610067578063536b5b9a146100915780636a89d6f6146100b15780637be6277b146100cb578063ac2d1653146100ed578063c26ac7b414610115575b600080fd5b61007a610075366004610852565b610136565b6040516100889291906108c2565b60405180910390f35b6100a461009f3660046108e6565b610200565b6040516100889190610908565b6100b9600281565b60405160ff9091168152602001610088565b6100de6100d93660046108e6565b61036a565b60405161008893929190610987565b6101006100fb3660046109da565b6104a8565b60405163ffffffff9091168152602001610088565b610128610123366004610a0d565b610679565b604051610088929190610a28565b6001602052816000526040600020818154811061015257600080fd5b60009182526020909120600290910201805460018201805460ff909216945091925061017d90610a50565b80601f01602080910402602001604051908101604052809291908181526020018280546101a990610a50565b80156101f65780601f106101cb576101008083540402835291602001916101f6565b820191906000526020600020905b8154815290600101906020018083116101d957829003601f168201915b5050505050905082565b606060008260ff161180156102195750600260ff831611155b61025f5760405162461bcd60e51b8152602060048201526013602482015272125b9d985b1a590818d85d1959dbdc9e481251606a1b604482015260640160405180910390fd5b60ff8216600090815260016020908152604080832080548251818502810185019093528083529193909284015b8282101561035f5760008481526020908190206040805180820190915260028502909101805460ff16825260018101805492939192918401916102ce90610a50565b80601f01602080910402602001604051908101604052809291908181526020018280546102fa90610a50565b80156103475780601f1061031c57610100808354040283529160200191610347565b820191906000526020600020905b81548152906001019060200180831161032a57829003601f168201915b5050505050815250508152602001906001019061028c565b505050509050919050565b6000602081905290815260409020805460018201805467ffffffffffffffff909216929161039790610a50565b80601f01602080910402602001604051908101604052809291908181526020018280546103c390610a50565b80156104105780601f106103e557610100808354040283529160200191610410565b820191906000526020600020905b8154815290600101906020018083116103f357829003601f168201915b50505050509080600201805461042590610a50565b80601f016020809104026020016040519081016040528092919081815260200182805461045190610a50565b801561049e5780601f106104735761010080835404028352916020019161049e565b820191906000526020600020905b81548152906001019060200180831161048157829003601f168201915b5050505050905083565b600080600260006104b886610723565b63ffffffff1663ffffffff1681526020019081526020016000206040518060400160405290816000820180546104ed90610a50565b80601f016020809104026020016040519081016040528092919081815260200182805461051990610a50565b80156105665780601f1061053b57610100808354040283529160200191610566565b820191906000526020600020905b81548152906001019060200180831161054957829003601f168201915b50505091835250506001919091015463ffffffff1660209091015290506000600281610591866107bb565b63ffffffff1663ffffffff1681526020019081526020016000206040518060400160405290816000820180546105c690610a50565b80601f01602080910402602001604051908101604052809291908181526020018280546105f290610a50565b801561063f5780601f106106145761010080835404028352916020019161063f565b820191906000526020600020905b81548152906001019060200180831161062257829003601f168201915b50505091835250506001919091015463ffffffff16602091820152818101519084015191925061066e91610a8a565b925050505b92915050565b60026020526000908152604090208054819061069490610a50565b80601f01602080910402602001604051908101604052809291908181526020018280546106c090610a50565b801561070d5780601f106106e25761010080835404028352916020019161070d565b820191906000526020600020905b8154815290600101906020018083116106f057829003601f168201915b5050506001909301549192505063ffffffff1682565b600061c35063ffffffff83161061073c57506001919050565b6161a863ffffffff83161061075357506002919050565b6130d463ffffffff83161061076a57506003919050565b61186a63ffffffff83161061078157506004919050565b610c3563ffffffff83161061079857506005919050565b601463ffffffff8316106107ae57506006919050565b506007919050565b919050565b600060a063ffffffff8316106107d357506001919050565b605063ffffffff8316106107e957506002919050565b602863ffffffff8316106107ff57506003919050565b601463ffffffff83161061081557506004919050565b600a63ffffffff83161061082b57506005919050565b600563ffffffff8316106107ae57506006919050565b803560ff811681146107b657600080fd5b6000806040838503121561086557600080fd5b61086e83610841565b946020939093013593505050565b6000815180845260005b818110156108a257602081850181015186830182015201610886565b506000602082860101526020601f19601f83011685010191505092915050565b60ff831681526040602082015260006108de604083018461087c565b949350505050565b6000602082840312156108f857600080fd5b61090182610841565b9392505050565b6000602082016020835280845180835260408501915060408160051b86010192506020860160005b8281101561097b57603f19878603018452815160ff81511686526020810151905060406020870152610965604087018261087c565b9550506020938401939190910190600101610930565b50929695505050505050565b67ffffffffffffffff841681526060602082015260006109aa606083018561087c565b82810360408401526109bc818561087c565b9695505050505050565b803563ffffffff811681146107b657600080fd5b600080604083850312156109ed57600080fd5b6109f6836109c6565b9150610a04602084016109c6565b90509250929050565b600060208284031215610a1f57600080fd5b610901826109c6565b604081526000610a3b604083018561087c565b905063ffffffff831660208301529392505050565b600181811c90821680610a6457607f821691505b602082108103610a8457634e487b7160e01b600052602260045260246000fd5b50919050565b63ffffffff818116838216019081111561067357634e487b7160e01b600052601160045260246000fdfea2646970667358221220413d381589a90c2daee4c5c0413b00a4936af61def52e9ba553336e6c2985ccb64736f6c634300081b00339feccf6caa602894c8105bdda7f81b2a7bb7de7dba1f18af92d8d057b708cb4242696f646976657273697479203e3d20352026262042696f646976657273697479203c20313042696f646976657273697479203e3d2038302026262042696f646976657273697479203c20313630496e64696361746f7220746f206d6561737572652074686520746f74616c20616d6f756e74206f662074726565732c2070616c6d20747265657320616e64206f7468657220706c616e7473206f76657220316d206869676820616e642033636d20696e206469616d6574657220696e2074686520726567656e65726174696e6720617265612e20486f77206d616e792074726565732c2070616c6d20747265657320616e64206f7468657220706c616e7473206f76657220316d206869676820616e642033636d20696e206469616d6574657220746865726520697320696e2074686520726567656e65726174696e6720617265613f204a75737469667920796f757220616e7377657220696e20746865207265706f72742ecc69885fda6bcc1a4ace058b4a62bf5e179ea78fd58a1ccd71c22cc9b688792f496e64696361746f7220746f206d65617375726520746865206c6576656c206f662062696f646976657273697479206f662074726565732c2070616c6d20747265657320616e64206f7468657220706c616e7473206f76657220316d206869676820616e642033636d20696e206469616d6574657220696e2074686520726567656e65726174696e6720617265612e20486f77206d616e7920646966666572656e7420737065636965732061726520746865726520696e2074686520617265613f204561636820646966666572656e742073706563696573206973206571756976616c656e7420746f206f6e6520706f696e7420616e64206f6e6c7920747265657320616e6420706c616e7473206d616e61676564206f7220706c616e7465642062792074686520726567656e657261746f722073686f756c6420626520636f756e7465642ed9d16d34ffb15ba3a3d852f0d403e2ce1d691fb54de27ac87cd2f993f3ec330f42696f646976657273697479203e3d2031302026262042696f646976657273697479203c20323066b32740ad8041bcc3b909c72d7e1afe60094ec55e3cde329b4b3a28501d826d42696f646976657273697479203e3d2034302026262042696f646976657273697479203c2038309feccf6caa602894c8105bdda7f81b2a7bb7de7dba1f18af92d8d057b708cb4142696f646976657273697479203e3d2032302026262042696f646976657273697479203c20343066b32740ad8041bcc3b909c72d7e1afe60094ec55e3cde329b4b3a28501d826c",
  "linkReferences": {},
  "deployedLinkReferences": {}
}