{
  "_format": "hh-sol-artifact-1",
  "contractName": "RegeneratorRules",
  "sourceName": "contracts/RegeneratorRules.sol",
  "abi": [
    {
      "inputs": [
        {
          "internalType": "address",
          "name": "communityRulesAddress",
          "type": "address"
        },
        {
          "internalType": "address",
          "name": "regeneratorPoolAddress",
          "type": "address"
        }
      ],
      "stateMutability": "nonpayable",
      "type": "constructor"
    },
    {
      "anonymous": false,
      "inputs": [
        {
          "indexed": true,
          "internalType": "address",
          "name": "previousOwner",
          "type": "address"
        },
        {
          "indexed": true,
          "internalType": "address",
          "name": "newOwner",
          "type": "address"
        }
      ],
      "name": "OwnershipTransferred",
      "type": "event"
    },
    {
      "anonymous": false,
      "inputs": [
        {
          "indexed": true,
          "internalType": "address",
          "name": "regeneratorAddress",
          "type": "address"
        },
        {
          "indexed": false,
          "internalType": "uint256",
          "name": "blockNumber",
          "type": "uint256"
        }
      ],
      "name": "RegeneratorEnteredPool",
      "type": "event"
    },
    {
      "anonymous": false,
      "inputs": [
        {
          "indexed": true,
          "internalType": "uint256",
          "name": "id",
          "type": "uint256"
        },
        {
          "indexed": true,
          "internalType": "address",
          "name": "regeneratorAddress",
          "type": "address"
        },
        {
          "indexed": false,
          "internalType": "string",
          "name": "name",
          "type": "string"
        },
        {
          "indexed": false,
          "internalType": "uint32",
          "name": "totalArea",
          "type": "uint32"
        },
        {
          "indexed": false,
          "internalType": "uint256",
          "name": "blockNumber",
          "type": "uint256"
        }
      ],
      "name": "RegeneratorRegistered",
      "type": "event"
    },
    {
      "anonymous": false,
      "inputs": [
        {
          "indexed": true,
          "internalType": "address",
          "name": "regeneratorAddress",
          "type": "address"
        },
        {
          "indexed": true,
          "internalType": "uint256",
          "name": "era",
          "type": "uint256"
        },
        {
          "indexed": false,
          "internalType": "uint256",
          "name": "blockNumber",
          "type": "uint256"
        }
      ],
      "name": "RegeneratorWithdrawalInitiated",
      "type": "event"
    },
    {
      "inputs": [],
      "name": "MAX_REGENERATION_AREA",
      "outputs": [
        {
          "internalType": "uint32",
          "name": "",
          "type": "uint32"
        }
      ],
      "stateMutability": "view",
      "type": "function"
    },
    {
      "inputs": [],
      "name": "MINIMUM_INSPECTIONS_TO_POOL",
      "outputs": [
        {
          "internalType": "uint8",
          "name": "",
          "type": "uint8"
        }
      ],
      "stateMutability": "view",
      "type": "function"
    },
    {
      "inputs": [],
      "name": "MIN_REGENERATION_AREA",
      "outputs": [
        {
          "internalType": "uint32",
          "name": "",
          "type": "uint32"
        }
      ],
      "stateMutability": "view",
      "type": "function"
    },
    {
      "inputs": [
        {
          "internalType": "uint32",
          "name": "totalArea",
          "type": "uint32"
        },
        {
          "internalType": "string",
          "name": "name",
          "type": "string"
        },
        {
          "internalType": "string",
          "name": "proofPhoto",
          "type": "string"
        },
        {
          "internalType": "string",
          "name": "projectDescription",
          "type": "string"
        },
        {
          "components": [
            {
              "internalType": "string",
              "name": "latitude",
              "type": "string"
            },
            {
              "internalType": "string",
              "name": "longitude",
              "type": "string"
            }
          ],
          "internalType": "struct Coordinates[]",
          "name": "_coordinates",
          "type": "tuple[]"
        }
      ],
      "name": "addRegenerator",
      "outputs": [],
      "stateMutability": "nonpayable",
      "type": "function"
    },
    {
      "inputs": [
        {
          "internalType": "address",
          "name": "addr",
          "type": "address"
        }
      ],
      "name": "afterAcceptInspection",
      "outputs": [],
      "stateMutability": "nonpayable",
      "type": "function"
    },
    {
      "inputs": [
        {
          "internalType": "address",
          "name": "addr",
          "type": "address"
        },
        {
          "internalType": "uint32",
          "name": "score",
          "type": "uint32"
        }
      ],
      "name": "afterRealizeInspection",
      "outputs": [
        {
          "internalType": "uint256",
          "name": "",
          "type": "uint256"
        }
      ],
      "stateMutability": "nonpayable",
      "type": "function"
    },
    {
      "inputs": [
        {
          "internalType": "address",
          "name": "addr",
          "type": "address"
        }
      ],
      "name": "afterRequestInspection",
      "outputs": [],
      "stateMutability": "nonpayable",
      "type": "function"
    },
    {
      "inputs": [
        {
          "internalType": "address",
          "name": "",
          "type": "address"
        }
      ],
      "name": "allowedCallers",
      "outputs": [
        {
          "internalType": "bool",
          "name": "",
          "type": "bool"
        }
      ],
      "stateMutability": "view",
      "type": "function"
    },
    {
      "inputs": [
        {
          "internalType": "address",
          "name": "",
          "type": "address"
        }
      ],
      "name": "areaPhoto",
      "outputs": [
        {
          "internalType": "string",
          "name": "",
          "type": "string"
        }
      ],
      "stateMutability": "view",
      "type": "function"
    },
    {
      "inputs": [
        {
          "internalType": "address",
          "name": "",
          "type": "address"
        },
        {
          "internalType": "uint256",
          "name": "",
          "type": "uint256"
        }
      ],
      "name": "coordinates",
      "outputs": [
        {
          "internalType": "string",
          "name": "latitude",
          "type": "string"
        },
        {
          "internalType": "string",
          "name": "longitude",
          "type": "string"
        }
      ],
      "stateMutability": "view",
      "type": "function"
    },
    {
      "inputs": [
        {
          "internalType": "address",
          "name": "addr",
          "type": "address"
        }
      ],
      "name": "decrementInspections",
      "outputs": [],
      "stateMutability": "nonpayable",
      "type": "function"
    },
    {
      "inputs": [
        {
          "internalType": "address",
          "name": "addr",
          "type": "address"
        }
      ],
      "name": "getCoordinates",
      "outputs": [
        {
          "components": [
            {
              "internalType": "string",
              "name": "latitude",
              "type": "string"
            },
            {
              "internalType": "string",
              "name": "longitude",
              "type": "string"
            }
          ],
          "internalType": "struct Coordinates[]",
          "name": "",
          "type": "tuple[]"
        }
      ],
      "stateMutability": "view",
      "type": "function"
    },
    {
      "inputs": [
        {
          "internalType": "address",
          "name": "addr",
          "type": "address"
        }
      ],
      "name": "getRegenerator",
      "outputs": [
        {
          "components": [
            {
              "internalType": "uint64",
              "name": "id",
              "type": "uint64"
            },
            {
              "internalType": "address",
              "name": "regeneratorWallet",
              "type": "address"
            },
            {
              "internalType": "string",
              "name": "name",
              "type": "string"
            },
            {
              "internalType": "string",
              "name": "proofPhoto",
              "type": "string"
            },
            {
              "internalType": "uint32",
              "name": "totalArea",
              "type": "uint32"
            },
            {
              "internalType": "bool",
              "name": "pendingInspection",
              "type": "bool"
            },
            {
              "internalType": "uint256",
              "name": "totalInspections",
              "type": "uint256"
            },
            {
              "internalType": "uint256",
              "name": "lastRequestAt",
              "type": "uint256"
            },
            {
              "components": [
                {
                  "internalType": "uint256",
                  "name": "score",
                  "type": "uint256"
                }
              ],
              "internalType": "struct RegenerationScore",
              "name": "regenerationScore",
              "type": "tuple"
            },
            {
              "components": [
                {
                  "internalType": "bool",
                  "name": "onContractPool",
                  "type": "bool"
                },
                {
                  "internalType": "uint256",
                  "name": "currentEra",
                  "type": "uint256"
                }
              ],
              "internalType": "struct Pool",
              "name": "pool",
              "type": "tuple"
            },
            {
              "internalType": "uint256",
              "name": "createdAt",
              "type": "uint256"
            },
            {
              "internalType": "uint256",
              "name": "coordinatesCount",
              "type": "uint256"
            }
          ],
          "internalType": "struct Regenerator",
          "name": "regenerator",
          "type": "tuple"
        }
      ],
      "stateMutability": "view",
      "type": "function"
    },
    {
      "inputs": [
        {
          "internalType": "address",
          "name": "",
          "type": "address"
        }
      ],
      "name": "impactRegenerators",
      "outputs": [
        {
          "internalType": "bool",
          "name": "",
          "type": "bool"
        }
      ],
      "stateMutability": "view",
      "type": "function"
    },
    {
      "inputs": [
        {
          "internalType": "address",
          "name": "caller",
          "type": "address"
        }
      ],
      "name": "isAllowedCaller",
      "outputs": [
        {
          "internalType": "bool",
          "name": "",
          "type": "bool"
        }
      ],
      "stateMutability": "view",
      "type": "function"
    },
    {
      "inputs": [
        {
          "internalType": "address",
          "name": "allowed",
          "type": "address"
        }
      ],
      "name": "newAllowedCaller",
      "outputs": [],
      "stateMutability": "nonpayable",
      "type": "function"
    },
    {
      "inputs": [],
      "name": "nextEraIn",
      "outputs": [
        {
          "internalType": "uint256",
          "name": "",
          "type": "uint256"
        }
      ],
      "stateMutability": "view",
      "type": "function"
    },
    {
      "inputs": [],
      "name": "owner",
      "outputs": [
        {
          "internalType": "address",
          "name": "",
          "type": "address"
        }
      ],
      "stateMutability": "view",
      "type": "function"
    },
    {
      "inputs": [],
      "name": "poolCurrentEra",
      "outputs": [
        {
          "internalType": "uint256",
          "name": "",
          "type": "uint256"
        }
      ],
      "stateMutability": "view",
      "type": "function"
    },
    {
      "inputs": [
        {
          "internalType": "address",
          "name": "",
          "type": "address"
        }
      ],
      "name": "projectDescriptions",
      "outputs": [
        {
          "internalType": "string",
          "name": "",
          "type": "string"
        }
      ],
      "stateMutability": "view",
      "type": "function"
    },
    {
      "inputs": [],
      "name": "regenerationArea",
      "outputs": [
        {
          "internalType": "uint256",
          "name": "",
          "type": "uint256"
        }
      ],
      "stateMutability": "view",
      "type": "function"
    },
    {
      "inputs": [],
      "name": "regenerationTotalArea",
      "outputs": [
        {
          "internalType": "uint256",
          "name": "",
          "type": "uint256"
        }
      ],
      "stateMutability": "view",
      "type": "function"
    },
    {
      "inputs": [
        {
          "internalType": "uint256",
          "name": "",
          "type": "uint256"
        }
      ],
      "name": "regeneratorsAddress",
      "outputs": [
        {
          "internalType": "address",
          "name": "",
          "type": "address"
        }
      ],
      "stateMutability": "view",
      "type": "function"
    },
    {
      "inputs": [
        {
          "internalType": "address",
          "name": "addr",
          "type": "address"
        },
        {
          "internalType": "uint256",
          "name": "levelsToRemove",
          "type": "uint256"
        }
      ],
      "name": "removePoolLevels",
      "outputs": [],
      "stateMutability": "nonpayable",
      "type": "function"
    },
    {
      "inputs": [],
      "name": "renounceOwnership",
      "outputs": [],
      "stateMutability": "nonpayable",
      "type": "function"
    },
    {
      "inputs": [
        {
          "internalType": "address",
          "name": "_inspectionRulesAddress",
          "type": "address"
        },
        {
          "internalType": "address",
          "name": "_validationRulesAddress",
          "type": "address"
        }
      ],
      "name": "setContractCall",
      "outputs": [],
      "stateMutability": "nonpayable",
      "type": "function"
    },
    {
      "inputs": [],
      "name": "totalImpactRegenerators",
      "outputs": [
        {
          "internalType": "uint256",
          "name": "",
          "type": "uint256"
        }
      ],
      "stateMutability": "view",
      "type": "function"
    },
    {
      "inputs": [
        {
          "internalType": "address",
          "name": "newOwner",
          "type": "address"
        }
      ],
      "name": "transferOwnership",
      "outputs": [],
      "stateMutability": "nonpayable",
      "type": "function"
    },
    {
      "inputs": [
        {
          "internalType": "string",
          "name": "newPhoto",
          "type": "string"
        }
      ],
      "name": "updateAreaPhoto",
      "outputs": [],
      "stateMutability": "nonpayable",
      "type": "function"
    },
    {
      "inputs": [],
      "name": "withdraw",
      "outputs": [],
      "stateMutability": "nonpayable",
      "type": "function"
    }
  ],
  "bytecode": "0x608060405234801561001057600080fd5b506040516129a03803806129a083398101604081905261002f916100da565b6100383361006e565b6001600255600980546001600160a01b039384166001600160a01b031991821617909155600a805492909316911617905561010d565b600080546001600160a01b038381166001600160a01b0319831681178455604051919092169283917f8be0079c531659141344cd1fd0a4f28419497f9722a3daafe3b4186f6b6457e09190a35050565b80516001600160a01b03811681146100d557600080fd5b919050565b600080604083850312156100ed57600080fd5b6100f6836100be565b9150610104602084016100be565b90509250929050565b6128848061011c6000396000f3fe608060405234801561001057600080fd5b50600436106101da5760003560e01c80638ca6bee811610104578063a77963f0116100a2578063c85a58ff11610071578063c85a58ff1461042d578063e05cf1551461044e578063e57637f014610456578063f2fde38b1461047f57600080fd5b8063a77963f0146103da578063aa8d536a146103f4578063b9a68b2b14610407578063c3c983d21461041a57600080fd5b80638f93716f116100de5780638f93716f1461037f57806394c3cee914610392578063a6801258146103a5578063a6bae8b0146103d157600080fd5b80638ca6bee8146103305780638da5cb5b1461033a5780638ee394721461035f57600080fd5b806345e0e89a1161017c578063715018a61161014b578063715018a6146102bf57806377811610146102c75780637b334154146102da57806385b5ee9b1461030d57600080fd5b806345e0e89a14610271578063582256f11461027957806365ab21b0146102815780636ea7a2e9146102a157600080fd5b80631db64204116101b85780631db642041461022d578063257b4e7c146102405780633ccfd60b14610260578063442f96251461026857600080fd5b806304521ca3146101df5780630a83a7b0146101f457806318ad5c9a1461021a575b600080fd5b6101f26101ed366004611f2d565b610492565b005b610207610202366004611f74565b6104c8565b6040519081526020015b60405180910390f35b6101f2610228366004611f9e565b61055d565b6101f261023b366004611fc8565b610697565b61025361024e366004611fc8565b610700565b6040516102119190612030565b6101f261079a565b610207600c5481565b600c54610207565b61020761097a565b61029461028f366004611fc8565b6109fa565b6040516102119190612043565b6102aa6101f481565b60405163ffffffff9091168152602001610211565b6101f2610c01565b6101f26102d536600461221f565b610c13565b6102fd6102e8366004611fc8565b60016020526000908152604090205460ff1681565b6040519015158152602001610211565b6102fd61031b366004611fc8565b60076020526000908152604090205460ff1681565b6102aa6207a12081565b6000546001600160a01b03165b6040516001600160a01b039091168152602001610211565b61037261036d366004611fc8565b610d23565b604051610211919061225b565b6101f261038d366004611fc8565b611132565b6101f26103a0366004611fc8565b611161565b6102fd6103b3366004611fc8565b6001600160a01b031660009081526001602052604090205460ff1690565b610207600b5481565b6103e2600381565b60405160ff9091168152602001610211565b610253610402366004611fc8565b6111ea565b6101f26104153660046122e7565b611203565b6101f2610428366004611fc8565b611792565b61044061043b366004611f9e565b6118c4565b6040516102119291906124b5565b610207611a15565b6103476104643660046124e3565b6004602052600090815260409020546001600160a01b031681565b6101f261048d366004611fc8565b611a5f565b61049a611ad8565b600d80546001600160a01b039384166001600160a01b031991821617909155600e8054929093169116179055565b3360009081526001602052604081205460ff166105005760405162461bcd60e51b81526004016104f7906124fc565b60405180910390fd5b600d546001600160a01b031633811461052b5760405162461bcd60e51b81526004016104f790612528565b610533611b32565b600061053e85611b89565b905061054a8585611c18565b91506105566001600255565b5092915050565b3360009081526001602052604090205460ff1661058c5760405162461bcd60e51b81526004016104f7906124fc565b600e546001600160a01b03163381146105b75760405162461bcd60e51b81526004016104f790612528565b6105bf611b32565b816000036105f1576001600160a01b0383166000908152600360205260408120600601556105ec83611d9c565b610622565b6001600160a01b0383166000908152600360205260408120600601805484929061061c908490612575565b90915550505b600a54604051630c56ae4d60e11b81526001600160a01b03858116600483015260248201859052909116906318ad5c9a90604401600060405180830381600087803b15801561067057600080fd5b505af1158015610684573d6000803e3d6000fd5b505050506106926001600255565b505050565b3360009081526001602052604090205460ff166106c65760405162461bcd60e51b81526004016104f7906124fc565b600d546001600160a01b03163381146106f15760405162461bcd60e51b81526004016104f790612528565b6106fc826000611dda565b5050565b600860205260009081526040902080546107199061258e565b80601f01602080910402602001604051908101604052809291908181526020018280546107459061258e565b80156107925780601f1061076757610100808354040283529160200191610792565b820191906000526020600020905b81548152906001019060200180831161077557829003601f168201915b505050505081565b6107a2611b32565b600954604051631292f8c160e31b81526001600160a01b0390911690639497c608906107d59060019033906004016125ea565b602060405180830381865afa1580156107f2573d6000803e3d6000fd5b505050506040513d601f19601f820116820180604052508101906108169190612610565b61085b5760405162461bcd60e51b815260206004820152601660248201527513db9b1e481c9959d95b995c985d1bdc9cc81c1bdbdb60521b60448201526064016104f7565b336000908152600360205260409020600481015461087a906003111590565b6108bc5760405162461bcd60e51b81526020600482015260136024820152724d696e696d756d20696e7370656374696f6e7360681b60448201526064016104f7565b60088101546108cc816001612632565b6008830155600a5460405163f3fef3a360e01b8152336004820152602481018390526001600160a01b039091169063f3fef3a390604401600060405180830381600087803b15801561091d57600080fd5b505af1158015610931573d6000803e3d6000fd5b50506040514381528392503391507f81f7cfdaaebb3eb89eee117bbfcd1e956d1c8bfa759f5eda2ba6f63551a4db209060200160405180910390a350506109786001600255565b565b600a546000906001600160a01b031663d5ee3eb5610996611a15565b6040518263ffffffff1660e01b81526004016109b491815260200190565b602060405180830381865afa1580156109d1573d6000803e3d6000fd5b505050506040513d601f19601f820116820180604052508101906109f59190612645565b905090565b610a02611e65565b6001600160a01b0380831660009081526003602090815260409182902082516101808101845281546001600160401b0381168252600160401b9004909416918401919091526001810180549192840191610a5b9061258e565b80601f0160208091040260200160405190810160405280929190818152602001828054610a879061258e565b8015610ad45780601f10610aa957610100808354040283529160200191610ad4565b820191906000526020600020905b815481529060010190602001808311610ab757829003601f168201915b50505050508152602001600282018054610aed9061258e565b80601f0160208091040260200160405190810160405280929190818152602001828054610b199061258e565b8015610b665780601f10610b3b57610100808354040283529160200191610b66565b820191906000526020600020905b815481529060010190602001808311610b4957829003601f168201915b5050509183525050600382015463ffffffff811660208084019190915260ff640100000000909204821615156040808501919091526004850154606085015260058501546080850152805180830182526006860154815260a0850152805180820190915260078501549092161515825260088401549082015260c0820152600982015460e0820152600a909101546101009091015292915050565b610c09611ad8565b6109786000611e15565b805160961015610c565760405162461bcd60e51b815260206004820152600e60248201526d4d6178206368617261637465727360901b60448201526064016104f7565b600954604051631292f8c160e31b81526001600160a01b0390911690639497c60890610c899060019033906004016125ea565b602060405180830381865afa158015610ca6573d6000803e3d6000fd5b505050506040513d601f19601f82011682018060405250810190610cca9190612610565b610d0a5760405162461bcd60e51b81526020600482015260116024820152704f6e6c7920726567656e657261746f727360781b60448201526064016104f7565b3360009081526008602052604090206106fc82826126ac565b6001600160a01b03808216600090815260036020908152604080832081516101808101835281546001600160401b0381168252600160401b900490951692850192909252600182018054606095939284019190610d7f9061258e565b80601f0160208091040260200160405190810160405280929190818152602001828054610dab9061258e565b8015610df85780601f10610dcd57610100808354040283529160200191610df8565b820191906000526020600020905b815481529060010190602001808311610ddb57829003601f168201915b50505050508152602001600282018054610e119061258e565b80601f0160208091040260200160405190810160405280929190818152602001828054610e3d9061258e565b8015610e8a5780601f10610e5f57610100808354040283529160200191610e8a565b820191906000526020600020905b815481529060010190602001808311610e6d57829003601f168201915b5050509183525050600382015463ffffffff811660208084019190915260ff640100000000909204821615156040808501919091526004850154606085015260058501546080850152805180830182526006860154815260a0850152805180820190915260078501549092161515825260088401549082015260c0820152600982015460e0820152600a90910154610100909101526101608101519091506000906001600160401b03811115610f4257610f42612142565b604051908082528060200260200182016040528015610f8757816020015b6040805180820190915260608082526020820152815260200190600190039081610f605790505b5061016083015190915060005b81811015611128576001600160a01b0386166000908152600560205260409020805482908110610fc657610fc661276a565b9060005260206000209060020201604051806040016040529081600082018054610fef9061258e565b80601f016020809104026020016040519081016040528092919081815260200182805461101b9061258e565b80156110685780601f1061103d57610100808354040283529160200191611068565b820191906000526020600020905b81548152906001019060200180831161104b57829003601f168201915b505050505081526020016001820180546110819061258e565b80601f01602080910402602001604051908101604052809291908181526020018280546110ad9061258e565b80156110fa5780601f106110cf576101008083540402835291602001916110fa565b820191906000526020600020905b8154815290600101906020018083116110dd57829003601f168201915b5050505050815250508382815181106111155761111561276a565b6020908102919091010152600101610f94565b5090949350505050565b61113a611ad8565b6001600160a01b03166000908152600160208190526040909120805460ff19169091179055565b3360009081526001602052604090205460ff166111905760405162461bcd60e51b81526004016104f7906124fc565b600d546001600160a01b03163381146111bb5760405162461bcd60e51b81526004016104f790612528565b6111c6826001611dda565b6106fc82436001600160a01b03909116600090815260036020526040902060050155565b600660205260009081526040902080546107199061258e565b835160321080159061121757508251609610155b80156112255750815160c810155b61126a5760405162461bcd60e51b815260206004820152601660248201527513585e0818da185c9858dd195c9cc81c995858da195960521b60448201526064016104f7565b805160031180159061127e57508051600a10155b6112dd5760405162461bcd60e51b815260206004820152602a60248201527f4d696e696d756d203320616e64206d6178696d756d20313020636f6f7264696e60448201526961746520706f696e747360b01b60648201526084016104f7565b6101f463ffffffff8616108015906112fe57506207a12063ffffffff861611155b6113605760405162461bcd60e51b815260206004820152602d60248201527f4d696e696d756d2035303020616e64206d6178696d756d203530302e3030302060448201526c737175617265206d657465727360981b60648201526084016104f7565b60095460405162f5960960e51b81526000916001600160a01b031690631eb2c1209061139190600190600401612780565b602060405180830381865afa1580156113ae573d6000803e3d6000fd5b505050506040513d601f19601f820116820180604052508101906113d2919061278e565b6113dd9060016127b7565b9050604051806101800160405280826001600160401b03168152602001336001600160a01b031681526020018681526020018581526020018763ffffffff16815260200160001515815260200160008152602001600081526020016040518060200160405280600081525081526020016040518060400160405280600015158152602001600a60009054906101000a90046001600160a01b03166001600160a01b031663ed0df79e6040518163ffffffff1660e01b8152600401602060405180830381865afa1580156114b4573d6000803e3d6000fd5b505050506040513d601f19601f820116820180604052508101906114d89190612645565b905281524360208083019190915284516040928301523360009081526003825282902083518154928501516001600160a01b0316600160401b026001600160e01b03199093166001600160401b039091161791909117815590820151600182019061154390826126ac565b506060820151600282019061155890826126ac565b50608082015160038201805460a085015115156401000000000264ffffffffff1990911663ffffffff9093169290921791909117905560c082015160048083019190915560e0830151600583015561010083015151600680840191909155610120840151805160078501805491151560ff199092169190911790556020908101516008850155610140850151600985015561016090940151600a909301929092556001600160401b0384166000908152908352604080822080546001600160a01b03191633908117909155825291909252902061163584826126ac565b50600954604051639c3eead960e01b81526001600160a01b0390911690639c3eead9906116699033906001906004016127d6565b600060405180830381600087803b15801561168357600080fd5b505af1158015611697573d6000803e3d6000fd5b505050508563ffffffff16600c60008282546116b39190612632565b90915550600090505b825181101561173a5733600090815260056020526040902083518490839081106116e8576116e861276a565b6020908102919091018101518254600181018455600093845291909220825160029092020190819061171a90826126ac565b506020820151600182019061172f90826126ac565b5050506001016116bc565b50336001600160a01b0316816001600160401b03167fe7929ab3a316468d25671f32aa731ca41460f5459029b8ed818d4d32152c7f00878943604051611782939291906127f3565b60405180910390a3505050505050565b3360009081526001602052604090205460ff166117c15760405162461bcd60e51b81526004016104f7906124fc565b600e546001600160a01b03163381146117ec5760405162461bcd60e51b81526004016104f790612528565b6001600160a01b038216600090815260036020526040902060040154806118555760405162461bcd60e51b815260206004820152601860248201527f746f74616c496e7370656374696f6e7320696e76616c6964000000000000000060448201526064016104f7565b8060010361189357600b805490600061186d8361281e565b90915550506001600160a01b0383166000908152600760205260409020805460ff191690555b6001600160a01b03831660009081526003602052604081206004018054916118ba8361281e565b9190505550505050565b600560205281600052604060002081815481106118e057600080fd5b9060005260206000209060020201600091509150508060000180546119049061258e565b80601f01602080910402602001604051908101604052809291908181526020018280546119309061258e565b801561197d5780601f106119525761010080835404028352916020019161197d565b820191906000526020600020905b81548152906001019060200180831161196057829003601f168201915b5050505050908060010180546119929061258e565b80601f01602080910402602001604051908101604052809291908181526020018280546119be9061258e565b8015611a0b5780601f106119e057610100808354040283529160200191611a0b565b820191906000526020600020905b8154815290600101906020018083116119ee57829003601f168201915b5050505050905082565b600a5460408051637686fbcf60e11b815290516000926001600160a01b03169163ed0df79e9160048083019260209291908290030181865afa1580156109d1573d6000803e3d6000fd5b611a67611ad8565b6001600160a01b038116611acc5760405162461bcd60e51b815260206004820152602660248201527f4f776e61626c653a206e6577206f776e657220697320746865207a65726f206160448201526564647265737360d01b60648201526084016104f7565b611ad581611e15565b50565b6000546001600160a01b031633146109785760405162461bcd60e51b815260206004820181905260248201527f4f776e61626c653a2063616c6c6572206973206e6f7420746865206f776e657260448201526064016104f7565b6002805403611b835760405162461bcd60e51b815260206004820152601f60248201527f5265656e7472616e637947756172643a207265656e7472616e742063616c6c0060448201526064016104f7565b60028055565b6001600160a01b03811660009081526003602052604081206004810180549083611bb283612835565b90915550506001600160a01b03831660009081526007602052604090205460ff16611c0e576001600160a01b0383166000908152600760205260408120805460ff19166001179055600b805491611c0883612835565b91905055505b6004015492915050565b6001600160a01b0382166000908152600360205260408120805490916001600160401b039091169003611c8d5760405162461bcd60e51b815260206004820152601a60248201527f526567656e657261746f7220646f6573206e6f7420657869737400000000000060448201526064016104f7565b8163ffffffff16816006016000016000828254611caa9190612632565b9091555050600481015460031115611cc157505050565b600781015463ffffffff83169060ff16611d30575060078101805460ff1916600117905560068101546040516001600160a01b038516907fdf477f1abb30c779b76ead783acd2084230ef08ba1570ce9dee934c0c5b93b9d90611d279043815260200190565b60405180910390a25b600a546040516352b8d3ed60e01b81526001600160a01b03868116600483015260248201849052909116906352b8d3ed90604401600060405180830381600087803b158015611d7e57600080fd5b505af1158015611d92573d6000803e3d6000fd5b5050505050505050565b6001600160a01b038116600090815260036020819052604082200154600c805463ffffffff909216929091611dd2908490612575565b909155505050565b6001600160a01b0390911660009081526003602081905260409091200180549115156401000000000264ff0000000019909216919091179055565b600080546001600160a01b038381166001600160a01b0319831681178455604051919092169283917f8be0079c531659141344cd1fd0a4f28419497f9722a3daafe3b4186f6b6457e09190a35050565b60405180610180016040528060006001600160401b0316815260200160006001600160a01b031681526020016060815260200160608152602001600063ffffffff1681526020016000151581526020016000815260200160008152602001611ed96040518060200160405280600081525090565b8152602001611efd6040518060400160405280600015158152602001600081525090565b815260200160008152602001600081525090565b80356001600160a01b0381168114611f2857600080fd5b919050565b60008060408385031215611f4057600080fd5b611f4983611f11565b9150611f5760208401611f11565b90509250929050565b803563ffffffff81168114611f2857600080fd5b60008060408385031215611f8757600080fd5b611f9083611f11565b9150611f5760208401611f60565b60008060408385031215611fb157600080fd5b611fba83611f11565b946020939093013593505050565b600060208284031215611fda57600080fd5b611fe382611f11565b9392505050565b6000815180845260005b8181101561201057602081850181015186830182015201611ff4565b506000602082860101526020601f19601f83011685010191505092915050565b602081526000611fe36020830184611fea565b6020815261205d6020820183516001600160401b03169052565b6000602083015161207960408401826001600160a01b03169052565b5060408301516101a060608401526120956101c0840182611fea565b90506060840151601f198483030160808501526120b28282611fea565b91505060808401516120cc60a085018263ffffffff169052565b5060a084015180151560c08501525060c084015160e084015260e0840151610100840152610100840151612104610120850182519052565b5061012084015180511515610140850152602081015161016085015250610140840151610180840152610160909301516101a0909201919091525090565b634e487b7160e01b600052604160045260246000fd5b604080519081016001600160401b038111828210171561217a5761217a612142565b60405290565b604051601f8201601f191681016001600160401b03811182821017156121a8576121a8612142565b604052919050565b600082601f8301126121c157600080fd5b81356001600160401b038111156121da576121da612142565b6121ed601f8201601f1916602001612180565b81815284602083860101111561220257600080fd5b816020850160208301376000918101602001919091529392505050565b60006020828403121561223157600080fd5b81356001600160401b0381111561224757600080fd5b612253848285016121b0565b949350505050565b6000602082016020835280845180835260408501915060408160051b86010192506020860160005b828110156122db57603f1987860301845281518051604087526122a96040880182611fea565b90506020820151915086810360208801526122c48183611fea565b965050506020938401939190910190600101612283565b50929695505050505050565b600080600080600060a086880312156122ff57600080fd5b61230886611f60565b945060208601356001600160401b0381111561232357600080fd5b61232f888289016121b0565b94505060408601356001600160401b0381111561234b57600080fd5b612357888289016121b0565b93505060608601356001600160401b0381111561237357600080fd5b61237f888289016121b0565b92505060808601356001600160401b0381111561239b57600080fd5b8601601f810188136123ac57600080fd5b80356001600160401b038111156123c5576123c5612142565b8060051b6123d560208201612180565b9182526020818401810192908101908b8411156123f157600080fd5b6020850192505b838310156124a35782356001600160401b0381111561241657600080fd5b85016040818e03601f1901121561242c57600080fd5b612434612158565b60208201356001600160401b0381111561244d57600080fd5b61245c8f6020838601016121b0565b82525060408201356001600160401b0381111561247857600080fd5b6124878f6020838601016121b0565b60208301525080845250506020820191506020830192506123f8565b80955050505050509295509295909350565b6040815260006124c86040830185611fea565b82810360208401526124da8185611fea565b95945050505050565b6000602082840312156124f557600080fd5b5035919050565b6020808252601290820152712737ba1030b63637bbb2b21031b0b63632b960711b604082015260600190565b6020808252601e908201527f43616c6c6572206d7573742062652073797374656d20636f6e74726163740000604082015260600190565b634e487b7160e01b600052601160045260246000fd5b818103818111156125885761258861255f565b92915050565b600181811c908216806125a257607f821691505b6020821081036125c257634e487b7160e01b600052602260045260246000fd5b50919050565b600981106125e657634e487b7160e01b600052602160045260246000fd5b9052565b604081016125f882856125c8565b6001600160a01b039290921660209190910152919050565b60006020828403121561262257600080fd5b81518015158114611fe357600080fd5b808201808211156125885761258861255f565b60006020828403121561265757600080fd5b5051919050565b601f82111561069257806000526020600020601f840160051c810160208510156126855750805b601f840160051c820191505b818110156126a55760008155600101612691565b5050505050565b81516001600160401b038111156126c5576126c5612142565b6126d9816126d3845461258e565b8461265e565b6020601f82116001811461270d57600083156126f55750848201515b600019600385901b1c1916600184901b1784556126a5565b600084815260208120601f198516915b8281101561273d578785015182556020948501946001909201910161271d565b508482101561275b5786840151600019600387901b60f8161c191681555b50505050600190811b01905550565b634e487b7160e01b600052603260045260246000fd5b6020810161258882846125c8565b6000602082840312156127a057600080fd5b81516001600160401b0381168114611fe357600080fd5b6001600160401b0381811683821601908111156125885761258861255f565b6001600160a01b038316815260408101611fe360208301846125c8565b6060815260006128066060830186611fea565b63ffffffff9490941660208301525060400152919050565b60008161282d5761282d61255f565b506000190190565b6000600182016128475761284761255f565b506001019056fea264697066735822122039d2d4dcd6419b3401a7ae4ed680eb39bc36a2aaf5813e250bd543e3951ae9c064736f6c634300081b0033",
  "linkReferences": {},
  "deployedLinkReferences": {}
}