{
  "_format": "hh-sol-artifact-1",
  "contractName": "ResearcherRules",
  "sourceName": "contracts/ResearcherRules.sol",
  "abi": [
    {
      "inputs": [
        {
          "internalType": "uint32",
          "name": "timeBetweenWorks_",
          "type": "uint32"
        },
        {
          "internalType": "uint8",
          "name": "maxPenalties_",
          "type": "uint8"
        },
        {
          "internalType": "uint32",
          "name": "securityBlocksToValidation_",
          "type": "uint32"
        }
      ],
      "stateMutability": "nonpayable",
      "type": "constructor"
    },
    {
      "inputs": [
        {
          "internalType": "address",
          "name": "owner",
          "type": "address"
        }
      ],
      "name": "OwnableInvalidOwner",
      "type": "error"
    },
    {
      "inputs": [
        {
          "internalType": "address",
          "name": "account",
          "type": "address"
        }
      ],
      "name": "OwnableUnauthorizedAccount",
      "type": "error"
    },
    {
      "inputs": [],
      "name": "ReentrancyGuardReentrantCall",
      "type": "error"
    },
    {
      "anonymous": false,
      "inputs": [
        {
          "indexed": true,
          "internalType": "address",
          "name": "previousOwner",
          "type": "address"
        },
        {
          "indexed": true,
          "internalType": "address",
          "name": "newOwner",
          "type": "address"
        }
      ],
      "name": "OwnershipTransferred",
      "type": "event"
    },
    {
      "anonymous": false,
      "inputs": [
        {
          "indexed": true,
          "internalType": "uint256",
          "name": "researchId",
          "type": "uint256"
        },
        {
          "indexed": true,
          "internalType": "address",
          "name": "invalidatedBy",
          "type": "address"
        },
        {
          "indexed": false,
          "internalType": "string",
          "name": "justification",
          "type": "string"
        }
      ],
      "name": "ResearchInvalidated",
      "type": "event"
    },
    {
      "anonymous": false,
      "inputs": [
        {
          "indexed": true,
          "internalType": "uint256",
          "name": "researchId",
          "type": "uint256"
        },
        {
          "indexed": true,
          "internalType": "address",
          "name": "researcher",
          "type": "address"
        },
        {
          "indexed": false,
          "internalType": "uint256",
          "name": "publishedAt",
          "type": "uint256"
        }
      ],
      "name": "ResearchPublished",
      "type": "event"
    },
    {
      "anonymous": false,
      "inputs": [
        {
          "indexed": true,
          "internalType": "address",
          "name": "_validatorAddress",
          "type": "address"
        },
        {
          "indexed": false,
          "internalType": "uint256",
          "name": "_resourceId",
          "type": "uint256"
        },
        {
          "indexed": false,
          "internalType": "string",
          "name": "_justification",
          "type": "string"
        }
      ],
      "name": "ResearchValidation",
      "type": "event"
    },
    {
      "anonymous": false,
      "inputs": [
        {
          "indexed": true,
          "internalType": "address",
          "name": "researcherAddress",
          "type": "address"
        },
        {
          "indexed": false,
          "internalType": "uint256",
          "name": "researcherId",
          "type": "uint256"
        },
        {
          "indexed": false,
          "internalType": "string",
          "name": "name",
          "type": "string"
        }
      ],
      "name": "ResearcherRegistered",
      "type": "event"
    },
    {
      "inputs": [],
      "name": "INITIAL_USER_COUNT_THRESHOLD",
      "outputs": [
        {
          "internalType": "uint256",
          "name": "",
          "type": "uint256"
        }
      ],
      "stateMutability": "view",
      "type": "function"
    },
    {
      "inputs": [],
      "name": "MAX_USER_COUNT",
      "outputs": [
        {
          "internalType": "uint16",
          "name": "",
          "type": "uint16"
        }
      ],
      "stateMutability": "view",
      "type": "function"
    },
    {
      "inputs": [
        {
          "internalType": "string",
          "name": "item",
          "type": "string"
        },
        {
          "internalType": "string",
          "name": "thesis",
          "type": "string"
        },
        {
          "internalType": "string",
          "name": "unit",
          "type": "string"
        },
        {
          "internalType": "uint256",
          "name": "carbonImpact",
          "type": "uint256"
        }
      ],
      "name": "addCalculatorItem",
      "outputs": [],
      "stateMutability": "nonpayable",
      "type": "function"
    },
    {
      "inputs": [
        {
          "internalType": "string",
          "name": "title",
          "type": "string"
        },
        {
          "internalType": "string",
          "name": "research",
          "type": "string"
        },
        {
          "internalType": "string",
          "name": "projectURL",
          "type": "string"
        }
      ],
      "name": "addEvaluationMethod",
      "outputs": [],
      "stateMutability": "nonpayable",
      "type": "function"
    },
    {
      "inputs": [
        {
          "internalType": "string",
          "name": "title",
          "type": "string"
        },
        {
          "internalType": "string",
          "name": "thesis",
          "type": "string"
        },
        {
          "internalType": "string",
          "name": "file",
          "type": "string"
        }
      ],
      "name": "addResearch",
      "outputs": [],
      "stateMutability": "nonpayable",
      "type": "function"
    },
    {
      "inputs": [
        {
          "internalType": "uint64",
          "name": "id",
          "type": "uint64"
        },
        {
          "internalType": "string",
          "name": "justification",
          "type": "string"
        }
      ],
      "name": "addResearchValidation",
      "outputs": [],
      "stateMutability": "nonpayable",
      "type": "function"
    },
    {
      "inputs": [
        {
          "internalType": "string",
          "name": "name",
          "type": "string"
        },
        {
          "internalType": "string",
          "name": "proofPhoto",
          "type": "string"
        }
      ],
      "name": "addResearcher",
      "outputs": [],
      "stateMutability": "nonpayable",
      "type": "function"
    },
    {
      "inputs": [
        {
          "internalType": "address",
          "name": "",
          "type": "address"
        }
      ],
      "name": "allowedCallers",
      "outputs": [
        {
          "internalType": "bool",
          "name": "",
          "type": "bool"
        }
      ],
      "stateMutability": "view",
      "type": "function"
    },
    {
      "inputs": [
        {
          "internalType": "uint64",
          "name": "",
          "type": "uint64"
        }
      ],
      "name": "calculatorItems",
      "outputs": [
        {
          "internalType": "uint64",
          "name": "id",
          "type": "uint64"
        },
        {
          "internalType": "address",
          "name": "createdBy",
          "type": "address"
        },
        {
          "internalType": "string",
          "name": "item",
          "type": "string"
        },
        {
          "internalType": "string",
          "name": "thesis",
          "type": "string"
        },
        {
          "internalType": "string",
          "name": "unit",
          "type": "string"
        },
        {
          "internalType": "uint256",
          "name": "carbonImpact",
          "type": "uint256"
        },
        {
          "internalType": "uint256",
          "name": "createdAtBlock",
          "type": "uint256"
        }
      ],
      "stateMutability": "view",
      "type": "function"
    },
    {
      "inputs": [],
      "name": "calculatorItemsCount",
      "outputs": [
        {
          "internalType": "uint64",
          "name": "",
          "type": "uint64"
        }
      ],
      "stateMutability": "view",
      "type": "function"
    },
    {
      "inputs": [
        {
          "internalType": "uint256",
          "name": "totalLevels",
          "type": "uint256"
        },
        {
          "internalType": "uint256",
          "name": "totalUsers",
          "type": "uint256"
        },
        {
          "internalType": "uint256",
          "name": "userLevels",
          "type": "uint256"
        }
      ],
      "name": "canInvite",
      "outputs": [
        {
          "internalType": "bool",
          "name": "",
          "type": "bool"
        }
      ],
      "stateMutability": "pure",
      "type": "function"
    },
    {
      "inputs": [
        {
          "internalType": "address",
          "name": "addr",
          "type": "address"
        }
      ],
      "name": "canPublishCalculatorItem",
      "outputs": [
        {
          "internalType": "bool",
          "name": "",
          "type": "bool"
        }
      ],
      "stateMutability": "view",
      "type": "function"
    },
    {
      "inputs": [
        {
          "internalType": "address",
          "name": "addr",
          "type": "address"
        }
      ],
      "name": "canPublishResearch",
      "outputs": [
        {
          "internalType": "bool",
          "name": "",
          "type": "bool"
        }
      ],
      "stateMutability": "view",
      "type": "function"
    },
    {
      "inputs": [
        {
          "internalType": "address",
          "name": "addr",
          "type": "address"
        }
      ],
      "name": "canSendInvite",
      "outputs": [
        {
          "internalType": "bool",
          "name": "",
          "type": "bool"
        }
      ],
      "stateMutability": "view",
      "type": "function"
    },
    {
      "inputs": [],
      "name": "communityRules",
      "outputs": [
        {
          "internalType": "contract ICommunityRules",
          "name": "",
          "type": "address"
        }
      ],
      "stateMutability": "view",
      "type": "function"
    },
    {
      "inputs": [
        {
          "internalType": "uint256",
          "name": "",
          "type": "uint256"
        }
      ],
      "name": "evaluationMethods",
      "outputs": [
        {
          "internalType": "uint64",
          "name": "id",
          "type": "uint64"
        },
        {
          "internalType": "address",
          "name": "createdBy",
          "type": "address"
        },
        {
          "internalType": "string",
          "name": "title",
          "type": "string"
        },
        {
          "internalType": "string",
          "name": "research",
          "type": "string"
        },
        {
          "internalType": "string",
          "name": "projectURL",
          "type": "string"
        },
        {
          "internalType": "uint256",
          "name": "createdAtBlock",
          "type": "uint256"
        }
      ],
      "stateMutability": "view",
      "type": "function"
    },
    {
      "inputs": [],
      "name": "evaluationMethodsCount",
      "outputs": [
        {
          "internalType": "uint64",
          "name": "",
          "type": "uint64"
        }
      ],
      "stateMutability": "view",
      "type": "function"
    },
    {
      "inputs": [
        {
          "internalType": "uint64",
          "name": "id",
          "type": "uint64"
        }
      ],
      "name": "getCalculatorItem",
      "outputs": [
        {
          "components": [
            {
              "internalType": "uint64",
              "name": "id",
              "type": "uint64"
            },
            {
              "internalType": "address",
              "name": "createdBy",
              "type": "address"
            },
            {
              "internalType": "string",
              "name": "item",
              "type": "string"
            },
            {
              "internalType": "string",
              "name": "thesis",
              "type": "string"
            },
            {
              "internalType": "string",
              "name": "unit",
              "type": "string"
            },
            {
              "internalType": "uint256",
              "name": "carbonImpact",
              "type": "uint256"
            },
            {
              "internalType": "uint256",
              "name": "createdAtBlock",
              "type": "uint256"
            }
          ],
          "internalType": "struct CalculatorItem",
          "name": "",
          "type": "tuple"
        }
      ],
      "stateMutability": "view",
      "type": "function"
    },
    {
      "inputs": [
        {
          "internalType": "uint64",
          "name": "id",
          "type": "uint64"
        }
      ],
      "name": "getResearch",
      "outputs": [
        {
          "components": [
            {
              "internalType": "uint64",
              "name": "id",
              "type": "uint64"
            },
            {
              "internalType": "uint256",
              "name": "era",
              "type": "uint256"
            },
            {
              "internalType": "address",
              "name": "createdBy",
              "type": "address"
            },
            {
              "internalType": "string",
              "name": "title",
              "type": "string"
            },
            {
              "internalType": "string",
              "name": "thesis",
              "type": "string"
            },
            {
              "internalType": "string",
              "name": "file",
              "type": "string"
            },
            {
              "internalType": "uint256",
              "name": "validationsCount",
              "type": "uint256"
            },
            {
              "internalType": "bool",
              "name": "valid",
              "type": "bool"
            },
            {
              "internalType": "uint256",
              "name": "invalidatedAt",
              "type": "uint256"
            },
            {
              "internalType": "uint256",
              "name": "createdAtBlock",
              "type": "uint256"
            }
          ],
          "internalType": "struct Research",
          "name": "",
          "type": "tuple"
        }
      ],
      "stateMutability": "view",
      "type": "function"
    },
    {
      "inputs": [
        {
          "internalType": "address",
          "name": "addr",
          "type": "address"
        }
      ],
      "name": "getResearcher",
      "outputs": [
        {
          "components": [
            {
              "internalType": "uint64",
              "name": "id",
              "type": "uint64"
            },
            {
              "internalType": "address",
              "name": "researcherWallet",
              "type": "address"
            },
            {
              "internalType": "string",
              "name": "name",
              "type": "string"
            },
            {
              "components": [
                {
                  "internalType": "uint256",
                  "name": "level",
                  "type": "uint256"
                },
                {
                  "internalType": "uint256",
                  "name": "currentEra",
                  "type": "uint256"
                }
              ],
              "internalType": "struct Pool",
              "name": "pool",
              "type": "tuple"
            },
            {
              "internalType": "string",
              "name": "proofPhoto",
              "type": "string"
            },
            {
              "internalType": "uint256",
              "name": "publishedResearches",
              "type": "uint256"
            },
            {
              "internalType": "uint256",
              "name": "lastPublishedAt",
              "type": "uint256"
            },
            {
              "internalType": "uint256",
              "name": "publishedItems",
              "type": "uint256"
            },
            {
              "internalType": "uint256",
              "name": "lastCalculatorItemAt",
              "type": "uint256"
            },
            {
              "internalType": "uint256",
              "name": "createdAt",
              "type": "uint256"
            },
            {
              "internalType": "bool",
              "name": "canPublishMethod",
              "type": "bool"
            }
          ],
          "internalType": "struct Researcher",
          "name": "",
          "type": "tuple"
        }
      ],
      "stateMutability": "view",
      "type": "function"
    },
    {
      "inputs": [
        {
          "internalType": "address",
          "name": "caller",
          "type": "address"
        }
      ],
      "name": "isAllowedCaller",
      "outputs": [
        {
          "internalType": "bool",
          "name": "",
          "type": "bool"
        }
      ],
      "stateMutability": "view",
      "type": "function"
    },
    {
      "inputs": [],
      "name": "maxPenalties",
      "outputs": [
        {
          "internalType": "uint8",
          "name": "",
          "type": "uint8"
        }
      ],
      "stateMutability": "view",
      "type": "function"
    },
    {
      "inputs": [
        {
          "internalType": "address",
          "name": "allowed",
          "type": "address"
        }
      ],
      "name": "newAllowedCaller",
      "outputs": [],
      "stateMutability": "nonpayable",
      "type": "function"
    },
    {
      "inputs": [],
      "name": "nextEraIn",
      "outputs": [
        {
          "internalType": "uint256",
          "name": "",
          "type": "uint256"
        }
      ],
      "stateMutability": "view",
      "type": "function"
    },
    {
      "inputs": [],
      "name": "owner",
      "outputs": [
        {
          "internalType": "address",
          "name": "",
          "type": "address"
        }
      ],
      "stateMutability": "view",
      "type": "function"
    },
    {
      "inputs": [
        {
          "internalType": "address",
          "name": "",
          "type": "address"
        },
        {
          "internalType": "uint256",
          "name": "",
          "type": "uint256"
        }
      ],
      "name": "penalties",
      "outputs": [
        {
          "internalType": "uint256",
          "name": "researchId",
          "type": "uint256"
        }
      ],
      "stateMutability": "view",
      "type": "function"
    },
    {
      "inputs": [],
      "name": "poolCurrentEra",
      "outputs": [
        {
          "internalType": "uint256",
          "name": "",
          "type": "uint256"
        }
      ],
      "stateMutability": "view",
      "type": "function"
    },
    {
      "inputs": [
        {
          "internalType": "address",
          "name": "addr",
          "type": "address"
        }
      ],
      "name": "removePoolLevels",
      "outputs": [],
      "stateMutability": "nonpayable",
      "type": "function"
    },
    {
      "inputs": [],
      "name": "renounceOwnership",
      "outputs": [],
      "stateMutability": "nonpayable",
      "type": "function"
    },
    {
      "inputs": [
        {
          "internalType": "uint64",
          "name": "",
          "type": "uint64"
        }
      ],
      "name": "researchPenalized",
      "outputs": [
        {
          "internalType": "bool",
          "name": "",
          "type": "bool"
        }
      ],
      "stateMutability": "view",
      "type": "function"
    },
    {
      "inputs": [],
      "name": "researcherPool",
      "outputs": [
        {
          "internalType": "contract IResearcherPool",
          "name": "",
          "type": "address"
        }
      ],
      "stateMutability": "view",
      "type": "function"
    },
    {
      "inputs": [
        {
          "internalType": "uint256",
          "name": "",
          "type": "uint256"
        }
      ],
      "name": "researchersAddress",
      "outputs": [
        {
          "internalType": "address",
          "name": "",
          "type": "address"
        }
      ],
      "stateMutability": "view",
      "type": "function"
    },
    {
      "inputs": [
        {
          "internalType": "uint256",
          "name": "",
          "type": "uint256"
        }
      ],
      "name": "researches",
      "outputs": [
        {
          "internalType": "uint64",
          "name": "id",
          "type": "uint64"
        },
        {
          "internalType": "uint256",
          "name": "era",
          "type": "uint256"
        },
        {
          "internalType": "address",
          "name": "createdBy",
          "type": "address"
        },
        {
          "internalType": "string",
          "name": "title",
          "type": "string"
        },
        {
          "internalType": "string",
          "name": "thesis",
          "type": "string"
        },
        {
          "internalType": "string",
          "name": "file",
          "type": "string"
        },
        {
          "internalType": "uint256",
          "name": "validationsCount",
          "type": "uint256"
        },
        {
          "internalType": "bool",
          "name": "valid",
          "type": "bool"
        },
        {
          "internalType": "uint256",
          "name": "invalidatedAt",
          "type": "uint256"
        },
        {
          "internalType": "uint256",
          "name": "createdAtBlock",
          "type": "uint256"
        }
      ],
      "stateMutability": "view",
      "type": "function"
    },
    {
      "inputs": [],
      "name": "researchesCount",
      "outputs": [
        {
          "internalType": "uint64",
          "name": "",
          "type": "uint64"
        }
      ],
      "stateMutability": "view",
      "type": "function"
    },
    {
      "inputs": [
        {
          "internalType": "address",
          "name": "",
          "type": "address"
        },
        {
          "internalType": "uint256",
          "name": "",
          "type": "uint256"
        }
      ],
      "name": "researchesIds",
      "outputs": [
        {
          "internalType": "uint256",
          "name": "",
          "type": "uint256"
        }
      ],
      "stateMutability": "view",
      "type": "function"
    },
    {
      "inputs": [],
      "name": "researchesTotalCount",
      "outputs": [
        {
          "internalType": "uint64",
          "name": "",
          "type": "uint64"
        }
      ],
      "stateMutability": "view",
      "type": "function"
    },
    {
      "inputs": [],
      "name": "securityBlocksToValidation",
      "outputs": [
        {
          "internalType": "uint32",
          "name": "",
          "type": "uint32"
        }
      ],
      "stateMutability": "view",
      "type": "function"
    },
    {
      "inputs": [
        {
          "internalType": "address",
          "name": "_validationRulesAddress",
          "type": "address"
        }
      ],
      "name": "setContractCall",
      "outputs": [],
      "stateMutability": "nonpayable",
      "type": "function"
    },
    {
      "inputs": [
        {
          "components": [
            {
              "internalType": "address",
              "name": "communityRulesAddress",
              "type": "address"
            },
            {
              "internalType": "address",
              "name": "researcherPoolAddress",
              "type": "address"
            },
            {
              "internalType": "address",
              "name": "validationRulesAddress",
              "type": "address"
            },
            {
              "internalType": "address",
              "name": "voteRulesAddress",
              "type": "address"
            }
          ],
          "internalType": "struct ContractsDependency",
          "name": "contractDependency",
          "type": "tuple"
        }
      ],
      "name": "setContractInterfaces",
      "outputs": [],
      "stateMutability": "nonpayable",
      "type": "function"
    },
    {
      "inputs": [],
      "name": "timeBetweenWorks",
      "outputs": [
        {
          "internalType": "uint32",
          "name": "",
          "type": "uint32"
        }
      ],
      "stateMutability": "view",
      "type": "function"
    },
    {
      "inputs": [],
      "name": "totalActiveLevels",
      "outputs": [
        {
          "internalType": "uint256",
          "name": "",
          "type": "uint256"
        }
      ],
      "stateMutability": "view",
      "type": "function"
    },
    {
      "inputs": [
        {
          "internalType": "address",
          "name": "addr",
          "type": "address"
        }
      ],
      "name": "totalPenalties",
      "outputs": [
        {
          "internalType": "uint256",
          "name": "",
          "type": "uint256"
        }
      ],
      "stateMutability": "view",
      "type": "function"
    },
    {
      "inputs": [
        {
          "internalType": "address",
          "name": "newOwner",
          "type": "address"
        }
      ],
      "name": "transferOwnership",
      "outputs": [],
      "stateMutability": "nonpayable",
      "type": "function"
    },
    {
      "inputs": [],
      "name": "validationRules",
      "outputs": [
        {
          "internalType": "contract IValidationRules",
          "name": "",
          "type": "address"
        }
      ],
      "stateMutability": "view",
      "type": "function"
    },
    {
      "inputs": [],
      "name": "voteRules",
      "outputs": [
        {
          "internalType": "contract IVoteRules",
          "name": "",
          "type": "address"
        }
      ],
      "stateMutability": "view",
      "type": "function"
    },
    {
      "inputs": [],
      "name": "withdraw",
      "outputs": [],
      "stateMutability": "nonpayable",
      "type": "function"
    }
  ],
  "bytecode": "0x60e060405234801561001057600080fd5b506040516144b43803806144b483398101604081905261002f916100e9565b338061005557604051631e4fbdf760e01b81526000600482015260240160405180910390fd5b61005e81610080565b50600160025563ffffffff92831660a05260ff9091166080521660c052610134565b600080546001600160a01b038381166001600160a01b0319831681178455604051919092169283917f8be0079c531659141344cd1fd0a4f28419497f9722a3daafe3b4186f6b6457e09190a35050565b805163ffffffff811681146100e457600080fd5b919050565b6000806000606084860312156100fe57600080fd5b610107846100d0565b9250602084015160ff8116811461011d57600080fd5b915061012b604085016100d0565b90509250925092565b60805160a05160c05161433c610178600039600081816103a00152612c5d0152600081816104a101526131dd0152600081816105f2015261122b015261433c6000f3fe608060405234801561001057600080fd5b506004361061028a5760003560e01c8063760072521161015c578063b932c8b7116100ce578063e0d56bde11610087578063e0d56bde146106bd578063e7eba4c2146106d0578063e8a6a922146106f0578063eb58709214610703578063f2fde38b14610726578063f92f0f8e1461073957600080fd5b8063b932c8b714610639578063be18bc8014610662578063be9dc58414610687578063c77c1ce61461068f578063ce59654a146106a2578063e05cf155146106b557600080fd5b80638f93716f116101205780638f93716f1461059257806394a7444e146105a55780639eaf666f146105ae578063a6801258146105c1578063b24eb769146105ed578063b702523b1461062657600080fd5b8063760072521461050d5780637b334154146105385780637c647a621461055b5780637f4b05151461056e5780638da5cb5b1461058157600080fd5b80634714b572116102005780636750d523116101b95780636750d523146104895780636b6c7c2d1461049c5780636ec7053a146104c3578063715018a6146104df57806372e2e6cc146104e7578063755d4f97146104fa57600080fd5b80634714b572146103f257806352d3ea9d14610418578063582256f1146104325780635a52293a1461043a5780635f7d07041461044d5780635fa71c281461047657600080fd5b806320d817131161025257806320d81713146103535780633270f4ad1461036857806332980c9b1461037b57806335c116771461039b5780633ccfd60b146103d7578063406458f2146103df57600080fd5b80630884a6721461028f5780630eaf485c146102b757806311868d0b146102e25780631f701ee0146103025780632076267b1461031c575b600080fd5b6102a261029d366004613754565b61074c565b60405190151581526020015b60405180910390f35b6005546102ca906001600160401b031681565b6040516001600160401b0390911681526020016102ae565b6102f56102f0366004613786565b610777565b6040516102ae91906137e9565b6005546102ca90600160401b90046001600160401b031681565b61034561032a366004613754565b6001600160a01b03166000908152600b602052604090205490565b6040519081526020016102ae565b610366610361366004613952565b6109e2565b005b6103666103763660046139a1565b611367565b61038e610389366004613786565b61162b565b6040516102ae9190613a3a565b6103c27f000000000000000000000000000000000000000000000000000000000000000081565b60405163ffffffff90911681526020016102ae565b6103666118d2565b6003546102ca906001600160401b031681565b610405610400366004613786565b611ad3565b6040516102ae9796959493929190613b15565b6003546102ca90600160401b90046001600160401b031681565b610345611cbc565b610345610448366004613b85565b611d3c565b61046061045b366004613bb1565b611d6d565b6040516102ae9a99989796959493929190613bca565b610345610484366004613b85565b611f6d565b6102a2610497366004613754565b611f9c565b6103c27f000000000000000000000000000000000000000000000000000000000000000081565b6104cc613e8081565b60405161ffff90911681526020016102ae565b610366611fc1565b6103666104f5366004613c54565b611fd3565b610366610508366004613754565b612248565b601054610520906001600160a01b031681565b6040516001600160a01b0390911681526020016102ae565b6102a2610546366004613754565b60016020526000908152604090205460ff1681565b610366610569366004613ce5565b612272565b600f54610520906001600160a01b031681565b6000546001600160a01b0316610520565b6103666105a0366004613754565b6122d7565b61034560045481565b6102a26105bc366004613d4e565b612306565b6102a26105cf366004613754565b6001600160a01b031660009081526001602052604090205460ff1690565b6106147f000000000000000000000000000000000000000000000000000000000000000081565b60405160ff90911681526020016102ae565b610366610634366004613d7a565b61233e565b610520610647366004613bb1565b600d602052600090815260409020546001600160a01b031681565b610675610670366004613bb1565b6126c8565b6040516102ae96959493929190613dcb565b610345600581565b6102a261069d366004613754565b6128ab565b600e54610520906001600160a01b031681565b610345612955565b601154610520906001600160a01b031681565b6106e36106de366004613754565b61299f565b6040516102ae9190613e38565b6103666106fe366004613c54565b612b84565b6102a2610711366004613786565b600c6020526000908152604090205460ff1681565b610366610734366004613754565b613035565b610366610747366004613754565b613073565b6001600160a01b038116600090815260066020819052604082200154610771906131c1565b92915050565b6107c96040518060e0016040528060006001600160401b0316815260200160006001600160a01b0316815260200160608152602001606081526020016060815260200160008152602001600081525090565b6001600160401b03828116600090815260096020908152604091829020825160e08101845281549485168152600160401b9094046001600160a01b031691840191909152600181018054919284019161082190613f17565b80601f016020809104026020016040519081016040528092919081815260200182805461084d90613f17565b801561089a5780601f1061086f5761010080835404028352916020019161089a565b820191906000526020600020905b81548152906001019060200180831161087d57829003601f168201915b505050505081526020016002820180546108b390613f17565b80601f01602080910402602001604051908101604052809291908181526020018280546108df90613f17565b801561092c5780601f106109015761010080835404028352916020019161092c565b820191906000526020600020905b81548152906001019060200180831161090f57829003601f168201915b5050505050815260200160038201805461094590613f17565b80601f016020809104026020016040519081016040528092919081815260200182805461097190613f17565b80156109be5780601f10610993576101008083540402835291602001916109be565b820191906000526020600020905b8154815290600101906020018083116109a157829003601f168201915b50505050508152602001600482015481526020016005820154815250509050919050565b6109ea61320b565b600e5460405163e838dfbb60e01b81523360048201526001600160a01b039091169063e838dfbb90602401602060405180830381865afa158015610a32573d6000803e3d6000fd5b505050506040513d601f19601f82011682018060405250810190610a569190613f51565b15610a965760405162461bcd60e51b815260206004820152600b60248201526a155cd95c8819195b9a595960aa1b60448201526064015b60405180910390fd5b805161012c1015610ab95760405162461bcd60e51b8152600401610a8d90613f73565b6011546040516356fd539760e11b81523360048201526001600160a01b039091169063adfaa72e90602401602060405180830381865afa158015610b01573d6000803e3d6000fd5b505050506040513d601f19601f82011682018060405250810190610b259190613f51565b610b5f5760405162461bcd60e51b815260206004820152600b60248201526a2737ba1030903b37ba32b960a91b6044820152606401610a8d565b601054604051630d84466b60e21b81523360048201526001600160a01b039091169063361119ac90602401602060405180830381865afa158015610ba7573d6000803e3d6000fd5b505050506040513d601f19601f82011682018060405250810190610bcb9190613f51565b610c0f5760405162461bcd60e51b8152602060048201526015602482015274576169742074696d654265747765656e566f74657360581b6044820152606401610a8d565b6001600160401b038216600090815260136020908152604080832033845290915290205460ff1615610c735760405162461bcd60e51b815260206004820152600d60248201526c105b1c9958591e481d9bdd1959609a1b6044820152606401610a8d565b6001600160401b0382166000908152600c602052604090205460ff1615610cdc5760405162461bcd60e51b815260206004820152601960248201527f50656e616c7469657320616c7265616479206170706c696564000000000000006044820152606401610a8d565b6001600160401b0380831660008181526013602090815260408083203384528252808320805460ff191660019081179091559383526007825280832081516101408101835281549096168652938401549185019190915260028301546001600160a01b03169084015260038201805491939291606084019190610d5e90613f17565b80601f0160208091040260200160405190810160405280929190818152602001828054610d8a90613f17565b8015610dd75780601f10610dac57610100808354040283529160200191610dd7565b820191906000526020600020905b815481529060010190602001808311610dba57829003601f168201915b50505050508152602001600482018054610df090613f17565b80601f0160208091040260200160405190810160405280929190818152602001828054610e1c90613f17565b8015610e695780601f10610e3e57610100808354040283529160200191610e69565b820191906000526020600020905b815481529060010190602001808311610e4c57829003601f168201915b50505050508152602001600582018054610e8290613f17565b80601f0160208091040260200160405190810160405280929190818152602001828054610eae90613f17565b8015610efb5780601f10610ed057610100808354040283529160200191610efb565b820191906000526020600020905b815481529060010190602001808311610ede57829003601f168201915b505050918352505060068201546020820152600782015460ff16151560408201526008820154606082015260099091015460809091015260e08101519091508015610f5057508060200151610f4e612955565b145b610f915760405162461bcd60e51b815260206004820152601260248201527114995cd9585c98da081b9bdd08159053125160721b6044820152606401610a8d565b60018160c001818151610fa49190613fb1565b9052506001600160401b038381166000908152600760209081526040918290208451815467ffffffffffffffff1916941693909317835583015160018301558201516002820180546001600160a01b0319166001600160a01b039092169190911790556060820151829190600382019061101e908261400b565b5060808201516004820190611033908261400b565b5060a08201516005820190611048908261400b565b5060c0820151600682015560e082015160078201805460ff1916911515919091179055610100820151600882015561012090910151600990910155601054604080516369bf81c360e01b815290516000926001600160a01b0316916369bf81c39160048083019260209291908290030181865afa1580156110cd573d6000803e3d6000fd5b505050506040513d601f19601f820116820180604052508101906110f191906140c9565b9050600181116111565760405162461bcd60e51b815260206004820152602a60248201527f56616c69646174696f6e207468726573686f6c642063616e6e6f74206265206c60448201526932b9b9903a3430b7101960b11b6064820152608401610a8d565b808260c0015110611260576001600160401b0384166000908152600c60205260409020805460ff1916600117905561118d82613233565b336001600160a01b0316846001600160401b03167fec82afd035df5f6da576aafb10163adedd64aa9955e7843369f1151fe7bcc627856040516111d091906140e2565b60405180910390a36040828101516001600160a01b03166000818152600b602081815284832085518083019096526001600160401b038a168652805460018101825581855282852096519601959095559290915290525460ff7f000000000000000000000000000000000000000000000000000000000000000016811061125e5761125e836040015161340c565b505b60105460405163eb48556b60e01b81523360048201526001600160a01b039091169063eb48556b90602401600060405180830381600087803b1580156112a557600080fd5b505af11580156112b9573d6000803e3d6000fd5b50506010546040516324cc251760e21b81523360048201526001600160a01b039091169250639330945c9150602401600060405180830381600087803b15801561130257600080fd5b505af1158015611316573d6000803e3d6000fd5b505083516040513393507fa60b3cba17d47d019e43ed78d18b7dbcdb3356746136e92739e184014baed95b925061134f919087906140f5565b60405180910390a250506113636001600255565b5050565b835160231080159061137c5750825161012c10155b801561138a57508151601410155b6113a65760405162461bcd60e51b8152600401610a8d90613f73565b600e54604051631292f8c160e31b81526001600160a01b0390911690639497c608906113d9906003903390600401614141565b602060405180830381865afa1580156113f6573d6000803e3d6000fd5b505050506040513d601f19601f8201168201806040525081019061141a9190613f51565b6114365760405162461bcd60e51b8152600401610a8d90614167565b61143f33611f9c565b61147f5760405162461bcd60e51b815260206004820152601160248201527010d85b89dd081c1d589b1a5cda081e595d607a1b6044820152606401610a8d565b600181101580156114935750620f42408111155b6114d75760405162461bcd60e51b8152602060048201526015602482015274125b9d985b1a590818d85c989bdb881a5b5c1858dd605a1b6044820152606401610a8d565b6005546000906114f1906001600160401b03166001614191565b6040805160e0810182526001600160401b038084168083523360208085019182528486018c8152606086018c9052608086018b905260a086018a90524360c087015260009384526009909152949091208351815492516001600160a01b0316600160401b026001600160e01b03199093169316929092171781559151929350916001820190611580908261400b565b5060608201516002820190611595908261400b565b50608082015160038201906115aa908261400b565b5060a0820151600482015560c09091015160059182015580546001600160401b03169060006115d8836141b0565b82546001600160401b039182166101009390930a92830291909202199091161790555033600090815260066020526040812043600882015560070180549161161f836141db565b91905055505050505050565b61169560405180610140016040528060006001600160401b031681526020016000815260200160006001600160a01b031681526020016060815260200160608152602001606081526020016000815260200160001515815260200160008152602001600081525090565b6001600160401b038083166000908152600760209081526040918290208251610140810184528154909416845260018101549184019190915260028101546001600160a01b0316918301919091526003810180546060840191906116f890613f17565b80601f016020809104026020016040519081016040528092919081815260200182805461172490613f17565b80156117715780601f1061174657610100808354040283529160200191611771565b820191906000526020600020905b81548152906001019060200180831161175457829003601f168201915b5050505050815260200160048201805461178a90613f17565b80601f01602080910402602001604051908101604052809291908181526020018280546117b690613f17565b80156118035780601f106117d857610100808354040283529160200191611803565b820191906000526020600020905b8154815290600101906020018083116117e657829003601f168201915b5050505050815260200160058201805461181c90613f17565b80601f016020809104026020016040519081016040528092919081815260200182805461184890613f17565b80156118955780601f1061186a57610100808354040283529160200191611895565b820191906000526020600020905b81548152906001019060200180831161187857829003601f168201915b505050918352505060068201546020820152600782015460ff16151560408201526008820154606082015260099091015460809091015292915050565b6118da61320b565b600e54604051631292f8c160e31b81526001600160a01b0390911690639497c6089061190d906003903390600401614141565b602060405180830381865afa15801561192a573d6000803e3d6000fd5b505050506040513d601f19601f8201168201806040525081019061194e9190613f51565b61196a5760405162461bcd60e51b8152600401610a8d90614167565b33600090815260066020526040908190206003810154600f549251637df42f8360e11b815260048101829052919290916001600160a01b039091169063fbe85f0690602401602060405180830381865afa1580156119cc573d6000803e3d6000fd5b505050506040513d601f19601f820116820180604052508101906119f09190613f51565b611a4a5760405162461bcd60e51b815260206004820152602560248201527f4e6f7420656c696769626c6520746f20776974686472617720666f7220746869604482015264732065726160d81b6064820152608401610a8d565b600382018054906000611a5c836141db565b9091555050600f5460405163f3fef3a360e01b8152336004820152602481018390526001600160a01b039091169063f3fef3a390604401600060405180830381600087803b158015611aad57600080fd5b505af1158015611ac1573d6000803e3d6000fd5b505050505050611ad16001600255565b565b600960205260009081526040902080546001820180546001600160401b03831693600160401b9093046001600160a01b0316929190611b1190613f17565b80601f0160208091040260200160405190810160405280929190818152602001828054611b3d90613f17565b8015611b8a5780601f10611b5f57610100808354040283529160200191611b8a565b820191906000526020600020905b815481529060010190602001808311611b6d57829003601f168201915b505050505090806002018054611b9f90613f17565b80601f0160208091040260200160405190810160405280929190818152602001828054611bcb90613f17565b8015611c185780601f10611bed57610100808354040283529160200191611c18565b820191906000526020600020905b815481529060010190602001808311611bfb57829003601f168201915b505050505090806003018054611c2d90613f17565b80601f0160208091040260200160405190810160405280929190818152602001828054611c5990613f17565b8015611ca65780601f10611c7b57610100808354040283529160200191611ca6565b820191906000526020600020905b815481529060010190602001808311611c8957829003601f168201915b5050505050908060040154908060050154905087565b600f546000906001600160a01b031663d5ee3eb5611cd8612955565b6040518263ffffffff1660e01b8152600401611cf691815260200190565b602060405180830381865afa158015611d13573d6000803e3d6000fd5b505050506040513d601f19601f82011682018060405250810190611d3791906140c9565b905090565b60086020528160005260406000208181548110611d5857600080fd5b90600052602060002001600091509150505481565b60076020526000908152604090208054600182015460028301546003840180546001600160401b039094169492936001600160a01b039092169291611db190613f17565b80601f0160208091040260200160405190810160405280929190818152602001828054611ddd90613f17565b8015611e2a5780601f10611dff57610100808354040283529160200191611e2a565b820191906000526020600020905b815481529060010190602001808311611e0d57829003601f168201915b505050505090806004018054611e3f90613f17565b80601f0160208091040260200160405190810160405280929190818152602001828054611e6b90613f17565b8015611eb85780601f10611e8d57610100808354040283529160200191611eb8565b820191906000526020600020905b815481529060010190602001808311611e9b57829003601f168201915b505050505090806005018054611ecd90613f17565b80601f0160208091040260200160405190810160405280929190818152602001828054611ef990613f17565b8015611f465780601f10611f1b57610100808354040283529160200191611f46565b820191906000526020600020905b815481529060010190602001808311611f2957829003601f168201915b505050506006830154600784015460088501546009909501549394919360ff90911692508a565b600b6020528160005260406000208181548110611f8957600080fd5b6000918252602090912001549150829050565b6001600160a01b038116600090815260066020526040812060080154610771906131c1565b611fc9613639565b611ad16000613666565b8251606410801590611fe85750815161012c10155b8015611ff657508051609610155b6120125760405162461bcd60e51b8152600401610a8d90613f73565b600e54604051631292f8c160e31b81526001600160a01b0390911690639497c60890612045906003903390600401614141565b602060405180830381865afa158015612062573d6000803e3d6000fd5b505050506040513d601f19601f820116820180604052508101906120869190613f51565b6120a25760405162461bcd60e51b8152600401610a8d90614167565b336000908152600660205260409020600a015460ff166121045760405162461bcd60e51b815260206004820152601760248201527f4f6e6c79206f6e65206d6574686f6420616c6c6f7765640000000000000000006044820152606401610a8d565b60055460009061212590600160401b90046001600160401b03166001614191565b6040805160c0810182526001600160401b038084168083523360208085019182528486018b8152606086018b9052608086018a90524360a08701526000938452600a909152949091208351815492516001600160a01b0316600160401b026001600160e01b031990931693169290921717815591519293509160018201906121ad908261400b565b50606082015160028201906121c2908261400b565b50608082015160038201906121d7908261400b565b5060a0919091015160049091015560058054600160401b90046001600160401b0316906008612205836141b0565b82546001600160401b039182166101009390930a92830291909202199091161790555050336000908152600660205260409020600a01805460ff19169055505050565b612250613639565b601280546001600160a01b0319166001600160a01b0392909216919091179055565b61227a613639565b8051600e80546001600160a01b03199081166001600160a01b03938416179091556020830151600f805483169184169190911790556040830151601080548316918416919091179055606090920151601180549093169116179055565b6122df613639565b6001600160a01b03166000908152600160208190526040909120805460ff19169091179055565b60008260000361231857506000612337565b6005831161232857506001612337565b8361233384846141f4565b1190505b9392505050565b815160321080159061235257508051609610155b61236e5760405162461bcd60e51b8152600401610a8d90613f73565b600e54604051632f22dc7b60e01b8152613e80916001600160a01b031690632f22dc7b906123a19060039060040161420b565b602060405180830381865afa1580156123be573d6000803e3d6000fd5b505050506040513d601f19601f820116820180604052508101906123e291906140c9565b106124205760405162461bcd60e51b815260206004820152600e60248201526d13585e081d5cd95c881b1a5b5a5d60921b6044820152606401610a8d565b600e5460405162f5960960e51b81526000916001600160a01b031690631eb2c120906124519060039060040161420b565b602060405180830381865afa15801561246e573d6000803e3d6000fd5b505050506040513d601f19601f820116820180604052508101906124929190614219565b61249d906001614191565b9050604051806101600160405280826001600160401b03168152602001336001600160a01b031681526020018481526020016040518060400160405280600081526020016124e9612955565b90528152602080820185905260006040808401829052606084018290526080840182905260a084018290524360c0850152600160e0909401849052338252600683529081902084518154938601516001600160a01b0316600160401b026001600160e01b03199094166001600160401b03909116179290921782558301519091820190612576908261400b565b50606082015180516002830155602001516003820155608082015160048201906125a0908261400b565b5060a0820151600582015560c0820151600682015560e082015160078201556101008201516008820155610120820151600982015561014090910151600a909101805460ff19169115159190911790556001600160401b0381166000908152600d6020526040908190208054336001600160a01b03199091168117909155600e549151639c3eead960e01b81526001600160a01b0390921691639c3eead99161264e91600390600401614236565b600060405180830381600087803b15801561266857600080fd5b505af115801561267c573d6000803e3d6000fd5b50505050336001600160a01b03167fd9e252c4299740928760c15af4c9d6fee5a786293f1f330440036039a6ed533a82856040516126bb9291906140f5565b60405180910390a2505050565b600a60205260009081526040902080546001820180546001600160401b03831693600160401b9093046001600160a01b031692919061270690613f17565b80601f016020809104026020016040519081016040528092919081815260200182805461273290613f17565b801561277f5780601f106127545761010080835404028352916020019161277f565b820191906000526020600020905b81548152906001019060200180831161276257829003601f168201915b50505050509080600201805461279490613f17565b80601f01602080910402602001604051908101604052809291908181526020018280546127c090613f17565b801561280d5780601f106127e25761010080835404028352916020019161280d565b820191906000526020600020905b8154815290600101906020018083116127f057829003601f168201915b50505050509080600301805461282290613f17565b80601f016020809104026020016040519081016040528092919081815260200182805461284e90613f17565b801561289b5780601f106128705761010080835404028352916020019161289b565b820191906000526020600020905b81548152906001019060200180831161287e57829003601f168201915b5050505050908060040154905086565b6000806128b78361299f565b80519091506001600160401b03166128d25750600092915050565b60048054600e54604051632f22dc7b60e01b8152612337936001600160a01b0390921691632f22dc7b91612909916003910161420b565b602060405180830381865afa158015612926573d6000803e3d6000fd5b505050506040513d601f19601f8201168201806040525081019061294a91906140c9565b606084015151612306565b600f5460408051637686fbcf60e11b815290516000926001600160a01b03169163ed0df79e9160048083019260209291908290030181865afa158015611d13573d6000803e3d6000fd5b6129a76136b6565b6001600160a01b0380831660009081526006602090815260409182902082516101608101845281546001600160401b0381168252600160401b9004909416918401919091526001810180549192840191612a0090613f17565b80601f0160208091040260200160405190810160405280929190818152602001828054612a2c90613f17565b8015612a795780601f10612a4e57610100808354040283529160200191612a79565b820191906000526020600020905b815481529060010190602001808311612a5c57829003601f168201915b5050505050815260200160028201604051806040016040529081600082015481526020016001820154815250508152602001600482018054612aba90613f17565b80601f0160208091040260200160405190810160405280929190818152602001828054612ae690613f17565b8015612b335780601f10612b0857610100808354040283529160200191612b33565b820191906000526020600020905b815481529060010190602001808311612b1657829003601f168201915b505050918352505060058201546020820152600682015460408201526007820154606082015260088201546080820152600982015460a0820152600a9091015460ff16151560c09091015292915050565b612b8c61320b565b8251606410801590612ba15750815161012c10155b8015612baf57508051609610155b612bcb5760405162461bcd60e51b8152600401610a8d90613f73565b600e54604051631292f8c160e31b81526001600160a01b0390911690639497c60890612bfe906003903390600401614141565b602060405180830381865afa158015612c1b573d6000803e3d6000fd5b505050506040513d601f19601f82011682018060405250810190612c3f9190613f51565b612c5b5760405162461bcd60e51b8152600401610a8d90614167565b7f000000000000000000000000000000000000000000000000000000000000000063ffffffff16612c8a611cbc565b11612ccd5760405162461bcd60e51b81526020600482015260136024820152725761697420756e74696c206e6578742065726160681b6044820152606401610a8d565b612cd63361074c565b612d165760405162461bcd60e51b815260206004820152601160248201527010d85b89dd081c1d589b1a5cda081e595d607a1b6044820152606401610a8d565b600380546001600160401b0316906000612d2f836141b0565b91906101000a8154816001600160401b0302191690836001600160401b03160217905550506003600881819054906101000a90046001600160401b031680929190612d79906141b0565b91906101000a8154816001600160401b0302191690836001600160401b031602179055505060046000815480929190612db1906141db565b9091555050600354604080516101408101909152600160401b9091046001600160401b03168082529060208101612de6612955565b8152336020808301919091526040808301889052606080840188905260808401879052600060a08501819052600160c0860181905260e0860182905243610100909601959095526001600160401b03878116825260078552908390208651815467ffffffffffffffff1916921691909117815592850151938301939093558301516002820180546001600160a01b0319166001600160a01b03909216919091179055908201516003820190612e9b908261400b565b5060808201516004820190612eb0908261400b565b5060a08201516005820190612ec5908261400b565b5060c082015160068281019190915560e083015160078301805460ff1916911515919091179055610100830151600883015561012090920151600990910155336000908152602091909152604081206005810180549192612f25836141db565b9091555050436006820155336000908152600860209081526040822080546001810182559083529082206001600160401b03851691015560028201805491612f6c836141db565b9091555050600f546040516338e8490d60e11b8152336004820152600160248201526001600160401b03841660448201526001600160a01b03909116906371d0921a90606401600060405180830381600087803b158015612fcc57600080fd5b505af1158015612fe0573d6000803e3d6000fd5b50506040514381523392506001600160401b03851691507fe4c1c9646dc792c06d1b46cbe82f47bc6843a8dee984ecab0e2e4fb1280f1fed9060200160405180910390a350506130306001600255565b505050565b61303d613639565b6001600160a01b03811661306757604051631e4fbdf760e01b815260006004820152602401610a8d565b61307081613666565b50565b3360009081526001602052604090205460ff166130c75760405162461bcd60e51b81526020600482015260126024820152712737ba1030b63637bbb2b21031b0b63632b960711b6044820152606401610a8d565b6012546001600160a01b03163381146131225760405162461bcd60e51b815260206004820152601e60248201527f43616c6c6572206d7573742062652073797374656d20636f6e747261637400006044820152606401610a8d565b6001600160a01b0382166000908152600660205260408120600201546004805491929091613151908490614253565b9091555050600f546040516310c791e560e11b81526001600160a01b038481166004830152600160248301529091169063218f23ca906044015b600060405180830381600087803b1580156131a557600080fd5b505af11580156131b9573d6000803e3d6000fd5b505050505050565b6000816000036131d357506001919050565b61320363ffffffff7f00000000000000000000000000000000000000000000000000000000000000001683613fb1565b431192915050565b600280540361322d57604051633ee5aeb560e01b815260040160405180910390fd5b60028055565b600380546001600160401b031690600061324c83614266565b825461010092830a6001600160401b03818102199092169282160291909117909255600060e085018190524391850191909152835182168152600760209081526040918290208551815467ffffffffffffffff1916941693909317835584015160018301558301516002820180546001600160a01b0319166001600160a01b03909216919091179055606083015183925060038201906132ec908261400b565b5060808201516004820190613301908261400b565b5060a08201516005820190613316908261400b565b5060c082015160068281019190915560e083015160078301805460ff19169115159190911790556101008301516008830155610120909201516009909101556040828101516001600160a01b031660009081526020929092528120600201805460019290613385908490614253565b90915550506004805490600061339a83614289565b9091555050600f5460408281015190516310c791e560e11b81526001600160a01b0391821660048201526000602482015291169063218f23ca90604401600060405180830381600087803b1580156133f157600080fd5b505af1158015613405573d6000803e3d6000fd5b5050505050565b600e5460405163e838dfbb60e01b81526001600160a01b0383811660048301529091169063e838dfbb90602401602060405180830381865afa158015613456573d6000803e3d6000fd5b505050506040513d601f19601f8201168201806040525081019061347a9190613f51565b156134825750565b6001600160a01b03811660009081526006602052604081206002015460048054919290916134b1908490614253565b9091555050600e54604051634acf78e960e11b81526001600160a01b0383811660048301529091169063959ef1d290602401600060405180830381600087803b1580156134fd57600080fd5b505af1158015613511573d6000803e3d6000fd5b5050600e5460405163158bdc5f60e11b81526001600160a01b038581166004830152600094509091169150632b17b8be90602401608060405180830381865afa158015613562573d6000803e3d6000fd5b505050506040513d601f19601f8201168201806040525081019061358691906142a0565b60208101519091506001600160a01b03161561360057600e546020820151604051636101bf2160e01b81526001600160a01b039182166004820152911690636101bf2190602401600060405180830381600087803b1580156135e757600080fd5b505af11580156135fb573d6000803e3d6000fd5b505050505b600f546040516310c791e560e11b81526001600160a01b038481166004830152600160248301529091169063218f23ca9060440161318b565b6000546001600160a01b03163314611ad15760405163118cdaa760e01b8152336004820152602401610a8d565b600080546001600160a01b038381166001600160a01b0319831681178455604051919092169283917f8be0079c531659141344cd1fd0a4f28419497f9722a3daafe3b4186f6b6457e09190a35050565b60405180610160016040528060006001600160401b0316815260200160006001600160a01b0316815260200160608152602001613706604051806040016040528060008152602001600081525090565b81526020016060815260200160008152602001600081526020016000815260200160008152602001600081526020016000151581525090565b6001600160a01b038116811461307057600080fd5b60006020828403121561376657600080fd5b81356123378161373f565b6001600160401b038116811461307057600080fd5b60006020828403121561379857600080fd5b813561233781613771565b6000815180845260005b818110156137c9576020818501810151868301820152016137ad565b506000602082860101526020601f19601f83011685010191505092915050565b602081526001600160401b03825116602082015260018060a01b0360208301511660408201526000604083015160e0606084015261382b6101008401826137a3565b90506060840151601f1984830301608085015261384882826137a3565b9150506080840151601f198483030160a085015261386682826137a3565b91505060a084015160c084015260c084015160e08401528091505092915050565b634e487b7160e01b600052604160045260246000fd5b604051608081016001600160401b03811182821017156138bf576138bf613887565b60405290565b600082601f8301126138d657600080fd5b81356001600160401b038111156138ef576138ef613887565b604051601f8201601f19908116603f011681016001600160401b038111828210171561391d5761391d613887565b60405281815283820160200185101561393557600080fd5b816020850160208301376000918101602001919091529392505050565b6000806040838503121561396557600080fd5b823561397081613771565b915060208301356001600160401b0381111561398b57600080fd5b613997858286016138c5565b9150509250929050565b600080600080608085870312156139b757600080fd5b84356001600160401b038111156139cd57600080fd5b6139d9878288016138c5565b94505060208501356001600160401b038111156139f557600080fd5b613a01878288016138c5565b93505060408501356001600160401b03811115613a1d57600080fd5b613a29878288016138c5565b949793965093946060013593505050565b60208152613a546020820183516001600160401b03169052565b6020820151604082015260006040830151613a7a60608401826001600160a01b03169052565b5060608301516101406080840152613a966101608401826137a3565b90506080840151601f198483030160a0850152613ab382826137a3565b91505060a0840151601f198483030160c0850152613ad182826137a3565b91505060c084015160e084015260e0840151613af261010085018215159052565b506101008401516101208401526101208401516101408401528091505092915050565b6001600160401b03881681526001600160a01b038716602082015260e060408201819052600090613b48908301886137a3565b8281036060840152613b5a81886137a3565b90508281036080840152613b6e81876137a3565b60a0840195909552505060c0015295945050505050565b60008060408385031215613b9857600080fd5b8235613ba38161373f565b946020939093013593505050565b600060208284031215613bc357600080fd5b5035919050565b6001600160401b038b16815289602082015260018060a01b038916604082015261014060608201526000613c0261014083018a6137a3565b8281036080840152613c14818a6137a3565b905082810360a0840152613c2881896137a3565b60c0840197909752505092151560e0840152610100830191909152610120909101529695505050505050565b600080600060608486031215613c6957600080fd5b83356001600160401b03811115613c7f57600080fd5b613c8b868287016138c5565b93505060208401356001600160401b03811115613ca757600080fd5b613cb3868287016138c5565b92505060408401356001600160401b03811115613ccf57600080fd5b613cdb868287016138c5565b9150509250925092565b60006080828403128015613cf857600080fd5b50613d0161389d565b8235613d0c8161373f565b81526020830135613d1c8161373f565b60208201526040830135613d2f8161373f565b60408201526060830135613d428161373f565b60608201529392505050565b600080600060608486031215613d6357600080fd5b505081359360208301359350604090920135919050565b60008060408385031215613d8d57600080fd5b82356001600160401b03811115613da357600080fd5b613daf858286016138c5565b92505060208301356001600160401b0381111561398b57600080fd5b6001600160401b03871681526001600160a01b038616602082015260c060408201819052600090613dfe908301876137a3565b8281036060840152613e1081876137a3565b90508281036080840152613e2481866137a3565b9150508260a0830152979650505050505050565b60208152613e526020820183516001600160401b03169052565b60006020830151613e6e60408401826001600160a01b03169052565b5060408301516101806060840152613e8a6101a08401826137a3565b606085015180516080860152602081015160a0860152909150506080840151838203601f190160c0850152613ebf82826137a3565b91505060a084015160e084015260c084015161010084015260e0840151610120840152610100840151610140840152610120840151610160840152610140840151613f0f61018085018215159052565b509392505050565b600181811c90821680613f2b57607f821691505b602082108103613f4b57634e487b7160e01b600052602260045260246000fd5b50919050565b600060208284031215613f6357600080fd5b8151801515811461233757600080fd5b6020808252600e908201526d4d6178206368617261637465727360901b604082015260600190565b634e487b7160e01b600052601160045260246000fd5b8082018082111561077157610771613f9b565b601f82111561303057806000526020600020601f840160051c81016020851015613feb5750805b601f840160051c820191505b818110156134055760008155600101613ff7565b81516001600160401b0381111561402457614024613887565b614038816140328454613f17565b84613fc4565b6020601f82116001811461406c57600083156140545750848201515b600019600385901b1c1916600184901b178455613405565b600084815260208120601f198516915b8281101561409c578785015182556020948501946001909201910161407c565b50848210156140ba5786840151600019600387901b60f8161c191681555b50505050600190811b01905550565b6000602082840312156140db57600080fd5b5051919050565b60208152600061233760208301846137a3565b6001600160401b038316815260406020820152600061411760408301846137a3565b949350505050565b6008811061413d57634e487b7160e01b600052602160045260246000fd5b9052565b6040810161414f828561411f565b6001600160a01b039290921660209190910152919050565b60208082526010908201526f4f6e6c7920726573656172636865727360801b604082015260600190565b6001600160401b03818116838216019081111561077157610771613f9b565b60006001600160401b0382166001600160401b0381036141d2576141d2613f9b565b60010192915050565b6000600182016141ed576141ed613f9b565b5060010190565b808202811582820484141761077157610771613f9b565b60208101610771828461411f565b60006020828403121561422b57600080fd5b815161233781613771565b6001600160a01b038316815260408101612337602083018461411f565b8181038181111561077157610771613f9b565b60006001600160401b0382168061427f5761427f613f9b565b6000190192915050565b60008161429857614298613f9b565b506000190190565b600060808284031280156142b357600080fd5b506142bc61389d565b82516142c78161373f565b815260208301516142d78161373f565b60208201526040830151600881106142ee57600080fd5b6040820152606092830151928101929092525091905056fea264697066735822122084711b9e46d69051d3216e40a6d5385fafc4156a0f5d8b32da3afed4380ecc8764736f6c634300081b0033",
  "linkReferences": {},
  "deployedLinkReferences": {}
}