{
  "_format": "hh-sol-artifact-1",
  "contractName": "ResearcherRules",
  "sourceName": "contracts/ResearcherRules.sol",
  "abi": [
    {
      "inputs": [
        {
          "internalType": "uint32",
          "name": "timeBetweenWorks_",
          "type": "uint32"
        },
        {
          "internalType": "uint8",
          "name": "maxPenalties_",
          "type": "uint8"
        },
        {
          "internalType": "uint32",
          "name": "securityBlocksToValidation_",
          "type": "uint32"
        }
      ],
      "stateMutability": "nonpayable",
      "type": "constructor"
    },
    {
      "anonymous": false,
      "inputs": [
        {
          "indexed": true,
          "internalType": "address",
          "name": "previousOwner",
          "type": "address"
        },
        {
          "indexed": true,
          "internalType": "address",
          "name": "newOwner",
          "type": "address"
        }
      ],
      "name": "OwnershipTransferred",
      "type": "event"
    },
    {
      "anonymous": false,
      "inputs": [
        {
          "indexed": true,
          "internalType": "uint256",
          "name": "researchId",
          "type": "uint256"
        },
        {
          "indexed": true,
          "internalType": "address",
          "name": "invalidatedBy",
          "type": "address"
        },
        {
          "indexed": false,
          "internalType": "string",
          "name": "justification",
          "type": "string"
        }
      ],
      "name": "ResearchInvalidated",
      "type": "event"
    },
    {
      "anonymous": false,
      "inputs": [
        {
          "indexed": true,
          "internalType": "uint256",
          "name": "researchId",
          "type": "uint256"
        },
        {
          "indexed": true,
          "internalType": "address",
          "name": "researcher",
          "type": "address"
        },
        {
          "indexed": false,
          "internalType": "uint256",
          "name": "publishedAt",
          "type": "uint256"
        }
      ],
      "name": "ResearchPublished",
      "type": "event"
    },
    {
      "anonymous": false,
      "inputs": [
        {
          "indexed": true,
          "internalType": "address",
          "name": "researcherAddress",
          "type": "address"
        },
        {
          "indexed": false,
          "internalType": "uint256",
          "name": "researcherId",
          "type": "uint256"
        },
        {
          "indexed": false,
          "internalType": "string",
          "name": "name",
          "type": "string"
        }
      ],
      "name": "ResearcherRegistered",
      "type": "event"
    },
    {
      "inputs": [],
      "name": "INITIAL_USER_COUNT_THRESHOLD",
      "outputs": [
        {
          "internalType": "uint256",
          "name": "",
          "type": "uint256"
        }
      ],
      "stateMutability": "view",
      "type": "function"
    },
    {
      "inputs": [],
      "name": "MAX_USER_COUNT",
      "outputs": [
        {
          "internalType": "uint16",
          "name": "",
          "type": "uint16"
        }
      ],
      "stateMutability": "view",
      "type": "function"
    },
    {
      "inputs": [
        {
          "internalType": "string",
          "name": "item",
          "type": "string"
        },
        {
          "internalType": "string",
          "name": "thesis",
          "type": "string"
        },
        {
          "internalType": "string",
          "name": "unit",
          "type": "string"
        },
        {
          "internalType": "uint256",
          "name": "carbonImpact",
          "type": "uint256"
        }
      ],
      "name": "addCalculatorItem",
      "outputs": [],
      "stateMutability": "nonpayable",
      "type": "function"
    },
    {
      "inputs": [
        {
          "internalType": "string",
          "name": "title",
          "type": "string"
        },
        {
          "internalType": "string",
          "name": "research",
          "type": "string"
        },
        {
          "internalType": "string",
          "name": "projectURL",
          "type": "string"
        }
      ],
      "name": "addEvaluationMethod",
      "outputs": [],
      "stateMutability": "nonpayable",
      "type": "function"
    },
    {
      "inputs": [
        {
          "internalType": "address",
          "name": "addr",
          "type": "address"
        },
        {
          "internalType": "uint64",
          "name": "researchId",
          "type": "uint64"
        }
      ],
      "name": "addPenalty",
      "outputs": [
        {
          "internalType": "uint256",
          "name": "",
          "type": "uint256"
        }
      ],
      "stateMutability": "nonpayable",
      "type": "function"
    },
    {
      "inputs": [
        {
          "internalType": "string",
          "name": "title",
          "type": "string"
        },
        {
          "internalType": "string",
          "name": "thesis",
          "type": "string"
        },
        {
          "internalType": "string",
          "name": "file",
          "type": "string"
        }
      ],
      "name": "addResearch",
      "outputs": [],
      "stateMutability": "nonpayable",
      "type": "function"
    },
    {
      "inputs": [
        {
          "internalType": "uint64",
          "name": "id",
          "type": "uint64"
        },
        {
          "internalType": "string",
          "name": "justification",
          "type": "string"
        }
      ],
      "name": "addResearchValidation",
      "outputs": [],
      "stateMutability": "nonpayable",
      "type": "function"
    },
    {
      "inputs": [
        {
          "internalType": "string",
          "name": "name",
          "type": "string"
        },
        {
          "internalType": "string",
          "name": "proofPhoto",
          "type": "string"
        }
      ],
      "name": "addResearcher",
      "outputs": [],
      "stateMutability": "nonpayable",
      "type": "function"
    },
    {
      "inputs": [
        {
          "internalType": "address",
          "name": "",
          "type": "address"
        }
      ],
      "name": "allowedCallers",
      "outputs": [
        {
          "internalType": "bool",
          "name": "",
          "type": "bool"
        }
      ],
      "stateMutability": "view",
      "type": "function"
    },
    {
      "inputs": [
        {
          "internalType": "uint64",
          "name": "",
          "type": "uint64"
        }
      ],
      "name": "calculatorItems",
      "outputs": [
        {
          "internalType": "uint64",
          "name": "id",
          "type": "uint64"
        },
        {
          "internalType": "address",
          "name": "createdBy",
          "type": "address"
        },
        {
          "internalType": "string",
          "name": "item",
          "type": "string"
        },
        {
          "internalType": "string",
          "name": "thesis",
          "type": "string"
        },
        {
          "internalType": "string",
          "name": "unit",
          "type": "string"
        },
        {
          "internalType": "uint256",
          "name": "carbonImpact",
          "type": "uint256"
        }
      ],
      "stateMutability": "view",
      "type": "function"
    },
    {
      "inputs": [],
      "name": "calculatorItemsCount",
      "outputs": [
        {
          "internalType": "uint64",
          "name": "",
          "type": "uint64"
        }
      ],
      "stateMutability": "view",
      "type": "function"
    },
    {
      "inputs": [
        {
          "internalType": "uint256",
          "name": "totalLevels",
          "type": "uint256"
        },
        {
          "internalType": "uint256",
          "name": "totalUsers",
          "type": "uint256"
        },
        {
          "internalType": "uint256",
          "name": "userLevels",
          "type": "uint256"
        }
      ],
      "name": "canInvite",
      "outputs": [
        {
          "internalType": "bool",
          "name": "",
          "type": "bool"
        }
      ],
      "stateMutability": "pure",
      "type": "function"
    },
    {
      "inputs": [
        {
          "internalType": "address",
          "name": "addr",
          "type": "address"
        }
      ],
      "name": "canPublishCalculatorItem",
      "outputs": [
        {
          "internalType": "bool",
          "name": "",
          "type": "bool"
        }
      ],
      "stateMutability": "view",
      "type": "function"
    },
    {
      "inputs": [
        {
          "internalType": "address",
          "name": "addr",
          "type": "address"
        }
      ],
      "name": "canPublishResearch",
      "outputs": [
        {
          "internalType": "bool",
          "name": "",
          "type": "bool"
        }
      ],
      "stateMutability": "view",
      "type": "function"
    },
    {
      "inputs": [
        {
          "internalType": "address",
          "name": "addr",
          "type": "address"
        }
      ],
      "name": "canSendInvite",
      "outputs": [
        {
          "internalType": "bool",
          "name": "",
          "type": "bool"
        }
      ],
      "stateMutability": "view",
      "type": "function"
    },
    {
      "inputs": [
        {
          "internalType": "uint256",
          "name": "",
          "type": "uint256"
        }
      ],
      "name": "evaluationMethods",
      "outputs": [
        {
          "internalType": "uint64",
          "name": "id",
          "type": "uint64"
        },
        {
          "internalType": "address",
          "name": "createdBy",
          "type": "address"
        },
        {
          "internalType": "string",
          "name": "title",
          "type": "string"
        },
        {
          "internalType": "string",
          "name": "research",
          "type": "string"
        },
        {
          "internalType": "string",
          "name": "projectURL",
          "type": "string"
        }
      ],
      "stateMutability": "view",
      "type": "function"
    },
    {
      "inputs": [],
      "name": "evaluationMethodsCount",
      "outputs": [
        {
          "internalType": "uint64",
          "name": "",
          "type": "uint64"
        }
      ],
      "stateMutability": "view",
      "type": "function"
    },
    {
      "inputs": [
        {
          "internalType": "uint64",
          "name": "id",
          "type": "uint64"
        }
      ],
      "name": "getCalculatorItem",
      "outputs": [
        {
          "components": [
            {
              "internalType": "uint64",
              "name": "id",
              "type": "uint64"
            },
            {
              "internalType": "address",
              "name": "createdBy",
              "type": "address"
            },
            {
              "internalType": "string",
              "name": "item",
              "type": "string"
            },
            {
              "internalType": "string",
              "name": "thesis",
              "type": "string"
            },
            {
              "internalType": "string",
              "name": "unit",
              "type": "string"
            },
            {
              "internalType": "uint256",
              "name": "carbonImpact",
              "type": "uint256"
            }
          ],
          "internalType": "struct CalculatorItem",
          "name": "",
          "type": "tuple"
        }
      ],
      "stateMutability": "view",
      "type": "function"
    },
    {
      "inputs": [
        {
          "internalType": "uint64",
          "name": "id",
          "type": "uint64"
        }
      ],
      "name": "getResearch",
      "outputs": [
        {
          "components": [
            {
              "internalType": "uint64",
              "name": "id",
              "type": "uint64"
            },
            {
              "internalType": "uint256",
              "name": "era",
              "type": "uint256"
            },
            {
              "internalType": "address",
              "name": "createdBy",
              "type": "address"
            },
            {
              "internalType": "string",
              "name": "title",
              "type": "string"
            },
            {
              "internalType": "string",
              "name": "thesis",
              "type": "string"
            },
            {
              "internalType": "string",
              "name": "file",
              "type": "string"
            },
            {
              "internalType": "uint256",
              "name": "validationsCount",
              "type": "uint256"
            },
            {
              "internalType": "bool",
              "name": "valid",
              "type": "bool"
            },
            {
              "internalType": "uint256",
              "name": "invalidatedAt",
              "type": "uint256"
            },
            {
              "internalType": "uint256",
              "name": "createdAtBlock",
              "type": "uint256"
            }
          ],
          "internalType": "struct Research",
          "name": "",
          "type": "tuple"
        }
      ],
      "stateMutability": "view",
      "type": "function"
    },
    {
      "inputs": [
        {
          "internalType": "address",
          "name": "addr",
          "type": "address"
        }
      ],
      "name": "getResearcher",
      "outputs": [
        {
          "components": [
            {
              "internalType": "uint64",
              "name": "id",
              "type": "uint64"
            },
            {
              "internalType": "address",
              "name": "researcherWallet",
              "type": "address"
            },
            {
              "internalType": "string",
              "name": "name",
              "type": "string"
            },
            {
              "components": [
                {
                  "internalType": "uint256",
                  "name": "level",
                  "type": "uint256"
                },
                {
                  "internalType": "uint256",
                  "name": "currentEra",
                  "type": "uint256"
                }
              ],
              "internalType": "struct Pool",
              "name": "pool",
              "type": "tuple"
            },
            {
              "internalType": "string",
              "name": "proofPhoto",
              "type": "string"
            },
            {
              "internalType": "uint256",
              "name": "publishedResearches",
              "type": "uint256"
            },
            {
              "internalType": "uint256",
              "name": "lastPublishedAt",
              "type": "uint256"
            },
            {
              "internalType": "uint256",
              "name": "publishedItems",
              "type": "uint256"
            },
            {
              "internalType": "uint256",
              "name": "lastCalculatorItemAt",
              "type": "uint256"
            },
            {
              "internalType": "uint256",
              "name": "createdAt",
              "type": "uint256"
            },
            {
              "internalType": "bool",
              "name": "canPublishMethod",
              "type": "bool"
            }
          ],
          "internalType": "struct Researcher",
          "name": "",
          "type": "tuple"
        }
      ],
      "stateMutability": "view",
      "type": "function"
    },
    {
      "inputs": [
        {
          "internalType": "address",
          "name": "caller",
          "type": "address"
        }
      ],
      "name": "isAllowedCaller",
      "outputs": [
        {
          "internalType": "bool",
          "name": "",
          "type": "bool"
        }
      ],
      "stateMutability": "view",
      "type": "function"
    },
    {
      "inputs": [],
      "name": "maxPenalties",
      "outputs": [
        {
          "internalType": "uint8",
          "name": "",
          "type": "uint8"
        }
      ],
      "stateMutability": "view",
      "type": "function"
    },
    {
      "inputs": [
        {
          "internalType": "address",
          "name": "allowed",
          "type": "address"
        }
      ],
      "name": "newAllowedCaller",
      "outputs": [],
      "stateMutability": "nonpayable",
      "type": "function"
    },
    {
      "inputs": [],
      "name": "nextEraIn",
      "outputs": [
        {
          "internalType": "uint256",
          "name": "",
          "type": "uint256"
        }
      ],
      "stateMutability": "view",
      "type": "function"
    },
    {
      "inputs": [],
      "name": "owner",
      "outputs": [
        {
          "internalType": "address",
          "name": "",
          "type": "address"
        }
      ],
      "stateMutability": "view",
      "type": "function"
    },
    {
      "inputs": [
        {
          "internalType": "address",
          "name": "",
          "type": "address"
        },
        {
          "internalType": "uint256",
          "name": "",
          "type": "uint256"
        }
      ],
      "name": "penalties",
      "outputs": [
        {
          "internalType": "uint256",
          "name": "researchId",
          "type": "uint256"
        }
      ],
      "stateMutability": "view",
      "type": "function"
    },
    {
      "inputs": [],
      "name": "poolCurrentEra",
      "outputs": [
        {
          "internalType": "uint256",
          "name": "",
          "type": "uint256"
        }
      ],
      "stateMutability": "view",
      "type": "function"
    },
    {
      "inputs": [
        {
          "internalType": "address",
          "name": "addr",
          "type": "address"
        },
        {
          "internalType": "uint256",
          "name": "levelsToRemove",
          "type": "uint256"
        }
      ],
      "name": "removePoolLevels",
      "outputs": [],
      "stateMutability": "nonpayable",
      "type": "function"
    },
    {
      "inputs": [],
      "name": "renounceOwnership",
      "outputs": [],
      "stateMutability": "nonpayable",
      "type": "function"
    },
    {
      "inputs": [
        {
          "internalType": "uint256",
          "name": "",
          "type": "uint256"
        }
      ],
      "name": "researchersAddress",
      "outputs": [
        {
          "internalType": "address",
          "name": "",
          "type": "address"
        }
      ],
      "stateMutability": "view",
      "type": "function"
    },
    {
      "inputs": [
        {
          "internalType": "uint256",
          "name": "",
          "type": "uint256"
        }
      ],
      "name": "researches",
      "outputs": [
        {
          "internalType": "uint64",
          "name": "id",
          "type": "uint64"
        },
        {
          "internalType": "uint256",
          "name": "era",
          "type": "uint256"
        },
        {
          "internalType": "address",
          "name": "createdBy",
          "type": "address"
        },
        {
          "internalType": "string",
          "name": "title",
          "type": "string"
        },
        {
          "internalType": "string",
          "name": "thesis",
          "type": "string"
        },
        {
          "internalType": "string",
          "name": "file",
          "type": "string"
        },
        {
          "internalType": "uint256",
          "name": "validationsCount",
          "type": "uint256"
        },
        {
          "internalType": "bool",
          "name": "valid",
          "type": "bool"
        },
        {
          "internalType": "uint256",
          "name": "invalidatedAt",
          "type": "uint256"
        },
        {
          "internalType": "uint256",
          "name": "createdAtBlock",
          "type": "uint256"
        }
      ],
      "stateMutability": "view",
      "type": "function"
    },
    {
      "inputs": [],
      "name": "researchesCount",
      "outputs": [
        {
          "internalType": "uint64",
          "name": "",
          "type": "uint64"
        }
      ],
      "stateMutability": "view",
      "type": "function"
    },
    {
      "inputs": [
        {
          "internalType": "address",
          "name": "",
          "type": "address"
        },
        {
          "internalType": "uint256",
          "name": "",
          "type": "uint256"
        }
      ],
      "name": "researchesIds",
      "outputs": [
        {
          "internalType": "uint256",
          "name": "",
          "type": "uint256"
        }
      ],
      "stateMutability": "view",
      "type": "function"
    },
    {
      "inputs": [],
      "name": "researchesTotalCount",
      "outputs": [
        {
          "internalType": "uint64",
          "name": "",
          "type": "uint64"
        }
      ],
      "stateMutability": "view",
      "type": "function"
    },
    {
      "inputs": [],
      "name": "securityBlocksToValidation",
      "outputs": [
        {
          "internalType": "uint32",
          "name": "",
          "type": "uint32"
        }
      ],
      "stateMutability": "view",
      "type": "function"
    },
    {
      "inputs": [
        {
          "internalType": "address",
          "name": "_validationRulesAddress",
          "type": "address"
        }
      ],
      "name": "setContractCall",
      "outputs": [],
      "stateMutability": "nonpayable",
      "type": "function"
    },
    {
      "inputs": [
        {
          "components": [
            {
              "internalType": "address",
              "name": "communityRulesAddress",
              "type": "address"
            },
            {
              "internalType": "address",
              "name": "researcherPoolAddress",
              "type": "address"
            },
            {
              "internalType": "address",
              "name": "validationRulesAddress",
              "type": "address"
            },
            {
              "internalType": "address",
              "name": "voteRulesAddress",
              "type": "address"
            }
          ],
          "internalType": "struct ContractsDependency",
          "name": "contractDependency",
          "type": "tuple"
        }
      ],
      "name": "setContractInterfaces",
      "outputs": [],
      "stateMutability": "nonpayable",
      "type": "function"
    },
    {
      "inputs": [],
      "name": "timeBetweenWorks",
      "outputs": [
        {
          "internalType": "uint32",
          "name": "",
          "type": "uint32"
        }
      ],
      "stateMutability": "view",
      "type": "function"
    },
    {
      "inputs": [
        {
          "internalType": "address",
          "name": "addr",
          "type": "address"
        }
      ],
      "name": "totalPenalties",
      "outputs": [
        {
          "internalType": "uint256",
          "name": "",
          "type": "uint256"
        }
      ],
      "stateMutability": "view",
      "type": "function"
    },
    {
      "inputs": [
        {
          "internalType": "address",
          "name": "newOwner",
          "type": "address"
        }
      ],
      "name": "transferOwnership",
      "outputs": [],
      "stateMutability": "nonpayable",
      "type": "function"
    },
    {
      "inputs": [],
      "name": "withdraw",
      "outputs": [],
      "stateMutability": "nonpayable",
      "type": "function"
    }
  ],
  "bytecode": "0x60e060405234801561001057600080fd5b5060405161414538038061414583398101604081905261002f916100c2565b61003833610059565b600160025563ffffffff92831660a05260ff9091166080521660c05261010d565b600080546001600160a01b038381166001600160a01b0319831681178455604051919092169283917f8be0079c531659141344cd1fd0a4f28419497f9722a3daafe3b4186f6b6457e09190a35050565b805163ffffffff811681146100bd57600080fd5b919050565b6000806000606084860312156100d757600080fd5b6100e0846100a9565b9250602084015160ff811681146100f657600080fd5b9150610104604085016100a9565b90509250925092565b60805160a05160c051613ffb61014a600039600081816103830152612c8901526000818161048301526130dc015260006105b40152613ffb6000f3fe608060405234801561001057600080fd5b50600436106102535760003560e01c80636ec7053a11610146578063b1e86655116100c3578063be9dc58411610087578063be9dc58414610648578063c77c1ce614610650578063e05cf15514610663578063e7eba4c21461066b578063e8a6a9221461068b578063f2fde38b1461069e57600080fd5b8063b1e866551461059c578063b24eb769146105af578063b702523b146105e8578063b932c8b7146105fb578063be18bc801461062457600080fd5b80637c647a621161010a5780637c647a62146105125780638da5cb5b146105255780638f93716f1461054a5780639eaf666f1461055d578063a68012581461057057600080fd5b80636ec7053a146104a5578063715018a6146104c157806372e2e6cc146104c9578063755d4f97146104dc5780637b334154146104ef57600080fd5b80633ccfd60b116101d45780635a52293a116101985780635a52293a1461041c5780635f7d07041461042f5780635fa71c28146104585780636750d5231461046b5780636b6c7c2d1461047e57600080fd5b80633ccfd60b146103ba578063406458f2146103c25780634714b572146103d557806352d3ea9d146103fa578063582256f11461041457600080fd5b80632076267b1161021b5780632076267b1461030157806320d81713146103385780633270f4ad1461034b57806332980c9b1461035e57806335c116771461037e57600080fd5b80630884a672146102585780630eaf485c1461028057806311868d0b146102b257806318ad5c9a146102d25780631f701ee0146102e7575b600080fd5b61026b610266366004613441565b6106b1565b60405190151581526020015b60405180910390f35b60035461029a90600160801b90046001600160401b031681565b6040516001600160401b039091168152602001610277565b6102c56102c0366004613471565b6106dc565b60405161027791906134d4565b6102e56102e0366004613567565b610936565b005b60035461029a90600160c01b90046001600160401b031681565b61032a61030f366004613441565b6001600160a01b031660009081526009602052604090205490565b604051908152602001610277565b6102e5610346366004613634565b610c72565b6102e5610359366004613683565b611347565b61037161036c366004613471565b6115b4565b60405161027791906137e1565b6103a57f000000000000000000000000000000000000000000000000000000000000000081565b60405163ffffffff9091168152602001610277565b6102e56117f9565b60035461029a906001600160401b031681565b6103e86103e3366004613471565b6119fb565b604051610277969594939291906137f4565b60035461029a90600160401b90046001600160401b031681565b61032a611bde565b61032a61042a366004613567565b611c5e565b61044261043d366004613861565b611c8f565b6040516102779a9998979695949392919061387a565b61032a610466366004613567565b611e8f565b61026b610479366004613441565b611ebe565b6103a57f000000000000000000000000000000000000000000000000000000000000000081565b6104ae613e8081565b60405161ffff9091168152602001610277565b6102e5611ee3565b6102e56104d7366004613904565b611ef5565b6102e56104ea366004613441565b612159565b61026b6104fd366004613441565b60016020526000908152604090205460ff1681565b6102e5610520366004613995565b612183565b6000546001600160a01b03165b6040516001600160a01b039091168152602001610277565b6102e5610558366004613441565b6121e8565b61026b61056b366004613a13565b612217565b61026b61057e366004613441565b6001600160a01b031660009081526001602052604090205460ff1690565b61032a6105aa366004613a3f565b61224e565b6105d67f000000000000000000000000000000000000000000000000000000000000000081565b60405160ff9091168152602001610277565b6102e56105f6366004613a76565b612352565b610532610609366004613861565b600a602052600090815260409020546001600160a01b031681565b610637610632366004613861565b6126dd565b604051610277959493929190613ac7565b61032a600581565b61026b61065e366004613441565b6128ba565b61032a612981565b61067e610679366004613441565b6129cb565b6040516102779190613b2c565b6102e5610699366004613904565b612bb0565b6102e56106ac366004613441565b613047565b6001600160a01b0381166000908152600460205260408120600601546106d6906130c0565b92915050565b6107276040518060c0016040528060006001600160401b0316815260200160006001600160a01b03168152602001606081526020016060815260200160608152602001600081525090565b6001600160401b03828116600090815260076020908152604091829020825160c08101845281549485168152600160401b9094046001600160a01b031691840191909152600181018054919284019161077f90613c0b565b80601f01602080910402602001604051908101604052809291908181526020018280546107ab90613c0b565b80156107f85780601f106107cd576101008083540402835291602001916107f8565b820191906000526020600020905b8154815290600101906020018083116107db57829003601f168201915b5050505050815260200160028201805461081190613c0b565b80601f016020809104026020016040519081016040528092919081815260200182805461083d90613c0b565b801561088a5780601f1061085f5761010080835404028352916020019161088a565b820191906000526020600020905b81548152906001019060200180831161086d57829003601f168201915b505050505081526020016003820180546108a390613c0b565b80601f01602080910402602001604051908101604052809291908181526020018280546108cf90613c0b565b801561091c5780601f106108f15761010080835404028352916020019161091c565b820191906000526020600020905b8154815290600101906020018083116108ff57829003601f168201915b505050505081526020016004820154815250509050919050565b3360009081526001602052604090205460ff1661098f5760405162461bcd60e51b81526020600482015260126024820152712737ba1030b63637bbb2b21031b0b63632b960711b60448201526064015b60405180910390fd5b600f546001600160a01b03163381146109ea5760405162461bcd60e51b815260206004820152601e60248201527f43616c6c6572206d7573742062652073797374656d20636f6e747261637400006044820152606401610986565b6001600160a01b03808416600090815260046020908152604080832081516101608101835281546001600160401b0381168252600160401b90049095169285019290925260018201805493949391840191610a4490613c0b565b80601f0160208091040260200160405190810160405280929190818152602001828054610a7090613c0b565b8015610abd5780601f10610a9257610100808354040283529160200191610abd565b820191906000526020600020905b815481529060010190602001808311610aa057829003601f168201915b5050505050815260200160028201604051806040016040529081600082015481526020016001820154815250508152602001600482018054610afe90613c0b565b80601f0160208091040260200160405190810160405280929190818152602001828054610b2a90613c0b565b8015610b775780601f10610b4c57610100808354040283529160200191610b77565b820191906000526020600020905b815481529060010190602001808311610b5a57829003601f168201915b505050918352505060058201546020820152600682015460408201526007820154606082015260088201546080820152600982015460a0820152600a9091015460ff16151560c090910152905082610bd457606081015151610bd6565b825b6001600160a01b03851660009081526004602052604081206002018054909190610c01908490613c5b565b9091555050600c54604051630c56ae4d60e11b81526001600160a01b03868116600483015260248201869052909116906318ad5c9a90604401600060405180830381600087803b158015610c5457600080fd5b505af1158015610c68573d6000803e3d6000fd5b5050505050505050565b610c7a61310a565b805161012c1015610c9d5760405162461bcd60e51b815260040161098690613c6e565b600e546040516356fd539760e11b81523360048201526001600160a01b039091169063adfaa72e90602401602060405180830381865afa158015610ce5573d6000803e3d6000fd5b505050506040513d601f19601f82011682018060405250810190610d099190613c96565b610d435760405162461bcd60e51b815260206004820152600b60248201526a2737ba1030903b37ba32b960a91b6044820152606401610986565b600d54604051630d84466b60e21b81523360048201526001600160a01b039091169063361119ac90602401602060405180830381865afa158015610d8b573d6000803e3d6000fd5b505050506040513d601f19601f82011682018060405250810190610daf9190613c96565b610df35760405162461bcd60e51b8152602060048201526015602482015274576169742074696d654265747765656e566f74657360581b6044820152606401610986565b6001600160401b038216600090815260106020908152604080832033845290915290205460ff1615610e575760405162461bcd60e51b815260206004820152600d60248201526c105b1c9958591e481d9bdd1959609a1b6044820152606401610986565b6001600160401b0380831660008181526010602090815260408083203384528252808320805460ff191660019081179091559383526005825280832081516101408101835281549096168652938401549185019190915260028301546001600160a01b03169084015260038201805491939291606084019190610ed990613c0b565b80601f0160208091040260200160405190810160405280929190818152602001828054610f0590613c0b565b8015610f525780601f10610f2757610100808354040283529160200191610f52565b820191906000526020600020905b815481529060010190602001808311610f3557829003601f168201915b50505050508152602001600482018054610f6b90613c0b565b80601f0160208091040260200160405190810160405280929190818152602001828054610f9790613c0b565b8015610fe45780601f10610fb957610100808354040283529160200191610fe4565b820191906000526020600020905b815481529060010190602001808311610fc757829003601f168201915b50505050508152602001600582018054610ffd90613c0b565b80601f016020809104026020016040519081016040528092919081815260200182805461102990613c0b565b80156110765780601f1061104b57610100808354040283529160200191611076565b820191906000526020600020905b81548152906001019060200180831161105957829003601f168201915b505050918352505060068201546020820152600782015460ff16151560408201526008820154606082015260099091015460809091015260e081015190915080156110cb575080602001516110c9612981565b145b61110c5760405162461bcd60e51b815260206004820152601260248201527114995cd9585c98da081b9bdd08159053125160721b6044820152606401610986565b60018160c00181815161111f9190613cb8565b9052506001600160401b038381166000908152600560209081526040918290208451815467ffffffffffffffff1916941693909317835583015160018301558201516002820180546001600160a01b0319166001600160a01b03909216919091179055606082015182919060038201906111999082613d19565b50608082015160048201906111ae9082613d19565b5060a082015160058201906111c39082613d19565b5060c0820151600682015560e082015160078201805460ff1916911515919091179055610100820151600882015561012090910151600990910155600d54604080516369bf81c360e01b815290516000926001600160a01b0316916369bf81c39160048083019260209291908290030181865afa158015611248573d6000803e3d6000fd5b505050506040513d601f19601f8201168201806040525081019061126c9190613dd7565b60c083015110801591506112d15761128382613161565b9150336001600160a01b0316846001600160401b03167fec82afd035df5f6da576aafb10163adedd64aa9955e7843369f1151fe7bcc627856040516112c89190613df0565b60405180910390a35b600d5460405163513d5dfd60e01b81526001600160a01b039091169063513d5dfd9061130590859087903390600401613e03565b600060405180830381600087803b15801561131f57600080fd5b505af1158015611333573d6000803e3d6000fd5b5050505050506113436001600255565b5050565b835160231080159061135c5750825161012c10155b801561136a57508151601410155b6113865760405162461bcd60e51b815260040161098690613c6e565b600b54604051631292f8c160e31b81526001600160a01b0390911690639497c608906113b9906003903390600401613e63565b602060405180830381865afa1580156113d6573d6000803e3d6000fd5b505050506040513d601f19601f820116820180604052508101906113fa9190613c96565b6114165760405162461bcd60e51b815260040161098690613e89565b61141f33611ebe565b61145f5760405162461bcd60e51b815260206004820152601160248201527010d85b89dd081c1d589b1a5cda081e595d607a1b6044820152606401610986565b60035460009061148090600160801b90046001600160401b03166001613eb3565b6040805160c0810182526001600160401b038084168083523360208085019182528486018c8152606086018c9052608086018b905260a086018a905260009384526007909152949091208351815492516001600160a01b0316600160401b026001600160e01b031990931693169290921717815591519293509160018201906115099082613d19565b506060820151600282019061151e9082613d19565b50608082015160038201906115339082613d19565b5060a0919091015160049091015560038054600160801b90046001600160401b031690601061156183613ed2565b82546001600160401b039182166101009390930a9283029190920219909116179055503360009081526004602052604081204360088201556007018054916115a883613efd565b91905055505050505050565b6115bc613335565b6001600160401b038083166000908152600560209081526040918290208251610140810184528154909416845260018101549184019190915260028101546001600160a01b03169183019190915260038101805460608401919061161f90613c0b565b80601f016020809104026020016040519081016040528092919081815260200182805461164b90613c0b565b80156116985780601f1061166d57610100808354040283529160200191611698565b820191906000526020600020905b81548152906001019060200180831161167b57829003601f168201915b505050505081526020016004820180546116b190613c0b565b80601f01602080910402602001604051908101604052809291908181526020018280546116dd90613c0b565b801561172a5780601f106116ff5761010080835404028352916020019161172a565b820191906000526020600020905b81548152906001019060200180831161170d57829003601f168201915b5050505050815260200160058201805461174390613c0b565b80601f016020809104026020016040519081016040528092919081815260200182805461176f90613c0b565b80156117bc5780601f10611791576101008083540402835291602001916117bc565b820191906000526020600020905b81548152906001019060200180831161179f57829003601f168201915b505050918352505060068201546020820152600782015460ff16151560408201526008820154606082015260099091015460809091015292915050565b61180161310a565b600b54604051631292f8c160e31b81526001600160a01b0390911690639497c60890611834906003903390600401613e63565b602060405180830381865afa158015611851573d6000803e3d6000fd5b505050506040513d601f19601f820116820180604052508101906118759190613c96565b6118915760405162461bcd60e51b815260040161098690613e89565b336000908152600460208190526040918290206003810154600c549351637df42f8360e11b8152928301819052909290916001600160a01b039091169063fbe85f0690602401602060405180830381865afa1580156118f4573d6000803e3d6000fd5b505050506040513d601f19601f820116820180604052508101906119189190613c96565b6119725760405162461bcd60e51b815260206004820152602560248201527f4e6f7420656c696769626c6520746f20776974686472617720666f7220746869604482015264732065726160d81b6064820152608401610986565b60038201805490600061198483613efd565b9091555050600c5460405163f3fef3a360e01b8152336004820152602481018390526001600160a01b039091169063f3fef3a390604401600060405180830381600087803b1580156119d557600080fd5b505af11580156119e9573d6000803e3d6000fd5b5050505050506119f96001600255565b565b600760205260009081526040902080546001820180546001600160401b03831693600160401b9093046001600160a01b0316929190611a3990613c0b565b80601f0160208091040260200160405190810160405280929190818152602001828054611a6590613c0b565b8015611ab25780601f10611a8757610100808354040283529160200191611ab2565b820191906000526020600020905b815481529060010190602001808311611a9557829003601f168201915b505050505090806002018054611ac790613c0b565b80601f0160208091040260200160405190810160405280929190818152602001828054611af390613c0b565b8015611b405780601f10611b1557610100808354040283529160200191611b40565b820191906000526020600020905b815481529060010190602001808311611b2357829003601f168201915b505050505090806003018054611b5590613c0b565b80601f0160208091040260200160405190810160405280929190818152602001828054611b8190613c0b565b8015611bce5780601f10611ba357610100808354040283529160200191611bce565b820191906000526020600020905b815481529060010190602001808311611bb157829003601f168201915b5050505050908060040154905086565b600c546000906001600160a01b031663d5ee3eb5611bfa612981565b6040518263ffffffff1660e01b8152600401611c1891815260200190565b602060405180830381865afa158015611c35573d6000803e3d6000fd5b505050506040513d601f19601f82011682018060405250810190611c599190613dd7565b905090565b60066020528160005260406000208181548110611c7a57600080fd5b90600052602060002001600091509150505481565b60056020526000908152604090208054600182015460028301546003840180546001600160401b039094169492936001600160a01b039092169291611cd390613c0b565b80601f0160208091040260200160405190810160405280929190818152602001828054611cff90613c0b565b8015611d4c5780601f10611d2157610100808354040283529160200191611d4c565b820191906000526020600020905b815481529060010190602001808311611d2f57829003601f168201915b505050505090806004018054611d6190613c0b565b80601f0160208091040260200160405190810160405280929190818152602001828054611d8d90613c0b565b8015611dda5780601f10611daf57610100808354040283529160200191611dda565b820191906000526020600020905b815481529060010190602001808311611dbd57829003601f168201915b505050505090806005018054611def90613c0b565b80601f0160208091040260200160405190810160405280929190818152602001828054611e1b90613c0b565b8015611e685780601f10611e3d57610100808354040283529160200191611e68565b820191906000526020600020905b815481529060010190602001808311611e4b57829003601f168201915b505050506006830154600784015460088501546009909501549394919360ff90911692508a565b60096020528160005260406000208181548110611eab57600080fd5b6000918252602090912001549150829050565b6001600160a01b0381166000908152600460205260408120600801546106d6906130c0565b611eeb61328b565b6119f960006132e5565b8251606410801590611f0a5750815161012c10155b8015611f1857508051609610155b611f345760405162461bcd60e51b815260040161098690613c6e565b600b54604051631292f8c160e31b81526001600160a01b0390911690639497c60890611f67906003903390600401613e63565b602060405180830381865afa158015611f84573d6000803e3d6000fd5b505050506040513d601f19601f82011682018060405250810190611fa89190613c96565b611fc45760405162461bcd60e51b815260040161098690613e89565b336000908152600460205260409020600a015460ff166120265760405162461bcd60e51b815260206004820152601760248201527f4f6e6c79206f6e65206d6574686f6420616c6c6f7765640000000000000000006044820152606401610986565b60035460009061204790600160c01b90046001600160401b03166001613eb3565b6040805160a0810182526001600160401b038084168083523360208085019182528486018b8152606086018b9052608086018a905260009384526008909152949091208351815492516001600160a01b0316600160401b026001600160e01b031990931693169290921717815591519293509160018201906120c99082613d19565b50606082015160028201906120de9082613d19565b50608082015160038201906120f39082613d19565b505060038054600160c01b90046001600160401b03169150601861211683613ed2565b82546001600160401b039182166101009390930a92830291909202199091161790555050336000908152600460205260409020600a01805460ff19169055505050565b61216161328b565b600f80546001600160a01b0319166001600160a01b0392909216919091179055565b61218b61328b565b8051600b80546001600160a01b03199081166001600160a01b03938416179091556020830151600c805483169184169190911790556040830151600d80548316918416919091179055606090920151600e80549093169116179055565b6121f061328b565b6001600160a01b03166000908152600160208190526040909120805460ff19169091179055565b60006005831161222957506001612247565b60006122358486613f16565b612240906001613cb8565b8310159150505b9392505050565b3360009081526001602052604081205460ff166122a25760405162461bcd60e51b81526020600482015260126024820152712737ba1030b63637bbb2b21031b0b63632b960711b6044820152606401610986565b600f546001600160a01b03163381146122fd5760405162461bcd60e51b815260206004820152601e60248201527f43616c6c6572206d7573742062652073797374656d20636f6e747261637400006044820152606401610986565b6001600160a01b038416600081815260096020818152604080842081518084019092526001600160401b038916825280546001810182558186528386209251920191909155939092529052545b949350505050565b815160321080159061236657508051609610155b6123825760405162461bcd60e51b815260040161098690613c6e565b600b54604051632f22dc7b60e01b8152613e80916001600160a01b031690632f22dc7b906123b590600390600401613f38565b602060405180830381865afa1580156123d2573d6000803e3d6000fd5b505050506040513d601f19601f820116820180604052508101906123f69190613dd7565b106124345760405162461bcd60e51b815260206004820152600e60248201526d13585e081d5cd95c881b1a5b5a5d60921b6044820152606401610986565b600b5460405162f5960960e51b81526000916001600160a01b031690631eb2c1209061246590600390600401613f38565b602060405180830381865afa158015612482573d6000803e3d6000fd5b505050506040513d601f19601f820116820180604052508101906124a69190613f46565b6124b1906001613eb3565b9050604051806101600160405280826001600160401b03168152602001336001600160a01b031681526020018481526020016040518060400160405280600081526020016124fd612981565b90528152602080820185905260006040808401829052606084018290526080840182905260a084018290524360c0850152600160e0909401849052338252600483529081902084518154938601516001600160a01b0316600160401b026001600160e01b03199094166001600160401b0390911617929092178255830151909182019061258a9082613d19565b50606082015180516002830155602001516003820155608082015160048201906125b49082613d19565b5060a0820151600582015560c0820151600682015560e082015160078201556101008201516008820155610120820151600982015561014090910151600a918201805460ff19169115159190911790556001600160401b03821660009081526020919091526040908190208054336001600160a01b03199091168117909155600b549151639c3eead960e01b81526001600160a01b0390921691639c3eead99161266391600390600401613f63565b600060405180830381600087803b15801561267d57600080fd5b505af1158015612691573d6000803e3d6000fd5b50505050336001600160a01b03167fd9e252c4299740928760c15af4c9d6fee5a786293f1f330440036039a6ed533a82856040516126d0929190613f80565b60405180910390a2505050565b600860205260009081526040902080546001820180546001600160401b03831693600160401b9093046001600160a01b031692919061271b90613c0b565b80601f016020809104026020016040519081016040528092919081815260200182805461274790613c0b565b80156127945780601f1061276957610100808354040283529160200191612794565b820191906000526020600020905b81548152906001019060200180831161277757829003601f168201915b5050505050908060020180546127a990613c0b565b80601f01602080910402602001604051908101604052809291908181526020018280546127d590613c0b565b80156128225780601f106127f757610100808354040283529160200191612822565b820191906000526020600020905b81548152906001019060200180831161280557829003601f168201915b50505050509080600301805461283790613c0b565b80601f016020809104026020016040519081016040528092919081815260200182805461286390613c0b565b80156128b05780601f10612885576101008083540402835291602001916128b0565b820191906000526020600020905b81548152906001019060200180831161289357829003601f168201915b5050505050905085565b6000806128c6836129cb565b80519091506001600160401b03166128e15750600092915050565b60038054600b5460405162f5960960e51b815261224793600160401b9093046001600160401b0316926001600160a01b0390921691631eb2c120916129299190600401613f38565b602060405180830381865afa158015612946573d6000803e3d6000fd5b505050506040513d601f19601f8201168201806040525081019061296a9190613f46565b6001600160401b0316836060015160000151612217565b600c5460408051637686fbcf60e11b815290516000926001600160a01b03169163ed0df79e9160048083019260209291908290030181865afa158015611c35573d6000803e3d6000fd5b6129d361339c565b6001600160a01b0380831660009081526004602090815260409182902082516101608101845281546001600160401b0381168252600160401b9004909416918401919091526001810180549192840191612a2c90613c0b565b80601f0160208091040260200160405190810160405280929190818152602001828054612a5890613c0b565b8015612aa55780601f10612a7a57610100808354040283529160200191612aa5565b820191906000526020600020905b815481529060010190602001808311612a8857829003601f168201915b5050505050815260200160028201604051806040016040529081600082015481526020016001820154815250508152602001600482018054612ae690613c0b565b80601f0160208091040260200160405190810160405280929190818152602001828054612b1290613c0b565b8015612b5f5780601f10612b3457610100808354040283529160200191612b5f565b820191906000526020600020905b815481529060010190602001808311612b4257829003601f168201915b505050918352505060058201546020820152600682015460408201526007820154606082015260088201546080820152600982015460a0820152600a9091015460ff16151560c09091015292915050565b612bb861310a565b8251606410801590612bcd5750815161012c10155b8015612bdb57508051609610155b612bf75760405162461bcd60e51b815260040161098690613c6e565b600b54604051631292f8c160e31b81526001600160a01b0390911690639497c60890612c2a906003903390600401613e63565b602060405180830381865afa158015612c47573d6000803e3d6000fd5b505050506040513d601f19601f82011682018060405250810190612c6b9190613c96565b612c875760405162461bcd60e51b815260040161098690613e89565b7f000000000000000000000000000000000000000000000000000000000000000063ffffffff16612cb6611bde565b11612cf95760405162461bcd60e51b81526020600482015260136024820152725761697420756e74696c206e6578742065726160681b6044820152606401610986565b612d02336106b1565b612d425760405162461bcd60e51b815260206004820152601160248201527010d85b89dd081c1d589b1a5cda081e595d607a1b6044820152606401610986565b600380546001600160401b0316906000612d5b83613ed2565b91906101000a8154816001600160401b0302191690836001600160401b03160217905550506003600881819054906101000a90046001600160401b031680929190612da590613ed2565b91906101000a8154816001600160401b0302191690836001600160401b03160217905550506000600360089054906101000a90046001600160401b03169050604051806101400160405280826001600160401b03168152602001612e07612981565b8152336020808301919091526040808301889052606080840188905260808401879052600060a08501819052600160c0860181905260e0860182905243610100909601959095526001600160401b03878116825260058552908390208651815467ffffffffffffffff1916921691909117815592850151938301939093558301516002820180546001600160a01b0319166001600160a01b03909216919091179055908201516003820190612ebc9082613d19565b5060808201516004820190612ed19082613d19565b5060a08201516005820190612ee69082613d19565b5060c0820151600682015560e082015160078201805460ff19169115159190911790556101008201516008820155610120909101516009909101553360009081526004602052604081206005810180549192612f4183613efd565b90915550504360068083019190915533600090815260209182526040812080546001810182559082529181206001600160401b03851692019190915560028201805491612f8d83613efd565b9091555050600c546040516352b8d3ed60e01b8152336004820152600160248201526001600160a01b03909116906352b8d3ed90604401600060405180830381600087803b158015612fde57600080fd5b505af1158015612ff2573d6000803e3d6000fd5b50506040514381523392506001600160401b03851691507fe4c1c9646dc792c06d1b46cbe82f47bc6843a8dee984ecab0e2e4fb1280f1fed9060200160405180910390a350506130426001600255565b505050565b61304f61328b565b6001600160a01b0381166130b45760405162461bcd60e51b815260206004820152602660248201527f4f776e61626c653a206e6577206f776e657220697320746865207a65726f206160448201526564647265737360d01b6064820152608401610986565b6130bd816132e5565b50565b6000816000036130d257506001919050565b61310263ffffffff7f00000000000000000000000000000000000000000000000000000000000000001683613cb8565b431192915050565b600280540361315b5760405162461bcd60e51b815260206004820152601f60248201527f5265656e7472616e637947756172643a207265656e7472616e742063616c6c006044820152606401610986565b60028055565b613169613335565b600380546001600160401b031690600061318283613fa2565b825461010092830a6001600160401b03818102199092169282160291909117909255600060e086018190524391860191909152845182168152600560209081526040918290208651815467ffffffffffffffff1916941693909317835585015160018301558401516002820180546001600160a01b0319166001600160a01b03909216919091179055606084015184925060038201906132229082613d19565b50608082015160048201906132379082613d19565b5060a0820151600582019061324c9082613d19565b5060c0820151600682015560e082015160078201805460ff19169115159190911790556101008201516008820155610120909101516009909101555090565b6000546001600160a01b031633146119f95760405162461bcd60e51b815260206004820181905260248201527f4f776e61626c653a2063616c6c6572206973206e6f7420746865206f776e65726044820152606401610986565b600080546001600160a01b038381166001600160a01b0319831681178455604051919092169283917f8be0079c531659141344cd1fd0a4f28419497f9722a3daafe3b4186f6b6457e09190a35050565b60405180610140016040528060006001600160401b031681526020016000815260200160006001600160a01b031681526020016060815260200160608152602001606081526020016000815260200160001515815260200160008152602001600081525090565b60405180610160016040528060006001600160401b0316815260200160006001600160a01b03168152602001606081526020016133ec604051806040016040528060008152602001600081525090565b81526020016060815260200160008152602001600081526020016000815260200160008152602001600081526020016000151581525090565b80356001600160a01b038116811461343c57600080fd5b919050565b60006020828403121561345357600080fd5b61224782613425565b6001600160401b03811681146130bd57600080fd5b60006020828403121561348357600080fd5b81356122478161345c565b6000815180845260005b818110156134b457602081850181015186830182015201613498565b506000602082860101526020601f19601f83011685010191505092915050565b602081526001600160401b03825116602082015260018060a01b0360208301511660408201526000604083015160c0606084015261351560e084018261348e565b90506060840151601f19848303016080850152613532828261348e565b9150506080840151601f198483030160a0850152613550828261348e565b91505060a084015160c08401528091505092915050565b6000806040838503121561357a57600080fd5b61358383613425565b946020939093013593505050565b634e487b7160e01b600052604160045260246000fd5b600082601f8301126135b857600080fd5b81356001600160401b038111156135d1576135d1613591565b604051601f8201601f19908116603f011681016001600160401b03811182821017156135ff576135ff613591565b60405281815283820160200185101561361757600080fd5b816020850160208301376000918101602001919091529392505050565b6000806040838503121561364757600080fd5b82356136528161345c565b915060208301356001600160401b0381111561366d57600080fd5b613679858286016135a7565b9150509250929050565b6000806000806080858703121561369957600080fd5b84356001600160401b038111156136af57600080fd5b6136bb878288016135a7565b94505060208501356001600160401b038111156136d757600080fd5b6136e3878288016135a7565b93505060408501356001600160401b038111156136ff57600080fd5b61370b878288016135a7565b949793965093946060013593505050565b80516001600160401b03168252602081015160208301526000604082015161374f60408501826001600160a01b03169052565b506060820151610140606085015261376b61014085018261348e565b905060808301518482036080860152613784828261348e565b91505060a083015184820360a086015261379e828261348e565b91505060c083015160c085015260e08301516137be60e086018215159052565b506101008301516101008501526101208301516101208501528091505092915050565b602081526000612247602083018461371c565b6001600160401b03871681526001600160a01b038616602082015260c0604082018190526000906138279083018761348e565b8281036060840152613839818761348e565b9050828103608084015261384d818661348e565b9150508260a0830152979650505050505050565b60006020828403121561387357600080fd5b5035919050565b6001600160401b038b16815289602082015260018060a01b0389166040820152610140606082015260006138b261014083018a61348e565b82810360808401526138c4818a61348e565b905082810360a08401526138d8818961348e565b60c0840197909752505092151560e0840152610100830191909152610120909101529695505050505050565b60008060006060848603121561391957600080fd5b83356001600160401b0381111561392f57600080fd5b61393b868287016135a7565b93505060208401356001600160401b0381111561395757600080fd5b613963868287016135a7565b92505060408401356001600160401b0381111561397f57600080fd5b61398b868287016135a7565b9150509250925092565b600060808284031280156139a857600080fd5b50604051608081016001600160401b03811182821017156139cb576139cb613591565b6040526139d783613425565b81526139e560208401613425565b60208201526139f660408401613425565b6040820152613a0760608401613425565b60608201529392505050565b600080600060608486031215613a2857600080fd5b505081359360208301359350604090920135919050565b60008060408385031215613a5257600080fd5b613a5b83613425565b91506020830135613a6b8161345c565b809150509250929050565b60008060408385031215613a8957600080fd5b82356001600160401b03811115613a9f57600080fd5b613aab858286016135a7565b92505060208301356001600160401b0381111561366d57600080fd5b6001600160401b03861681526001600160a01b038516602082015260a060408201819052600090613afa9083018661348e565b8281036060840152613b0c818661348e565b90508281036080840152613b20818561348e565b98975050505050505050565b60208152613b466020820183516001600160401b03169052565b60006020830151613b6260408401826001600160a01b03169052565b5060408301516101806060840152613b7e6101a084018261348e565b606085015180516080860152602081015160a0860152909150506080840151838203601f190160c0850152613bb3828261348e565b91505060a084015160e084015260c084015161010084015260e0840151610120840152610100840151610140840152610120840151610160840152610140840151613c0361018085018215159052565b509392505050565b600181811c90821680613c1f57607f821691505b602082108103613c3f57634e487b7160e01b600052602260045260246000fd5b50919050565b634e487b7160e01b600052601160045260246000fd5b818103818111156106d6576106d6613c45565b6020808252600e908201526d4d6178206368617261637465727360901b604082015260600190565b600060208284031215613ca857600080fd5b8151801515811461224757600080fd5b808201808211156106d6576106d6613c45565b601f82111561304257806000526020600020601f840160051c81016020851015613cf25750805b601f840160051c820191505b81811015613d125760008155600101613cfe565b5050505050565b81516001600160401b03811115613d3257613d32613591565b613d4681613d408454613c0b565b84613ccb565b6020601f821160018114613d7a5760008315613d625750848201515b600019600385901b1c1916600184901b178455613d12565b600084815260208120601f198516915b82811015613daa5787850151825560209485019460019092019101613d8a565b5084821015613dc85786840151600019600387901b60f8161c191681555b50505050600190811b01905550565b600060208284031215613de957600080fd5b5051919050565b602081526000612247602083018461348e565b606081526000613e16606083018661371c565b8281036020840152613e28818661348e565b91505060018060a01b0383166040830152949350505050565b60098110613e5f57634e487b7160e01b600052602160045260246000fd5b9052565b60408101613e718285613e41565b6001600160a01b039290921660209190910152919050565b60208082526010908201526f4f6e6c7920726573656172636865727360801b604082015260600190565b6001600160401b0381811683821601908111156106d6576106d6613c45565b60006001600160401b0382166001600160401b038103613ef457613ef4613c45565b60010192915050565b600060018201613f0f57613f0f613c45565b5060010190565b600082613f3357634e487b7160e01b600052601260045260246000fd5b500490565b602081016106d68284613e41565b600060208284031215613f5857600080fd5b81516122478161345c565b6001600160a01b0383168152604081016122476020830184613e41565b6001600160401b038316815260406020820152600061234a604083018461348e565b60006001600160401b03821680613fbb57613fbb613c45565b600019019291505056fea2646970667358221220cda5a66b661c71506489e9dc8d2f9d9cb307aa6e39660e43e57ffe7a747adf8064736f6c634300081b0033",
  "linkReferences": {},
  "deployedLinkReferences": {}
}