{
  "_format": "hh-sol-artifact-1",
  "contractName": "SupporterRules",
  "sourceName": "contracts/SupporterRules.sol",
  "abi": [
    {
      "inputs": [
        {
          "internalType": "address",
          "name": "communityRulesAddress",
          "type": "address"
        },
        {
          "internalType": "address",
          "name": "researcherRulesAddress",
          "type": "address"
        },
        {
          "internalType": "address",
          "name": "regenerationCreditAddress",
          "type": "address"
        }
      ],
      "stateMutability": "nonpayable",
      "type": "constructor"
    },
    {
      "inputs": [],
      "name": "ReentrancyGuardReentrantCall",
      "type": "error"
    },
    {
      "anonymous": false,
      "inputs": [
        {
          "indexed": true,
          "internalType": "address",
          "name": "supporter",
          "type": "address"
        },
        {
          "indexed": true,
          "internalType": "address",
          "name": "inviter",
          "type": "address"
        },
        {
          "indexed": false,
          "internalType": "uint256",
          "name": "amount",
          "type": "uint256"
        }
      ],
      "name": "CommissionsPaid",
      "type": "event"
    },
    {
      "anonymous": false,
      "inputs": [
        {
          "indexed": true,
          "internalType": "address",
          "name": "supporterAddress",
          "type": "address"
        },
        {
          "indexed": false,
          "internalType": "uint256",
          "name": "offsetId",
          "type": "uint256"
        },
        {
          "indexed": false,
          "internalType": "uint256",
          "name": "amountBurned",
          "type": "uint256"
        },
        {
          "indexed": false,
          "internalType": "uint256",
          "name": "calculatorItemId",
          "type": "uint256"
        },
        {
          "indexed": false,
          "internalType": "uint256",
          "name": "blockNumber",
          "type": "uint256"
        },
        {
          "indexed": false,
          "internalType": "string",
          "name": "message",
          "type": "string"
        }
      ],
      "name": "OffsetMade",
      "type": "event"
    },
    {
      "anonymous": false,
      "inputs": [
        {
          "indexed": true,
          "internalType": "address",
          "name": "supporterAddress",
          "type": "address"
        },
        {
          "indexed": true,
          "internalType": "uint256",
          "name": "calculatorItemId",
          "type": "uint256"
        },
        {
          "indexed": false,
          "internalType": "uint256",
          "name": "blockNumber",
          "type": "uint256"
        }
      ],
      "name": "ReductionCommitmentDeclared",
      "type": "event"
    },
    {
      "anonymous": false,
      "inputs": [
        {
          "indexed": true,
          "internalType": "address",
          "name": "supporterAddress",
          "type": "address"
        },
        {
          "indexed": false,
          "internalType": "uint256",
          "name": "supporterId",
          "type": "uint256"
        },
        {
          "indexed": false,
          "internalType": "string",
          "name": "name",
          "type": "string"
        },
        {
          "indexed": false,
          "internalType": "string",
          "name": "profilePhoto",
          "type": "string"
        },
        {
          "indexed": false,
          "internalType": "uint256",
          "name": "createdAtBlock",
          "type": "uint256"
        }
      ],
      "name": "SupporterRegistered",
      "type": "event"
    },
    {
      "inputs": [],
      "name": "INVITER_PERCENTAGE",
      "outputs": [
        {
          "internalType": "uint8",
          "name": "",
          "type": "uint8"
        }
      ],
      "stateMutability": "view",
      "type": "function"
    },
    {
      "inputs": [],
      "name": "MAX_COMMITMENTS",
      "outputs": [
        {
          "internalType": "uint256",
          "name": "",
          "type": "uint256"
        }
      ],
      "stateMutability": "view",
      "type": "function"
    },
    {
      "inputs": [
        {
          "internalType": "string",
          "name": "name",
          "type": "string"
        },
        {
          "internalType": "string",
          "name": "description",
          "type": "string"
        },
        {
          "internalType": "string",
          "name": "profilePhoto",
          "type": "string"
        }
      ],
      "name": "addSupporter",
      "outputs": [],
      "stateMutability": "nonpayable",
      "type": "function"
    },
    {
      "inputs": [
        {
          "internalType": "address",
          "name": "",
          "type": "address"
        },
        {
          "internalType": "uint64",
          "name": "",
          "type": "uint64"
        }
      ],
      "name": "calculatorItemCertificates",
      "outputs": [
        {
          "internalType": "uint256",
          "name": "",
          "type": "uint256"
        }
      ],
      "stateMutability": "view",
      "type": "function"
    },
    {
      "inputs": [],
      "name": "communityRules",
      "outputs": [
        {
          "internalType": "contract ICommunityRules",
          "name": "",
          "type": "address"
        }
      ],
      "stateMutability": "view",
      "type": "function"
    },
    {
      "inputs": [
        {
          "internalType": "uint64",
          "name": "calculatorItemId",
          "type": "uint64"
        }
      ],
      "name": "declareReductionCommitment",
      "outputs": [],
      "stateMutability": "nonpayable",
      "type": "function"
    },
    {
      "inputs": [
        {
          "internalType": "address",
          "name": "",
          "type": "address"
        },
        {
          "internalType": "uint256",
          "name": "",
          "type": "uint256"
        }
      ],
      "name": "declaredReduction",
      "outputs": [
        {
          "internalType": "bool",
          "name": "",
          "type": "bool"
        }
      ],
      "stateMutability": "view",
      "type": "function"
    },
    {
      "inputs": [
        {
          "internalType": "address",
          "name": "addr",
          "type": "address"
        }
      ],
      "name": "getReductionCommitments",
      "outputs": [
        {
          "internalType": "uint64[]",
          "name": "",
          "type": "uint64[]"
        }
      ],
      "stateMutability": "view",
      "type": "function"
    },
    {
      "inputs": [
        {
          "internalType": "address",
          "name": "addr",
          "type": "address"
        }
      ],
      "name": "getSupporter",
      "outputs": [
        {
          "components": [
            {
              "internalType": "uint64",
              "name": "id",
              "type": "uint64"
            },
            {
              "internalType": "address",
              "name": "supporterWallet",
              "type": "address"
            },
            {
              "internalType": "string",
              "name": "name",
              "type": "string"
            },
            {
              "internalType": "string",
              "name": "description",
              "type": "string"
            },
            {
              "internalType": "string",
              "name": "profilePhoto",
              "type": "string"
            },
            {
              "internalType": "uint32",
              "name": "offsetsCount",
              "type": "uint32"
            },
            {
              "internalType": "uint16",
              "name": "reductionItemsCount",
              "type": "uint16"
            },
            {
              "internalType": "uint256",
              "name": "createdAt",
              "type": "uint256"
            }
          ],
          "internalType": "struct Supporter",
          "name": "",
          "type": "tuple"
        }
      ],
      "stateMutability": "view",
      "type": "function"
    },
    {
      "inputs": [
        {
          "internalType": "uint256",
          "name": "amount",
          "type": "uint256"
        },
        {
          "internalType": "uint256",
          "name": "minAmountToBurn",
          "type": "uint256"
        },
        {
          "internalType": "uint64",
          "name": "calculatorItemId",
          "type": "uint64"
        },
        {
          "internalType": "string",
          "name": "message",
          "type": "string"
        }
      ],
      "name": "offset",
      "outputs": [],
      "stateMutability": "nonpayable",
      "type": "function"
    },
    {
      "inputs": [
        {
          "internalType": "uint64",
          "name": "",
          "type": "uint64"
        }
      ],
      "name": "offsets",
      "outputs": [
        {
          "internalType": "address",
          "name": "supporterAddress",
          "type": "address"
        },
        {
          "internalType": "uint256",
          "name": "createdAt",
          "type": "uint256"
        },
        {
          "internalType": "uint256",
          "name": "amountBurn",
          "type": "uint256"
        },
        {
          "internalType": "uint256",
          "name": "calculatorItemId",
          "type": "uint256"
        },
        {
          "internalType": "string",
          "name": "message",
          "type": "string"
        }
      ],
      "stateMutability": "view",
      "type": "function"
    },
    {
      "inputs": [],
      "name": "offsetsCount",
      "outputs": [
        {
          "internalType": "uint64",
          "name": "",
          "type": "uint64"
        }
      ],
      "stateMutability": "view",
      "type": "function"
    },
    {
      "inputs": [
        {
          "internalType": "address",
          "name": "",
          "type": "address"
        },
        {
          "internalType": "uint256",
          "name": "",
          "type": "uint256"
        }
      ],
      "name": "reductionCommitments",
      "outputs": [
        {
          "internalType": "uint64",
          "name": "",
          "type": "uint64"
        }
      ],
      "stateMutability": "view",
      "type": "function"
    },
    {
      "inputs": [],
      "name": "regenerationCredit",
      "outputs": [
        {
          "internalType": "contract IRegenerationCredit",
          "name": "",
          "type": "address"
        }
      ],
      "stateMutability": "view",
      "type": "function"
    },
    {
      "inputs": [],
      "name": "researcherRules",
      "outputs": [
        {
          "internalType": "contract IResearcherRules",
          "name": "",
          "type": "address"
        }
      ],
      "stateMutability": "view",
      "type": "function"
    },
    {
      "inputs": [
        {
          "internalType": "uint256",
          "name": "",
          "type": "uint256"
        }
      ],
      "name": "supportersAddress",
      "outputs": [
        {
          "internalType": "address",
          "name": "",
          "type": "address"
        }
      ],
      "stateMutability": "view",
      "type": "function"
    },
    {
      "inputs": [
        {
          "internalType": "string",
          "name": "newPhoto",
          "type": "string"
        }
      ],
      "name": "updateProfilePhoto",
      "outputs": [],
      "stateMutability": "nonpayable",
      "type": "function"
    }
  ],
  "bytecode": "0x6080604052348015600f57600080fd5b50604051611fec380380611fec833981016040819052602c91608d565b6001600055600880546001600160a01b039485166001600160a01b0319918216179091556009805493851693821693909317909255600a805491909316911617905560c9565b80516001600160a01b0381168114608857600080fd5b919050565b60008060006060848603121560a157600080fd5b60a8846072565b925060b4602085016072565b915060c0604085016072565b90509250925092565b611f14806100d86000396000f3fe608060405234801561001057600080fd5b506004361061010b5760003560e01c8063859b12f3116100a2578063dc02837f11610071578063dc02837f14610255578063dcfc77e014610275578063ee9645e81461028c578063f8a47d8a146102ca578063f9c5512c146102ee57600080fd5b8063859b12f3146101f557806394cea0a314610208578063ce59654a14610222578063d4fadeae1461023557600080fd5b80632e7759ba116100de5780632e7759ba146101a95780632f9ed1ef146101bc578063723ce4ae146101cf57806385851afc146101e257600080fd5b806305b95fbe146101105780630d378ffd146101565780630e2647ad1461018157806320f5f45614610196575b600080fd5b61013961011e3660046114af565b6005602052600090815260409020546001600160a01b031681565b6040516001600160a01b0390911681526020015b60405180910390f35b6101696101643660046114e0565b610319565b6040516001600160401b03909116815260200161014d565b61019461018f3660046115f7565b610365565b005b6101946101a4366004611648565b61045d565b6101946101b736600461166c565b6107a1565b600a54610139906001600160a01b031681565b6101946101dd3660046116fd565b610a6e565b600654610169906001600160401b031681565b600954610139906001600160a01b031681565b610210600581565b60405160ff909116815260200161014d565b600854610139906001600160a01b031681565b61024861024336600461175f565b610fcf565b60405161014d919061177c565b61026861026336600461175f565b61106d565b60405161014d9190611818565b61027e6103e881565b60405190815260200161014d565b6102ba61029a3660046114e0565b600460209081526000928352604080842090915290825290205460ff1681565b604051901515815260200161014d565b6102dd6102d8366004611648565b611302565b60405161014d9594939291906118e5565b61027e6102fc366004611923565b600260209081526000928352604080842090915290825290205481565b6003602052816000526040600020818154811061033557600080fd5b9060005260206000209060049182820401919006600802915091509054906101000a90046001600160401b031681565b8051609610156103ad5760405162461bcd60e51b815260206004820152600e60248201526d4d6178206368617261637465727360901b60448201526064015b60405180910390fd5b600854604051631292f8c160e31b81526001600160a01b0390911690639497c608906103e090600790339060040161197e565b602060405180830381865afa1580156103fd573d6000803e3d6000fd5b505050506040513d601f19601f8201168201806040525081019061042191906119a4565b61043d5760405162461bcd60e51b81526004016103a4906119c6565b3360009081526001602052604090206003016104598282611a78565b5050565b600854604051631292f8c160e31b81526001600160a01b0390911690639497c6089061049090600790339060040161197e565b602060405180830381865afa1580156104ad573d6000803e3d6000fd5b505050506040513d601f19601f820116820180604052508101906104d191906119a4565b6104ed5760405162461bcd60e51b81526004016103a4906119c6565b3360009081526004602090815260408083206001600160401b038516845290915290205460ff16156105615760405162461bcd60e51b815260206004820152601b60248201527f436f6d6d69746d656e7420616c7265616479206465636c61726564000000000060448201526064016103a4565b336000908152600160205260409020600401546103e864010000000090910461ffff16106105d15760405162461bcd60e51b815260206004820152601760248201527f4d617820636f6d6d69746d656e7473207265616368656400000000000000000060448201526064016103a4565b6009546040516311868d0b60e01b81526001600160401b03831660048201526000916001600160a01b0316906311868d0b90602401600060405180830381865afa158015610623573d6000803e3d6000fd5b505050506040513d6000823e601f3d908101601f1916820160405261064b9190810190611b96565b80519091506001600160401b03166106a55760405162461bcd60e51b815260206004820152601e60248201527f43616c63756c61746f72206974656d20646f6573206e6f74206578697374000060448201526064016103a4565b33600081815260036020818152604080842080546001808201835591865283862060048083049091018054929096166008026101000a6001600160401b0381810219909316928b16908102929092179095558686528484528286209086528352818520805460ff19168217905594845293905291902081018054640100000000900461ffff169161073583611ca9565b91906101000a81548161ffff021916908361ffff16021790555050816001600160401b0316336001600160a01b03167f6a8703d0dfd7a2ebeec57615dbfe3bd225042a61a5ddc5e565d02ee8cc27c82d4360405161079591815260200190565b60405180910390a35050565b82516032108015906107b55750815160c810155b80156107c357508051609610155b6108085760405162461bcd60e51b815260206004820152601660248201527513585e0818da185c9858dd195c9cc81c995858da195960521b60448201526064016103a4565b60085460405162f5960960e51b81526000916001600160a01b031690631eb2c1209061083990600790600401611cca565b602060405180830381865afa158015610856573d6000803e3d6000fd5b505050506040513d601f19601f8201168201806040525081019061087a9190611cde565b610885906001611cfb565b60408051610100810182526001600160401b0380841682523360208084018281528486018b8152606086018b9052608086018a9052600060a0870181905260c087018190524360e0880152938452600192839052959092208451815493516001600160a01b0316600160401b026001600160e01b03199094169416939093179190911782559251939450909290918201906109209082611a78565b50606082015160028201906109359082611a78565b506080820151600382019061094a9082611a78565b5060a08201516004808301805460c086015161ffff166401000000000265ffffffffffff1990911663ffffffff909416939093179290921790915560e0909201516005918201556001600160401b038316600090815260209190915260409081902080546001600160a01b031916339081179091556008549151639c3eead960e01b81526001600160a01b039290921692639c3eead9926109ef929160079101611d1a565b600060405180830381600087803b158015610a0957600080fd5b505af1158015610a1d573d6000803e3d6000fd5b50505050336001600160a01b03167f2fe5386557a95a5d820fa0514dc2a3c8d60986e6f41bace2d281e6b8d63636eb82868543604051610a609493929190611d37565b60405180910390a250505050565b610a766113c5565b6009546040516311868d0b60e01b81526001600160401b03841660048201526000916001600160a01b0316906311868d0b90602401600060405180830381865afa158015610ac8573d6000803e3d6000fd5b505050506040513d6000823e601f3d908101601f19168201604052610af09190810190611b96565b516001600160401b031611610b475760405162461bcd60e51b815260206004820152601e60248201527f43616c63756c61746f72206974656d20646f6573206e6f74206578697374000060448201526064016103a4565b600854604051631292f8c160e31b81526001600160a01b0390911690639497c60890610b7a90600790339060040161197e565b602060405180830381865afa158015610b97573d6000803e3d6000fd5b505050506040513d601f19601f82011682018060405250810190610bbb91906119a4565b610bd75760405162461bcd60e51b81526004016103a4906119c6565b670de0b6b3a7640000841015610c2f5760405162461bcd60e51b815260206004820152601c60248201527f416d6f756e74206d757374206265206174206c6561737420312052430000000060448201526064016103a4565b805161012c1015610c735760405162461bcd60e51b815260206004820152600e60248201526d4d6178206368617261637465727360901b60448201526064016103a4565b6000806000610c8233886113ef565b92509250925085831015610cee5760405162461bcd60e51b815260206004820152602d60248201527f536c6970706167653a20616d6f756e7420746f206275726e206973206c65737360448201526c207468616e206d696e696d756d60981b60648201526084016103a4565b600680546001600160401b0316906000610d0783611d7d565b82546101009290920a6001600160401b038181021990931691831602179091556006543360009081526002602090815260408083208b8616845290915281208054929093169350869291610d5c908490611d9f565b90915550506040805160a0810182523381524360208083019182528284018881526001600160401b038b811660608601908152608086018c81529188166000908152600790945295909220845181546001600160a01b0319166001600160a01b03909116178155925160018401555160028301559251600382015591519091906004820190610deb9082611a78565b5050336000908152600160205260408120600401805463ffffffff16925090610e1383611db2565b91906101000a81548163ffffffff021916908363ffffffff16021790555050600083118015610e4a57506001600160a01b03821615155b15610f0e57600a546040516323b872dd60e01b81523360048201526001600160a01b03848116602483015260448201869052909116906323b872dd906064016020604051808303816000875af1158015610ea8573d6000803e3d6000fd5b505050506040513d601f19601f82011682018060405250810190610ecc91906119a4565b506040518381526001600160a01b0383169033907f28f85a49f3e0d79a94d13a5e13318dfb1dcd3ddd5b73990b034f843b20db46529060200160405180910390a35b600a5460405163079cc67960e41b8152336004820152602481018690526001600160a01b03909116906379cc679090604401600060405180830381600087803b158015610f5a57600080fd5b505af1158015610f6e573d6000803e3d6000fd5b50505050336001600160a01b03167fc62a9975173688bea5677b29a71ab0d3d6ac9a0234406d997e0b340a88d33aa3828689438a604051610fb3959493929190611dce565b60405180910390a250505050610fc96001600055565b50505050565b6001600160a01b03811660009081526003602090815260409182902080548351818402810184019094528084526060939283018282801561106157602002820191906000526020600020906000905b82829054906101000a90046001600160401b03166001600160401b03168152602001906008019060208260070104928301926001038202915080841161101e5790505b50505050509050919050565b6110d160405180610100016040528060006001600160401b0316815260200160006001600160a01b03168152602001606081526020016060815260200160608152602001600063ffffffff168152602001600061ffff168152602001600081525090565b6001600160a01b0380831660009081526001602081815260409283902083516101008101855281546001600160401b0381168252600160401b90049095169185019190915290810180549192840191611129906119ef565b80601f0160208091040260200160405190810160405280929190818152602001828054611155906119ef565b80156111a25780601f10611177576101008083540402835291602001916111a2565b820191906000526020600020905b81548152906001019060200180831161118557829003601f168201915b505050505081526020016002820180546111bb906119ef565b80601f01602080910402602001604051908101604052809291908181526020018280546111e7906119ef565b80156112345780601f1061120957610100808354040283529160200191611234565b820191906000526020600020905b81548152906001019060200180831161121757829003601f168201915b5050505050815260200160038201805461124d906119ef565b80601f0160208091040260200160405190810160405280929190818152602001828054611279906119ef565b80156112c65780601f1061129b576101008083540402835291602001916112c6565b820191906000526020600020905b8154815290600101906020018083116112a957829003601f168201915b5050509183525050600482015463ffffffff81166020830152640100000000900461ffff16604082015260059091015460609091015292915050565b600760205260009081526040902080546001820154600283015460038401546004850180546001600160a01b0390951695939492939192611342906119ef565b80601f016020809104026020016040519081016040528092919081815260200182805461136e906119ef565b80156113bb5780601f10611390576101008083540402835291602001916113bb565b820191906000526020600020905b81548152906001019060200180831161139e57829003601f168201915b5050505050905085565b6002600054036113e857604051633ee5aeb560e01b815260040160405180910390fd5b6002600055565b60085460405163158bdc5f60e11b81526001600160a01b0384811660048301526000928392839283921690632b17b8be90602401608060405180830381865afa158015611440573d6000803e3d6000fd5b505050506040513d601f19601f820116820180604052508101906114649190611e0b565b606081015160208201519350909150151580611481576000611498565b606461148e600588611e92565b6114989190611ea9565b93506114a48487611ecb565b945050509250925092565b6000602082840312156114c157600080fd5b5035919050565b6001600160a01b03811681146114dd57600080fd5b50565b600080604083850312156114f357600080fd5b82356114fe816114c8565b946020939093013593505050565b634e487b7160e01b600052604160045260246000fd5b60405160e081016001600160401b03811182821017156115445761154461150c565b60405290565b604051601f8201601f191681016001600160401b03811182821017156115725761157261150c565b604052919050565b60006001600160401b038211156115935761159361150c565b50601f01601f191660200190565b600082601f8301126115b257600080fd5b81356115c56115c08261157a565b61154a565b8181528460208386010111156115da57600080fd5b816020850160208301376000918101602001919091529392505050565b60006020828403121561160957600080fd5b81356001600160401b0381111561161f57600080fd5b61162b848285016115a1565b949350505050565b6001600160401b03811681146114dd57600080fd5b60006020828403121561165a57600080fd5b813561166581611633565b9392505050565b60008060006060848603121561168157600080fd5b83356001600160401b0381111561169757600080fd5b6116a3868287016115a1565b93505060208401356001600160401b038111156116bf57600080fd5b6116cb868287016115a1565b92505060408401356001600160401b038111156116e757600080fd5b6116f3868287016115a1565b9150509250925092565b6000806000806080858703121561171357600080fd5b8435935060208501359250604085013561172c81611633565b915060608501356001600160401b0381111561174757600080fd5b611753878288016115a1565b91505092959194509250565b60006020828403121561177157600080fd5b8135611665816114c8565b602080825282518282018190526000918401906040840190835b818110156117bd5783516001600160401b0316835260209384019390920191600101611796565b509095945050505050565b60005b838110156117e35781810151838201526020016117cb565b50506000910152565b600081518084526118048160208601602086016117c8565b601f01601f19169290920160200192915050565b602081526118326020820183516001600160401b03169052565b6000602083015161184e60408401826001600160a01b03169052565b506040830151610100606084015261186a6101208401826117ec565b90506060840151601f1984830301608085015261188782826117ec565b9150506080840151601f198483030160a08501526118a582826117ec565b91505060a08401516118bf60c085018263ffffffff169052565b5060c084015161ffff811660e08501525060e08401516101008401528091505092915050565b60018060a01b038616815284602082015283604082015282606082015260a06080820152600061191860a08301846117ec565b979650505050505050565b6000806040838503121561193657600080fd5b8235611941816114c8565b9150602083013561195181611633565b809150509250929050565b6008811061197a57634e487b7160e01b600052602160045260246000fd5b9052565b6040810161198c828561195c565b6001600160a01b039290921660209190910152919050565b6000602082840312156119b657600080fd5b8151801515811461166557600080fd5b6020808252600f908201526e4f6e6c7920737570706f727465727360881b604082015260600190565b600181811c90821680611a0357607f821691505b602082108103611a2357634e487b7160e01b600052602260045260246000fd5b50919050565b601f821115611a7357806000526020600020601f840160051c81016020851015611a505750805b601f840160051c820191505b81811015611a705760008155600101611a5c565b50505b505050565b81516001600160401b03811115611a9157611a9161150c565b611aa581611a9f84546119ef565b84611a29565b6020601f821160018114611ad95760008315611ac15750848201515b600019600385901b1c1916600184901b178455611a70565b600084815260208120601f198516915b82811015611b095787850151825560209485019460019092019101611ae9565b5084821015611b275786840151600019600387901b60f8161c191681555b50505050600190811b01905550565b8051611b4181611633565b919050565b8051611b41816114c8565b600082601f830112611b6257600080fd5b8151611b706115c08261157a565b818152846020838601011115611b8557600080fd5b61162b8260208301602087016117c8565b600060208284031215611ba857600080fd5b81516001600160401b03811115611bbe57600080fd5b820160e08185031215611bd057600080fd5b611bd8611522565b611be182611b36565b8152611bef60208301611b46565b602082015260408201516001600160401b03811115611c0d57600080fd5b611c1986828501611b51565b60408301525060608201516001600160401b03811115611c3857600080fd5b611c4486828501611b51565b60608301525060808201516001600160401b03811115611c6357600080fd5b611c6f86828501611b51565b60808301525060a0828101519082015260c091820151918101919091529392505050565b634e487b7160e01b600052601160045260246000fd5b600061ffff821661ffff8103611cc157611cc1611c93565b60010192915050565b60208101611cd8828461195c565b92915050565b600060208284031215611cf057600080fd5b815161166581611633565b6001600160401b038181168382160190811115611cd857611cd8611c93565b6001600160a01b038316815260408101611665602083018461195c565b6001600160401b0385168152608060208201526000611d5960808301866117ec565b8281036040840152611d6b81866117ec565b91505082606083015295945050505050565b60006001600160401b0382166001600160401b038103611cc157611cc1611c93565b80820180821115611cd857611cd8611c93565b600063ffffffff821663ffffffff8103611cc157611cc1611c93565b6001600160401b03861681528460208201526001600160401b038416604082015282606082015260a06080820152600061191860a08301846117ec565b60006080828403128015611e1e57600080fd5b50604051600090608081016001600160401b0381118282101715611e4457611e4461150c565b6040528351611e52816114c8565b81526020840151611e62816114c8565b6020820152604084015160088110611e78578283fd5b604082015260609384015193810193909352509092915050565b8082028115828204841417611cd857611cd8611c93565b600082611ec657634e487b7160e01b600052601260045260246000fd5b500490565b81810381811115611cd857611cd8611c9356fea26469706673582212207089e630d1b856a1981452daff15660d99f12ac5bb84b414b5cab0e2daac83f564736f6c634300081b0033",
  "linkReferences": {},
  "deployedLinkReferences": {}
}