{
  "_format": "hh-sol-artifact-1",
  "contractName": "SupporterRules",
  "sourceName": "contracts/SupporterRules.sol",
  "abi": [
    {
      "inputs": [
        {
          "internalType": "address",
          "name": "communityRulesAddress",
          "type": "address"
        },
        {
          "internalType": "address",
          "name": "researcherRulesAddress",
          "type": "address"
        }
      ],
      "stateMutability": "nonpayable",
      "type": "constructor"
    },
    {
      "anonymous": false,
      "inputs": [
        {
          "indexed": true,
          "internalType": "address",
          "name": "supporterAddress",
          "type": "address"
        },
        {
          "indexed": false,
          "internalType": "uint256",
          "name": "offsetId",
          "type": "uint256"
        },
        {
          "indexed": false,
          "internalType": "uint256",
          "name": "amountBurned",
          "type": "uint256"
        },
        {
          "indexed": false,
          "internalType": "uint256",
          "name": "calculatorItemId",
          "type": "uint256"
        },
        {
          "indexed": false,
          "internalType": "uint256",
          "name": "blockNumber",
          "type": "uint256"
        }
      ],
      "name": "OffsetMade",
      "type": "event"
    },
    {
      "anonymous": false,
      "inputs": [
        {
          "indexed": true,
          "internalType": "address",
          "name": "previousOwner",
          "type": "address"
        },
        {
          "indexed": true,
          "internalType": "address",
          "name": "newOwner",
          "type": "address"
        }
      ],
      "name": "OwnershipTransferred",
      "type": "event"
    },
    {
      "anonymous": false,
      "inputs": [
        {
          "indexed": true,
          "internalType": "address",
          "name": "publisherAddress",
          "type": "address"
        },
        {
          "indexed": false,
          "internalType": "uint256",
          "name": "publicationId",
          "type": "uint256"
        },
        {
          "indexed": false,
          "internalType": "uint256",
          "name": "amountBurned",
          "type": "uint256"
        },
        {
          "indexed": false,
          "internalType": "string",
          "name": "description",
          "type": "string"
        },
        {
          "indexed": false,
          "internalType": "uint256",
          "name": "blockNumber",
          "type": "uint256"
        }
      ],
      "name": "PublicationPosted",
      "type": "event"
    },
    {
      "anonymous": false,
      "inputs": [
        {
          "indexed": true,
          "internalType": "address",
          "name": "supporterAddress",
          "type": "address"
        },
        {
          "indexed": false,
          "internalType": "uint256",
          "name": "calculatorItemId",
          "type": "uint256"
        },
        {
          "indexed": false,
          "internalType": "uint256",
          "name": "blockNumber",
          "type": "uint256"
        }
      ],
      "name": "ReductionCommitmentDeclared",
      "type": "event"
    },
    {
      "anonymous": false,
      "inputs": [
        {
          "indexed": true,
          "internalType": "address",
          "name": "supporterAddress",
          "type": "address"
        },
        {
          "indexed": false,
          "internalType": "uint256",
          "name": "supporterId",
          "type": "uint256"
        },
        {
          "indexed": false,
          "internalType": "string",
          "name": "name",
          "type": "string"
        },
        {
          "indexed": false,
          "internalType": "string",
          "name": "profilePhoto",
          "type": "string"
        },
        {
          "indexed": false,
          "internalType": "uint256",
          "name": "createdAtBlock",
          "type": "uint256"
        }
      ],
      "name": "SupporterRegistered",
      "type": "event"
    },
    {
      "inputs": [],
      "name": "INVITER_PERCENTAGE",
      "outputs": [
        {
          "internalType": "uint8",
          "name": "",
          "type": "uint8"
        }
      ],
      "stateMutability": "view",
      "type": "function"
    },
    {
      "inputs": [
        {
          "internalType": "string",
          "name": "name",
          "type": "string"
        },
        {
          "internalType": "string",
          "name": "description",
          "type": "string"
        },
        {
          "internalType": "string",
          "name": "profilePhoto",
          "type": "string"
        }
      ],
      "name": "addSupporter",
      "outputs": [],
      "stateMutability": "nonpayable",
      "type": "function"
    },
    {
      "inputs": [
        {
          "internalType": "address",
          "name": "",
          "type": "address"
        }
      ],
      "name": "allowedCallers",
      "outputs": [
        {
          "internalType": "bool",
          "name": "",
          "type": "bool"
        }
      ],
      "stateMutability": "view",
      "type": "function"
    },
    {
      "inputs": [
        {
          "internalType": "address",
          "name": "supporterAddress",
          "type": "address"
        },
        {
          "internalType": "uint256",
          "name": "amount",
          "type": "uint256"
        }
      ],
      "name": "calculateCommission",
      "outputs": [
        {
          "internalType": "uint256",
          "name": "amountToBurn",
          "type": "uint256"
        },
        {
          "internalType": "uint256",
          "name": "commission",
          "type": "uint256"
        },
        {
          "internalType": "address",
          "name": "inviter",
          "type": "address"
        }
      ],
      "stateMutability": "view",
      "type": "function"
    },
    {
      "inputs": [
        {
          "internalType": "address",
          "name": "",
          "type": "address"
        },
        {
          "internalType": "uint64",
          "name": "",
          "type": "uint64"
        }
      ],
      "name": "calculatorItemCertificates",
      "outputs": [
        {
          "internalType": "uint256",
          "name": "",
          "type": "uint256"
        }
      ],
      "stateMutability": "view",
      "type": "function"
    },
    {
      "inputs": [
        {
          "internalType": "uint64",
          "name": "calculatorItemId",
          "type": "uint64"
        }
      ],
      "name": "declareReductionCommitment",
      "outputs": [],
      "stateMutability": "nonpayable",
      "type": "function"
    },
    {
      "inputs": [
        {
          "internalType": "address",
          "name": "",
          "type": "address"
        },
        {
          "internalType": "uint256",
          "name": "",
          "type": "uint256"
        }
      ],
      "name": "declaredReduction",
      "outputs": [
        {
          "internalType": "bool",
          "name": "",
          "type": "bool"
        }
      ],
      "stateMutability": "view",
      "type": "function"
    },
    {
      "inputs": [
        {
          "internalType": "address",
          "name": "addr",
          "type": "address"
        }
      ],
      "name": "getReductionCommitments",
      "outputs": [
        {
          "internalType": "uint64[]",
          "name": "",
          "type": "uint64[]"
        }
      ],
      "stateMutability": "view",
      "type": "function"
    },
    {
      "inputs": [
        {
          "internalType": "address",
          "name": "addr",
          "type": "address"
        }
      ],
      "name": "getSupporter",
      "outputs": [
        {
          "components": [
            {
              "internalType": "uint64",
              "name": "id",
              "type": "uint64"
            },
            {
              "internalType": "address",
              "name": "supporterWallet",
              "type": "address"
            },
            {
              "internalType": "string",
              "name": "name",
              "type": "string"
            },
            {
              "internalType": "string",
              "name": "description",
              "type": "string"
            },
            {
              "internalType": "string",
              "name": "profilePhoto",
              "type": "string"
            },
            {
              "internalType": "uint32",
              "name": "publicationsCount",
              "type": "uint32"
            },
            {
              "internalType": "uint32",
              "name": "offsetsCount",
              "type": "uint32"
            },
            {
              "internalType": "uint16",
              "name": "reductionItemsCount",
              "type": "uint16"
            },
            {
              "internalType": "uint256",
              "name": "createdAt",
              "type": "uint256"
            }
          ],
          "internalType": "struct Supporter",
          "name": "",
          "type": "tuple"
        }
      ],
      "stateMutability": "view",
      "type": "function"
    },
    {
      "inputs": [
        {
          "internalType": "address",
          "name": "caller",
          "type": "address"
        }
      ],
      "name": "isAllowedCaller",
      "outputs": [
        {
          "internalType": "bool",
          "name": "",
          "type": "bool"
        }
      ],
      "stateMutability": "view",
      "type": "function"
    },
    {
      "inputs": [
        {
          "internalType": "address",
          "name": "addr",
          "type": "address"
        }
      ],
      "name": "isSupporter",
      "outputs": [
        {
          "internalType": "bool",
          "name": "",
          "type": "bool"
        }
      ],
      "stateMutability": "view",
      "type": "function"
    },
    {
      "inputs": [
        {
          "internalType": "address",
          "name": "allowed",
          "type": "address"
        }
      ],
      "name": "newAllowedCaller",
      "outputs": [],
      "stateMutability": "nonpayable",
      "type": "function"
    },
    {
      "inputs": [
        {
          "internalType": "address",
          "name": "supporterAddress",
          "type": "address"
        },
        {
          "internalType": "uint256",
          "name": "amountToBurn",
          "type": "uint256"
        },
        {
          "internalType": "uint64",
          "name": "calculatorItemId",
          "type": "uint64"
        }
      ],
      "name": "offset",
      "outputs": [],
      "stateMutability": "nonpayable",
      "type": "function"
    },
    {
      "inputs": [
        {
          "internalType": "uint64",
          "name": "",
          "type": "uint64"
        }
      ],
      "name": "offsets",
      "outputs": [
        {
          "internalType": "address",
          "name": "supporterAddress",
          "type": "address"
        },
        {
          "internalType": "uint256",
          "name": "createdAt",
          "type": "uint256"
        },
        {
          "internalType": "uint256",
          "name": "amountBurn",
          "type": "uint256"
        },
        {
          "internalType": "uint256",
          "name": "calculatorItemId",
          "type": "uint256"
        }
      ],
      "stateMutability": "view",
      "type": "function"
    },
    {
      "inputs": [],
      "name": "offsetsCount",
      "outputs": [
        {
          "internalType": "uint64",
          "name": "",
          "type": "uint64"
        }
      ],
      "stateMutability": "view",
      "type": "function"
    },
    {
      "inputs": [],
      "name": "owner",
      "outputs": [
        {
          "internalType": "address",
          "name": "",
          "type": "address"
        }
      ],
      "stateMutability": "view",
      "type": "function"
    },
    {
      "inputs": [
        {
          "internalType": "uint64",
          "name": "",
          "type": "uint64"
        }
      ],
      "name": "publications",
      "outputs": [
        {
          "internalType": "address",
          "name": "supporterAddress",
          "type": "address"
        },
        {
          "internalType": "uint256",
          "name": "createdAt",
          "type": "uint256"
        },
        {
          "internalType": "uint256",
          "name": "amount",
          "type": "uint256"
        },
        {
          "internalType": "string",
          "name": "description",
          "type": "string"
        },
        {
          "internalType": "string",
          "name": "content",
          "type": "string"
        }
      ],
      "stateMutability": "view",
      "type": "function"
    },
    {
      "inputs": [],
      "name": "publicationsCount",
      "outputs": [
        {
          "internalType": "uint64",
          "name": "",
          "type": "uint64"
        }
      ],
      "stateMutability": "view",
      "type": "function"
    },
    {
      "inputs": [
        {
          "internalType": "address",
          "name": "supporterAddress",
          "type": "address"
        },
        {
          "internalType": "uint256",
          "name": "amountToBurn",
          "type": "uint256"
        },
        {
          "internalType": "string",
          "name": "description",
          "type": "string"
        },
        {
          "internalType": "string",
          "name": "content",
          "type": "string"
        }
      ],
      "name": "publish",
      "outputs": [],
      "stateMutability": "nonpayable",
      "type": "function"
    },
    {
      "inputs": [
        {
          "internalType": "address",
          "name": "",
          "type": "address"
        },
        {
          "internalType": "uint256",
          "name": "",
          "type": "uint256"
        }
      ],
      "name": "reductionCommitments",
      "outputs": [
        {
          "internalType": "uint64",
          "name": "",
          "type": "uint64"
        }
      ],
      "stateMutability": "view",
      "type": "function"
    },
    {
      "inputs": [],
      "name": "renounceOwnership",
      "outputs": [],
      "stateMutability": "nonpayable",
      "type": "function"
    },
    {
      "inputs": [
        {
          "internalType": "address",
          "name": "_regenerationCreditAddress",
          "type": "address"
        }
      ],
      "name": "setContractCall",
      "outputs": [],
      "stateMutability": "nonpayable",
      "type": "function"
    },
    {
      "inputs": [
        {
          "internalType": "uint256",
          "name": "",
          "type": "uint256"
        }
      ],
      "name": "supportersAddress",
      "outputs": [
        {
          "internalType": "address",
          "name": "",
          "type": "address"
        }
      ],
      "stateMutability": "view",
      "type": "function"
    },
    {
      "inputs": [
        {
          "internalType": "address",
          "name": "newOwner",
          "type": "address"
        }
      ],
      "name": "transferOwnership",
      "outputs": [],
      "stateMutability": "nonpayable",
      "type": "function"
    },
    {
      "inputs": [
        {
          "internalType": "string",
          "name": "newPhoto",
          "type": "string"
        }
      ],
      "name": "updateProfilePhoto",
      "outputs": [],
      "stateMutability": "nonpayable",
      "type": "function"
    }
  ],
  "bytecode": "0x608060405234801561001057600080fd5b5060405161247b38038061247b83398101604081905261002f916100d5565b61003833610069565b600a80546001600160a01b039384166001600160a01b031991821617909155600b8054929093169116179055610108565b600080546001600160a01b038381166001600160a01b0319831681178455604051919092169283917f8be0079c531659141344cd1fd0a4f28419497f9722a3daafe3b4186f6b6457e09190a35050565b80516001600160a01b03811681146100d057600080fd5b919050565b600080604083850312156100e857600080fd5b6100f1836100b9565b91506100ff602084016100b9565b90509250929050565b612364806101176000396000f3fe608060405234801561001057600080fd5b50600436106101735760003560e01c80638f93716f116100de578063dc02837f11610097578063f2fde38b11610071578063f2fde38b146103e7578063f3dbcae0146103fa578063f8a47d8a1461041e578063f9c5512c1461048757600080fd5b8063dc02837f14610386578063e5fb5099146103a6578063ee9645e8146103b957600080fd5b80638f93716f146102e757806394cea0a3146102fa578063a680125814610314578063b9cccee314610340578063cf78537f14610353578063d4fadeae1461036657600080fd5b80632e7759ba116101305780632e7759ba14610262578063715018a614610275578063755d4f971461027d5780637b3341541461029057806385851afc146102c35780638da5cb5b146102d657600080fd5b806305b95fbe146101785780630864e8f6146101be5780630d378ffd146101f05780630e2647ad1461020357806320f5f456146102185780632d8713471461022b575b600080fd5b6101a16101863660046118bb565b6006602052600090815260409020546001600160a01b031681565b6040516001600160a01b0390911681526020015b60405180910390f35b6007546101d890600160401b90046001600160401b031681565b6040516001600160401b0390911681526020016101b5565b6101d86101fe3660046118e9565b6104c0565b610216610211366004611a00565b61050c565b005b610216610226366004611a51565b610626565b61023e6102393660046118e9565b610913565b6040805193845260208401929092526001600160a01b0316908201526060016101b5565b610216610270366004611a75565b6109d3565b610216610ccb565b61021661028b366004611b06565b610cdf565b6102b361029e366004611b06565b60016020526000908152604090205460ff1681565b60405190151581526020016101b5565b6007546101d8906001600160401b031681565b6000546001600160a01b03166101a1565b6102166102f5366004611b06565b610d09565b610302600581565b60405160ff90911681526020016101b5565b6102b3610322366004611b06565b6001600160a01b031660009081526001602052604090205460ff1690565b6102b361034e366004611b06565b610d38565b610216610361366004611b23565b610db3565b610379610374366004611b06565b610fde565b6040516101b59190611ba6565b610399610394366004611b06565b61107c565b6040516101b59190611c42565b6102166103b4366004611d23565b61132d565b6102b36103c73660046118e9565b600560209081526000928352604080842090915290825290205460ff1681565b6102166103f5366004611b06565b61164d565b61040d610408366004611a51565b6116c6565b6040516101b5959493929190611d65565b61045d61042c366004611a51565b60096020526000908152604090208054600182015460028301546003909301546001600160a01b0390921692909184565b604080516001600160a01b03909516855260208501939093529183015260608201526080016101b5565b6104b2610495366004611db0565b600360209081526000928352604080842090915290825290205481565b6040519081526020016101b5565b600460205281600052604060002081815481106104dc57600080fd5b9060005260206000209060049182820401919006600802915091509054906101000a90046001600160401b031681565b8051609610156105545760405162461bcd60e51b815260206004820152600e60248201526d4d6178206368617261637465727360901b60448201526064015b60405180910390fd5b600a54604051631292f8c160e31b81526001600160a01b0390911690639497c60890610587906007903390600401611e0b565b602060405180830381865afa1580156105a4573d6000803e3d6000fd5b505050506040513d601f19601f820116820180604052508101906105c89190611e31565b6106065760405162461bcd60e51b815260206004820152600f60248201526e4f6e6c7920737570706f727465727360881b604482015260640161054b565b3360009081526002602052604090206003016106228282611edc565b5050565b600a54604051631292f8c160e31b81526001600160a01b0390911690639497c60890610659906007903390600401611e0b565b602060405180830381865afa158015610676573d6000803e3d6000fd5b505050506040513d601f19601f8201168201806040525081019061069a9190611e31565b6106d85760405162461bcd60e51b815260206004820152600f60248201526e4f6e6c7920737570706f727465727360881b604482015260640161054b565b3360009081526005602090815260408083206001600160401b038516845290915290205460ff161561074c5760405162461bcd60e51b815260206004820152601b60248201527f436f6d6d69746d656e7420616c7265616479206465636c617265640000000000604482015260640161054b565b600b546040516311868d0b60e01b81526001600160401b03831660048201526000916001600160a01b0316906311868d0b90602401600060405180830381865afa15801561079e573d6000803e3d6000fd5b505050506040513d6000823e601f3d908101601f191682016040526107c69190810190611ffa565b80519091506001600160401b03166108205760405162461bcd60e51b815260206004820152601e60248201527f43616c63756c61746f72206974656d20646f6573206e6f742065786973740000604482015260640161054b565b3360008181526004602081815260408084208054600181810183559186528386208582040180546001600160401b03808c166008600390951685026101000a81810292021990921617909155878752600585528387209087528452828620805460ff1916909217909155948452600290915290912001805461ffff600160401b90910416916108ae83612103565b825461ffff9182166101009390930a928302919092021990911617905550604080516001600160401b038416815243602082015233917f6a8703d0dfd7a2ebeec57615dbfe3bd225042a61a5ddc5e565d02ee8cc27c82d910160405180910390a25050565b600a5460405163158bdc5f60e11b81526001600160a01b0384811660048301526000928392839283921690632b17b8be90602401608060405180830381865afa158015610964573d6000803e3d6000fd5b505050506040513d601f19601f820116820180604052508101906109889190612124565b6060810151602082015193509091501515806109a55760006109bc565b60646109b26005886121ab565b6109bc91906121c2565b93506109c884876121e4565b945050509250925092565b82516032108015906109e75750815160c810155b80156109f557508051609610155b610a3a5760405162461bcd60e51b815260206004820152601660248201527513585e0818da185c9858dd195c9cc81c995858da195960521b604482015260640161054b565b600a5460405162f5960960e51b81526000916001600160a01b031690631eb2c12090610a6b906007906004016121f7565b602060405180830381865afa158015610a88573d6000803e3d6000fd5b505050506040513d601f19601f82011682018060405250810190610aac9190612205565b610ab7906001612222565b60408051610120810182526001600160401b0380841682523360208084018281528486018b8152606086018b9052608086018a9052600060a0870181905260c0870181905260e08701819052436101008801529384526002909252949091208351815495516001600160a01b0316600160401b026001600160e01b03199096169316929092179390931781559151929350916001820190610b589082611edc565b5060608201516002820190610b6d9082611edc565b5060808201516003820190610b829082611edc565b5060a08201516004808301805460c086015160e087015161ffff16600160401b0269ffff00000000000000001963ffffffff9283166401000000000267ffffffffffffffff199094169290961691909117919091179390931692909217909155610100909201516005909101556001600160401b0382166000908152600660205260409081902080546001600160a01b03191633908117909155600a549151639c3eead960e01b81526001600160a01b039290921692639c3eead992610c4c929160079101612241565b600060405180830381600087803b158015610c6657600080fd5b505af1158015610c7a573d6000803e3d6000fd5b50505050336001600160a01b03167f2fe5386557a95a5d820fa0514dc2a3c8d60986e6f41bace2d281e6b8d63636eb82868543604051610cbd949392919061225e565b60405180910390a250505050565b610cd3611811565b610cdd600061186b565b565b610ce7611811565b600c80546001600160a01b0319166001600160a01b0392909216919091179055565b610d11611811565b6001600160a01b03166000908152600160208190526040909120805460ff19169091179055565b600a54604051631292f8c160e31b81526000916001600160a01b031690639497c60890610d6c906007908690600401611e0b565b602060405180830381865afa158015610d89573d6000803e3d6000fd5b505050506040513d601f19601f82011682018060405250810190610dad9190611e31565b92915050565b3360009081526001602052604090205460ff16610e075760405162461bcd60e51b81526020600482015260126024820152712737ba1030b63637bbb2b21031b0b63632b960711b604482015260640161054b565b600c546001600160a01b0316338114610e625760405162461bcd60e51b815260206004820152601e60248201527f43616c6c6572206d7573742062652073797374656d20636f6e74726163740000604482015260640161054b565b60078054600160401b90046001600160401b0316906008610e82836122a4565b82546101009290920a6001600160401b038181021990931691831602179091556007546040805160a0810182526001600160a01b038a811682524360208084019182528385018c8152606085018c8152608086018c9052600160401b90970490971660008181526008909252949020835181546001600160a01b03191693169290921782555160018201559351600285015591519093509091906003820190610f2b9082611edc565b5060808201516004820190610f409082611edc565b5050506001600160a01b0386166000908152600260205260408120600401805463ffffffff1691610f70836122c6565b91906101000a81548163ffffffff021916908363ffffffff16021790555050856001600160a01b03167fdf5cfbe4bde5ebebb5a679aed00fda9e915bd7d3b29742fe92dd2326636d3f2182878743604051610fce94939291906122e2565b60405180910390a2505050505050565b6001600160a01b03811660009081526004602090815260409182902080548351818402810184019094528084526060939283018282801561107057602002820191906000526020600020906000905b82829054906101000a90046001600160401b03166001600160401b03168152602001906008019060208260070104928301926001038202915080841161102d5790505b50505050509050919050565b6110ed60405180610120016040528060006001600160401b0316815260200160006001600160a01b03168152602001606081526020016060815260200160608152602001600063ffffffff168152602001600063ffffffff168152602001600061ffff168152602001600081525090565b6001600160a01b0380831660009081526002602090815260409182902082516101208101845281546001600160401b0381168252600160401b900490941691840191909152600181018054919284019161114690611e53565b80601f016020809104026020016040519081016040528092919081815260200182805461117290611e53565b80156111bf5780601f10611194576101008083540402835291602001916111bf565b820191906000526020600020905b8154815290600101906020018083116111a257829003601f168201915b505050505081526020016002820180546111d890611e53565b80601f016020809104026020016040519081016040528092919081815260200182805461120490611e53565b80156112515780601f1061122657610100808354040283529160200191611251565b820191906000526020600020905b81548152906001019060200180831161123457829003601f168201915b5050505050815260200160038201805461126a90611e53565b80601f016020809104026020016040519081016040528092919081815260200182805461129690611e53565b80156112e35780601f106112b8576101008083540402835291602001916112e3565b820191906000526020600020905b8154815290600101906020018083116112c657829003601f168201915b5050509183525050600482015463ffffffff80821660208401526401000000008204166040830152600160401b900461ffff16606082015260059091015460809091015292915050565b3360009081526001602052604090205460ff166113815760405162461bcd60e51b81526020600482015260126024820152712737ba1030b63637bbb2b21031b0b63632b960711b604482015260640161054b565b600c546001600160a01b03163381146113dc5760405162461bcd60e51b815260206004820152601e60248201527f43616c6c6572206d7573742062652073797374656d20636f6e74726163740000604482015260640161054b565b600b546040516311868d0b60e01b81526001600160401b03841660048201526000916001600160a01b0316906311868d0b90602401600060405180830381865afa15801561142e573d6000803e3d6000fd5b505050506040513d6000823e601f3d908101601f191682016040526114569190810190611ffa565b516001600160401b0316116114ad5760405162461bcd60e51b815260206004820152601e60248201527f43616c63756c61746f72206974656d20646f6573206e6f742065786973740000604482015260640161054b565b600780546001600160401b03169060006114c6836122a4565b82546101009290920a6001600160401b038181021990931691831602179091556007546001600160a01b038716600090815260036020908152604080832088861684529091528120805492909316935086929161152490849061231b565b9091555050604080516080810182526001600160a01b038781168083524360208085019182528486018a81526001600160401b038a811660608801908152908916600090815260098452888120975188546001600160a01b0319169716969096178755925160018701555160028087019190915591516003909501949094559082529091522060049081018054640100000000900463ffffffff16916115c9836122c6565b82546101009290920a63ffffffff81810219909316919092169190910217905550604080516001600160401b0383811682526020820187905285168183015243606082015290516001600160a01b038716917f37402fe4219227a84d8eb9834b7e64d61f4f583fd5a522e66731a697afecaf65919081900360800190a25050505050565b611655611811565b6001600160a01b0381166116ba5760405162461bcd60e51b815260206004820152602660248201527f4f776e61626c653a206e6577206f776e657220697320746865207a65726f206160448201526564647265737360d01b606482015260840161054b565b6116c38161186b565b50565b60086020526000908152604090208054600182015460028301546003840180546001600160a01b0390941694929391929161170090611e53565b80601f016020809104026020016040519081016040528092919081815260200182805461172c90611e53565b80156117795780601f1061174e57610100808354040283529160200191611779565b820191906000526020600020905b81548152906001019060200180831161175c57829003601f168201915b50505050509080600401805461178e90611e53565b80601f01602080910402602001604051908101604052809291908181526020018280546117ba90611e53565b80156118075780601f106117dc57610100808354040283529160200191611807565b820191906000526020600020905b8154815290600101906020018083116117ea57829003601f168201915b5050505050905085565b6000546001600160a01b03163314610cdd5760405162461bcd60e51b815260206004820181905260248201527f4f776e61626c653a2063616c6c6572206973206e6f7420746865206f776e6572604482015260640161054b565b600080546001600160a01b038381166001600160a01b0319831681178455604051919092169283917f8be0079c531659141344cd1fd0a4f28419497f9722a3daafe3b4186f6b6457e09190a35050565b6000602082840312156118cd57600080fd5b5035919050565b6001600160a01b03811681146116c357600080fd5b600080604083850312156118fc57600080fd5b8235611907816118d4565b946020939093013593505050565b634e487b7160e01b600052604160045260246000fd5b60405160c081016001600160401b038111828210171561194d5761194d611915565b60405290565b604051601f8201601f191681016001600160401b038111828210171561197b5761197b611915565b604052919050565b60006001600160401b0382111561199c5761199c611915565b50601f01601f191660200190565b600082601f8301126119bb57600080fd5b81356119ce6119c982611983565b611953565b8181528460208386010111156119e357600080fd5b816020850160208301376000918101602001919091529392505050565b600060208284031215611a1257600080fd5b81356001600160401b03811115611a2857600080fd5b611a34848285016119aa565b949350505050565b6001600160401b03811681146116c357600080fd5b600060208284031215611a6357600080fd5b8135611a6e81611a3c565b9392505050565b600080600060608486031215611a8a57600080fd5b83356001600160401b03811115611aa057600080fd5b611aac868287016119aa565b93505060208401356001600160401b03811115611ac857600080fd5b611ad4868287016119aa565b92505060408401356001600160401b03811115611af057600080fd5b611afc868287016119aa565b9150509250925092565b600060208284031215611b1857600080fd5b8135611a6e816118d4565b60008060008060808587031215611b3957600080fd5b8435611b44816118d4565b93506020850135925060408501356001600160401b03811115611b6657600080fd5b611b72878288016119aa565b92505060608501356001600160401b03811115611b8e57600080fd5b611b9a878288016119aa565b91505092959194509250565b602080825282518282018190526000918401906040840190835b81811015611be75783516001600160401b0316835260209384019390920191600101611bc0565b509095945050505050565b60005b83811015611c0d578181015183820152602001611bf5565b50506000910152565b60008151808452611c2e816020860160208601611bf2565b601f01601f19169290920160200192915050565b60208152611c5c6020820183516001600160401b03169052565b60006020830151611c7860408401826001600160a01b03169052565b5060408301516101206060840152611c94610140840182611c16565b90506060840151601f19848303016080850152611cb18282611c16565b9150506080840151601f198483030160a0850152611ccf8282611c16565b91505060a0840151611ce960c085018263ffffffff169052565b5060c084015163ffffffff811660e08501525060e084015161ffff8116610100850152506101008401516101208401528091505092915050565b600080600060608486031215611d3857600080fd5b8335611d43816118d4565b9250602084013591506040840135611d5a81611a3c565b809150509250925092565b60018060a01b038616815284602082015283604082015260a060608201526000611d9260a0830185611c16565b8281036080840152611da48185611c16565b98975050505050505050565b60008060408385031215611dc357600080fd5b8235611dce816118d4565b91506020830135611dde81611a3c565b809150509250929050565b60098110611e0757634e487b7160e01b600052602160045260246000fd5b9052565b60408101611e198285611de9565b6001600160a01b039290921660209190910152919050565b600060208284031215611e4357600080fd5b81518015158114611a6e57600080fd5b600181811c90821680611e6757607f821691505b602082108103611e8757634e487b7160e01b600052602260045260246000fd5b50919050565b601f821115611ed757806000526020600020601f840160051c81016020851015611eb45750805b601f840160051c820191505b81811015611ed45760008155600101611ec0565b50505b505050565b81516001600160401b03811115611ef557611ef5611915565b611f0981611f038454611e53565b84611e8d565b6020601f821160018114611f3d5760008315611f255750848201515b600019600385901b1c1916600184901b178455611ed4565b600084815260208120601f198516915b82811015611f6d5787850151825560209485019460019092019101611f4d565b5084821015611f8b5786840151600019600387901b60f8161c191681555b50505050600190811b01905550565b8051611fa581611a3c565b919050565b8051611fa5816118d4565b600082601f830112611fc657600080fd5b8151611fd46119c982611983565b818152846020838601011115611fe957600080fd5b611a34826020830160208701611bf2565b60006020828403121561200c57600080fd5b81516001600160401b0381111561202257600080fd5b820160c0818503121561203457600080fd5b61203c61192b565b61204582611f9a565b815261205360208301611faa565b602082015260408201516001600160401b0381111561207157600080fd5b61207d86828501611fb5565b60408301525060608201516001600160401b0381111561209c57600080fd5b6120a886828501611fb5565b60608301525060808201516001600160401b038111156120c757600080fd5b6120d386828501611fb5565b60808301525060a091820151918101919091529392505050565b634e487b7160e01b600052601160045260246000fd5b600061ffff821661ffff810361211b5761211b6120ed565b60010192915050565b6000608082840312801561213757600080fd5b50604051600090608081016001600160401b038111828210171561215d5761215d611915565b604052835161216b816118d4565b8152602084015161217b816118d4565b6020820152604084015160098110612191578283fd5b604082015260609384015193810193909352509092915050565b8082028115828204841417610dad57610dad6120ed565b6000826121df57634e487b7160e01b600052601260045260246000fd5b500490565b81810381811115610dad57610dad6120ed565b60208101610dad8284611de9565b60006020828403121561221757600080fd5b8151611a6e81611a3c565b6001600160401b038181168382160190811115610dad57610dad6120ed565b6001600160a01b038316815260408101611a6e6020830184611de9565b6001600160401b03851681526080602082015260006122806080830186611c16565b82810360408401526122928186611c16565b91505082606083015295945050505050565b60006001600160401b0382166001600160401b03810361211b5761211b6120ed565b600063ffffffff821663ffffffff810361211b5761211b6120ed565b6001600160401b038516815283602082015260806040820152600061230a6080830185611c16565b905082606083015295945050505050565b80820180821115610dad57610dad6120ed56fea26469706673582212201bc0431e1a69498261cb5e4f318d0ff027857dd0d87d689e088529bebf7a196664736f6c634300081b0033",
  "linkReferences": {},
  "deployedLinkReferences": {}
}