{
  "_format": "hh-sol-artifact-1",
  "contractName": "SupporterPool",
  "sourceName": "contracts/SupporterPool.sol",
  "abi": [
    {
      "inputs": [
        {
          "internalType": "address",
          "name": "regenerationCreditAddress",
          "type": "address"
        }
      ],
      "stateMutability": "nonpayable",
      "type": "constructor"
    },
    {
      "anonymous": false,
      "inputs": [
        {
          "indexed": true,
          "internalType": "address",
          "name": "previousOwner",
          "type": "address"
        },
        {
          "indexed": true,
          "internalType": "address",
          "name": "newOwner",
          "type": "address"
        }
      ],
      "name": "OwnershipTransferred",
      "type": "event"
    },
    {
      "anonymous": false,
      "inputs": [
        {
          "indexed": true,
          "internalType": "address",
          "name": "_tokenOwner",
          "type": "address"
        },
        {
          "indexed": false,
          "internalType": "uint256",
          "name": "_amountBurned",
          "type": "uint256"
        },
        {
          "indexed": true,
          "internalType": "address",
          "name": "_inviter",
          "type": "address"
        },
        {
          "indexed": false,
          "internalType": "uint256",
          "name": "_inviterTotalTokens",
          "type": "uint256"
        }
      ],
      "name": "PoolBurnTokensEvent",
      "type": "event"
    },
    {
      "inputs": [
        {
          "internalType": "address",
          "name": "",
          "type": "address"
        }
      ],
      "name": "allowedCallers",
      "outputs": [
        {
          "internalType": "bool",
          "name": "",
          "type": "bool"
        }
      ],
      "stateMutability": "view",
      "type": "function"
    },
    {
      "inputs": [
        {
          "internalType": "address",
          "name": "addr",
          "type": "address"
        }
      ],
      "name": "balanceOf",
      "outputs": [
        {
          "internalType": "uint256",
          "name": "",
          "type": "uint256"
        }
      ],
      "stateMutability": "view",
      "type": "function"
    },
    {
      "inputs": [
        {
          "internalType": "address",
          "name": "tokenOwner",
          "type": "address"
        },
        {
          "internalType": "address",
          "name": "inviter",
          "type": "address"
        },
        {
          "internalType": "uint256",
          "name": "amountBurn",
          "type": "uint256"
        },
        {
          "internalType": "uint256",
          "name": "inviterTotalTokens",
          "type": "uint256"
        }
      ],
      "name": "burnTokens",
      "outputs": [],
      "stateMutability": "nonpayable",
      "type": "function"
    },
    {
      "inputs": [
        {
          "internalType": "address",
          "name": "caller",
          "type": "address"
        }
      ],
      "name": "isAllowedCaller",
      "outputs": [
        {
          "internalType": "bool",
          "name": "",
          "type": "bool"
        }
      ],
      "stateMutability": "view",
      "type": "function"
    },
    {
      "inputs": [
        {
          "internalType": "address",
          "name": "allowed",
          "type": "address"
        }
      ],
      "name": "newAllowedCaller",
      "outputs": [],
      "stateMutability": "nonpayable",
      "type": "function"
    },
    {
      "inputs": [],
      "name": "owner",
      "outputs": [
        {
          "internalType": "address",
          "name": "",
          "type": "address"
        }
      ],
      "stateMutability": "view",
      "type": "function"
    },
    {
      "inputs": [],
      "name": "renounceOwnership",
      "outputs": [],
      "stateMutability": "nonpayable",
      "type": "function"
    },
    {
      "inputs": [
        {
          "internalType": "address",
          "name": "newOwner",
          "type": "address"
        }
      ],
      "name": "transferOwnership",
      "outputs": [],
      "stateMutability": "nonpayable",
      "type": "function"
    }
  ],
  "bytecode": "0x608060405234801561001057600080fd5b50604051610d76380380610d76833981810160405281019061003291906101c4565b61004e61004361009560201b60201c565b61009d60201b60201c565b80600260006101000a81548173ffffffffffffffffffffffffffffffffffffffff021916908373ffffffffffffffffffffffffffffffffffffffff160217905550506101f1565b600033905090565b60008060009054906101000a900473ffffffffffffffffffffffffffffffffffffffff169050816000806101000a81548173ffffffffffffffffffffffffffffffffffffffff021916908373ffffffffffffffffffffffffffffffffffffffff1602179055508173ffffffffffffffffffffffffffffffffffffffff168173ffffffffffffffffffffffffffffffffffffffff167f8be0079c531659141344cd1fd0a4f28419497f9722a3daafe3b4186f6b6457e060405160405180910390a35050565b600080fd5b600073ffffffffffffffffffffffffffffffffffffffff82169050919050565b600061019182610166565b9050919050565b6101a181610186565b81146101ac57600080fd5b50565b6000815190506101be81610198565b92915050565b6000602082840312156101da576101d9610161565b5b60006101e8848285016101af565b91505092915050565b610b76806102006000396000f3fe608060405234801561001057600080fd5b50600436106100885760003560e01c80638f93716f1161005b5780638f93716f14610115578063a680125814610131578063f2fde38b14610161578063f61b91601461017d57610088565b806370a082311461008d578063715018a6146100bd5780637b334154146100c75780638da5cb5b146100f7575b600080fd5b6100a760048036038101906100a291906107a6565b610199565b6040516100b491906107ec565b60405180910390f35b6100c561023e565b005b6100e160048036038101906100dc91906107a6565b610252565b6040516100ee9190610822565b60405180910390f35b6100ff610272565b60405161010c919061084c565b60405180910390f35b61012f600480360381019061012a91906107a6565b61029b565b005b61014b600480360381019061014691906107a6565b6102fd565b6040516101589190610822565b60405180910390f35b61017b600480360381019061017691906107a6565b610353565b005b61019760048036038101906101929190610893565b6103d6565b005b6000600260009054906101000a900473ffffffffffffffffffffffffffffffffffffffff1673ffffffffffffffffffffffffffffffffffffffff166370a08231836040518263ffffffff1660e01b81526004016101f6919061084c565b602060405180830381865afa158015610213573d6000803e3d6000fd5b505050506040513d601f19601f82011682018060405250810190610237919061090f565b9050919050565b6102466105f9565b6102506000610677565b565b60016020528060005260406000206000915054906101000a900460ff1681565b60008060009054906101000a900473ffffffffffffffffffffffffffffffffffffffff16905090565b6102a36105f9565b60018060008373ffffffffffffffffffffffffffffffffffffffff1673ffffffffffffffffffffffffffffffffffffffff16815260200190815260200160002060006101000a81548160ff02191690831515021790555050565b6000600160008373ffffffffffffffffffffffffffffffffffffffff1673ffffffffffffffffffffffffffffffffffffffff16815260200190815260200160002060009054906101000a900460ff169050919050565b61035b6105f9565b600073ffffffffffffffffffffffffffffffffffffffff168173ffffffffffffffffffffffffffffffffffffffff16036103ca576040517f08c379a00000000000000000000000000000000000000000000000000000000081526004016103c1906109bf565b60405180910390fd5b6103d381610677565b50565b600160003373ffffffffffffffffffffffffffffffffffffffff1673ffffffffffffffffffffffffffffffffffffffff16815260200190815260200160002060009054906101000a900460ff16610462576040517f08c379a000000000000000000000000000000000000000000000000000000000815260040161045990610a2b565b60405180910390fd5b600260009054906101000a900473ffffffffffffffffffffffffffffffffffffffff1673ffffffffffffffffffffffffffffffffffffffff1663b34b4d0085846040518363ffffffff1660e01b81526004016104bf929190610a4b565b600060405180830381600087803b1580156104d957600080fd5b505af11580156104ed573d6000803e3d6000fd5b505050508273ffffffffffffffffffffffffffffffffffffffff168473ffffffffffffffffffffffffffffffffffffffff167f7b313a3b1b185b233a730071a1ccc5df73f9abc93aaabcef2ee9ffec26a8a56b8484604051610550929190610a74565b60405180910390a360008111156105f357600260009054906101000a900473ffffffffffffffffffffffffffffffffffffffff1673ffffffffffffffffffffffffffffffffffffffff1663a2c7670e8585846040518463ffffffff1660e01b81526004016105c093929190610a9d565b600060405180830381600087803b1580156105da57600080fd5b505af11580156105ee573d6000803e3d6000fd5b505050505b50505050565b61060161073b565b73ffffffffffffffffffffffffffffffffffffffff1661061f610272565b73ffffffffffffffffffffffffffffffffffffffff1614610675576040517f08c379a000000000000000000000000000000000000000000000000000000000815260040161066c90610b20565b60405180910390fd5b565b60008060009054906101000a900473ffffffffffffffffffffffffffffffffffffffff169050816000806101000a81548173ffffffffffffffffffffffffffffffffffffffff021916908373ffffffffffffffffffffffffffffffffffffffff1602179055508173ffffffffffffffffffffffffffffffffffffffff168173ffffffffffffffffffffffffffffffffffffffff167f8be0079c531659141344cd1fd0a4f28419497f9722a3daafe3b4186f6b6457e060405160405180910390a35050565b600033905090565b600080fd5b600073ffffffffffffffffffffffffffffffffffffffff82169050919050565b600061077382610748565b9050919050565b61078381610768565b811461078e57600080fd5b50565b6000813590506107a08161077a565b92915050565b6000602082840312156107bc576107bb610743565b5b60006107ca84828501610791565b91505092915050565b6000819050919050565b6107e6816107d3565b82525050565b600060208201905061080160008301846107dd565b92915050565b60008115159050919050565b61081c81610807565b82525050565b60006020820190506108376000830184610813565b92915050565b61084681610768565b82525050565b6000602082019050610861600083018461083d565b92915050565b610870816107d3565b811461087b57600080fd5b50565b60008135905061088d81610867565b92915050565b600080600080608085870312156108ad576108ac610743565b5b60006108bb87828801610791565b94505060206108cc87828801610791565b93505060406108dd8782880161087e565b92505060606108ee8782880161087e565b91505092959194509250565b60008151905061090981610867565b92915050565b60006020828403121561092557610924610743565b5b6000610933848285016108fa565b91505092915050565b600082825260208201905092915050565b7f4f776e61626c653a206e6577206f776e657220697320746865207a65726f206160008201527f6464726573730000000000000000000000000000000000000000000000000000602082015250565b60006109a960268361093c565b91506109b48261094d565b604082019050919050565b600060208201905081810360008301526109d88161099c565b9050919050565b7f4e6f7420616c6c6f7765642063616c6c65720000000000000000000000000000600082015250565b6000610a1560128361093c565b9150610a20826109df565b602082019050919050565b60006020820190508181036000830152610a4481610a08565b9050919050565b6000604082019050610a60600083018561083d565b610a6d60208301846107dd565b9392505050565b6000604082019050610a8960008301856107dd565b610a9660208301846107dd565b9392505050565b6000606082019050610ab2600083018661083d565b610abf602083018561083d565b610acc60408301846107dd565b949350505050565b7f4f776e61626c653a2063616c6c6572206973206e6f7420746865206f776e6572600082015250565b6000610b0a60208361093c565b9150610b1582610ad4565b602082019050919050565b60006020820190508181036000830152610b3981610afd565b905091905056fea264697066735822122011c6fd92751668f7a08f0c08d753242c31d0725f8faa62a49ffd442f8b6927e964736f6c634300081b0033",
  "linkReferences": {},
  "deployedLinkReferences": {}
}