{
  "_format": "hh-sol-artifact-1",
  "contractName": "ValidationPool",
  "sourceName": "contracts/ValidationPool.sol",
  "abi": [
    {
      "inputs": [
        {
          "internalType": "address",
          "name": "regenerationCreditAddress",
          "type": "address"
        },
        {
          "internalType": "uint256",
          "name": "_halving",
          "type": "uint256"
        },
        {
          "internalType": "uint256",
          "name": "_blocksPerEra",
          "type": "uint256"
        }
      ],
      "stateMutability": "nonpayable",
      "type": "constructor"
    },
    {
      "inputs": [
        {
          "internalType": "address",
          "name": "owner",
          "type": "address"
        }
      ],
      "name": "OwnableInvalidOwner",
      "type": "error"
    },
    {
      "inputs": [
        {
          "internalType": "address",
          "name": "account",
          "type": "address"
        }
      ],
      "name": "OwnableUnauthorizedAccount",
      "type": "error"
    },
    {
      "inputs": [],
      "name": "ReentrancyGuardReentrantCall",
      "type": "error"
    },
    {
      "anonymous": false,
      "inputs": [
        {
          "indexed": true,
          "internalType": "address",
          "name": "previousOwner",
          "type": "address"
        },
        {
          "indexed": true,
          "internalType": "address",
          "name": "newOwner",
          "type": "address"
        }
      ],
      "name": "OwnershipTransferred",
      "type": "event"
    },
    {
      "anonymous": false,
      "inputs": [
        {
          "indexed": true,
          "internalType": "address",
          "name": "user",
          "type": "address"
        },
        {
          "indexed": false,
          "internalType": "uint256",
          "name": "era",
          "type": "uint256"
        },
        {
          "indexed": false,
          "internalType": "uint256",
          "name": "levelsAdded",
          "type": "uint256"
        },
        {
          "indexed": false,
          "internalType": "uint256",
          "name": "newTotalEraLevels",
          "type": "uint256"
        },
        {
          "indexed": false,
          "internalType": "uint256",
          "name": "newEraUserLevels",
          "type": "uint256"
        }
      ],
      "name": "PoolLevelAdded",
      "type": "event"
    },
    {
      "anonymous": false,
      "inputs": [
        {
          "indexed": true,
          "internalType": "address",
          "name": "user",
          "type": "address"
        },
        {
          "indexed": false,
          "internalType": "uint256",
          "name": "era",
          "type": "uint256"
        },
        {
          "indexed": false,
          "internalType": "uint256",
          "name": "levelsRemoved",
          "type": "uint256"
        },
        {
          "indexed": false,
          "internalType": "uint256",
          "name": "newTotalEraLevels",
          "type": "uint256"
        },
        {
          "indexed": false,
          "internalType": "uint256",
          "name": "newEraUserLevels",
          "type": "uint256"
        }
      ],
      "name": "PoolLevelRemoved",
      "type": "event"
    },
    {
      "anonymous": false,
      "inputs": [
        {
          "indexed": true,
          "internalType": "address",
          "name": "user",
          "type": "address"
        },
        {
          "indexed": false,
          "internalType": "uint256",
          "name": "era",
          "type": "uint256"
        },
        {
          "indexed": false,
          "internalType": "uint256",
          "name": "amount",
          "type": "uint256"
        }
      ],
      "name": "TokensWithdrawn",
      "type": "event"
    },
    {
      "inputs": [],
      "name": "BLOCKS_PRECISION",
      "outputs": [
        {
          "internalType": "uint256",
          "name": "",
          "type": "uint256"
        }
      ],
      "stateMutability": "view",
      "type": "function"
    },
    {
      "inputs": [
        {
          "internalType": "address",
          "name": "addr",
          "type": "address"
        },
        {
          "internalType": "address",
          "name": "denied",
          "type": "address"
        }
      ],
      "name": "addLevel",
      "outputs": [],
      "stateMutability": "nonpayable",
      "type": "function"
    },
    {
      "inputs": [
        {
          "internalType": "address",
          "name": "addr",
          "type": "address"
        }
      ],
      "name": "addPointsLevel",
      "outputs": [],
      "stateMutability": "nonpayable",
      "type": "function"
    },
    {
      "inputs": [
        {
          "internalType": "address",
          "name": "",
          "type": "address"
        }
      ],
      "name": "allowedCallers",
      "outputs": [
        {
          "internalType": "bool",
          "name": "",
          "type": "bool"
        }
      ],
      "stateMutability": "view",
      "type": "function"
    },
    {
      "inputs": [
        {
          "internalType": "uint256",
          "name": "currentUserEra",
          "type": "uint256"
        }
      ],
      "name": "canWithdraw",
      "outputs": [
        {
          "internalType": "bool",
          "name": "",
          "type": "bool"
        }
      ],
      "stateMutability": "view",
      "type": "function"
    },
    {
      "inputs": [
        {
          "internalType": "uint256",
          "name": "currentUserEra",
          "type": "uint256"
        }
      ],
      "name": "canWithdrawTimes",
      "outputs": [
        {
          "internalType": "uint256",
          "name": "",
          "type": "uint256"
        }
      ],
      "stateMutability": "view",
      "type": "function"
    },
    {
      "inputs": [],
      "name": "currentContractEra",
      "outputs": [
        {
          "internalType": "uint256",
          "name": "",
          "type": "uint256"
        }
      ],
      "stateMutability": "view",
      "type": "function"
    },
    {
      "inputs": [],
      "name": "currentEpoch",
      "outputs": [
        {
          "internalType": "uint256",
          "name": "",
          "type": "uint256"
        }
      ],
      "stateMutability": "view",
      "type": "function"
    },
    {
      "inputs": [
        {
          "internalType": "uint256",
          "name": "",
          "type": "uint256"
        },
        {
          "internalType": "address",
          "name": "",
          "type": "address"
        }
      ],
      "name": "eraLevels",
      "outputs": [
        {
          "internalType": "uint256",
          "name": "",
          "type": "uint256"
        }
      ],
      "stateMutability": "view",
      "type": "function"
    },
    {
      "inputs": [
        {
          "internalType": "uint256",
          "name": "",
          "type": "uint256"
        },
        {
          "internalType": "address",
          "name": "",
          "type": "address"
        }
      ],
      "name": "eraTokens",
      "outputs": [
        {
          "internalType": "uint256",
          "name": "",
          "type": "uint256"
        }
      ],
      "stateMutability": "view",
      "type": "function"
    },
    {
      "inputs": [
        {
          "internalType": "uint256",
          "name": "",
          "type": "uint256"
        }
      ],
      "name": "eras",
      "outputs": [
        {
          "internalType": "uint256",
          "name": "claimsCount",
          "type": "uint256"
        },
        {
          "internalType": "uint256",
          "name": "tokens",
          "type": "uint256"
        },
        {
          "internalType": "uint256",
          "name": "levels",
          "type": "uint256"
        }
      ],
      "stateMutability": "view",
      "type": "function"
    },
    {
      "inputs": [
        {
          "internalType": "uint256",
          "name": "era",
          "type": "uint256"
        }
      ],
      "name": "getEpochForEra",
      "outputs": [
        {
          "internalType": "uint256",
          "name": "",
          "type": "uint256"
        }
      ],
      "stateMutability": "view",
      "type": "function"
    },
    {
      "inputs": [
        {
          "internalType": "uint256",
          "name": "era",
          "type": "uint256"
        }
      ],
      "name": "getEra",
      "outputs": [
        {
          "components": [
            {
              "internalType": "uint256",
              "name": "claimsCount",
              "type": "uint256"
            },
            {
              "internalType": "uint256",
              "name": "tokens",
              "type": "uint256"
            },
            {
              "internalType": "uint256",
              "name": "levels",
              "type": "uint256"
            }
          ],
          "internalType": "struct Era",
          "name": "",
          "type": "tuple"
        }
      ],
      "stateMutability": "view",
      "type": "function"
    },
    {
      "inputs": [
        {
          "internalType": "address",
          "name": "",
          "type": "address"
        }
      ],
      "name": "hasProcessedLevel",
      "outputs": [
        {
          "internalType": "bool",
          "name": "",
          "type": "bool"
        }
      ],
      "stateMutability": "view",
      "type": "function"
    },
    {
      "inputs": [
        {
          "internalType": "uint256",
          "name": "",
          "type": "uint256"
        },
        {
          "internalType": "address",
          "name": "",
          "type": "address"
        }
      ],
      "name": "hasWithdrawn",
      "outputs": [
        {
          "internalType": "bool",
          "name": "",
          "type": "bool"
        }
      ],
      "stateMutability": "view",
      "type": "function"
    },
    {
      "inputs": [
        {
          "internalType": "address",
          "name": "delegate",
          "type": "address"
        },
        {
          "internalType": "uint256",
          "name": "era",
          "type": "uint256"
        }
      ],
      "name": "haveTokensToWithdraw",
      "outputs": [
        {
          "internalType": "bool",
          "name": "",
          "type": "bool"
        }
      ],
      "stateMutability": "view",
      "type": "function"
    },
    {
      "inputs": [
        {
          "internalType": "address",
          "name": "caller",
          "type": "address"
        }
      ],
      "name": "isAllowedCaller",
      "outputs": [
        {
          "internalType": "bool",
          "name": "",
          "type": "bool"
        }
      ],
      "stateMutability": "view",
      "type": "function"
    },
    {
      "inputs": [
        {
          "internalType": "address",
          "name": "allowed",
          "type": "address"
        }
      ],
      "name": "newAllowedCaller",
      "outputs": [],
      "stateMutability": "nonpayable",
      "type": "function"
    },
    {
      "inputs": [
        {
          "internalType": "uint256",
          "name": "targetEra",
          "type": "uint256"
        }
      ],
      "name": "nextEraIn",
      "outputs": [
        {
          "internalType": "int256",
          "name": "",
          "type": "int256"
        }
      ],
      "stateMutability": "view",
      "type": "function"
    },
    {
      "inputs": [],
      "name": "owner",
      "outputs": [
        {
          "internalType": "address",
          "name": "",
          "type": "address"
        }
      ],
      "stateMutability": "view",
      "type": "function"
    },
    {
      "inputs": [],
      "name": "regenerationCredit",
      "outputs": [
        {
          "internalType": "contract IRegenerationCredit",
          "name": "",
          "type": "address"
        }
      ],
      "stateMutability": "view",
      "type": "function"
    },
    {
      "inputs": [],
      "name": "renounceOwnership",
      "outputs": [],
      "stateMutability": "nonpayable",
      "type": "function"
    },
    {
      "inputs": [
        {
          "internalType": "address",
          "name": "_validationRulesAddress",
          "type": "address"
        }
      ],
      "name": "setContractCall",
      "outputs": [],
      "stateMutability": "nonpayable",
      "type": "function"
    },
    {
      "inputs": [
        {
          "internalType": "uint256",
          "name": "currentEpoch",
          "type": "uint256"
        }
      ],
      "name": "tokensPerEpoch",
      "outputs": [
        {
          "internalType": "uint256",
          "name": "",
          "type": "uint256"
        }
      ],
      "stateMutability": "view",
      "type": "function"
    },
    {
      "inputs": [
        {
          "internalType": "uint256",
          "name": "currentEpoch",
          "type": "uint256"
        },
        {
          "internalType": "uint256",
          "name": "halvingFactor",
          "type": "uint256"
        }
      ],
      "name": "tokensPerEra",
      "outputs": [
        {
          "internalType": "uint256",
          "name": "",
          "type": "uint256"
        }
      ],
      "stateMutability": "view",
      "type": "function"
    },
    {
      "inputs": [
        {
          "internalType": "address",
          "name": "newOwner",
          "type": "address"
        }
      ],
      "name": "transferOwnership",
      "outputs": [],
      "stateMutability": "nonpayable",
      "type": "function"
    },
    {
      "inputs": [],
      "name": "validationRulesAddress",
      "outputs": [
        {
          "internalType": "address",
          "name": "",
          "type": "address"
        }
      ],
      "stateMutability": "view",
      "type": "function"
    },
    {
      "inputs": [
        {
          "internalType": "address",
          "name": "delegate",
          "type": "address"
        },
        {
          "internalType": "uint256",
          "name": "era",
          "type": "uint256"
        }
      ],
      "name": "withdraw",
      "outputs": [],
      "stateMutability": "nonpayable",
      "type": "function"
    }
  ],
  "bytecode": "0x61010060405234801561001157600080fd5b506040516114f43803806114f4833981016040819052610030916100fb565b6a084595161401484a00000060805260a08190524360c05260e0829052338061007357604051631e4fbdf760e01b81526000600482015260240160405180910390fd5b61007c816100a9565b5050600160065550600780546001600160a01b0319166001600160a01b039290921691909117905561013e565b600480546001600160a01b038381166001600160a01b0319831681179093556040519116919082907f8be0079c531659141344cd1fd0a4f28419497f9722a3daafe3b4186f6b6457e090600090a35050565b60008060006060848603121561011057600080fd5b83516001600160a01b038116811461012757600080fd5b602085015160409095015190969495509392505050565b60805160a05160c05160e051611361610193600039600081816105f3015261089001526000818161095c015261099b01526000818161074c0152818161093101526109c70152600061064e01526113616000f3fe608060405234801561001057600080fd5b50600436106101c45760003560e01c806388b3acae116100f9578063b86c569911610097578063f2fde38b11610071578063f2fde38b14610465578063f3fef3a314610478578063fbe85f061461048b578063ff39043c1461049e57600080fd5b8063b86c569914610437578063d5ee3eb51461044a578063ed0df79e1461045d57600080fd5b806394cec7a7116100d357806394cec7a7146103a7578063a096b744146103d5578063a6801258146103e8578063b1c290261461041457600080fd5b806388b3acae146103585780638da5cb5b146103835780638f93716f1461039457600080fd5b8063715018a611610166578063766718081161014057806376671808146103125780637721f1b51461031a5780637b3341541461032d578063861b4ce11461035057600080fd5b8063715018a6146102ad578063720a70bd146102b5578063755d4f97146102ff57600080fd5b80632506b932116101a25780632506b932146102275780632eedcb181461023a5780632f9ed1ef1461026f5780633974b3451461029a57600080fd5b80630d149070146101c95780630f2dbe60146101de5780631f14f41514610206575b600080fd5b6101dc6101d736600461100c565b6104c9565b005b6101f16101ec36600461103f565b6105de565b60405190151581526020015b60405180910390f35b610219610214366004611069565b610625565b6040519081526020016101fd565b61021961023536600461108b565b61063b565b61024d61024836600461108b565b610672565b60408051825181526020808401519082015291810151908201526060016101fd565b600754610282906001600160a01b031681565b6040516001600160a01b0390911681526020016101fd565b600854610282906001600160a01b031681565b6101dc6106cd565b6102e46102c336600461108b565b60006020819052908152604090208054600182015460029092015490919083565b604080519384526020840192909252908201526060016101fd565b6101dc61030d3660046110a4565b6106e1565b61021961070b565b61021961032836600461108b565b61071d565b6101f161033b3660046110a4565b60056020526000908152604090205460ff1681565b610219600581565b6102196103663660046110bf565b600160209081526000928352604080842090915290825290205481565b6004546001600160a01b0316610282565b6101dc6103a23660046110a4565b610793565b6101f16103b53660046110bf565b600360209081526000928352604080842090915290825290205460ff1681565b6101dc6103e33660046110a4565b6107bf565b6101f16103f63660046110a4565b6001600160a01b031660009081526005602052604090205460ff1690565b6101f16104223660046110a4565b60096020526000908152604090205460ff1681565b61021961044536600461108b565b61083d565b61021961045836600461108b565b6108cf565b610219610993565b6101dc6104733660046110a4565b6109fd565b6101dc61048636600461103f565b610a3b565b6101f161049936600461108b565b610d40565b6102196104ac3660046110bf565b600260209081526000928352604080842090915290825290205481565b3360009081526005602052604090205460ff166105015760405162461bcd60e51b81526004016104f8906110e2565b60405180910390fd5b6008546001600160a01b031633811461052c5760405162461bcd60e51b81526004016104f89061110e565b610534610d52565b6001600160a01b03821660009081526009602052604090205460ff16156105965760405162461bcd60e51b8152602060048201526016602482015275155cd95c88185b1c9958591e481c1c9bd8d95cdcd95960521b60448201526064016104f8565b6001600160a01b0382166000908152600960205260409020805460ff191660019081179091556105cf9084906105ca610993565b610d7c565b6105d96001600655565b505050565b600061061c83836106176105f18661083d565b7f0000000000000000000000000000000000000000000000000000000000000000610625565b610e52565b90505b92915050565b6000816106318461063b565b61061c919061115b565b6000610648826002611264565b61061f907f000000000000000000000000000000000000000000000000000000000000000061115b565b61069660405180606001604052806000815260200160008152602001600081525090565b5060009081526020818152604091829020825160608101845281548152600182015492810192909252600201549181019190915290565b6106d5610e6b565b6106df6000610e98565b565b6106e9610e6b565b600880546001600160a01b0319166001600160a01b0392909216919091179055565b6000610718610445610993565b905090565b600080610729836108cf565b9050600081131561073d5750600092915050565b600061074882611270565b90507f00000000000000000000000000000000000000000000000000000000000000006107776005600a611264565b610781908361128c565b61078b919061115b565b949350505050565b61079b610e6b565b6001600160a01b03166000908152600560205260409020805460ff19166001179055565b3360009081526005602052604090205460ff166107ee5760405162461bcd60e51b81526004016104f8906110e2565b6008546001600160a01b03163381146108195760405162461bcd60e51b81526004016104f89061110e565b610821610d52565b61082f8260016105ca610993565b6108396001600655565b5050565b600080821161088e5760405162461bcd60e51b815260206004820152601a60248201527f457261206d7573742062652067726561746572207468616e203000000000000060448201526064016104f8565b7f00000000000000000000000000000000000000000000000000000000000000006108ba6001846112a3565b6108c4919061115b565b61061f9060016112b6565b600080821161092a5760405162461bcd60e51b815260206004820152602160248201527f54617267657420657261206d7573742062652067726561746572207468616e206044820152600360fc1b60648201526084016104f8565b60006109567f00000000000000000000000000000000000000000000000000000000000000008461128c565b610980907f00000000000000000000000000000000000000000000000000000000000000006112b6565b905061098c43826112c9565b9392505050565b6000806109c07f0000000000000000000000000000000000000000000000000000000000000000436112a3565b90506109ec7f00000000000000000000000000000000000000000000000000000000000000008261115b565b6109f79060016112b6565b91505090565b610a05610e6b565b6001600160a01b038116610a2f57604051631e4fbdf760e01b8152600060048201526024016104f8565b610a3881610e98565b50565b3360009081526005602052604090205460ff16610a6a5760405162461bcd60e51b81526004016104f8906110e2565b6008546001600160a01b0316338114610a955760405162461bcd60e51b81526004016104f89061110e565b81610a9f81610d40565b610ae35760405162461bcd60e51b8152602060048201526015602482015274165bdd4818d85b89dd08185c1c1c9bdd99481e595d605a1b60448201526064016104f8565b60008381526003602090815260408083206001600160a01b03881684529091529020548390859060ff1615610b5a5760405162461bcd60e51b815260206004820152601e60248201527f416c72656164792077697468647261776e20666f72207468697320657261000060448201526064016104f8565b610b62610d52565b610b6a610993565b851115610bad5760405162461bcd60e51b815260206004820152601160248201527045726120696e207468652066757475726560781b60448201526064016104f8565b60008581526003602090815260408083206001600160a01b038a1684529091528120805460ff19166001179055610bf08688610beb6105f18361083d565b610eea565b9050610bfd868883610f50565b80600003610c0b5750610d2e565b600754604051631caccb1d60e31b8152600481018390526001600160a01b039091169063e56658e890602401600060405180830381600087803b158015610c5157600080fd5b505af1158015610c65573d6000803e3d6000fd5b505060075460405163a9059cbb60e01b81526001600160a01b038b811660048301526024820186905260009450909116915063a9059cbb906044016020604051808303816000875af1158015610cbf573d6000803e3d6000fd5b505050506040513d601f19601f82011682018060405250810190610ce391906112f0565b905080610d2b5760405162461bcd60e51b8152602060048201526016602482015275115490cc8c0e881d1c985b9cd9995c8819985a5b195960521b60448201526064016104f8565b50505b610d386001600655565b505050505050565b6000610d4a610993565b909110919050565b600260065403610d7557604051633ee5aeb560e01b815260040160405180910390fd5b6002600655565b600081815260208190526040902060020154610d999083906112b6565b60008281526020818152604080832060020193909355600181528282206001600160a01b038716835290529081208054849290610dd79084906112b6565b909155505060008181526020818152604080832060020154600183528184206001600160a01b038816808652908452938290205482518681529384018790529183015260608201527ffc6907b3f86e1e63de43e8e6af6345e03bbc9726a0f63eddb4021532417f78b1906080015b60405180910390a2505050565b600080610e60848685610eea565b151595945050505050565b6004546001600160a01b031633146106df5760405163118cdaa760e01b81523360048201526024016104f8565b600480546001600160a01b038381166001600160a01b0319831681179093556040519116919082907f8be0079c531659141344cd1fd0a4f28419497f9722a3daafe3b4186f6b6457e090600090a35050565b60008381526020818152604080832060020154600183528184206001600160a01b0387168552909252822054801580610f21575081155b15610f315760009250505061098c565b81610f3c858361128c565b610f46919061115b565b9695505050505050565b6000838152602081905260408120805491610f6a83611312565b909155505060008381526020819052604081206001018054839290610f909084906112b6565b909155505060008381526002602090815260408083206001600160a01b0386168085529083529281902084905580518681529182018490527fffe903c0abe6b2dbb2f3474ef43d7a3c1fca49e5a774453423ca8e1952aabffa9101610e45565b80356001600160a01b038116811461100757600080fd5b919050565b6000806040838503121561101f57600080fd5b61102883610ff0565b915061103660208401610ff0565b90509250929050565b6000806040838503121561105257600080fd5b61105b83610ff0565b946020939093013593505050565b6000806040838503121561107c57600080fd5b50508035926020909101359150565b60006020828403121561109d57600080fd5b5035919050565b6000602082840312156110b657600080fd5b61061c82610ff0565b600080604083850312156110d257600080fd5b8235915061103660208401610ff0565b6020808252601290820152712737ba1030b63637bbb2b21031b0b63632b960711b604082015260600190565b6020808252601e908201527f43616c6c6572206d7573742062652073797374656d20636f6e74726163740000604082015260600190565b634e487b7160e01b600052601160045260246000fd5b60008261117857634e487b7160e01b600052601260045260246000fd5b500490565b6001815b60018411156111b85780850481111561119c5761119c611145565b60018416156111aa57908102905b60019390931c928002611181565b935093915050565b6000826111cf5750600161061f565b816111dc5750600061061f565b81600181146111f257600281146111fc57611218565b600191505061061f565b60ff84111561120d5761120d611145565b50506001821b61061f565b5060208310610133831016604e8410600b841016171561123b575081810a61061f565b611248600019848461117d565b806000190482111561125c5761125c611145565b029392505050565b600061061c83836111c0565b6000600160ff1b820161128557611285611145565b5060000390565b808202811582820484141761061f5761061f611145565b8181038181111561061f5761061f611145565b8082018082111561061f5761061f611145565b81810360008312801583831316838312821617156112e9576112e9611145565b5092915050565b60006020828403121561130257600080fd5b8151801515811461098c57600080fd5b60006001820161132457611324611145565b506001019056fea26469706673582212208c05c065d8ad51d75f5fc83bf2571749cea80b8cb553356f02c2bbed32b390b864736f6c634300081b0033",
  "linkReferences": {},
  "deployedLinkReferences": {}
}