{
  "_format": "hh-sol-artifact-1",
  "contractName": "ValidationRules",
  "sourceName": "contracts/ValidationRules.sol",
  "abi": [
    {
      "inputs": [
        {
          "internalType": "uint256",
          "name": "timeBetweenVotes_",
          "type": "uint256"
        }
      ],
      "stateMutability": "nonpayable",
      "type": "constructor"
    },
    {
      "anonymous": false,
      "inputs": [
        {
          "indexed": true,
          "internalType": "address",
          "name": "_validatorAddress",
          "type": "address"
        },
        {
          "indexed": false,
          "internalType": "uint256",
          "name": "_resourceId",
          "type": "uint256"
        },
        {
          "indexed": false,
          "internalType": "string",
          "name": "_justification",
          "type": "string"
        }
      ],
      "name": "ContributionValidation",
      "type": "event"
    },
    {
      "anonymous": false,
      "inputs": [
        {
          "indexed": true,
          "internalType": "address",
          "name": "_validatorAddress",
          "type": "address"
        },
        {
          "indexed": false,
          "internalType": "uint256",
          "name": "_resourceId",
          "type": "uint256"
        },
        {
          "indexed": false,
          "internalType": "string",
          "name": "_justification",
          "type": "string"
        }
      ],
      "name": "InspectionValidation",
      "type": "event"
    },
    {
      "anonymous": false,
      "inputs": [
        {
          "indexed": true,
          "internalType": "address",
          "name": "previousOwner",
          "type": "address"
        },
        {
          "indexed": true,
          "internalType": "address",
          "name": "newOwner",
          "type": "address"
        }
      ],
      "name": "OwnershipTransferred",
      "type": "event"
    },
    {
      "anonymous": false,
      "inputs": [
        {
          "indexed": true,
          "internalType": "address",
          "name": "_validatorAddress",
          "type": "address"
        },
        {
          "indexed": false,
          "internalType": "uint256",
          "name": "_resourceId",
          "type": "uint256"
        },
        {
          "indexed": false,
          "internalType": "string",
          "name": "_justification",
          "type": "string"
        }
      ],
      "name": "ReportValidation",
      "type": "event"
    },
    {
      "anonymous": false,
      "inputs": [
        {
          "indexed": true,
          "internalType": "address",
          "name": "_validatorAddress",
          "type": "address"
        },
        {
          "indexed": false,
          "internalType": "uint256",
          "name": "_resourceId",
          "type": "uint256"
        },
        {
          "indexed": false,
          "internalType": "string",
          "name": "_justification",
          "type": "string"
        }
      ],
      "name": "ResearchValidation",
      "type": "event"
    },
    {
      "anonymous": false,
      "inputs": [
        {
          "indexed": false,
          "internalType": "string",
          "name": "_resourceType",
          "type": "string"
        },
        {
          "indexed": false,
          "internalType": "uint256",
          "name": "_resourceId",
          "type": "uint256"
        },
        {
          "indexed": true,
          "internalType": "address",
          "name": "_ownerAddress",
          "type": "address"
        },
        {
          "indexed": false,
          "internalType": "uint256",
          "name": "_penaltiesAdded",
          "type": "uint256"
        }
      ],
      "name": "ResourceInvalidated",
      "type": "event"
    },
    {
      "anonymous": false,
      "inputs": [
        {
          "indexed": true,
          "internalType": "address",
          "name": "_userAddress",
          "type": "address"
        }
      ],
      "name": "UserDenied",
      "type": "event"
    },
    {
      "anonymous": false,
      "inputs": [
        {
          "indexed": true,
          "internalType": "address",
          "name": "_validatorAddress",
          "type": "address"
        },
        {
          "indexed": true,
          "internalType": "address",
          "name": "_userAddress",
          "type": "address"
        },
        {
          "indexed": false,
          "internalType": "string",
          "name": "_justification",
          "type": "string"
        }
      ],
      "name": "UserValidation",
      "type": "event"
    },
    {
      "inputs": [
        {
          "components": [
            {
              "internalType": "uint64",
              "name": "id",
              "type": "uint64"
            },
            {
              "internalType": "uint256",
              "name": "era",
              "type": "uint256"
            },
            {
              "internalType": "address",
              "name": "user",
              "type": "address"
            },
            {
              "internalType": "string",
              "name": "description",
              "type": "string"
            },
            {
              "internalType": "string",
              "name": "report",
              "type": "string"
            },
            {
              "internalType": "uint256",
              "name": "validationsCount",
              "type": "uint256"
            },
            {
              "internalType": "bool",
              "name": "valid",
              "type": "bool"
            },
            {
              "internalType": "uint256",
              "name": "invalidatedAt",
              "type": "uint256"
            },
            {
              "internalType": "uint256",
              "name": "createdAtBlockNumber",
              "type": "uint256"
            }
          ],
          "internalType": "struct Contribution",
          "name": "contribution",
          "type": "tuple"
        },
        {
          "internalType": "string",
          "name": "justification",
          "type": "string"
        },
        {
          "internalType": "address",
          "name": "validatorAddress",
          "type": "address"
        }
      ],
      "name": "addContributionValidation",
      "outputs": [],
      "stateMutability": "nonpayable",
      "type": "function"
    },
    {
      "inputs": [
        {
          "components": [
            {
              "internalType": "uint64",
              "name": "id",
              "type": "uint64"
            },
            {
              "internalType": "enum InspectionStatus",
              "name": "status",
              "type": "uint8"
            },
            {
              "internalType": "address",
              "name": "regenerator",
              "type": "address"
            },
            {
              "internalType": "address",
              "name": "inspector",
              "type": "address"
            },
            {
              "internalType": "uint32",
              "name": "treesResult",
              "type": "uint32"
            },
            {
              "internalType": "uint32",
              "name": "biodiversityResult",
              "type": "uint32"
            },
            {
              "internalType": "uint32",
              "name": "regenerationScore",
              "type": "uint32"
            },
            {
              "internalType": "string",
              "name": "proofPhotos",
              "type": "string"
            },
            {
              "internalType": "string",
              "name": "justificationReport",
              "type": "string"
            },
            {
              "internalType": "uint256",
              "name": "validationsCount",
              "type": "uint256"
            },
            {
              "internalType": "uint256",
              "name": "createdAt",
              "type": "uint256"
            },
            {
              "internalType": "uint256",
              "name": "acceptedAt",
              "type": "uint256"
            },
            {
              "internalType": "uint256",
              "name": "inspectedAt",
              "type": "uint256"
            },
            {
              "internalType": "uint256",
              "name": "inspectedAtEra",
              "type": "uint256"
            },
            {
              "internalType": "uint256",
              "name": "invalidatedAt",
              "type": "uint256"
            }
          ],
          "internalType": "struct Inspection",
          "name": "inspection",
          "type": "tuple"
        },
        {
          "internalType": "string",
          "name": "justification",
          "type": "string"
        },
        {
          "internalType": "address",
          "name": "validatorAddress",
          "type": "address"
        }
      ],
      "name": "addInspectionValidation",
      "outputs": [],
      "stateMutability": "nonpayable",
      "type": "function"
    },
    {
      "inputs": [
        {
          "components": [
            {
              "internalType": "uint64",
              "name": "id",
              "type": "uint64"
            },
            {
              "internalType": "uint256",
              "name": "era",
              "type": "uint256"
            },
            {
              "internalType": "address",
              "name": "developer",
              "type": "address"
            },
            {
              "internalType": "string",
              "name": "description",
              "type": "string"
            },
            {
              "internalType": "string",
              "name": "report",
              "type": "string"
            },
            {
              "internalType": "uint256",
              "name": "validationsCount",
              "type": "uint256"
            },
            {
              "internalType": "bool",
              "name": "valid",
              "type": "bool"
            },
            {
              "internalType": "uint256",
              "name": "invalidatedAt",
              "type": "uint256"
            },
            {
              "internalType": "uint256",
              "name": "createdAtBlockNumber",
              "type": "uint256"
            }
          ],
          "internalType": "struct Report",
          "name": "report",
          "type": "tuple"
        },
        {
          "internalType": "string",
          "name": "justification",
          "type": "string"
        },
        {
          "internalType": "address",
          "name": "validatorAddress",
          "type": "address"
        }
      ],
      "name": "addReportValidation",
      "outputs": [],
      "stateMutability": "nonpayable",
      "type": "function"
    },
    {
      "inputs": [
        {
          "components": [
            {
              "internalType": "uint64",
              "name": "id",
              "type": "uint64"
            },
            {
              "internalType": "uint256",
              "name": "era",
              "type": "uint256"
            },
            {
              "internalType": "address",
              "name": "createdBy",
              "type": "address"
            },
            {
              "internalType": "string",
              "name": "title",
              "type": "string"
            },
            {
              "internalType": "string",
              "name": "thesis",
              "type": "string"
            },
            {
              "internalType": "string",
              "name": "file",
              "type": "string"
            },
            {
              "internalType": "uint256",
              "name": "validationsCount",
              "type": "uint256"
            },
            {
              "internalType": "bool",
              "name": "valid",
              "type": "bool"
            },
            {
              "internalType": "uint256",
              "name": "invalidatedAt",
              "type": "uint256"
            },
            {
              "internalType": "uint256",
              "name": "createdAtBlock",
              "type": "uint256"
            }
          ],
          "internalType": "struct Research",
          "name": "research",
          "type": "tuple"
        },
        {
          "internalType": "string",
          "name": "justification",
          "type": "string"
        },
        {
          "internalType": "address",
          "name": "validatorAddress",
          "type": "address"
        }
      ],
      "name": "addResearchValidation",
      "outputs": [],
      "stateMutability": "nonpayable",
      "type": "function"
    },
    {
      "inputs": [
        {
          "internalType": "address",
          "name": "userAddress",
          "type": "address"
        },
        {
          "internalType": "string",
          "name": "justification",
          "type": "string"
        }
      ],
      "name": "addUserValidation",
      "outputs": [],
      "stateMutability": "nonpayable",
      "type": "function"
    },
    {
      "inputs": [
        {
          "internalType": "address",
          "name": "",
          "type": "address"
        }
      ],
      "name": "allowedCallers",
      "outputs": [
        {
          "internalType": "bool",
          "name": "",
          "type": "bool"
        }
      ],
      "stateMutability": "view",
      "type": "function"
    },
    {
      "inputs": [
        {
          "internalType": "address",
          "name": "userAddress",
          "type": "address"
        },
        {
          "internalType": "uint256",
          "name": "currentEra",
          "type": "uint256"
        }
      ],
      "name": "getUserValidations",
      "outputs": [
        {
          "internalType": "uint256",
          "name": "",
          "type": "uint256"
        }
      ],
      "stateMutability": "view",
      "type": "function"
    },
    {
      "inputs": [
        {
          "internalType": "address",
          "name": "caller",
          "type": "address"
        }
      ],
      "name": "isAllowedCaller",
      "outputs": [
        {
          "internalType": "bool",
          "name": "",
          "type": "bool"
        }
      ],
      "stateMutability": "view",
      "type": "function"
    },
    {
      "inputs": [
        {
          "internalType": "address",
          "name": "allowed",
          "type": "address"
        }
      ],
      "name": "newAllowedCaller",
      "outputs": [],
      "stateMutability": "nonpayable",
      "type": "function"
    },
    {
      "inputs": [],
      "name": "owner",
      "outputs": [
        {
          "internalType": "address",
          "name": "",
          "type": "address"
        }
      ],
      "stateMutability": "view",
      "type": "function"
    },
    {
      "inputs": [],
      "name": "renounceOwnership",
      "outputs": [],
      "stateMutability": "nonpayable",
      "type": "function"
    },
    {
      "inputs": [
        {
          "internalType": "address",
          "name": "_inspectionRulesAddress",
          "type": "address"
        },
        {
          "internalType": "address",
          "name": "_contributorRulesAddress",
          "type": "address"
        },
        {
          "internalType": "address",
          "name": "_developerRulesAddress",
          "type": "address"
        },
        {
          "internalType": "address",
          "name": "_researcherRulesAddress",
          "type": "address"
        }
      ],
      "name": "setContractCall",
      "outputs": [],
      "stateMutability": "nonpayable",
      "type": "function"
    },
    {
      "inputs": [
        {
          "components": [
            {
              "internalType": "address",
              "name": "communityRulesAddress",
              "type": "address"
            },
            {
              "internalType": "address",
              "name": "regeneratorRulesAddress",
              "type": "address"
            },
            {
              "internalType": "address",
              "name": "inspectorRulesAddress",
              "type": "address"
            },
            {
              "internalType": "address",
              "name": "developerRulesAddress",
              "type": "address"
            },
            {
              "internalType": "address",
              "name": "researcherRulesAddress",
              "type": "address"
            },
            {
              "internalType": "address",
              "name": "contributorRulesAddress",
              "type": "address"
            },
            {
              "internalType": "address",
              "name": "activistRulesAddress",
              "type": "address"
            },
            {
              "internalType": "address",
              "name": "voteRulesAddress",
              "type": "address"
            }
          ],
          "internalType": "struct ContractsDependency",
          "name": "contractDependency",
          "type": "tuple"
        }
      ],
      "name": "setContractInterfaces",
      "outputs": [],
      "stateMutability": "nonpayable",
      "type": "function"
    },
    {
      "inputs": [],
      "name": "timeBetweenVotes",
      "outputs": [
        {
          "internalType": "uint256",
          "name": "",
          "type": "uint256"
        }
      ],
      "stateMutability": "view",
      "type": "function"
    },
    {
      "inputs": [
        {
          "internalType": "address",
          "name": "newOwner",
          "type": "address"
        }
      ],
      "name": "transferOwnership",
      "outputs": [],
      "stateMutability": "nonpayable",
      "type": "function"
    },
    {
      "inputs": [
        {
          "internalType": "address",
          "name": "",
          "type": "address"
        },
        {
          "internalType": "uint256",
          "name": "",
          "type": "uint256"
        }
      ],
      "name": "userValidations",
      "outputs": [
        {
          "internalType": "uint256",
          "name": "",
          "type": "uint256"
        }
      ],
      "stateMutability": "view",
      "type": "function"
    },
    {
      "inputs": [
        {
          "internalType": "address",
          "name": "",
          "type": "address"
        }
      ],
      "name": "validatorLastVoteAt",
      "outputs": [
        {
          "internalType": "uint256",
          "name": "",
          "type": "uint256"
        }
      ],
      "stateMutability": "view",
      "type": "function"
    },
    {
      "inputs": [],
      "name": "votesToInvalidate",
      "outputs": [
        {
          "internalType": "uint256",
          "name": "count",
          "type": "uint256"
        }
      ],
      "stateMutability": "view",
      "type": "function"
    },
    {
      "inputs": [
        {
          "internalType": "address",
          "name": "validatorAddress",
          "type": "address"
        }
      ],
      "name": "waitedTimeBetweenVotes",
      "outputs": [
        {
          "internalType": "bool",
          "name": "",
          "type": "bool"
        }
      ],
      "stateMutability": "view",
      "type": "function"
    }
  ],
  "bytecode": "0x60a060405234801561001057600080fd5b50604051612d85380380612d8583398101604081905261002f91610095565b61003833610045565b60016002556080526100ae565b600080546001600160a01b038381166001600160a01b0319831681178455604051919092169283917f8be0079c531659141344cd1fd0a4f28419497f9722a3daafe3b4186f6b6457e09190a35050565b6000602082840312156100a757600080fd5b5051919050565b608051612cb56100d06000396000818161016601526106fb0152612cb56000f3fe608060405234801561001057600080fd5b50600436106101215760003560e01c8063715018a6116100ad578063bdac344f11610071578063bdac344f1461029c578063c6c9b9b4146102bc578063f2fde38b146102cf578063f73535c9146102e2578063f9e05690146102f557600080fd5b8063715018a6146102175780637b3341541461021f5780638da5cb5b146102425780638f93716f1461025d578063a68012581461027057600080fd5b80632c885cfd116100f45780632c885cfd1461019b578063361119ac146101c657806347ec8e97146101e9578063513d5dfd146101fc57806369bf81c31461020f57600080fd5b80630eafe45e146101265780631422b7831461013b57806320bd34e81461014e57806321e3c5bb14610161575b600080fd5b610139610134366004611fc7565b610308565b005b61013961014936600461211e565b610360565b61013961015c36600461234d565b610415565b6101887f000000000000000000000000000000000000000000000000000000000000000081565b6040519081526020015b60405180910390f35b6101886101a93660046123c8565b600360209081526000928352604080842090915290825290205481565b6101d96101d43660046123f4565b6106dc565b6040519015158152602001610192565b6101396101f736600461234d565b610736565b61013961020a366004612411565b6109ae565b610188610c22565b610139610d3d565b6101d961022d3660046123f4565b60016020526000908152604090205460ff1681565b6000546040516001600160a01b039091168152602001610192565b61013961026b3660046123f4565b610d51565b6101d961027e3660046123f4565b6001600160a01b031660009081526001602052604090205460ff1690565b6101886102aa3660046123f4565b60096020526000908152604090205481565b6101886102ca3660046123c8565b610d80565b6101396102dd3660046123f4565b610dab565b6101396102f036600461259d565b610e24565b61013961030336600461270c565b611106565b61031061156c565b601280546001600160a01b039586166001600160a01b0319918216179091556013805494861694821694909417909355601480549285169284169290921790915560158054919093169116179055565b61036861156c565b8051600a80546001600160a01b03199081166001600160a01b03938416179091556020830151600b805483169184169190911790556040830151600c805483169184169190911790556060830151600d805483169184169190911790556080830151600e8054831691841691909117905560a0830151600f8054831691841691909117905560c083015160108054831691841691909117905560e090920151601180549093169116179055565b3360009081526001602052604090205460ff1661044d5760405162461bcd60e51b81526004016104449061275b565b60405180910390fd5b6014546001600160a01b03163381146104785760405162461bcd60e51b815260040161044490612787565b6104806115c6565b6001600160a01b038216600090815260046020908152604080832087516001600160401b0316845290915290205460ff16156104ce5760405162461bcd60e51b8152600401610444906127be565b6001600160a01b038216600081815260046020908152604080832088516001600160401b031684528252808320805460ff19166001179055838352600990915290819020439055855190517fb19764e85ca109ec31cda3dd13e75f97da9939ba8df810aa2a2aa38d77f19ff891610546918790612835565b60405180910390a28360c001516106cc57600d546040808601518651915163b1e8665560e01b81526000936001600160a01b03169263b1e866559261059092909190600401612857565b6020604051808303816000875af11580156105af573d6000803e3d6000fd5b505050506040513d601f19601f820116820180604052508101906105d39190612879565b90506105de8561161d565b6040808601518651825160608082526006908201526514995c1bdc9d60d21b60808201526001600160401b0390911660208201529182018390526001600160a01b031690600080516020612c608339815191529060a00160405180910390a2600d60009054906101000a90046001600160a01b03166001600160a01b031663b24eb7696040518163ffffffff1660e01b8152600401602060405180830381865afa158015610690573d6000803e3d6000fd5b505050506040513d601f19601f820116820180604052508101906106b49190612892565b60ff1681106106ca576106ca856040015161162c565b505b6106d66001600255565b50505050565b6001600160a01b038116600090815260096020526040812054816107207f0000000000000000000000000000000000000000000000000000000000000000836128cb565b43119050808061072e575081155b949350505050565b3360009081526001602052604090205460ff166107655760405162461bcd60e51b81526004016104449061275b565b6013546001600160a01b03163381146107905760405162461bcd60e51b815260040161044490612787565b6107986115c6565b6001600160a01b038216600090815260056020908152604080832087516001600160401b0316845290915290205460ff16156107e65760405162461bcd60e51b8152600401610444906127be565b6001600160a01b038216600081815260056020908152604080832088516001600160401b031684528252808320805460ff19166001179055838352600990915290819020439055855190517fd61b6e2c73784f8cc7ef49527075f70bb175237a4bb1cb8f5e840ab67faf65c29161085e918790612835565b60405180910390a28360c001516106cc57600f546040808601518651915163b1e8665560e01b81526000936001600160a01b03169263b1e86655926108a892909190600401612857565b6020604051808303816000875af11580156108c7573d6000803e3d6000fd5b505050506040513d601f19601f820116820180604052508101906108eb9190612879565b90506108f68561161d565b604080860151865182516060808252600c908201526b21b7b73a3934b13aba34b7b760a11b60808201526001600160401b0390911660208201529182018390526001600160a01b031690600080516020612c608339815191529060a00160405180910390a2600f60009054906101000a90046001600160a01b03166001600160a01b031663b24eb7696040518163ffffffff1660e01b8152600401602060405180830381865afa158015610690573d6000803e3d6000fd5b3360009081526001602052604090205460ff166109dd5760405162461bcd60e51b81526004016104449061275b565b6015546001600160a01b0316338114610a085760405162461bcd60e51b815260040161044490612787565b610a106115c6565b6001600160a01b038216600090815260076020908152604080832087516001600160401b0316845290915290205460ff1615610a5e5760405162461bcd60e51b8152600401610444906127be565b6001600160a01b038216600081815260076020908152604080832088516001600160401b031684528252808320805460ff19166001179055838352600990915290819020439055855190517fa60b3cba17d47d019e43ed78d18b7dbcdb3356746136e92739e184014baed95b91610ad6918790612835565b60405180910390a28360e001516106cc57600e546040808601518651915163b1e8665560e01b81526000936001600160a01b03169263b1e8665592610b2092909190600401612857565b6020604051808303816000875af1158015610b3f573d6000803e3d6000fd5b505050506040513d601f19601f82011682018060405250810190610b639190612879565b9050610b6e8561161d565b604080860151865182516060808252600890820152670a4cae6cac2e4c6d60c31b60808201526001600160401b0390911660208201529182018390526001600160a01b031690600080516020612c608339815191529060a00160405180910390a2600e60009054906101000a90046001600160a01b03166001600160a01b031663b24eb7696040518163ffffffff1660e01b8152600401602060405180830381865afa158015610690573d6000803e3d6000fd5b600080600a60009054906101000a90046001600160a01b03166001600160a01b03166398c079386040518163ffffffff1660e01b8152600401602060405180830381865afa158015610c78573d6000803e3d6000fd5b505050506040513d601f19601f82011682018060405250810190610c9c9190612879565b905060328111610cae57506002919050565b6101f48111610cbf57506005919050565b6103e88111610cd05750600a919050565b6107d08111610ce157506014919050565b610fa08111610cf257506028919050565b611f408111610d0357506050919050565b613e808111610d14575060a0919050565b617d008111610d265750610140919050565b617d00811115610d3957506101f4919050565b5090565b610d4561156c565b610d4f6000611783565b565b610d5961156c565b6001600160a01b03166000908152600160208190526040909120805460ff19169091179055565b6001600160a01b03821660009081526003602090815260408083208484529091529020545b92915050565b610db361156c565b6001600160a01b038116610e185760405162461bcd60e51b815260206004820152602660248201527f4f776e61626c653a206e6577206f776e657220697320746865207a65726f206160448201526564647265737360d01b6064820152608401610444565b610e2181611783565b50565b3360009081526001602052604090205460ff16610e535760405162461bcd60e51b81526004016104449061275b565b6012546001600160a01b0316338114610e7e5760405162461bcd60e51b815260040161044490612787565b610e866115c6565b6001600160a01b038216600090815260066020908152604080832087516001600160401b0316845290915290205460ff1615610ed45760405162461bcd60e51b8152600401610444906127be565b6001600160a01b038216600081815260066020908152604080832088516001600160401b031684528252808320805460ff1916600117905592825260099052908120439055610f21610c22565b905060008186610120015110159050836001600160a01b03167f804fe88dce417b67dd8890f8cac643949e87d8edcba4e9efb221cbd850c52feb876000015187604051610f6f929190612835565b60405180910390a280610f835750506106cc565b600c546060870151875160405163b1e8665560e01b81526000936001600160a01b03169263b1e8665592610fb992600401612857565b6020604051808303816000875af1158015610fd8573d6000803e3d6000fd5b505050506040513d601f19601f82011682018060405250810190610ffc9190612879565b9050611007876117d3565b606080880151885160408051848152600a948101949094526924b739b832b1ba34b7b760b11b60808501526001600160401b03909116602084015282018390526001600160a01b031690600080516020612c608339815191529060a00160405180910390a2600c60009054906101000a90046001600160a01b03166001600160a01b031663b24eb7696040518163ffffffff1660e01b8152600401602060405180830381865afa1580156110bf573d6000803e3d6000fd5b505050506040513d601f19601f820116820180604052508101906110e39190612892565b60ff1681106110f9576110f9876060015161162c565b5050506106d66001600255565b61110e6115c6565b805161012c10156111525760405162461bcd60e51b815260206004820152600e60248201526d4d6178206368617261637465727360901b6044820152606401610444565b6011546040516356fd539760e11b81523360048201526001600160a01b039091169063adfaa72e90602401602060405180830381865afa15801561119a573d6000803e3d6000fd5b505050506040513d601f19601f820116820180604052508101906111be91906128e9565b6111f85760405162461bcd60e51b815260206004820152600b60248201526a2737ba1030903b37ba32b960a91b6044820152606401610444565b600a54604051631292f8c160e31b81526001600160a01b0390911690639497c6089061122b90600090869060040161291c565b602060405180830381865afa158015611248573d6000803e3d6000fd5b505050506040513d601f19601f8201168201806040525081019061126c91906128e9565b156112af5760405162461bcd60e51b8152602060048201526013602482015272155cd95c881b9bdd081c9959da5cdd195c9959606a1b6044820152606401610444565b600a54604051631292f8c160e31b81526001600160a01b0390911690639497c608906112e290600890869060040161291c565b602060405180830381865afa1580156112ff573d6000803e3d6000fd5b505050506040513d601f19601f8201168201806040525081019061132391906128e9565b156113665760405162461bcd60e51b8152602060048201526013602482015272155cd95c88185b1c9958591e4819195b9a5959606a1b6044820152606401610444565b61136f826118c0565b6113cf5760405162461bcd60e51b815260206004820152602b60248201527f526567656e657261746f722068617320726561636865642076616c696461746960448201526a6f6e20696d6d756e69747960a81b6064820152608401610444565b60006113da836119c2565b3360009081526008602090815260408083206001600160a01b0388168452825280832084845290915290205490915060ff16156114295760405162461bcd60e51b8152600401610444906127be565b611432336106dc565b6114765760405162461bcd60e51b8152602060048201526015602482015274576169742074696d654265747765656e566f74657360581b6044820152606401610444565b3360008181526008602090815260408083206001600160a01b0388168085529083528184208685528352818420805460ff19166001179055938352600982528083204390559282526003815282822084835290529081208054916114d983612956565b919050555060006114e8610c22565b6001600160a01b0385166000818152600360209081526040808320878452909152908190205490519293509133907f8cb53ba58e6b58f4456b623f61a5b8776a23ac36733b731d50fd9e40ee39c0fc9061154390889061296f565b60405180910390a381811061155b5761155b8561162c565b5050506115686001600255565b5050565b6000546001600160a01b03163314610d4f5760405162461bcd60e51b815260206004820181905260248201527f4f776e61626c653a2063616c6c6572206973206e6f7420746865206f776e65726044820152606401610444565b60028054036116175760405162461bcd60e51b815260206004820152601f60248201527f5265656e7472616e637947756172643a207265656e7472616e742063616c6c006044820152606401610444565b60028055565b610e2181604001516001611cef565b611637816000611cef565b600a5460405163158bdc5f60e11b81526001600160a01b0383811660048301526000921690632b17b8be90602401608060405180830381865afa158015611682573d6000803e3d6000fd5b505050506040513d601f19601f820116820180604052508101906116a6919061299c565b60208101519091506001600160a01b03161561172057600a546020820151604051636101bf2160e01b81526001600160a01b039182166004820152911690636101bf2190602401600060405180830381600087803b15801561170757600080fd5b505af115801561171b573d6000803e3d6000fd5b505050505b600a5460405163e202fa4d60e01b81526001600160a01b0384811660048301529091169063e202fa4d90602401600060405180830381600087803b15801561176757600080fd5b505af115801561177b573d6000803e3d6000fd5b505050505050565b600080546001600160a01b038381166001600160a01b0319831681178455604051919092169283917f8be0079c531659141344cd1fd0a4f28419497f9722a3daafe3b4186f6b6457e09190a35050565b600c5460608201516040516361e4c1e960e11b81526001600160a01b03918216600482015291169063c3c983d290602401600060405180830381600087803b15801561181e57600080fd5b505af1158015611832573d6000803e3d6000fd5b5050600b5460408481015190516361e4c1e960e11b81526001600160a01b0391821660048201529116925063c3c983d29150602401600060405180830381600087803b15801561188157600080fd5b505af1158015611895573d6000803e3d6000fd5b505050506118a881606001516001611cef565b610e2181604001518260c0015163ffffffff16611cef565b600a54604051631292f8c160e31b81526000916001600160a01b031690639497c608906118f490600190869060040161291c565b602060405180830381865afa158015611911573d6000803e3d6000fd5b505050506040513d601f19601f8201168201806040525081019061193591906128e9565b61194157506001919050565b600b5460405163065ab21b60e41b81526001600160a01b03848116600483015260009216906365ab21b090602401600060405180830381865afa15801561198c573d6000803e3d6000fd5b505050506040513d6000823e601f3d908101601f191682016040526119b49190810190612b0f565b60c001516005119392505050565b600a54604051636f77926b60e01b81526001600160a01b0383811660048301526000928392911690636f77926b90602401602060405180830381865afa158015611a10573d6000803e3d6000fd5b505050506040513d601f19601f82011682018060405250810190611a349190612c44565b90506006816008811115611a4a57611a4a612906565b03611acd57601060009054906101000a90046001600160a01b03166001600160a01b031663e05cf1556040518163ffffffff1660e01b8152600401602060405180830381865afa158015611aa2573d6000803e3d6000fd5b505050506040513d601f19601f82011682018060405250810190611ac69190612879565b9392505050565b6005816008811115611ae157611ae1612906565b03611b3957600f60009054906101000a90046001600160a01b03166001600160a01b031663e05cf1556040518163ffffffff1660e01b8152600401602060405180830381865afa158015611aa2573d6000803e3d6000fd5b6004816008811115611b4d57611b4d612906565b03611ba557600d60009054906101000a90046001600160a01b03166001600160a01b031663e05cf1556040518163ffffffff1660e01b8152600401602060405180830381865afa158015611aa2573d6000803e3d6000fd5b6002816008811115611bb957611bb9612906565b03611c1157600c60009054906101000a90046001600160a01b03166001600160a01b031663e05cf1556040518163ffffffff1660e01b8152600401602060405180830381865afa158015611aa2573d6000803e3d6000fd5b6003816008811115611c2557611c25612906565b03611c7d57600e60009054906101000a90046001600160a01b03166001600160a01b031663e05cf1556040518163ffffffff1660e01b8152600401602060405180830381865afa158015611aa2573d6000803e3d6000fd5b6001816008811115611c9157611c91612906565b03611ce957600b60009054906101000a90046001600160a01b03166001600160a01b031663e05cf1556040518163ffffffff1660e01b8152600401602060405180830381865afa158015611aa2573d6000803e3d6000fd5b50919050565b600a54604051636f77926b60e01b81526001600160a01b0384811660048301526000921690636f77926b90602401602060405180830381865afa158015611d3a573d6000803e3d6000fd5b505050506040513d601f19601f82011682018060405250810190611d5e9190612c44565b90506008816008811115611d7457611d74612906565b03611d7e57505050565b6002816008811115611d9257611d92612906565b03611e0357600c54604051630c56ae4d60e11b81526001600160a01b03858116600483015260248201859052909116906318ad5c9a906044015b600060405180830381600087803b158015611de657600080fd5b505af1158015611dfa573d6000803e3d6000fd5b50505050505050565b6001816008811115611e1757611e17612906565b03611e5557600b54604051630c56ae4d60e11b81526001600160a01b03858116600483015260248201859052909116906318ad5c9a90604401611dcc565b6004816008811115611e6957611e69612906565b03611ea757600d54604051630c56ae4d60e11b81526001600160a01b03858116600483015260248201859052909116906318ad5c9a90604401611dcc565b6003816008811115611ebb57611ebb612906565b03611ef957600e54604051630c56ae4d60e11b81526001600160a01b03858116600483015260248201859052909116906318ad5c9a90604401611dcc565b6005816008811115611f0d57611f0d612906565b03611f4b57600f54604051630c56ae4d60e11b81526001600160a01b03858116600483015260248201859052909116906318ad5c9a90604401611dcc565b6006816008811115611f5f57611f5f612906565b03611f9d57601054604051630c56ae4d60e11b81526001600160a01b03858116600483015260248201859052909116906318ad5c9a90604401611dcc565b505050565b6001600160a01b0381168114610e2157600080fd5b8035611fc281611fa2565b919050565b60008060008060808587031215611fdd57600080fd5b8435611fe881611fa2565b93506020850135611ff881611fa2565b9250604085013561200881611fa2565b9150606085013561201881611fa2565b939692955090935050565b634e487b7160e01b600052604160045260246000fd5b60405161010081016001600160401b038111828210171561205c5761205c612023565b60405290565b60405161012081016001600160401b038111828210171561205c5761205c612023565b60405161014081016001600160401b038111828210171561205c5761205c612023565b6040516101e081016001600160401b038111828210171561205c5761205c612023565b60405161018081016001600160401b038111828210171561205c5761205c612023565b604051601f8201601f191681016001600160401b038111828210171561211657612116612023565b604052919050565b600061010082840312801561213257600080fd5b5061213b612039565b823561214681611fa2565b815261215460208401611fb7565b602082015261216560408401611fb7565b604082015261217660608401611fb7565b606082015261218760808401611fb7565b608082015261219860a08401611fb7565b60a08201526121a960c08401611fb7565b60c08201526121ba60e08401611fb7565b60e08201529392505050565b6001600160401b0381168114610e2157600080fd5b8035611fc2816121c6565b60006001600160401b038211156121ff576121ff612023565b50601f01601f191660200190565b600082601f83011261221e57600080fd5b813561223161222c826121e6565b6120ee565b81815284602083860101111561224657600080fd5b816020850160208301376000918101602001919091529392505050565b8015158114610e2157600080fd5b8035611fc281612263565b6000610120828403121561228f57600080fd5b612297612062565b90506122a2826121db565b8152602082810135908201526122ba60408301611fb7565b604082015260608201356001600160401b038111156122d857600080fd5b6122e48482850161220d565b60608301525060808201356001600160401b0381111561230357600080fd5b61230f8482850161220d565b60808301525060a0828101359082015261232b60c08301612271565b60c082015260e082810135908201526101009182013591810191909152919050565b60008060006060848603121561236257600080fd5b83356001600160401b0381111561237857600080fd5b6123848682870161227c565b93505060208401356001600160401b038111156123a057600080fd5b6123ac8682870161220d565b92505060408401356123bd81611fa2565b809150509250925092565b600080604083850312156123db57600080fd5b82356123e681611fa2565b946020939093013593505050565b60006020828403121561240657600080fd5b8135611ac681611fa2565b60008060006060848603121561242657600080fd5b83356001600160401b0381111561243c57600080fd5b8401610140818703121561244f57600080fd5b612457612085565b612460826121db565b81526020828101359082015261247860408301611fb7565b604082015260608201356001600160401b0381111561249657600080fd5b6124a28882850161220d565b60608301525060808201356001600160401b038111156124c157600080fd5b6124cd8882850161220d565b60808301525060a08201356001600160401b038111156124ec57600080fd5b6124f88882850161220d565b60a08301525060c0828101359082015261251460e08301612271565b60e082015261010082810135908201526101209182013591810191909152925060208401356001600160401b0381111561254d57600080fd5b6125598682870161220d565b92505061256860408501611fb7565b90509250925092565b803560048110611fc257600080fd5b63ffffffff81168114610e2157600080fd5b8035611fc281612580565b6000806000606084860312156125b257600080fd5b83356001600160401b038111156125c857600080fd5b84016101e081870312156125db57600080fd5b6125e36120a8565b6125ec826121db565b81526125fa60208301612571565b602082015261260b60408301611fb7565b604082015261261c60608301611fb7565b606082015261262d60808301612592565b608082015261263e60a08301612592565b60a082015261264f60c08301612592565b60c082015260e08201356001600160401b0381111561266d57600080fd5b6126798882850161220d565b60e0830152506101008201356001600160401b0381111561269957600080fd5b6126a58882850161220d565b6101008301525061012082810135908201526101408083013590820152610160808301359082015261018080830135908201526101a080830135908201526101c09182013591810191909152925060208401356001600160401b0381111561254d57600080fd5b6000806040838503121561271f57600080fd5b823561272a81611fa2565b915060208301356001600160401b0381111561274557600080fd5b6127518582860161220d565b9150509250929050565b6020808252601290820152712737ba1030b63637bbb2b21031b0b63632b960711b604082015260600190565b6020808252601e908201527f43616c6c6572206d7573742062652073797374656d20636f6e74726163740000604082015260600190565b6020808252600d908201526c105b1c9958591e481d9bdd1959609a1b604082015260600190565b60005b838110156128005781810151838201526020016127e8565b50506000910152565b600081518084526128218160208601602086016127e5565b601f01601f19169290920160200192915050565b6001600160401b038316815260406020820152600061072e6040830184612809565b6001600160a01b039290921682526001600160401b0316602082015260400190565b60006020828403121561288b57600080fd5b5051919050565b6000602082840312156128a457600080fd5b815160ff81168114611ac657600080fd5b634e487b7160e01b600052601160045260246000fd5b80820180821115610da557610da56128b5565b8051611fc281612263565b6000602082840312156128fb57600080fd5b8151611ac681612263565b634e487b7160e01b600052602160045260246000fd5b604081016009841061293e57634e487b7160e01b600052602160045260246000fd5b9281526001600160a01b039190911660209091015290565b600060018201612968576129686128b5565b5060010190565b602081526000611ac66020830184612809565b8051611fc281611fa2565b805160098110611fc257600080fd5b600060808284031280156129af57600080fd5b50604051608081016001600160401b03811182821017156129d2576129d2612023565b60405282516129e081611fa2565b815260208301516129f081611fa2565b6020820152612a016040840161298d565b60408201526060928301519281019290925250919050565b8051611fc2816121c6565b600082601f830112612a3557600080fd5b8151612a4361222c826121e6565b818152846020838601011115612a5857600080fd5b61072e8260208301602087016127e5565b8051611fc281612580565b600060208284031215612a8657600080fd5b604051602081016001600160401b0381118282101715612aa857612aa8612023565b6040529151825250919050565b600060408284031215612ac757600080fd5b604080519081016001600160401b0381118282101715612ae957612ae9612023565b80604052508091508251612afc81612263565b8152602092830151920191909152919050565b600060208284031215612b2157600080fd5b81516001600160401b03811115612b3757600080fd5b82016101a08185031215612b4a57600080fd5b612b526120cb565b612b5b82612a19565b8152612b6960208301612982565b602082015260408201516001600160401b03811115612b8757600080fd5b612b9386828501612a24565b60408301525060608201516001600160401b03811115612bb257600080fd5b612bbe86828501612a24565b606083015250612bd060808301612a69565b6080820152612be160a083016128de565b60a082015260c0828101519082015260e08083015190820152612c08856101008401612a74565b610100820152612c1c856101208401612ab5565b6101208201526101608281015161014083015261018090920151918101919091529392505050565b600060208284031215612c5657600080fd5b611ac68261298d56fe226413e2cbca808fc074a1cf011f01e3727417456abafe80e5add5c446a8853ea2646970667358221220a641321a29619083b410d102f1e36190dac2ff6f6f82c6d142823cba5a65b1d664736f6c634300081b0033",
  "linkReferences": {},
  "deployedLinkReferences": {}
}