{
  "_format": "hh-sol-artifact-1",
  "contractName": "ValidationRules",
  "sourceName": "contracts/ValidationRules.sol",
  "abi": [
    {
      "inputs": [
        {
          "internalType": "uint256",
          "name": "timeBetweenVotes_",
          "type": "uint256"
        }
      ],
      "stateMutability": "nonpayable",
      "type": "constructor"
    },
    {
      "inputs": [
        {
          "internalType": "address",
          "name": "owner",
          "type": "address"
        }
      ],
      "name": "OwnableInvalidOwner",
      "type": "error"
    },
    {
      "inputs": [
        {
          "internalType": "address",
          "name": "account",
          "type": "address"
        }
      ],
      "name": "OwnableUnauthorizedAccount",
      "type": "error"
    },
    {
      "inputs": [],
      "name": "ReentrancyGuardReentrantCall",
      "type": "error"
    },
    {
      "anonymous": false,
      "inputs": [
        {
          "indexed": true,
          "internalType": "address",
          "name": "previousOwner",
          "type": "address"
        },
        {
          "indexed": true,
          "internalType": "address",
          "name": "newOwner",
          "type": "address"
        }
      ],
      "name": "OwnershipTransferred",
      "type": "event"
    },
    {
      "anonymous": false,
      "inputs": [
        {
          "indexed": true,
          "internalType": "address",
          "name": "_validatorAddress",
          "type": "address"
        },
        {
          "indexed": true,
          "internalType": "address",
          "name": "_userAddress",
          "type": "address"
        },
        {
          "indexed": false,
          "internalType": "string",
          "name": "_justification",
          "type": "string"
        },
        {
          "indexed": true,
          "internalType": "uint256",
          "name": "_currentEra",
          "type": "uint256"
        }
      ],
      "name": "UserValidation",
      "type": "event"
    },
    {
      "inputs": [],
      "name": "POINTS_PER_LEVEL",
      "outputs": [
        {
          "internalType": "uint256",
          "name": "",
          "type": "uint256"
        }
      ],
      "stateMutability": "view",
      "type": "function"
    },
    {
      "inputs": [],
      "name": "activistRules",
      "outputs": [
        {
          "internalType": "contract IActivistRules",
          "name": "",
          "type": "address"
        }
      ],
      "stateMutability": "view",
      "type": "function"
    },
    {
      "inputs": [
        {
          "internalType": "address",
          "name": "userAddress",
          "type": "address"
        },
        {
          "internalType": "string",
          "name": "justification",
          "type": "string"
        }
      ],
      "name": "addUserValidation",
      "outputs": [],
      "stateMutability": "nonpayable",
      "type": "function"
    },
    {
      "inputs": [
        {
          "internalType": "address",
          "name": "voter",
          "type": "address"
        }
      ],
      "name": "addValidationPoint",
      "outputs": [],
      "stateMutability": "nonpayable",
      "type": "function"
    },
    {
      "inputs": [
        {
          "internalType": "address",
          "name": "",
          "type": "address"
        }
      ],
      "name": "allowedCallers",
      "outputs": [
        {
          "internalType": "bool",
          "name": "",
          "type": "bool"
        }
      ],
      "stateMutability": "view",
      "type": "function"
    },
    {
      "inputs": [],
      "name": "communityRules",
      "outputs": [
        {
          "internalType": "contract ICommunityRules",
          "name": "",
          "type": "address"
        }
      ],
      "stateMutability": "view",
      "type": "function"
    },
    {
      "inputs": [],
      "name": "contributorRules",
      "outputs": [
        {
          "internalType": "contract IContributorRules",
          "name": "",
          "type": "address"
        }
      ],
      "stateMutability": "view",
      "type": "function"
    },
    {
      "inputs": [],
      "name": "developerRules",
      "outputs": [
        {
          "internalType": "contract IDeveloperRules",
          "name": "",
          "type": "address"
        }
      ],
      "stateMutability": "view",
      "type": "function"
    },
    {
      "inputs": [],
      "name": "exchangePointsForLevel",
      "outputs": [],
      "stateMutability": "nonpayable",
      "type": "function"
    },
    {
      "inputs": [
        {
          "internalType": "address",
          "name": "userAddress",
          "type": "address"
        },
        {
          "internalType": "uint256",
          "name": "currentEra",
          "type": "uint256"
        }
      ],
      "name": "getUserValidations",
      "outputs": [
        {
          "internalType": "uint256",
          "name": "",
          "type": "uint256"
        }
      ],
      "stateMutability": "view",
      "type": "function"
    },
    {
      "inputs": [
        {
          "internalType": "address",
          "name": "",
          "type": "address"
        }
      ],
      "name": "hunterPools",
      "outputs": [
        {
          "internalType": "uint256",
          "name": "level",
          "type": "uint256"
        },
        {
          "internalType": "uint256",
          "name": "currentEra",
          "type": "uint256"
        }
      ],
      "stateMutability": "view",
      "type": "function"
    },
    {
      "inputs": [
        {
          "internalType": "address",
          "name": "",
          "type": "address"
        },
        {
          "internalType": "uint256",
          "name": "",
          "type": "uint256"
        }
      ],
      "name": "hunterVoter",
      "outputs": [
        {
          "internalType": "address",
          "name": "",
          "type": "address"
        }
      ],
      "stateMutability": "view",
      "type": "function"
    },
    {
      "inputs": [],
      "name": "inspectorRules",
      "outputs": [
        {
          "internalType": "contract IInspectorRules",
          "name": "",
          "type": "address"
        }
      ],
      "stateMutability": "view",
      "type": "function"
    },
    {
      "inputs": [
        {
          "internalType": "address",
          "name": "caller",
          "type": "address"
        }
      ],
      "name": "isAllowedCaller",
      "outputs": [
        {
          "internalType": "bool",
          "name": "",
          "type": "bool"
        }
      ],
      "stateMutability": "view",
      "type": "function"
    },
    {
      "inputs": [
        {
          "internalType": "address",
          "name": "allowed",
          "type": "address"
        }
      ],
      "name": "newAllowedCaller",
      "outputs": [],
      "stateMutability": "nonpayable",
      "type": "function"
    },
    {
      "inputs": [],
      "name": "owner",
      "outputs": [
        {
          "internalType": "address",
          "name": "",
          "type": "address"
        }
      ],
      "stateMutability": "view",
      "type": "function"
    },
    {
      "inputs": [],
      "name": "regeneratorRules",
      "outputs": [
        {
          "internalType": "contract IRegeneratorRules",
          "name": "",
          "type": "address"
        }
      ],
      "stateMutability": "view",
      "type": "function"
    },
    {
      "inputs": [],
      "name": "renounceOwnership",
      "outputs": [],
      "stateMutability": "nonpayable",
      "type": "function"
    },
    {
      "inputs": [],
      "name": "researcherRules",
      "outputs": [
        {
          "internalType": "contract IResearcherRules",
          "name": "",
          "type": "address"
        }
      ],
      "stateMutability": "view",
      "type": "function"
    },
    {
      "inputs": [
        {
          "components": [
            {
              "internalType": "address",
              "name": "communityRulesAddress",
              "type": "address"
            },
            {
              "internalType": "address",
              "name": "regeneratorRulesAddress",
              "type": "address"
            },
            {
              "internalType": "address",
              "name": "inspectorRulesAddress",
              "type": "address"
            },
            {
              "internalType": "address",
              "name": "developerRulesAddress",
              "type": "address"
            },
            {
              "internalType": "address",
              "name": "researcherRulesAddress",
              "type": "address"
            },
            {
              "internalType": "address",
              "name": "contributorRulesAddress",
              "type": "address"
            },
            {
              "internalType": "address",
              "name": "activistRulesAddress",
              "type": "address"
            },
            {
              "internalType": "address",
              "name": "voteRulesAddress",
              "type": "address"
            },
            {
              "internalType": "address",
              "name": "validationPoolAddress",
              "type": "address"
            }
          ],
          "internalType": "struct ContractsDependency",
          "name": "contractDependency",
          "type": "tuple"
        }
      ],
      "name": "setContractInterfaces",
      "outputs": [],
      "stateMutability": "nonpayable",
      "type": "function"
    },
    {
      "inputs": [],
      "name": "timeBetweenVotes",
      "outputs": [
        {
          "internalType": "uint256",
          "name": "",
          "type": "uint256"
        }
      ],
      "stateMutability": "view",
      "type": "function"
    },
    {
      "inputs": [
        {
          "internalType": "address",
          "name": "",
          "type": "address"
        }
      ],
      "name": "totalValidationLevels",
      "outputs": [
        {
          "internalType": "uint256",
          "name": "",
          "type": "uint256"
        }
      ],
      "stateMutability": "view",
      "type": "function"
    },
    {
      "inputs": [
        {
          "internalType": "address",
          "name": "newOwner",
          "type": "address"
        }
      ],
      "name": "transferOwnership",
      "outputs": [],
      "stateMutability": "nonpayable",
      "type": "function"
    },
    {
      "inputs": [
        {
          "internalType": "address",
          "name": "validatorAddress",
          "type": "address"
        }
      ],
      "name": "updateValidatorLastVoteBlock",
      "outputs": [],
      "stateMutability": "nonpayable",
      "type": "function"
    },
    {
      "inputs": [
        {
          "internalType": "address",
          "name": "",
          "type": "address"
        },
        {
          "internalType": "uint256",
          "name": "",
          "type": "uint256"
        }
      ],
      "name": "userValidations",
      "outputs": [
        {
          "internalType": "uint256",
          "name": "",
          "type": "uint256"
        }
      ],
      "stateMutability": "view",
      "type": "function"
    },
    {
      "inputs": [
        {
          "internalType": "address",
          "name": "",
          "type": "address"
        }
      ],
      "name": "validationPoints",
      "outputs": [
        {
          "internalType": "uint256",
          "name": "",
          "type": "uint256"
        }
      ],
      "stateMutability": "view",
      "type": "function"
    },
    {
      "inputs": [],
      "name": "validationPool",
      "outputs": [
        {
          "internalType": "contract IValidationPool",
          "name": "",
          "type": "address"
        }
      ],
      "stateMutability": "view",
      "type": "function"
    },
    {
      "inputs": [
        {
          "internalType": "address",
          "name": "",
          "type": "address"
        }
      ],
      "name": "validatorLastVoteAt",
      "outputs": [
        {
          "internalType": "uint256",
          "name": "",
          "type": "uint256"
        }
      ],
      "stateMutability": "view",
      "type": "function"
    },
    {
      "inputs": [],
      "name": "voteRules",
      "outputs": [
        {
          "internalType": "contract IVoteRules",
          "name": "",
          "type": "address"
        }
      ],
      "stateMutability": "view",
      "type": "function"
    },
    {
      "inputs": [],
      "name": "votesToInvalidate",
      "outputs": [
        {
          "internalType": "uint256",
          "name": "",
          "type": "uint256"
        }
      ],
      "stateMutability": "view",
      "type": "function"
    },
    {
      "inputs": [
        {
          "internalType": "address",
          "name": "validatorAddress",
          "type": "address"
        }
      ],
      "name": "waitedTimeBetweenVotes",
      "outputs": [
        {
          "internalType": "bool",
          "name": "",
          "type": "bool"
        }
      ],
      "stateMutability": "view",
      "type": "function"
    },
    {
      "inputs": [],
      "name": "withdraw",
      "outputs": [],
      "stateMutability": "nonpayable",
      "type": "function"
    }
  ],
  "bytecode": "0x60a060405234801561001057600080fd5b506040516125d03803806125d083398101604081905261002f916100bc565b338061005557604051631e4fbdf760e01b81526000600482015260240160405180910390fd5b61005e8161006c565b5060016002556080526100d5565b600080546001600160a01b038381166001600160a01b0319831681178455604051919092169283917f8be0079c531659141344cd1fd0a4f28419497f9722a3daafe3b4186f6b6457e09190a35050565b6000602082840312156100ce57600080fd5b5051919050565b6080516124d96100f7600039600081816101fa015261053e01526124d96000f3fe608060405234801561001057600080fd5b50600436106101f05760003560e01c80638f93716f1161010f578063ddb494f7116100a2578063f2fde38b11610071578063f2fde38b146104d3578063f873fe54146104e6578063f9e05690146104f9578063fc533ca91461050c57600080fd5b8063ddb494f714610471578063dedeec19146104a5578063e0d56bde146104ad578063eb48556b146104c057600080fd5b8063bdac344f116100de578063bdac344f1461040b578063c6c9b9b41461042b578063ce59654a1461043e578063d655b43a1461045157600080fd5b80638f93716f146103a65780639330945c146103b95780639b7242e0146103cc578063a6801258146103df57600080fd5b806364bbc515116101875780637591a904116101565780637591a9041461034c5780637b3341541461035f578063859b12f3146103825780638da5cb5b1461039557600080fd5b806364bbc5151461030957806369bf81c31461031c578063715018a6146103245780637262933e1461032c57600080fd5b806344fdca10116101c357806344fdca101461028757806355e7cfe5146102c3578063575a3c35146102ee57806359ac87ac1461030157600080fd5b806321e3c5bb146101f55780632c885cfd1461022f578063361119ac1461025a5780633ccfd60b1461027d575b600080fd5b61021c7f000000000000000000000000000000000000000000000000000000000000000081565b6040519081526020015b60405180910390f35b61021c61023d366004611dd3565b600360209081526000928352604080842090915290825290205481565b61026d610268366004611dff565b61051f565b6040519015158152602001610226565b610285610579565b005b6102ae610295366004611dff565b6007602052600090815260409020805460019091015482565b60408051928352602083019190915201610226565b6010546102d6906001600160a01b031681565b6040516001600160a01b039091168152602001610226565b6102856102fc366004611eb1565b6107f9565b61021c603281565b600c546102d6906001600160a01b031681565b61021c6108c3565b6102856109a7565b61021c61033a366004611dff565b60096020526000908152604090205481565b600d546102d6906001600160a01b031681565b61026d61036d366004611dff565b60016020526000908152604090205460ff1681565b600e546102d6906001600160a01b031681565b6000546001600160a01b03166102d6565b6102856103b4366004611dff565b6109b9565b6102856103c7366004611dff565b6109e8565b6012546102d6906001600160a01b031681565b61026d6103ed366004611dff565b6001600160a01b031660009081526001602052604090205460ff1690565b61021c610419366004611dff565b60056020526000908152604090205481565b61021c610439366004611dd3565b610a68565b600a546102d6906001600160a01b031681565b61021c61045f366004611dff565b60086020526000908152604090205481565b6102d661047f366004611dd3565b60066020908152600092835260408084209091529082529020546001600160a01b031681565b610285610a93565b6011546102d6906001600160a01b031681565b6102856104ce366004611dff565b610ce3565b6102856104e1366004611dff565b610d53565b600f546102d6906001600160a01b031681565b610285610507366004611f92565b610d91565b600b546102d6906001600160a01b031681565b6001600160a01b038116600090815260056020526040812054816105637f00000000000000000000000000000000000000000000000000000000000000008361203b565b431190508080610571575081155b949350505050565b6105816114ae565b600a5460405163a7771ee360e01b81523360048201526001600160a01b039091169063a7771ee390602401602060405180830381865afa1580156105c9573d6000803e3d6000fd5b505050506040513d601f19601f820116820180604052508101906105ed919061205e565b6106345760405162461bcd60e51b8152602060048201526013602482015272506f6f6c206f6e6c7920746f20766f7465727360681b60448201526064015b60405180910390fd5b336000908152600560205260409020546106905760405162461bcd60e51b815260206004820152601860248201527f4e6f7420656c696769626c6520746f2077697468647261770000000000000000604482015260640161062b565b336000908152600760205260409081902060018101546012549251637df42f8360e11b815260048101829052919290916001600160a01b039091169063fbe85f0690602401602060405180830381865afa1580156106f2573d6000803e3d6000fd5b505050506040513d601f19601f82011682018060405250810190610716919061205e565b6107705760405162461bcd60e51b815260206004820152602560248201527f4e6f7420656c696769626c6520746f20776974686472617720666f7220746869604482015264732065726160d81b606482015260840161062b565b60018201805490600061078283612079565b909155505060125460405163f3fef3a360e01b8152336004820152602481018390526001600160a01b039091169063f3fef3a390604401600060405180830381600087803b1580156107d357600080fd5b505af11580156107e7573d6000803e3d6000fd5b5050505050506107f76001600255565b565b6108016114d6565b8051600a80546001600160a01b03199081166001600160a01b03938416179091556020830151600b805483169184169190911790556040830151600c805483169184169190911790556060830151600d805483169184169190911790556080830151600e8054831691841691909117905560a0830151600f8054831691841691909117905560c083015160108054831691841691909117905560e083015160118054831691841691909117905561010090920151601280549093169116179055565b600080600a60009054906101000a90046001600160a01b03166001600160a01b03166398c079386040518163ffffffff1660e01b8152600401602060405180830381865afa158015610919573d6000803e3d6000fd5b505050506040513d601f19601f8201168201806040525081019061093d9190612092565b9050600c81101561095057506002919050565b60a781101561096157506005919050565b600060646109706003846120ab565b61097a91906120c2565b9050600061098982600161203b565b90506101688111156109a057506101689392505050565b9392505050565b6109af6114d6565b6107f76000611503565b6109c16114d6565b6001600160a01b03166000908152600160208190526040909120805460ff19169091179055565b3360009081526001602052604090205460ff16610a3c5760405162461bcd60e51b81526020600482015260126024820152712737ba1030b63637bbb2b21031b0b63632b960711b604482015260640161062b565b6001600160a01b0381166000908152600860205260408120805491610a6083612079565b919050555050565b6001600160a01b03821660009081526003602090815260408083208484529091529020545b92915050565b610a9b6114ae565b600a5460405163a7771ee360e01b81523360048201526001600160a01b039091169063a7771ee390602401602060405180830381865afa158015610ae3573d6000803e3d6000fd5b505050506040513d601f19601f82011682018060405250810190610b07919061205e565b610b495760405162461bcd60e51b8152602060048201526013602482015272506f6f6c206f6e6c7920746f20766f7465727360681b604482015260640161062b565b336000908152600860205260409020546032811015610b9e5760405162461bcd60e51b81526020600482015260116024820152704e6f7420656e6f75676820706f696e747360781b604482015260640161062b565b336000908152600760205260408120600101549003610c4257601260009054906101000a90046001600160a01b03166001600160a01b031663ed0df79e6040518163ffffffff1660e01b8152600401602060405180830381865afa158015610c0a573d6000803e3d6000fd5b505050506040513d601f19601f82011682018060405250810190610c2e9190612092565b336000908152600760205260409020600101555b610c4d6032826120e4565b3360009081526008602090815260408083209390935560099052908120805491610c7683612079565b9091555050601254604051632825add160e21b81523360048201526001600160a01b039091169063a096b74490602401600060405180830381600087803b158015610cc057600080fd5b505af1158015610cd4573d6000803e3d6000fd5b50505050506107f76001600255565b3360009081526001602052604090205460ff16610d375760405162461bcd60e51b81526020600482015260126024820152712737ba1030b63637bbb2b21031b0b63632b960711b604482015260640161062b565b6001600160a01b03166000908152600560205260409020439055565b610d5b6114d6565b6001600160a01b038116610d8557604051631e4fbdf760e01b81526000600482015260240161062b565b610d8e81611503565b50565b610d996114ae565b805161012c1015610ddd5760405162461bcd60e51b815260206004820152600e60248201526d4d6178206368617261637465727360901b604482015260640161062b565b6011546040516356fd539760e11b81523360048201526001600160a01b039091169063adfaa72e90602401602060405180830381865afa158015610e25573d6000803e3d6000fd5b505050506040513d601f19601f82011682018060405250810190610e49919061205e565b610e835760405162461bcd60e51b815260206004820152600b60248201526a2737ba1030903b37ba32b960a91b604482015260640161062b565b600a54604051631292f8c160e31b81526001600160a01b0390911690639497c60890610eb690600090869060040161210d565b602060405180830381865afa158015610ed3573d6000803e3d6000fd5b505050506040513d601f19601f82011682018060405250810190610ef7919061205e565b15610f3a5760405162461bcd60e51b8152602060048201526013602482015272155cd95c881b9bdd081c9959da5cdd195c9959606a1b604482015260640161062b565b600a54604051631292f8c160e31b81526001600160a01b0390911690639497c60890610f6d90600790869060040161210d565b602060405180830381865afa158015610f8a573d6000803e3d6000fd5b505050506040513d601f19601f82011682018060405250810190610fae919061205e565b15610ffb5760405162461bcd60e51b815260206004820181905260248201527f537570706f727465722076616c69646174696f6e206e6f7420616c6c6f776564604482015260640161062b565b600a5460405163e838dfbb60e01b81526001600160a01b0384811660048301529091169063e838dfbb90602401602060405180830381865afa158015611045573d6000803e3d6000fd5b505050506040513d601f19601f82011682018060405250810190611069919061205e565b156110ac5760405162461bcd60e51b8152602060048201526013602482015272155cd95c88185b1c9958591e4819195b9a5959606a1b604482015260640161062b565b6110b582611553565b6111155760405162461bcd60e51b815260206004820152602b60248201527f526567656e657261746f722068617320726561636865642076616c696461746960448201526a6f6e20696d6d756e69747960a81b606482015260840161062b565b600061112083611655565b3360009081526004602090815260408083206001600160a01b0388168452825280832084845290915290205490915060ff161561118f5760405162461bcd60e51b815260206004820152600d60248201526c105b1c9958591e481d9bdd1959609a1b604482015260640161062b565b6111983361051f565b6111dc5760405162461bcd60e51b8152602060048201526015602482015274576169742074696d654265747765656e566f74657360581b604482015260640161062b565b33600090815260076020526040812060010154900361128057601260009054906101000a90046001600160a01b03166001600160a01b031663ed0df79e6040518163ffffffff1660e01b8152600401602060405180830381865afa158015611248573d6000803e3d6000fd5b505050506040513d601f19601f8201168201806040525081019061126c9190612092565b336000908152600760205260409020600101555b6001600160a01b038316600090815260036020908152604080832084845290915281205490036112de576001600160a01b0383166000908152600660209081526040808320848452909152902080546001600160a01b031916331790555b3360008181526004602090815260408083206001600160a01b0388168085529083528184208685528352818420805460ff191660011790559383526005825280832043905592825260038152828220848352905290812080549161134183612079565b909155505033600090815260086020526040812080549161136183612079565b90915550506001600160a01b0383166000908152600360209081526040808320848452909152812054906113936108c3565b9050808210611451576113a58561197b565b6001600160a01b03808616600090815260066020908152604080832087845282528083205490931680835260099091529181208054916113e483612079565b909155505060125460405162d1490760e41b81526001600160a01b038381166004830152888116602483015290911690630d14907090604401600060405180830381600087803b15801561143757600080fd5b505af115801561144b573d6000803e3d6000fd5b50505050505b82856001600160a01b0316336001600160a01b03167f4a1bc45c74b62c183fbe9b6634a90d126f2fedb7ff748eafc651322a7da3d5ca87604051611495919061216b565b60405180910390a45050506114aa6001600255565b5050565b60028054036114d057604051633ee5aeb560e01b815260040160405180910390fd5b60028055565b6000546001600160a01b031633146107f75760405163118cdaa760e01b815233600482015260240161062b565b600080546001600160a01b038381166001600160a01b0319831681178455604051919092169283917f8be0079c531659141344cd1fd0a4f28419497f9722a3daafe3b4186f6b6457e09190a35050565b600a54604051631292f8c160e31b81526000916001600160a01b031690639497c6089061158790600190869060040161210d565b602060405180830381865afa1580156115a4573d6000803e3d6000fd5b505050506040513d601f19601f820116820180604052508101906115c8919061205e565b6115d457506001919050565b600b5460405163065ab21b60e41b81526001600160a01b03848116600483015260009216906365ab21b090602401600060405180830381865afa15801561161f573d6000803e3d6000fd5b505050506040513d6000823e601f3d908101601f1916820160405261164791908101906122b3565b60c001516006119392505050565b600a54604051636f77926b60e01b81526001600160a01b0383811660048301526000928392911690636f77926b90602401602060405180830381865afa1580156116a3573d6000803e3d6000fd5b505050506040513d601f19601f820116820180604052508101906116c7919061240a565b905060068160078111156116dd576116dd6120f7565b0361175957601060009054906101000a90046001600160a01b03166001600160a01b031663e05cf1556040518163ffffffff1660e01b8152600401602060405180830381865afa158015611735573d6000803e3d6000fd5b505050506040513d601f19601f820116820180604052508101906109a09190612092565b600581600781111561176d5761176d6120f7565b036117c557600f60009054906101000a90046001600160a01b03166001600160a01b031663e05cf1556040518163ffffffff1660e01b8152600401602060405180830381865afa158015611735573d6000803e3d6000fd5b60048160078111156117d9576117d96120f7565b0361183157600d60009054906101000a90046001600160a01b03166001600160a01b031663e05cf1556040518163ffffffff1660e01b8152600401602060405180830381865afa158015611735573d6000803e3d6000fd5b6002816007811115611845576118456120f7565b0361189d57600c60009054906101000a90046001600160a01b03166001600160a01b031663e05cf1556040518163ffffffff1660e01b8152600401602060405180830381865afa158015611735573d6000803e3d6000fd5b60038160078111156118b1576118b16120f7565b0361190957600e60009054906101000a90046001600160a01b03166001600160a01b031663e05cf1556040518163ffffffff1660e01b8152600401602060405180830381865afa158015611735573d6000803e3d6000fd5b600181600781111561191d5761191d6120f7565b0361197557600b60009054906101000a90046001600160a01b03166001600160a01b031663e05cf1556040518163ffffffff1660e01b8152600401602060405180830381865afa158015611735573d6000803e3d6000fd5b50919050565b600a54604051636f77926b60e01b81526001600160a01b0383811660048301526000921690636f77926b90602401602060405180830381865afa1580156119c6573d6000803e3d6000fd5b505050506040513d601f19601f820116820180604052508101906119ea919061240a565b600a5460405163e838dfbb60e01b81526001600160a01b03858116600483015292935091169063e838dfbb90602401602060405180830381865afa158015611a36573d6000803e3d6000fd5b505050506040513d601f19601f82011682018060405250810190611a5a919061205e565b15611a63575050565b600a54604051634acf78e960e11b81526001600160a01b0384811660048301529091169063959ef1d290602401600060405180830381600087803b158015611aaa57600080fd5b505af1158015611abe573d6000803e3d6000fd5b5050600a5460405163158bdc5f60e11b81526001600160a01b038681166004830152600094509091169150632b17b8be90602401608060405180830381865afa158015611b0f573d6000803e3d6000fd5b505050506040513d601f19601f82011682018060405250810190611b339190612425565b60208101519091506001600160a01b031615611bad57600a546020820151604051636101bf2160e01b81526001600160a01b039182166004820152911690636101bf2190602401600060405180830381600087803b158015611b9457600080fd5b505af1158015611ba8573d6000803e3d6000fd5b505050505b6001826007811115611bc157611bc16120f7565b03611c2b57600b54604051637c9787c760e11b81526001600160a01b0385811660048301529091169063f92f0f8e906024015b600060405180830381600087803b158015611c0e57600080fd5b505af1158015611c22573d6000803e3d6000fd5b50505050505050565b6002826007811115611c3f57611c3f6120f7565b03611c7d57600c546040516310c791e560e11b81526001600160a01b038581166004830152600160248301529091169063218f23ca90604401611bf4565b6004826007811115611c9157611c916120f7565b03611cc857600d54604051637c9787c760e11b81526001600160a01b0385811660048301529091169063f92f0f8e90602401611bf4565b6003826007811115611cdc57611cdc6120f7565b03611d1357600e54604051637c9787c760e11b81526001600160a01b0385811660048301529091169063f92f0f8e90602401611bf4565b6005826007811115611d2757611d276120f7565b03611d5e57600f54604051637c9787c760e11b81526001600160a01b0385811660048301529091169063f92f0f8e90602401611bf4565b6006826007811115611d7257611d726120f7565b03611da957601054604051637c9787c760e11b81526001600160a01b0385811660048301529091169063f92f0f8e90602401611bf4565b505050565b6001600160a01b0381168114610d8e57600080fd5b8035611dce81611dae565b919050565b60008060408385031215611de657600080fd5b8235611df181611dae565b946020939093013593505050565b600060208284031215611e1157600080fd5b81356109a081611dae565b634e487b7160e01b600052604160045260246000fd5b604051610120810167ffffffffffffffff81118282101715611e5657611e56611e1c565b60405290565b6040516101a0810167ffffffffffffffff81118282101715611e5657611e56611e1c565b604051601f8201601f1916810167ffffffffffffffff81118282101715611ea957611ea9611e1c565b604052919050565b6000610120828403128015611ec557600080fd5b50611ece611e32565b611ed783611dc3565b8152611ee560208401611dc3565b6020820152611ef660408401611dc3565b6040820152611f0760608401611dc3565b6060820152611f1860808401611dc3565b6080820152611f2960a08401611dc3565b60a0820152611f3a60c08401611dc3565b60c0820152611f4b60e08401611dc3565b60e0820152611f5d6101008401611dc3565b6101008201529392505050565b600067ffffffffffffffff821115611f8457611f84611e1c565b50601f01601f191660200190565b60008060408385031215611fa557600080fd5b8235611fb081611dae565b9150602083013567ffffffffffffffff811115611fcc57600080fd5b8301601f81018513611fdd57600080fd5b8035611ff0611feb82611f6a565b611e80565b81815286602083850101111561200557600080fd5b816020840160208301376000602083830101528093505050509250929050565b634e487b7160e01b600052601160045260246000fd5b80820180821115610a8d57610a8d612025565b80518015158114611dce57600080fd5b60006020828403121561207057600080fd5b6109a08261204e565b60006001820161208b5761208b612025565b5060010190565b6000602082840312156120a457600080fd5b5051919050565b8082028115828204841417610a8d57610a8d612025565b6000826120df57634e487b7160e01b600052601260045260246000fd5b500490565b81810381811115610a8d57610a8d612025565b634e487b7160e01b600052602160045260246000fd5b604081016008841061212f57634e487b7160e01b600052602160045260246000fd5b9281526001600160a01b039190911660209091015290565b60005b8381101561216257818101518382015260200161214a565b50506000910152565b602081526000825180602084015261218a816040850160208701612147565b601f01601f19169190910160400192915050565b805167ffffffffffffffff81168114611dce57600080fd5b8051611dce81611dae565b600082601f8301126121d257600080fd5b81516121e0611feb82611f6a565b8181528460208386010111156121f557600080fd5b610571826020830160208701612147565b805163ffffffff81168114611dce57600080fd5b60006020828403121561222c57600080fd5b6040516020810167ffffffffffffffff8111828210171561224f5761224f611e1c565b6040529151825250919050565b60006040828403121561226e57600080fd5b6040805190810167ffffffffffffffff8111828210171561229157612291611e1c565b6040529050806122a08361204e565b8152602092830151920191909152919050565b6000602082840312156122c557600080fd5b815167ffffffffffffffff8111156122dc57600080fd5b82016101c081850312156122ef57600080fd5b6122f7611e5c565b6123008261219e565b815261230e602083016121b6565b6020820152604082015167ffffffffffffffff81111561232d57600080fd5b612339868285016121c1565b604083015250606082015167ffffffffffffffff81111561235957600080fd5b612365868285016121c1565b60608301525061237760808301612206565b608082015261238860a0830161204e565b60a082015260c0828101519082015260e080830151908201526123af85610100840161221a565b6101008201526123c385610120840161225c565b61012082015261016082810151610140830152610180830151908201526123ed6101a0830161204e565b610180820152949350505050565b805160088110611dce57600080fd5b60006020828403121561241c57600080fd5b6109a0826123fb565b6000608082840312801561243857600080fd5b506040516080810167ffffffffffffffff8111828210171561245c5761245c611e1c565b604052825161246a81611dae565b8152602083015161247a81611dae565b602082015261248b604084016123fb565b6040820152606092830151928101929092525091905056fea2646970667358221220e8d4acd75b0414da64d272804a3a545cc732b62900edca41429e67bbf980715264736f6c634300081b0033",
  "linkReferences": {},
  "deployedLinkReferences": {}
}