{
  "_format": "hh-sol-artifact-1",
  "contractName": "VoteRules",
  "sourceName": "contracts/VoteRules.sol",
  "abi": [
    {
      "inputs": [
        {
          "internalType": "address",
          "name": "communityRulesAddress",
          "type": "address"
        },
        {
          "internalType": "address",
          "name": "activistRulesAddress",
          "type": "address"
        },
        {
          "internalType": "address",
          "name": "contributorRulesAddress",
          "type": "address"
        },
        {
          "internalType": "address",
          "name": "developerRulesAddress",
          "type": "address"
        },
        {
          "internalType": "address",
          "name": "researcherRulesAddress",
          "type": "address"
        }
      ],
      "stateMutability": "nonpayable",
      "type": "constructor"
    },
    {
      "inputs": [
        {
          "internalType": "address",
          "name": "addr",
          "type": "address"
        }
      ],
      "name": "canVote",
      "outputs": [
        {
          "internalType": "bool",
          "name": "",
          "type": "bool"
        }
      ],
      "stateMutability": "view",
      "type": "function"
    }
  ],
  "bytecode": "0x608060405234801561001057600080fd5b50604051610eff380380610eff83398101604081905261002f916100ad565b600080546001600160a01b03199081166001600160a01b03978816179091556001805482169587169590951790945560028054851693861693909317909255600380548416918516919091179055600480549092169216919091179055610112565b80516001600160a01b03811681146100a857600080fd5b919050565b600080600080600060a086880312156100c557600080fd5b6100ce86610091565b94506100dc60208701610091565b93506100ea60408701610091565b92506100f860608701610091565b915061010660808701610091565b90509295509295909350565b610dde806101216000396000f3fe608060405234801561001057600080fd5b506004361061002b5760003560e01c8063adfaa72e14610030575b600080fd5b61004361003e3660046106df565b610057565b604051901515815260200160405180910390f35b6000805460405163a7771ee360e01b81526001600160a01b0384811660048301529091169063a7771ee390602401602060405180830381865afa1580156100a2573d6000803e3d6000fd5b505050506040513d601f19601f820116820180604052508101906100c6919061070c565b6101095760405162461bcd60e51b815260206004820152601060248201526f2737ba1030903b37ba32b9103ab9b2b960811b604482015260640160405180910390fd5b60008054604051636f77926b60e01b81526001600160a01b03858116600483015290911690636f77926b90602401602060405180830381865afa158015610154573d6000803e3d6000fd5b505050506040513d601f19601f820116820180604052508101906101789190610727565b6000805460405162f5960960e51b815292935090916001600160a01b0390911690631eb2c120906101ad90859060040161075e565b602060405180830381865afa1580156101ca573d6000803e3d6000fd5b505050506040513d601f19601f820116820180604052508101906101ee919061079d565b6001600160401b031690506102156102058361021d565b826102108786610433565b610690565b949350505050565b6000600682600881111561023357610233610748565b036102bb57600160009054906101000a90046001600160a01b03166001600160a01b031663430816aa6040518163ffffffff1660e01b8152600401602060405180830381865afa15801561028b573d6000803e3d6000fd5b505050506040513d601f19601f820116820180604052508101906102af91906107b8565b63ffffffff1692915050565b60058260088111156102cf576102cf610748565b0361035a57600260009054906101000a90046001600160a01b03166001600160a01b031663c69685566040518163ffffffff1660e01b8152600401602060405180830381865afa158015610327573d6000803e3d6000fd5b505050506040513d601f19601f8201168201806040525081019061034b919061079d565b6001600160401b031692915050565b600482600881111561036e5761036e610748565b036103c657600360009054906101000a90046001600160a01b03166001600160a01b03166374f7c4296040518163ffffffff1660e01b8152600401602060405180830381865afa158015610327573d6000803e3d6000fd5b60038260088111156103da576103da610748565b036104265760048054604080516352d3ea9d60e01b815290516001600160a01b03909216926352d3ea9d9282820192602092908290030181865afa158015610327573d6000803e3d6000fd5b506000919050565b919050565b6000600682600881111561044957610449610748565b036104cf576001546040516362efeff760e01b81526001600160a01b03858116600483015260009216906362efeff790602401600060405180830381865afa158015610499573d6000803e3d6000fd5b505050506040513d6000823e601f3d908101601f191682016040526104c19190810190610992565b6080015151915061068a9050565b60058260088111156104e3576104e3610748565b0361055b57600254604051633d8270f560e01b81526001600160a01b0385811660048301526000921690633d8270f590602401600060405180830381865afa158015610533573d6000803e3d6000fd5b505050506040513d6000823e601f3d908101601f191682016040526104c19190810190610a6b565b600482600881111561056f5761056f610748565b036105e75760035460405163033f09f760e51b81526001600160a01b03858116600483015260009216906367e13ee090602401600060405180830381865afa1580156105bf573d6000803e3d6000fd5b505050506040513d6000823e601f3d908101601f191682016040526104c19190810190610b51565b60038260088111156105fb576105fb610748565b0361068657600480546040516373f5d26160e11b81526001600160a01b03868116938201939093526000929091169063e7eba4c290602401600060405180830381865afa158015610650573d6000803e3d6000fd5b505050506040513d6000823e601f3d908101601f191682016040526106789190810190610c45565b6060015151915061068a9050565b5060005b92915050565b6000600583116106a2575060016106c0565b60006106ae8486610d65565b6106b9906001610d87565b8310159150505b9392505050565b6001600160a01b03811681146106dc57600080fd5b50565b6000602082840312156106f157600080fd5b81356106c0816106c7565b8051801515811461042e57600080fd5b60006020828403121561071e57600080fd5b6106c0826106fc565b60006020828403121561073957600080fd5b8151600981106106c057600080fd5b634e487b7160e01b600052602160045260246000fd5b602081016009831061078057634e487b7160e01b600052602160045260246000fd5b91905290565b80516001600160401b038116811461042e57600080fd5b6000602082840312156107af57600080fd5b6106c082610786565b6000602082840312156107ca57600080fd5b815163ffffffff811681146106c057600080fd5b634e487b7160e01b600052604160045260246000fd5b60405160c081016001600160401b0381118282101715610816576108166107de565b60405290565b60405160e081016001600160401b0381118282101715610816576108166107de565b60405161010081016001600160401b0381118282101715610816576108166107de565b60405161016081016001600160401b0381118282101715610816576108166107de565b604051601f8201601f191681016001600160401b03811182821017156108ac576108ac6107de565b604052919050565b805161042e816106c7565b600082601f8301126108d057600080fd5b81516001600160401b038111156108e9576108e96107de565b6108fc601f8201601f1916602001610884565b81815284602083860101111561091157600080fd5b60005b8281101561093057602081860181015183830182015201610914565b506000918101602001919091529392505050565b60006040828403121561095657600080fd5b604080519081016001600160401b0381118282101715610978576109786107de565b604052825181526020928301519281019290925250919050565b6000602082840312156109a457600080fd5b81516001600160401b038111156109ba57600080fd5b820160e081850312156109cc57600080fd5b6109d46107f4565b6109dd82610786565b81526109eb602083016108b4565b602082015260408201516001600160401b03811115610a0957600080fd5b610a15868285016108bf565b60408301525060608201516001600160401b03811115610a3457600080fd5b610a40868285016108bf565b606083015250610a538560808401610944565b608082015260c0919091015160a08201529392505050565b600060208284031215610a7d57600080fd5b81516001600160401b03811115610a9357600080fd5b82016101008185031215610aa657600080fd5b610aae61081c565b610ab782610786565b8152610ac5602083016108b4565b602082015260408201516001600160401b03811115610ae357600080fd5b610aef868285016108bf565b60408301525060608201516001600160401b03811115610b0e57600080fd5b610b1a868285016108bf565b606083015250610b2d8560808401610944565b608082015260c08281015160a083015260e090920151918101919091529392505050565b600060208284031215610b6357600080fd5b81516001600160401b03811115610b7957600080fd5b82016101208185031215610b8c57600080fd5b610b9461083e565b610b9d82610786565b8152610bab602083016108b4565b602082015260408201516001600160401b03811115610bc957600080fd5b610bd5868285016108bf565b60408301525060608201516001600160401b03811115610bf457600080fd5b610c00868285016108bf565b606083015250610c138560808401610944565b608082015260c08281015160a083015260e0808401519183019190915261010090920151918101919091529392505050565b600060208284031215610c5757600080fd5b81516001600160401b03811115610c6d57600080fd5b82016101808185031215610c8057600080fd5b610c88610861565b610c9182610786565b8152610c9f602083016108b4565b602082015260408201516001600160401b03811115610cbd57600080fd5b610cc9868285016108bf565b604083015250610cdc8560608401610944565b606082015260a08201516001600160401b03811115610cfa57600080fd5b610d06868285016108bf565b60808301525060c08281015160a083015260e080840151918301919091526101008084015191830191909152610120808401519183019190915261014083015190820152610d5761016083016106fc565b610140820152949350505050565b600082610d8257634e487b7160e01b600052601260045260246000fd5b500490565b8082018082111561068a57634e487b7160e01b600052601160045260246000fdfea2646970667358221220e269753be5a7087f9ad70db153d4e21b0a89f986b11d214478cd71265423a99164736f6c634300081b0033",
  "linkReferences": {},
  "deployedLinkReferences": {}
}