{
  "_format": "hh-sol-artifact-1",
  "contractName": "VoteRules",
  "sourceName": "contracts/VoteRules.sol",
  "abi": [
    {
      "inputs": [
        {
          "internalType": "address",
          "name": "communityRulesAddress",
          "type": "address"
        },
        {
          "internalType": "address",
          "name": "contributorRulesAddress",
          "type": "address"
        },
        {
          "internalType": "address",
          "name": "developerRulesAddress",
          "type": "address"
        },
        {
          "internalType": "address",
          "name": "researcherRulesAddress",
          "type": "address"
        }
      ],
      "stateMutability": "nonpayable",
      "type": "constructor"
    },
    {
      "inputs": [],
      "name": "INITIAL_USER_COUNT_THRESHOLD",
      "outputs": [
        {
          "internalType": "uint256",
          "name": "",
          "type": "uint256"
        }
      ],
      "stateMutability": "view",
      "type": "function"
    },
    {
      "inputs": [
        {
          "internalType": "address",
          "name": "addr",
          "type": "address"
        }
      ],
      "name": "canVote",
      "outputs": [
        {
          "internalType": "bool",
          "name": "",
          "type": "bool"
        }
      ],
      "stateMutability": "view",
      "type": "function"
    },
    {
      "inputs": [],
      "name": "communityRules",
      "outputs": [
        {
          "internalType": "contract ICommunityRules",
          "name": "",
          "type": "address"
        }
      ],
      "stateMutability": "view",
      "type": "function"
    },
    {
      "inputs": [],
      "name": "contributorRules",
      "outputs": [
        {
          "internalType": "contract IContributorRules",
          "name": "",
          "type": "address"
        }
      ],
      "stateMutability": "view",
      "type": "function"
    },
    {
      "inputs": [],
      "name": "developerRules",
      "outputs": [
        {
          "internalType": "contract IDeveloperRules",
          "name": "",
          "type": "address"
        }
      ],
      "stateMutability": "view",
      "type": "function"
    },
    {
      "inputs": [],
      "name": "researcherRules",
      "outputs": [
        {
          "internalType": "contract IResearcherRules",
          "name": "",
          "type": "address"
        }
      ],
      "stateMutability": "view",
      "type": "function"
    }
  ],
  "bytecode": "0x608060405234801561001057600080fd5b50604051610bef380380610bef83398101604081905261002f9161009e565b600080546001600160a01b039586166001600160a01b03199182161790915560018054948616948216949094179093556002805492851692841692909217909155600380549190931691161790556100f2565b80516001600160a01b038116811461009957600080fd5b919050565b600080600080608085870312156100b457600080fd5b6100bd85610082565b93506100cb60208601610082565b92506100d960408601610082565b91506100e760608601610082565b905092959194509250565b610aee806101016000396000f3fe608060405234801561001057600080fd5b50600436106100625760003560e01c80637591a90414610067578063859b12f314610097578063adfaa72e146100aa578063be9dc584146100cd578063ce59654a146100e3578063f873fe54146100f6575b600080fd5b60025461007a906001600160a01b031681565b6040516001600160a01b0390911681526020015b60405180910390f35b60035461007a906001600160a01b031681565b6100bd6100b8366004610620565b610109565b604051901515815260200161008e565b6100d5600581565b60405190815260200161008e565b60005461007a906001600160a01b031681565b60015461007a906001600160a01b031681565b6000805460405163a7771ee360e01b81526001600160a01b0384811660048301529091169063a7771ee390602401602060405180830381865afa158015610154573d6000803e3d6000fd5b505050506040513d601f19601f82011682018060405250810190610178919061064d565b6101bb5760405162461bcd60e51b815260206004820152601060248201526f2737ba1030903b37ba32b9103ab9b2b960811b604482015260640160405180910390fd5b60008054604051636f77926b60e01b81526001600160a01b03858116600483015290911690636f77926b90602401602060405180830381865afa158015610206573d6000803e3d6000fd5b505050506040513d601f19601f8201168201806040525081019061022a9190610668565b60008054604051632f22dc7b60e01b815292935090916001600160a01b0390911690632f22dc7b9061026090859060040161069f565b602060405180830381865afa15801561027d573d6000803e3d6000fd5b505050506040513d601f19601f820116820180604052508101906102a191906106c7565b90506102bf6102af836102c7565b826102ba8786610444565b6105d0565b949350505050565b600060058260078111156102dd576102dd610689565b0361035f57600160009054906101000a90046001600160a01b03166001600160a01b03166394a7444e6040518163ffffffff1660e01b8152600401602060405180830381865afa158015610335573d6000803e3d6000fd5b505050506040513d601f19601f8201168201806040525081019061035991906106c7565b92915050565b600482600781111561037357610373610689565b036103cb57600260009054906101000a90046001600160a01b03166001600160a01b03166394a7444e6040518163ffffffff1660e01b8152600401602060405180830381865afa158015610335573d6000803e3d6000fd5b60038260078111156103df576103df610689565b0361043757600360009054906101000a90046001600160a01b03166001600160a01b03166394a7444e6040518163ffffffff1660e01b8152600401602060405180830381865afa158015610335573d6000803e3d6000fd5b506000919050565b919050565b6000600582600781111561045a5761045a610689565b036104e157600154604051633d8270f560e01b81526001600160a01b0385811660048301526000921690633d8270f5906024015b600060405180830381865afa1580156104ab573d6000803e3d6000fd5b505050506040513d6000823e601f3d908101601f191682016040526104d3919081019061093b565b608001515191506103599050565b60048260078111156104f5576104f5610689565b0361052d5760025460405163033f09f760e51b81526001600160a01b03858116600483015260009216906367e13ee09060240161048e565b600382600781111561054157610541610689565b036105c7576003546040516373f5d26160e11b81526001600160a01b038581166004830152600092169063e7eba4c290602401600060405180830381865afa158015610591573d6000803e3d6000fd5b505050506040513d6000823e601f3d908101601f191682016040526105b99190810190610970565b606001515191506103599050565b50600092915050565b6000826000036105e257506000610601565b600583116105f257506001610601565b836105fd8484610a93565b1190505b9392505050565b6001600160a01b038116811461061d57600080fd5b50565b60006020828403121561063257600080fd5b813561060181610608565b8051801515811461043f57600080fd5b60006020828403121561065f57600080fd5b6106018261063d565b60006020828403121561067a57600080fd5b81516008811061060157600080fd5b634e487b7160e01b600052602160045260246000fd5b60208101600883106106c157634e487b7160e01b600052602160045260246000fd5b91905290565b6000602082840312156106d957600080fd5b5051919050565b634e487b7160e01b600052604160045260246000fd5b604051610100810167ffffffffffffffff8111828210171561071a5761071a6106e0565b60405290565b604051610160810167ffffffffffffffff8111828210171561071a5761071a6106e0565b604051601f8201601f1916810167ffffffffffffffff8111828210171561076d5761076d6106e0565b604052919050565b805167ffffffffffffffff8116811461043f57600080fd5b805161043f81610608565b600082601f8301126107a957600080fd5b815167ffffffffffffffff8111156107c3576107c36106e0565b6107d6601f8201601f1916602001610744565b8181528460208386010111156107eb57600080fd5b60005b8281101561080a576020818601810151838301820152016107ee565b506000918101602001919091529392505050565b60006040828403121561083057600080fd5b6040805190810167ffffffffffffffff81118282101715610853576108536106e0565b604052825181526020928301519281019290925250919050565b6000610120828403121561088057600080fd5b6108886106f6565b905061089382610775565b81526108a16020830161078d565b6020820152604082015167ffffffffffffffff8111156108c057600080fd5b6108cc84828501610798565b604083015250606082015167ffffffffffffffff8111156108ec57600080fd5b6108f884828501610798565b60608301525061090b836080840161081e565b608082015260c08281015160a083015260e080840151918301919091526101009092015191810191909152919050565b60006020828403121561094d57600080fd5b815167ffffffffffffffff81111561096457600080fd5b6102bf8482850161086d565b60006020828403121561098257600080fd5b815167ffffffffffffffff81111561099957600080fd5b820161018081850312156109ac57600080fd5b6109b4610720565b6109bd82610775565b81526109cb6020830161078d565b6020820152604082015167ffffffffffffffff8111156109ea57600080fd5b6109f686828501610798565b604083015250610a09856060840161081e565b606082015260a082015167ffffffffffffffff811115610a2857600080fd5b610a3486828501610798565b60808301525060c08281015160a083015260e080840151918301919091526101008084015191830191909152610120808401519183019190915261014083015190820152610a85610160830161063d565b610140820152949350505050565b808202811582820484141761035957634e487b7160e01b600052601160045260246000fdfea264697066735822122072ace315f9e5fe52119ba3a98c6bfe5269e1b89e9a148a1ceb7d3653f8f06a3364736f6c634300081b0033",
  "linkReferences": {},
  "deployedLinkReferences": {}
}